{
	"data": {
		"bytecode": {
			"linkReferences": {},
			"object": "608060405234801561001057600080fd5b5061391f806100206000396000f3fe608060405234801561001057600080fd5b50600436106100ea5760003560e01c8063a8237a931161008c578063d65ab5f211610066578063d65ab5f214610261578063e0786c181461026b578063e0a5d89414610289578063fb8a9a0c146102b9576100ea565b8063a8237a93146101f7578063d37d55ca14610227578063d5d19df414610231576100ea565b80636c38f32d116100c85780636c38f32d1461015b5780637f5a96ae1461018b5780639284b80f146101bb57806394fd5e9d146101d9576100ea565b8063267729d1146100ef57806340d1230d1461010d5780635ae0dda91461013d575b600080fd5b6100f76102d7565b604051610104919061271d565b60405180910390f35b610127600480360381019061012291906127ab565b6107cb565b6040516101349190612ad1565b60405180910390f35b610145610aa4565b6040516101529190612afc565b60405180910390f35b610175600480360381019061017091906127ab565b610aad565b6040516101829190612b59565b60405180910390f35b6101a560048036038101906101a091906127ab565b610b5d565b6040516101b29190612de6565b60405180910390f35b6101c3610cf8565b6040516101d09190612e64565b60405180910390f35b6101e1610d4a565b6040516101ee9190612ee1565b60405180910390f35b610211600480360381019061020c9190613092565b610fa7565b60405161021e91906131c8565b60405180910390f35b61022f61115b565b005b61024b600480360381019061024691906127ab565b61116d565b6040516102589190613525565b60405180910390f35b61026961134e565b005b610273611358565b60405161028091906135c5565b60405180910390f35b6102a3600480360381019061029e919061360c565b6113b4565b6040516102b0919061369b565b60405180910390f35b6102c1611462565b6040516102ce91906136c5565b60405180910390f35b6102df611a0c565b6102e7611a39565b6040518060c001604052806001151515158152602001600015151515815260200160001515151581526020016000151515158152602001600015151515815260200160001515151581525081600060058110610346576103456136e0565b5b60200201819052506040518060c0016040528060011515151581526020016000151515158152602001600015151515815260200160001515151581526020016000151515158152602001600015151515815250816001600581106103ad576103ac6136e0565b5b60200201819052506040518060c001604052806001151515158152602001600115151515815260200160001515151581526020016000151515158152602001600015151515815260200160001515151581525081600260058110610414576104136136e0565b5b60200201819052506040518060c00160405280600115151515815260200160011515151581526020016001151515158152602001600015151515815260200160001515151581526020016000151515158152508160036005811061047b5761047a6136e0565b5b60200201819052506040518060c0016040528060011515151581526020016001151515158152602001600115151515815260200160011515151581526020016000151515158152602001600015151515815250816004600581106104e2576104e16136e0565b5b60200201819052506104f2611a39565b6040518060c001604052806000151515158152602001600015151515815260200160001515151581526020016000151515158152602001600115151515815260200160011515151581525081600060058110610551576105506136e0565b5b60200201819052506040518060c0016040528060001515151581526020016000151515158152602001600015151515815260200160001515151581526020016000151515158152602001600115151515815250816001600581106105b8576105b76136e0565b5b60200201819052506040518060c00160405280600015151515815260200160001515151581526020016000151515158152602001600015151515815260200160001515151581526020016001151515158152508160026005811061061f5761061e6136e0565b5b60200201819052506040518060c001604052806000151515158152602001600015151515815260200160001515151581526020016000151515158152602001600015151515815260200160011515151581525081600360058110610686576106856136e0565b5b60200201819052506040518060c0016040528060001515151581526020016000151515158152602001600015151515815260200160001515151581526020016000151515158152602001600115151515815250816004600581106106ed576106ec6136e0565b5b60200201819052506106fd611a0c565b60005b60058160ff1610156107c157838160ff1660058110610722576107216136e0565b5b6020020151828260ff166005811061073d5761073c6136e0565b5b6020020151600060028110610755576107546136e0565b5b6020020181905250828160ff1660058110610773576107726136e0565b5b6020020151828260ff166005811061078e5761078d6136e0565b5b60200201516001600281106107a6576107a56136e0565b5b602002018190525080806107b99061373e565b915050610700565b5080935050505090565b6107d3611a66565b600260008373ffffffffffffffffffffffffffffffffffffffff1673ffffffffffffffffffffffffffffffffffffffff1681526020019081526020016000206040518060c001604052908160008201600380602002604051908101604052809291906000905b828210156108b4578382016006806020026040519081016040528092919082600680156108a0576020028201916000905b82829054906101000a900460ff1615158152602001906001019060208260000104928301926001038202915080841161086a5790505b505050505081526020019060010190610839565b50505050815260200160038201600380602002604051908101604052809291906000905b828210156109535783820160068060200260405190810160405280929190826006801561093f576020028201916000905b82829054906101000a900460ff161515815260200190600101906020826000010492830192600103820291508084116109095790505b5050505050815260200190600101906108d8565b50505050815260200160068201600380602002604051908101604052809291906000905b828210156109f2578382016003806020026040519081016040528092919082600380156109de576020028201916000905b82829054906101000a900460ff161515815260200190600101906020826000010492830192600103820291508084116109a85790505b505050505081526020019060010190610977565b5050505081526020016009820160009054906101000a900460000b60000b60000b81526020016009820160019054906101000a900460ff16151515158152602001600a8201600280602002604051908101604052809291908260028015610a94576020028201916000905b82829054906101000a900460ff1660ff1681526020019060010190602082600001049283019260010382029150808411610a5d5790505b5050505050815250509050919050565b6000600e905090565b610ab5611ab8565b600360008373ffffffffffffffffffffffffffffffffffffffff1673ffffffffffffffffffffffffffffffffffffffff1681526020019081526020016000206040518060600160405290816000820160009054906101000a900460ff1660ff1660ff1681526020016000820160019054906101000a900460ff1660ff1660ff1681526020016000820160029054906101000a900460ff1660ff1660ff16815250509050919050565b610b65611ae2565b6000808373ffffffffffffffffffffffffffffffffffffffff1673ffffffffffffffffffffffffffffffffffffffff16815260200190815260200160002060405180604001604052908160008201600680602002604051908101604052809291906000905b82821015610c7e57838260060201600680602002604051908101604052809291906000905b82821015610c6b57838201600680602002604051908101604052809291908260068015610c57576020028201916000905b82829054906101000a900460ff1660ff1681526020019060010190602082600001049283019260010382029150808411610c205790505b505050505081526020019060010190610bef565b5050505081526020019060010190610bca565b50505050815260200160248201600480602002604051908101604052809291908260048015610ce8576020028201916000905b82829054906101000a900460ff1660ff1681526020019060010190602082600001049283019260010382029150808411610cb15790505b5050505050815250509050919050565b610d00611b08565b6040518060c00160405280600460ff168152602001600460ff168152602001600460ff168152602001600460ff168152602001600460ff168152602001600460ff16815250905090565b610d52611b2a565b610d5a611b2a565b6040518060c00160405280600160ff168152602001600160ff168152602001600060ff168152602001600160ff168152602001600060ff168152602001600060ff1681525081600060068110610db357610db26136e0565b5b60200201819052506040518060c00160405280600160ff168152602001600060ff168152602001600060ff168152602001600160ff168152602001600060ff168152602001600060ff1681525081600160068110610e1457610e136136e0565b5b60200201819052506040518060c00160405280600160ff168152602001600060ff168152602001600160ff168152602001600060ff168152602001600160ff168152602001600060ff1681525081600260068110610e7557610e746136e0565b5b60200201819052506040518060c00160405280600160ff168152602001600160ff168152602001600060ff168152602001600160ff168152602001600060ff168152602001600060ff1681525081600360068110610ed657610ed56136e0565b5b60200201819052506040518060c00160405280600160ff168152602001600060ff168152602001600160ff168152602001600060ff168152602001600160ff168152602001600060ff1681525081600460068110610f3757610f366136e0565b5b60200201819052506040518060c00160405280600160ff168152602001600160ff168152602001600160ff168152602001600060ff168152602001600160ff168152602001600060ff1681525081600560068110610f9857610f976136e0565b5b60200201819052508091505090565b60606000805b84518163ffffffff161015610fdd578180610fc790613768565b9250508080610fd590613768565b915050610fad565b5060005b83518163ffffffff161015611011578180610ffb90613768565b925050808061100990613768565b915050610fe1565b5060008163ffffffff1667ffffffffffffffff81111561103457611033612f13565b5b6040519080825280602002602001820160405280156110625781602001602082028036833780820191505090505b50905060005b85518163ffffffff1610156110de57858163ffffffff16815181106110905761108f6136e0565b5b6020026020010151828263ffffffff16815181106110b1576110b06136e0565b5b602002602001019063ffffffff16908163ffffffff168152505080806110d690613768565b915050611068565b506000855190505b8263ffffffff1681101561114f57848181518110611107576111066136e0565b5b6020026020010151828281518110611122576111216136e0565b5b602002602001019063ffffffff16908163ffffffff1681525050808061114790613795565b9150506110e6565b50809250505092915050565b61116361148a565b61116b61148c565b565b611175611b57565b600160008373ffffffffffffffffffffffffffffffffffffffff1673ffffffffffffffffffffffffffffffffffffffff16815260200190815260200160002060405180606001604052908160008201600680602002604051908101604052809291906000905b8282101561125757838201601080602002604051908101604052809291908260108015611243576020028201916000905b82829054906101000a900460ff1660ff168152602001906001019060208260000104928301926001038202915080841161120c5790505b5050505050815260200190600101906111db565b50505050815260200160068201600a806020026040519081016040528092919082600a80156112c1576020028201916000905b82829054906101000a900460ff1660ff168152602001906001019060208260000104928301926001038202915080841161128a5790505b5050505050815260200160078201600680602002604051908101604052809291906000905b8282101561133f5783826006020160068060200260405190810160405280929190826006801561132b576020028201915b815481526020019060010190808311611317575b5050505050815260200190600101906112e6565b50505050815250509050919050565b61135661148a565b565b611360611b8a565b6040518060e00160405280600260ff168152602001600560ff168152602001600860ff168152602001600b60ff168152602001600e60ff168152602001601160ff168152602001601460ff16815250905090565b6113bc611bac565b6113c4611bac565b60005b6002811015611458576001600682866113e091906137de565b42336040516020016113f493929190613852565b6040516020818303038152906040528051906020012060001c61141791906138b8565b61142191906137de565b828260028110611434576114336136e0565b5b602002019060ff16908160ff1681525050808061145090613795565b9150506113c7565b5080915050919050565b60007ffffffffffffffffffffffffffffffffffffffffffffffffffffffffffffffffa905090565b565b6001600460003373ffffffffffffffffffffffffffffffffffffffff1673ffffffffffffffffffffffffffffffffffffffff16815260200190815260200160002060006101000a81548160ff0219169083151502179055506114ec611bce565b806000803373ffffffffffffffffffffffffffffffffffffffff1673ffffffffffffffffffffffffffffffffffffffff16815260200190815260200160002060000190600661153c929190611bfb565b506040518060800160405280600060ff168152602001600060ff168152602001600060ff168152602001600060ff168152506000803373ffffffffffffffffffffffffffffffffffffffff1673ffffffffffffffffffffffffffffffffffffffff1681526020019081526020016000206024019060046115bd929190611c4b565b506115c6611ce5565b80600160003373ffffffffffffffffffffffffffffffffffffffff1673ffffffffffffffffffffffffffffffffffffffff168152602001908152602001600020600001906006611617929190611d12565b50611620611d60565b80600160003373ffffffffffffffffffffffffffffffffffffffff1673ffffffffffffffffffffffffffffffffffffffff16815260200190815260200160002060060190600a611671929190611d83565b5061167a611e1d565b80600160003373ffffffffffffffffffffffffffffffffffffffff1673ffffffffffffffffffffffffffffffffffffffff1681526020019081526020016000206007019060066116cb929190611e4a565b506116d4611e9a565b80600260003373ffffffffffffffffffffffffffffffffffffffff1673ffffffffffffffffffffffffffffffffffffffff168152602001908152602001600020600001906003611725929190611ec7565b5061172e611e9a565b80600260003373ffffffffffffffffffffffffffffffffffffffff1673ffffffffffffffffffffffffffffffffffffffff16815260200190815260200160002060030190600361177f929190611ec7565b50611788611f15565b80600260003373ffffffffffffffffffffffffffffffffffffffff1673ffffffffffffffffffffffffffffffffffffffff1681526020019081526020016000206006019060036117d9929190611f42565b506000600260003373ffffffffffffffffffffffffffffffffffffffff1673ffffffffffffffffffffffffffffffffffffffff16815260200190815260200160002060090160006101000a81548160ff021916908360000b60ff1602179055506000600260003373ffffffffffffffffffffffffffffffffffffffff1673ffffffffffffffffffffffffffffffffffffffff16815260200190815260200160002060090160016101000a81548160ff02191690831515021790555061189c611bac565b80600260003373ffffffffffffffffffffffffffffffffffffffff1673ffffffffffffffffffffffffffffffffffffffff168152602001908152602001600020600a019060026118ed929190611f90565b506000600360003373ffffffffffffffffffffffffffffffffffffffff1673ffffffffffffffffffffffffffffffffffffffff16815260200190815260200160002060000160006101000a81548160ff021916908360ff1602179055506000600360003373ffffffffffffffffffffffffffffffffffffffff1673ffffffffffffffffffffffffffffffffffffffff16815260200190815260200160002060000160016101000a81548160ff021916908360ff1602179055506000600360003373ffffffffffffffffffffffffffffffffffffffff1673ffffffffffffffffffffffffffffffffffffffff16815260200190815260200160002060000160026101000a81548160ff021916908360ff1602179055505050505050505050565b6040518060a001604052806005905b611a2361202a565b815260200190600190039081611a1b5790505090565b6040518060a001604052806005905b611a50612057565b815260200190600190039081611a485790505090565b6040518060c00160405280611a79611e9a565b8152602001611a86611e9a565b8152602001611a93611f15565b81526020016000800b8152602001600015158152602001611ab2611bac565b81525090565b6040518060600160405280600060ff168152602001600060ff168152602001600060ff1681525090565b6040518060400160405280611af5611bce565b8152602001611b02612079565b81525090565b6040518060c00160405280600690602082028036833780820191505090505090565b6040518060c001604052806006905b611b41611b08565b815260200190600190039081611b395790505090565b6040518060600160405280611b6a611ce5565b8152602001611b77611d60565b8152602001611b84611e1d565b81525090565b6040518060e00160405280600790602082028036833780820191505090505090565b6040518060400160405280600290602082028036833780820191505090505090565b6040518060c001604052806006905b611be5611b2a565b815260200190600190039081611bdd5790505090565b82600680028101928215611c3a579160200282015b82811115611c3957825182906006611c2992919061209b565b5091602001919060060190611c10565b5b509050611c4791906120e9565b5090565b826004601f01602090048101928215611cd45791602002820160005b83821115611ca557835183826101000a81548160ff021916908360ff1602179055509260200192600101602081600001049283019260010302611c67565b8015611cd25782816101000a81549060ff0219169055600101602081600001049283019260010302611ca5565b505b509050611ce1919061210d565b5090565b6040518060c001604052806006905b611cfc61212a565b815260200190600190039081611cf45790505090565b8260068101928215611d4f579160200282015b82811115611d4e57825182906010611d3e92919061214d565b5091602001919060010190611d25565b5b509050611d5c91906121e7565b5090565b604051806101400160405280600a90602082028036833780820191505090505090565b82600a601f01602090048101928215611e0c5791602002820160005b83821115611ddd57835183826101000a81548160ff021916908360ff1602179055509260200192600101602081600001049283019260010302611d9f565b8015611e0a5782816101000a81549060ff0219169055600101602081600001049283019260010302611ddd565b505b509050611e19919061210d565b5090565b6040518060c001604052806006905b611e3461220b565b815260200190600190039081611e2c5790505090565b82600680028101928215611e89579160200282015b82811115611e8857825182906006611e7892919061222d565b5091602001919060060190611e5f565b5b509050611e96919061226d565b5090565b60405180606001604052806003905b611eb1612057565b815260200190600190039081611ea95790505090565b8260038101928215611f04579160200282015b82811115611f0357825182906006611ef3929190612291565b5091602001919060010190611eda565b5b509050611f11919061232a565b5090565b60405180606001604052806003905b611f2c61234e565b815260200190600190039081611f245790505090565b8260038101928215611f7f579160200282015b82811115611f7e57825182906003611f6e929190612370565b5091602001919060010190611f55565b5b509050611f8c9190612409565b5090565b826002601f016020900481019282156120195791602002820160005b83821115611fea57835183826101000a81548160ff021916908360ff1602179055509260200192600101602081600001049283019260010302611fac565b80156120175782816101000a81549060ff0219169055600101602081600001049283019260010302611fea565b505b509050612026919061210d565b5090565b60405180604001604052806002905b612041612057565b8152602001906001900390816120395790505090565b6040518060c00160405280600690602082028036833780820191505090505090565b6040518060800160405280600490602082028036833780820191505090505090565b82600681019282156120d8579160200282015b828111156120d7578251829060066120c792919061242d565b50916020019190600101906120ae565b5b5090506120e591906124c7565b5090565b5b80821115612109576000818161210091906124eb565b506006016120ea565b5090565b5b8082111561212657600081600090555060010161210e565b5090565b604051806102000160405280601090602082028036833780820191505090505090565b826010601f016020900481019282156121d65791602002820160005b838211156121a757835183826101000a81548160ff021916908360ff1602179055509260200192600101602081600001049283019260010302612169565b80156121d45782816101000a81549060ff02191690556001016020816000010492830192600103026121a7565b505b5090506121e3919061210d565b5090565b5b8082111561220757600081816121fe91906124fe565b506001016121e8565b5090565b6040518060c00160405280600690602082028036833780820191505090505090565b826006810192821561225c579160200282015b8281111561225b578251825591602001919060010190612240565b5b509050612269919061210d565b5090565b5b8082111561228d57600081816122849190612505565b5060060161226e565b5090565b826006601f016020900481019282156123195791602002820160005b838211156122ea57835183826101000a81548160ff02191690831515021790555092602001926001016020816000010492830192600103026122ad565b80156123175782816101000a81549060ff02191690556001016020816000010492830192600103026122ea565b505b509050612326919061210d565b5090565b5b8082111561234a57600081816123419190612518565b5060010161232b565b5090565b6040518060600160405280600390602082028036833780820191505090505090565b826003601f016020900481019282156123f85791602002820160005b838211156123c957835183826101000a81548160ff021916908315150217905550926020019260010160208160000104928301926001030261238c565b80156123f65782816101000a81549060ff02191690556001016020816000010492830192600103026123c9565b505b509050612405919061210d565b5090565b5b808211156124295760008181612420919061251f565b5060010161240a565b5090565b826006601f016020900481019282156124b65791602002820160005b8382111561248757835183826101000a81548160ff021916908360ff1602179055509260200192600101602081600001049283019260010302612449565b80156124b45782816101000a81549060ff0219169055600101602081600001049283019260010302612487565b505b5090506124c3919061210d565b5090565b5b808211156124e757600081816124de9190612526565b506001016124c8565b5090565b5080600601906124fb91906124c7565b50565b5060009055565b508060060190612515919061210d565b50565b5060009055565b5060009055565b5060009055565b600060059050919050565b600081905092915050565b6000819050919050565b600060029050919050565b600081905092915050565b6000819050919050565b600060069050919050565b600081905092915050565b6000819050919050565b60008115159050919050565b6125a28161258d565b82525050565b60006125b48383612599565b60208301905092915050565b6000602082019050919050565b6125d68161256d565b6125e08184612578565b92506125eb82612583565b8060005b8381101561261c57815161260387826125a8565b965061260e836125c0565b9250506001810190506125ef565b505050505050565b600061263083836125cd565b60c08301905092915050565b6000602082019050919050565b6126528161254d565b61265c8184612558565b925061266782612563565b8060005b8381101561269857815161267f8782612624565b965061268a8361263c565b92505060018101905061266b565b505050505050565b60006126ac8383612649565b6101808301905092915050565b6000602082019050919050565b6126cf8161252d565b6126d98184612538565b92506126e482612543565b8060005b838110156127155781516126fc87826126a0565b9650612707836126b9565b9250506001810190506126e8565b505050505050565b60006107808201905061273360008301846126c6565b92915050565b6000604051905090565b600080fd5b600080fd5b600073ffffffffffffffffffffffffffffffffffffffff82169050919050565b60006127788261274d565b9050919050565b6127888161276d565b811461279357600080fd5b50565b6000813590506127a58161277f565b92915050565b6000602082840312156127c1576127c0612743565b5b60006127cf84828501612796565b91505092915050565b600060039050919050565b600081905092915050565b6000819050919050565b6000602082019050919050565b61280e816127d8565b61281881846127e3565b9250612823826127ee565b8060005b8381101561285457815161283b8782612624565b9650612846836127f8565b925050600181019050612827565b505050505050565b600060039050919050565b600081905092915050565b6000819050919050565b600060039050919050565b600081905092915050565b6000819050919050565b6000602082019050919050565b6128b28161287c565b6128bc8184612887565b92506128c782612892565b8060005b838110156128f85781516128df87826125a8565b96506128ea8361289c565b9250506001810190506128cb565b505050505050565b600061290c83836128a9565b60608301905092915050565b6000602082019050919050565b61292e8161285c565b6129388184612867565b925061294382612872565b8060005b8381101561297457815161295b8782612900565b965061296683612918565b925050600181019050612947565b505050505050565b60008160000b9050919050565b6129928161297c565b82525050565b600060029050919050565b600081905092915050565b6000819050919050565b600060ff82169050919050565b6129ce816129b8565b82525050565b60006129e083836129c5565b60208301905092915050565b6000602082019050919050565b612a0281612998565b612a0c81846129a3565b9250612a17826129ae565b8060005b83811015612a48578151612a2f87826129d4565b9650612a3a836129ec565b925050600181019050612a1b565b505050505050565b61062082016000820151612a676000850182612805565b506020820151612a7b610240850182612805565b506040820151612a8f610480850182612925565b506060820151612aa36105a0850182612989565b506080820151612ab76105c0850182612599565b5060a0820151612acb6105e08501826129f9565b50505050565b600061062082019050612ae76000830184612a50565b92915050565b612af6816129b8565b82525050565b6000602082019050612b116000830184612aed565b92915050565b606082016000820151612b2d60008501826129c5565b506020820151612b4060208501826129c5565b506040820151612b5360408501826129c5565b50505050565b6000606082019050612b6e6000830184612b17565b92915050565b600060069050919050565b600081905092915050565b6000819050919050565b600060069050919050565b600081905092915050565b6000819050919050565b600060069050919050565b600081905092915050565b6000819050919050565b6000602082019050919050565b612bea81612bb4565b612bf48184612bbf565b9250612bff82612bca565b8060005b83811015612c30578151612c1787826129d4565b9650612c2283612bd4565b925050600181019050612c03565b505050505050565b6000612c448383612be1565b60c08301905092915050565b6000602082019050919050565b612c6681612b94565b612c708184612b9f565b9250612c7b82612baa565b8060005b83811015612cac578151612c938782612c38565b9650612c9e83612c50565b925050600181019050612c7f565b505050505050565b6000612cc08383612c5d565b6104808301905092915050565b6000602082019050919050565b612ce381612b74565b612ced8184612b7f565b9250612cf882612b8a565b8060005b83811015612d29578151612d108782612cb4565b9650612d1b83612ccd565b925050600181019050612cfc565b505050505050565b600060049050919050565b600081905092915050565b6000819050919050565b6000602082019050919050565b612d6781612d31565b612d718184612d3c565b9250612d7c82612d47565b8060005b83811015612dad578151612d9487826129d4565b9650612d9f83612d51565b925050600181019050612d80565b505050505050565b611b8082016000820151612dcc6000850182612cda565b506020820151612de0611b00850182612d5e565b50505050565b6000611b8082019050612dfc6000830184612db5565b92915050565b600081905092915050565b612e1681612bb4565b612e208184612e02565b9250612e2b82612bca565b8060005b83811015612e5c578151612e4387826129d4565b9650612e4e83612bd4565b925050600181019050612e2f565b505050505050565b600060c082019050612e796000830184612e0d565b92915050565b600081905092915050565b612e9381612b94565b612e9d8184612e7f565b9250612ea882612baa565b8060005b83811015612ed9578151612ec08782612c38565b9650612ecb83612c50565b925050600181019050612eac565b505050505050565b600061048082019050612ef76000830184612e8a565b92915050565b600080fd5b6000601f19601f8301169050919050565b7f4e487b7100000000000000000000000000000000000000000000000000000000600052604160045260246000fd5b612f4b82612f02565b810181811067ffffffffffffffff82111715612f6a57612f69612f13565b5b80604052505050565b6000612f7d612739565b9050612f898282612f42565b919050565b600067ffffffffffffffff821115612fa957612fa8612f13565b5b602082029050602081019050919050565b600080fd5b600063ffffffff82169050919050565b612fd881612fbf565b8114612fe357600080fd5b50565b600081359050612ff581612fcf565b92915050565b600061300e61300984612f8e565b612f73565b9050808382526020820190506020840283018581111561303157613030612fba565b5b835b8181101561305a57806130468882612fe6565b845260208401935050602081019050613033565b5050509392505050565b600082601f83011261307957613078612efd565b5b8135613089848260208601612ffb565b91505092915050565b600080604083850312156130a9576130a8612743565b5b600083013567ffffffffffffffff8111156130c7576130c6612748565b5b6130d385828601613064565b925050602083013567ffffffffffffffff8111156130f4576130f3612748565b5b61310085828601613064565b9150509250929050565b600081519050919050565b600082825260208201905092915050565b6000819050602082019050919050565b61313f81612fbf565b82525050565b60006131518383613136565b60208301905092915050565b6000602082019050919050565b60006131758261310a565b61317f8185613115565b935061318a83613126565b8060005b838110156131bb5781516131a28882613145565b97506131ad8361315d565b92505060018101905061318e565b5085935050505092915050565b600060208201905081810360008301526131e2818461316a565b905092915050565b600060069050919050565b600081905092915050565b6000819050919050565b600060109050919050565b600081905092915050565b6000819050919050565b6000602082019050919050565b6132408161320a565b61324a8184613215565b925061325582613220565b8060005b8381101561328657815161326d87826129d4565b96506132788361322a565b925050600181019050613259565b505050505050565b600061329a8383613237565b6102008301905092915050565b6000602082019050919050565b6132bd816131ea565b6132c781846131f5565b92506132d282613200565b8060005b838110156133035781516132ea878261328e565b96506132f5836132a7565b9250506001810190506132d6565b505050505050565b6000600a9050919050565b600081905092915050565b6000819050919050565b6000602082019050919050565b6133418161330b565b61334b8184613316565b925061335682613321565b8060005b8381101561338757815161336e87826129d4565b96506133798361332b565b92505060018101905061335a565b505050505050565b600060069050919050565b600081905092915050565b6000819050919050565b600060069050919050565b600081905092915050565b6000819050919050565b6000819050919050565b6133e2816133cf565b82525050565b60006133f483836133d9565b60208301905092915050565b6000602082019050919050565b613416816133af565b61342081846133ba565b925061342b826133c5565b8060005b8381101561345c57815161344387826133e8565b965061344e83613400565b92505060018101905061342f565b505050505050565b6000613470838361340d565b60c08301905092915050565b6000602082019050919050565b6134928161338f565b61349c818461339a565b92506134a7826133a5565b8060005b838110156134d85781516134bf8782613464565b96506134ca8361347c565b9250506001810190506134ab565b505050505050565b6111c0820160008201516134f760008501826132b4565b50602082015161350b610c00850182613338565b50604082015161351f610d40850182613489565b50505050565b60006111c08201905061353b60008301846134e0565b92915050565b600060079050919050565b600081905092915050565b6000819050919050565b6000602082019050919050565b61357781613541565b613581818461354c565b925061358c82613557565b8060005b838110156135bd5781516135a487826129d4565b96506135af83613561565b925050600181019050613590565b505050505050565b600060e0820190506135da600083018461356e565b92915050565b6135e9816133cf565b81146135f457600080fd5b50565b600081359050613606816135e0565b92915050565b60006020828403121561362257613621612743565b5b6000613630848285016135f7565b91505092915050565b600081905092915050565b61364d81612998565b6136578184613639565b9250613662826129ae565b8060005b8381101561369357815161367a87826129d4565b9650613685836129ec565b925050600181019050613666565b505050505050565b60006040820190506136b06000830184613644565b92915050565b6136bf8161297c565b82525050565b60006020820190506136da60008301846136b6565b92915050565b7f4e487b7100000000000000000000000000000000000000000000000000000000600052603260045260246000fd5b7f4e487b7100000000000000000000000000000000000000000000000000000000600052601160045260246000fd5b6000613749826129b8565b915060ff82141561375d5761375c61370f565b5b600182019050919050565b600061377382612fbf565b915063ffffffff82141561378a5761378961370f565b5b600182019050919050565b60006137a0826133cf565b91507fffffffffffffffffffffffffffffffffffffffffffffffffffffffffffffffff8214156137d3576137d261370f565b5b600182019050919050565b60006137e9826133cf565b91506137f4836133cf565b9250827fffffffffffffffffffffffffffffffffffffffffffffffffffffffffffffffff038211156138295761382861370f565b5b828201905092915050565b61383d816133cf565b82525050565b61384c8161276d565b82525050565b60006060820190506138676000830186613834565b6138746020830185613834565b6138816040830184613843565b949350505050565b7f4e487b7100000000000000000000000000000000000000000000000000000000600052601260045260246000fd5b60006138c3826133cf565b91506138ce836133cf565b9250826138de576138dd613889565b5b82820690509291505056fea2646970667358221220dbcf7faf62b24aff769cb3f7f976a10bdcd08935cd69d61e9ab11063ae34184b64736f6c634300080b0033",
			"opcodes": "PUSH1 0x80 PUSH1 0x40 MSTORE CALLVALUE DUP1 ISZERO PUSH2 0x10 JUMPI PUSH1 0x0 DUP1 REVERT JUMPDEST POP PUSH2 0x391F DUP1 PUSH2 0x20 PUSH1 0x0 CODECOPY PUSH1 0x0 RETURN INVALID PUSH1 0x80 PUSH1 0x40 MSTORE CALLVALUE DUP1 ISZERO PUSH2 0x10 JUMPI PUSH1 0x0 DUP1 REVERT JUMPDEST POP PUSH1 0x4 CALLDATASIZE LT PUSH2 0xEA JUMPI PUSH1 0x0 CALLDATALOAD PUSH1 0xE0 SHR DUP1 PUSH4 0xA8237A93 GT PUSH2 0x8C JUMPI DUP1 PUSH4 0xD65AB5F2 GT PUSH2 0x66 JUMPI DUP1 PUSH4 0xD65AB5F2 EQ PUSH2 0x261 JUMPI DUP1 PUSH4 0xE0786C18 EQ PUSH2 0x26B JUMPI DUP1 PUSH4 0xE0A5D894 EQ PUSH2 0x289 JUMPI DUP1 PUSH4 0xFB8A9A0C EQ PUSH2 0x2B9 JUMPI PUSH2 0xEA JUMP JUMPDEST DUP1 PUSH4 0xA8237A93 EQ PUSH2 0x1F7 JUMPI DUP1 PUSH4 0xD37D55CA EQ PUSH2 0x227 JUMPI DUP1 PUSH4 0xD5D19DF4 EQ PUSH2 0x231 JUMPI PUSH2 0xEA JUMP JUMPDEST DUP1 PUSH4 0x6C38F32D GT PUSH2 0xC8 JUMPI DUP1 PUSH4 0x6C38F32D EQ PUSH2 0x15B JUMPI DUP1 PUSH4 0x7F5A96AE EQ PUSH2 0x18B JUMPI DUP1 PUSH4 0x9284B80F EQ PUSH2 0x1BB JUMPI DUP1 PUSH4 0x94FD5E9D EQ PUSH2 0x1D9 JUMPI PUSH2 0xEA JUMP JUMPDEST DUP1 PUSH4 0x267729D1 EQ PUSH2 0xEF JUMPI DUP1 PUSH4 0x40D1230D EQ PUSH2 0x10D JUMPI DUP1 PUSH4 0x5AE0DDA9 EQ PUSH2 0x13D JUMPI JUMPDEST PUSH1 0x0 DUP1 REVERT JUMPDEST PUSH2 0xF7 PUSH2 0x2D7 JUMP JUMPDEST PUSH1 0x40 MLOAD PUSH2 0x104 SWAP2 SWAP1 PUSH2 0x271D JUMP JUMPDEST PUSH1 0x40 MLOAD DUP1 SWAP2 SUB SWAP1 RETURN JUMPDEST PUSH2 0x127 PUSH1 0x4 DUP1 CALLDATASIZE SUB DUP2 ADD SWAP1 PUSH2 0x122 SWAP2 SWAP1 PUSH2 0x27AB JUMP JUMPDEST PUSH2 0x7CB JUMP JUMPDEST PUSH1 0x40 MLOAD PUSH2 0x134 SWAP2 SWAP1 PUSH2 0x2AD1 JUMP JUMPDEST PUSH1 0x40 MLOAD DUP1 SWAP2 SUB SWAP1 RETURN JUMPDEST PUSH2 0x145 PUSH2 0xAA4 JUMP JUMPDEST PUSH1 0x40 MLOAD PUSH2 0x152 SWAP2 SWAP1 PUSH2 0x2AFC JUMP JUMPDEST PUSH1 0x40 MLOAD DUP1 SWAP2 SUB SWAP1 RETURN JUMPDEST PUSH2 0x175 PUSH1 0x4 DUP1 CALLDATASIZE SUB DUP2 ADD SWAP1 PUSH2 0x170 SWAP2 SWAP1 PUSH2 0x27AB JUMP JUMPDEST PUSH2 0xAAD JUMP JUMPDEST PUSH1 0x40 MLOAD PUSH2 0x182 SWAP2 SWAP1 PUSH2 0x2B59 JUMP JUMPDEST PUSH1 0x40 MLOAD DUP1 SWAP2 SUB SWAP1 RETURN JUMPDEST PUSH2 0x1A5 PUSH1 0x4 DUP1 CALLDATASIZE SUB DUP2 ADD SWAP1 PUSH2 0x1A0 SWAP2 SWAP1 PUSH2 0x27AB JUMP JUMPDEST PUSH2 0xB5D JUMP JUMPDEST PUSH1 0x40 MLOAD PUSH2 0x1B2 SWAP2 SWAP1 PUSH2 0x2DE6 JUMP JUMPDEST PUSH1 0x40 MLOAD DUP1 SWAP2 SUB SWAP1 RETURN JUMPDEST PUSH2 0x1C3 PUSH2 0xCF8 JUMP JUMPDEST PUSH1 0x40 MLOAD PUSH2 0x1D0 SWAP2 SWAP1 PUSH2 0x2E64 JUMP JUMPDEST PUSH1 0x40 MLOAD DUP1 SWAP2 SUB SWAP1 RETURN JUMPDEST PUSH2 0x1E1 PUSH2 0xD4A JUMP JUMPDEST PUSH1 0x40 MLOAD PUSH2 0x1EE SWAP2 SWAP1 PUSH2 0x2EE1 JUMP JUMPDEST PUSH1 0x40 MLOAD DUP1 SWAP2 SUB SWAP1 RETURN JUMPDEST PUSH2 0x211 PUSH1 0x4 DUP1 CALLDATASIZE SUB DUP2 ADD SWAP1 PUSH2 0x20C SWAP2 SWAP1 PUSH2 0x3092 JUMP JUMPDEST PUSH2 0xFA7 JUMP JUMPDEST PUSH1 0x40 MLOAD PUSH2 0x21E SWAP2 SWAP1 PUSH2 0x31C8 JUMP JUMPDEST PUSH1 0x40 MLOAD DUP1 SWAP2 SUB SWAP1 RETURN JUMPDEST PUSH2 0x22F PUSH2 0x115B JUMP JUMPDEST STOP JUMPDEST PUSH2 0x24B PUSH1 0x4 DUP1 CALLDATASIZE SUB DUP2 ADD SWAP1 PUSH2 0x246 SWAP2 SWAP1 PUSH2 0x27AB JUMP JUMPDEST PUSH2 0x116D JUMP JUMPDEST PUSH1 0x40 MLOAD PUSH2 0x258 SWAP2 SWAP1 PUSH2 0x3525 JUMP JUMPDEST PUSH1 0x40 MLOAD DUP1 SWAP2 SUB SWAP1 RETURN JUMPDEST PUSH2 0x269 PUSH2 0x134E JUMP JUMPDEST STOP JUMPDEST PUSH2 0x273 PUSH2 0x1358 JUMP JUMPDEST PUSH1 0x40 MLOAD PUSH2 0x280 SWAP2 SWAP1 PUSH2 0x35C5 JUMP JUMPDEST PUSH1 0x40 MLOAD DUP1 SWAP2 SUB SWAP1 RETURN JUMPDEST PUSH2 0x2A3 PUSH1 0x4 DUP1 CALLDATASIZE SUB DUP2 ADD SWAP1 PUSH2 0x29E SWAP2 SWAP1 PUSH2 0x360C JUMP JUMPDEST PUSH2 0x13B4 JUMP JUMPDEST PUSH1 0x40 MLOAD PUSH2 0x2B0 SWAP2 SWAP1 PUSH2 0x369B JUMP JUMPDEST PUSH1 0x40 MLOAD DUP1 SWAP2 SUB SWAP1 RETURN JUMPDEST PUSH2 0x2C1 PUSH2 0x1462 JUMP JUMPDEST PUSH1 0x40 MLOAD PUSH2 0x2CE SWAP2 SWAP1 PUSH2 0x36C5 JUMP JUMPDEST PUSH1 0x40 MLOAD DUP1 SWAP2 SUB SWAP1 RETURN JUMPDEST PUSH2 0x2DF PUSH2 0x1A0C JUMP JUMPDEST PUSH2 0x2E7 PUSH2 0x1A39 JUMP JUMPDEST PUSH1 0x40 MLOAD DUP1 PUSH1 0xC0 ADD PUSH1 0x40 MSTORE DUP1 PUSH1 0x1 ISZERO ISZERO ISZERO ISZERO DUP2 MSTORE PUSH1 0x20 ADD PUSH1 0x0 ISZERO ISZERO ISZERO ISZERO DUP2 MSTORE PUSH1 0x20 ADD PUSH1 0x0 ISZERO ISZERO ISZERO ISZERO DUP2 MSTORE PUSH1 0x20 ADD PUSH1 0x0 ISZERO ISZERO ISZERO ISZERO DUP2 MSTORE PUSH1 0x20 ADD PUSH1 0x0 ISZERO ISZERO ISZERO ISZERO DUP2 MSTORE PUSH1 0x20 ADD PUSH1 0x0 ISZERO ISZERO ISZERO ISZERO DUP2 MSTORE POP DUP2 PUSH1 0x0 PUSH1 0x5 DUP2 LT PUSH2 0x346 JUMPI PUSH2 0x345 PUSH2 0x36E0 JUMP JUMPDEST JUMPDEST PUSH1 0x20 MUL ADD DUP2 SWAP1 MSTORE POP PUSH1 0x40 MLOAD DUP1 PUSH1 0xC0 ADD PUSH1 0x40 MSTORE DUP1 PUSH1 0x1 ISZERO ISZERO ISZERO ISZERO DUP2 MSTORE PUSH1 0x20 ADD PUSH1 0x0 ISZERO ISZERO ISZERO ISZERO DUP2 MSTORE PUSH1 0x20 ADD PUSH1 0x0 ISZERO ISZERO ISZERO ISZERO DUP2 MSTORE PUSH1 0x20 ADD PUSH1 0x0 ISZERO ISZERO ISZERO ISZERO DUP2 MSTORE PUSH1 0x20 ADD PUSH1 0x0 ISZERO ISZERO ISZERO ISZERO DUP2 MSTORE PUSH1 0x20 ADD PUSH1 0x0 ISZERO ISZERO ISZERO ISZERO DUP2 MSTORE POP DUP2 PUSH1 0x1 PUSH1 0x5 DUP2 LT PUSH2 0x3AD JUMPI PUSH2 0x3AC PUSH2 0x36E0 JUMP JUMPDEST JUMPDEST PUSH1 0x20 MUL ADD DUP2 SWAP1 MSTORE POP PUSH1 0x40 MLOAD DUP1 PUSH1 0xC0 ADD PUSH1 0x40 MSTORE DUP1 PUSH1 0x1 ISZERO ISZERO ISZERO ISZERO DUP2 MSTORE PUSH1 0x20 ADD PUSH1 0x1 ISZERO ISZERO ISZERO ISZERO DUP2 MSTORE PUSH1 0x20 ADD PUSH1 0x0 ISZERO ISZERO ISZERO ISZERO DUP2 MSTORE PUSH1 0x20 ADD PUSH1 0x0 ISZERO ISZERO ISZERO ISZERO DUP2 MSTORE PUSH1 0x20 ADD PUSH1 0x0 ISZERO ISZERO ISZERO ISZERO DUP2 MSTORE PUSH1 0x20 ADD PUSH1 0x0 ISZERO ISZERO ISZERO ISZERO DUP2 MSTORE POP DUP2 PUSH1 0x2 PUSH1 0x5 DUP2 LT PUSH2 0x414 JUMPI PUSH2 0x413 PUSH2 0x36E0 JUMP JUMPDEST JUMPDEST PUSH1 0x20 MUL ADD DUP2 SWAP1 MSTORE POP PUSH1 0x40 MLOAD DUP1 PUSH1 0xC0 ADD PUSH1 0x40 MSTORE DUP1 PUSH1 0x1 ISZERO ISZERO ISZERO ISZERO DUP2 MSTORE PUSH1 0x20 ADD PUSH1 0x1 ISZERO ISZERO ISZERO ISZERO DUP2 MSTORE PUSH1 0x20 ADD PUSH1 0x1 ISZERO ISZERO ISZERO ISZERO DUP2 MSTORE PUSH1 0x20 ADD PUSH1 0x0 ISZERO ISZERO ISZERO ISZERO DUP2 MSTORE PUSH1 0x20 ADD PUSH1 0x0 ISZERO ISZERO ISZERO ISZERO DUP2 MSTORE PUSH1 0x20 ADD PUSH1 0x0 ISZERO ISZERO ISZERO ISZERO DUP2 MSTORE POP DUP2 PUSH1 0x3 PUSH1 0x5 DUP2 LT PUSH2 0x47B JUMPI PUSH2 0x47A PUSH2 0x36E0 JUMP JUMPDEST JUMPDEST PUSH1 0x20 MUL ADD DUP2 SWAP1 MSTORE POP PUSH1 0x40 MLOAD DUP1 PUSH1 0xC0 ADD PUSH1 0x40 MSTORE DUP1 PUSH1 0x1 ISZERO ISZERO ISZERO ISZERO DUP2 MSTORE PUSH1 0x20 ADD PUSH1 0x1 ISZERO ISZERO ISZERO ISZERO DUP2 MSTORE PUSH1 0x20 ADD PUSH1 0x1 ISZERO ISZERO ISZERO ISZERO DUP2 MSTORE PUSH1 0x20 ADD PUSH1 0x1 ISZERO ISZERO ISZERO ISZERO DUP2 MSTORE PUSH1 0x20 ADD PUSH1 0x0 ISZERO ISZERO ISZERO ISZERO DUP2 MSTORE PUSH1 0x20 ADD PUSH1 0x0 ISZERO ISZERO ISZERO ISZERO DUP2 MSTORE POP DUP2 PUSH1 0x4 PUSH1 0x5 DUP2 LT PUSH2 0x4E2 JUMPI PUSH2 0x4E1 PUSH2 0x36E0 JUMP JUMPDEST JUMPDEST PUSH1 0x20 MUL ADD DUP2 SWAP1 MSTORE POP PUSH2 0x4F2 PUSH2 0x1A39 JUMP JUMPDEST PUSH1 0x40 MLOAD DUP1 PUSH1 0xC0 ADD PUSH1 0x40 MSTORE DUP1 PUSH1 0x0 ISZERO ISZERO ISZERO ISZERO DUP2 MSTORE PUSH1 0x20 ADD PUSH1 0x0 ISZERO ISZERO ISZERO ISZERO DUP2 MSTORE PUSH1 0x20 ADD PUSH1 0x0 ISZERO ISZERO ISZERO ISZERO DUP2 MSTORE PUSH1 0x20 ADD PUSH1 0x0 ISZERO ISZERO ISZERO ISZERO DUP2 MSTORE PUSH1 0x20 ADD PUSH1 0x1 ISZERO ISZERO ISZERO ISZERO DUP2 MSTORE PUSH1 0x20 ADD PUSH1 0x1 ISZERO ISZERO ISZERO ISZERO DUP2 MSTORE POP DUP2 PUSH1 0x0 PUSH1 0x5 DUP2 LT PUSH2 0x551 JUMPI PUSH2 0x550 PUSH2 0x36E0 JUMP JUMPDEST JUMPDEST PUSH1 0x20 MUL ADD DUP2 SWAP1 MSTORE POP PUSH1 0x40 MLOAD DUP1 PUSH1 0xC0 ADD PUSH1 0x40 MSTORE DUP1 PUSH1 0x0 ISZERO ISZERO ISZERO ISZERO DUP2 MSTORE PUSH1 0x20 ADD PUSH1 0x0 ISZERO ISZERO ISZERO ISZERO DUP2 MSTORE PUSH1 0x20 ADD PUSH1 0x0 ISZERO ISZERO ISZERO ISZERO DUP2 MSTORE PUSH1 0x20 ADD PUSH1 0x0 ISZERO ISZERO ISZERO ISZERO DUP2 MSTORE PUSH1 0x20 ADD PUSH1 0x0 ISZERO ISZERO ISZERO ISZERO DUP2 MSTORE PUSH1 0x20 ADD PUSH1 0x1 ISZERO ISZERO ISZERO ISZERO DUP2 MSTORE POP DUP2 PUSH1 0x1 PUSH1 0x5 DUP2 LT PUSH2 0x5B8 JUMPI PUSH2 0x5B7 PUSH2 0x36E0 JUMP JUMPDEST JUMPDEST PUSH1 0x20 MUL ADD DUP2 SWAP1 MSTORE POP PUSH1 0x40 MLOAD DUP1 PUSH1 0xC0 ADD PUSH1 0x40 MSTORE DUP1 PUSH1 0x0 ISZERO ISZERO ISZERO ISZERO DUP2 MSTORE PUSH1 0x20 ADD PUSH1 0x0 ISZERO ISZERO ISZERO ISZERO DUP2 MSTORE PUSH1 0x20 ADD PUSH1 0x0 ISZERO ISZERO ISZERO ISZERO DUP2 MSTORE PUSH1 0x20 ADD PUSH1 0x0 ISZERO ISZERO ISZERO ISZERO DUP2 MSTORE PUSH1 0x20 ADD PUSH1 0x0 ISZERO ISZERO ISZERO ISZERO DUP2 MSTORE PUSH1 0x20 ADD PUSH1 0x1 ISZERO ISZERO ISZERO ISZERO DUP2 MSTORE POP DUP2 PUSH1 0x2 PUSH1 0x5 DUP2 LT PUSH2 0x61F JUMPI PUSH2 0x61E PUSH2 0x36E0 JUMP JUMPDEST JUMPDEST PUSH1 0x20 MUL ADD DUP2 SWAP1 MSTORE POP PUSH1 0x40 MLOAD DUP1 PUSH1 0xC0 ADD PUSH1 0x40 MSTORE DUP1 PUSH1 0x0 ISZERO ISZERO ISZERO ISZERO DUP2 MSTORE PUSH1 0x20 ADD PUSH1 0x0 ISZERO ISZERO ISZERO ISZERO DUP2 MSTORE PUSH1 0x20 ADD PUSH1 0x0 ISZERO ISZERO ISZERO ISZERO DUP2 MSTORE PUSH1 0x20 ADD PUSH1 0x0 ISZERO ISZERO ISZERO ISZERO DUP2 MSTORE PUSH1 0x20 ADD PUSH1 0x0 ISZERO ISZERO ISZERO ISZERO DUP2 MSTORE PUSH1 0x20 ADD PUSH1 0x1 ISZERO ISZERO ISZERO ISZERO DUP2 MSTORE POP DUP2 PUSH1 0x3 PUSH1 0x5 DUP2 LT PUSH2 0x686 JUMPI PUSH2 0x685 PUSH2 0x36E0 JUMP JUMPDEST JUMPDEST PUSH1 0x20 MUL ADD DUP2 SWAP1 MSTORE POP PUSH1 0x40 MLOAD DUP1 PUSH1 0xC0 ADD PUSH1 0x40 MSTORE DUP1 PUSH1 0x0 ISZERO ISZERO ISZERO ISZERO DUP2 MSTORE PUSH1 0x20 ADD PUSH1 0x0 ISZERO ISZERO ISZERO ISZERO DUP2 MSTORE PUSH1 0x20 ADD PUSH1 0x0 ISZERO ISZERO ISZERO ISZERO DUP2 MSTORE PUSH1 0x20 ADD PUSH1 0x0 ISZERO ISZERO ISZERO ISZERO DUP2 MSTORE PUSH1 0x20 ADD PUSH1 0x0 ISZERO ISZERO ISZERO ISZERO DUP2 MSTORE PUSH1 0x20 ADD PUSH1 0x1 ISZERO ISZERO ISZERO ISZERO DUP2 MSTORE POP DUP2 PUSH1 0x4 PUSH1 0x5 DUP2 LT PUSH2 0x6ED JUMPI PUSH2 0x6EC PUSH2 0x36E0 JUMP JUMPDEST JUMPDEST PUSH1 0x20 MUL ADD DUP2 SWAP1 MSTORE POP PUSH2 0x6FD PUSH2 0x1A0C JUMP JUMPDEST PUSH1 0x0 JUMPDEST PUSH1 0x5 DUP2 PUSH1 0xFF AND LT ISZERO PUSH2 0x7C1 JUMPI DUP4 DUP2 PUSH1 0xFF AND PUSH1 0x5 DUP2 LT PUSH2 0x722 JUMPI PUSH2 0x721 PUSH2 0x36E0 JUMP JUMPDEST JUMPDEST PUSH1 0x20 MUL ADD MLOAD DUP3 DUP3 PUSH1 0xFF AND PUSH1 0x5 DUP2 LT PUSH2 0x73D JUMPI PUSH2 0x73C PUSH2 0x36E0 JUMP JUMPDEST JUMPDEST PUSH1 0x20 MUL ADD MLOAD PUSH1 0x0 PUSH1 0x2 DUP2 LT PUSH2 0x755 JUMPI PUSH2 0x754 PUSH2 0x36E0 JUMP JUMPDEST JUMPDEST PUSH1 0x20 MUL ADD DUP2 SWAP1 MSTORE POP DUP3 DUP2 PUSH1 0xFF AND PUSH1 0x5 DUP2 LT PUSH2 0x773 JUMPI PUSH2 0x772 PUSH2 0x36E0 JUMP JUMPDEST JUMPDEST PUSH1 0x20 MUL ADD MLOAD DUP3 DUP3 PUSH1 0xFF AND PUSH1 0x5 DUP2 LT PUSH2 0x78E JUMPI PUSH2 0x78D PUSH2 0x36E0 JUMP JUMPDEST JUMPDEST PUSH1 0x20 MUL ADD MLOAD PUSH1 0x1 PUSH1 0x2 DUP2 LT PUSH2 0x7A6 JUMPI PUSH2 0x7A5 PUSH2 0x36E0 JUMP JUMPDEST JUMPDEST PUSH1 0x20 MUL ADD DUP2 SWAP1 MSTORE POP DUP1 DUP1 PUSH2 0x7B9 SWAP1 PUSH2 0x373E JUMP JUMPDEST SWAP2 POP POP PUSH2 0x700 JUMP JUMPDEST POP DUP1 SWAP4 POP POP POP POP SWAP1 JUMP JUMPDEST PUSH2 0x7D3 PUSH2 0x1A66 JUMP JUMPDEST PUSH1 0x2 PUSH1 0x0 DUP4 PUSH20 0xFFFFFFFFFFFFFFFFFFFFFFFFFFFFFFFFFFFFFFFF AND PUSH20 0xFFFFFFFFFFFFFFFFFFFFFFFFFFFFFFFFFFFFFFFF AND DUP2 MSTORE PUSH1 0x20 ADD SWAP1 DUP2 MSTORE PUSH1 0x20 ADD PUSH1 0x0 KECCAK256 PUSH1 0x40 MLOAD DUP1 PUSH1 0xC0 ADD PUSH1 0x40 MSTORE SWAP1 DUP2 PUSH1 0x0 DUP3 ADD PUSH1 0x3 DUP1 PUSH1 0x20 MUL PUSH1 0x40 MLOAD SWAP1 DUP2 ADD PUSH1 0x40 MSTORE DUP1 SWAP3 SWAP2 SWAP1 PUSH1 0x0 SWAP1 JUMPDEST DUP3 DUP3 LT ISZERO PUSH2 0x8B4 JUMPI DUP4 DUP3 ADD PUSH1 0x6 DUP1 PUSH1 0x20 MUL PUSH1 0x40 MLOAD SWAP1 DUP2 ADD PUSH1 0x40 MSTORE DUP1 SWAP3 SWAP2 SWAP1 DUP3 PUSH1 0x6 DUP1 ISZERO PUSH2 0x8A0 JUMPI PUSH1 0x20 MUL DUP3 ADD SWAP2 PUSH1 0x0 SWAP1 JUMPDEST DUP3 DUP3 SWAP1 SLOAD SWAP1 PUSH2 0x100 EXP SWAP1 DIV PUSH1 0xFF AND ISZERO ISZERO DUP2 MSTORE PUSH1 0x20 ADD SWAP1 PUSH1 0x1 ADD SWAP1 PUSH1 0x20 DUP3 PUSH1 0x0 ADD DIV SWAP3 DUP4 ADD SWAP3 PUSH1 0x1 SUB DUP3 MUL SWAP2 POP DUP1 DUP5 GT PUSH2 0x86A JUMPI SWAP1 POP JUMPDEST POP POP POP POP POP DUP2 MSTORE PUSH1 0x20 ADD SWAP1 PUSH1 0x1 ADD SWAP1 PUSH2 0x839 JUMP JUMPDEST POP POP POP POP DUP2 MSTORE PUSH1 0x20 ADD PUSH1 0x3 DUP3 ADD PUSH1 0x3 DUP1 PUSH1 0x20 MUL PUSH1 0x40 MLOAD SWAP1 DUP2 ADD PUSH1 0x40 MSTORE DUP1 SWAP3 SWAP2 SWAP1 PUSH1 0x0 SWAP1 JUMPDEST DUP3 DUP3 LT ISZERO PUSH2 0x953 JUMPI DUP4 DUP3 ADD PUSH1 0x6 DUP1 PUSH1 0x20 MUL PUSH1 0x40 MLOAD SWAP1 DUP2 ADD PUSH1 0x40 MSTORE DUP1 SWAP3 SWAP2 SWAP1 DUP3 PUSH1 0x6 DUP1 ISZERO PUSH2 0x93F JUMPI PUSH1 0x20 MUL DUP3 ADD SWAP2 PUSH1 0x0 SWAP1 JUMPDEST DUP3 DUP3 SWAP1 SLOAD SWAP1 PUSH2 0x100 EXP SWAP1 DIV PUSH1 0xFF AND ISZERO ISZERO DUP2 MSTORE PUSH1 0x20 ADD SWAP1 PUSH1 0x1 ADD SWAP1 PUSH1 0x20 DUP3 PUSH1 0x0 ADD DIV SWAP3 DUP4 ADD SWAP3 PUSH1 0x1 SUB DUP3 MUL SWAP2 POP DUP1 DUP5 GT PUSH2 0x909 JUMPI SWAP1 POP JUMPDEST POP POP POP POP POP DUP2 MSTORE PUSH1 0x20 ADD SWAP1 PUSH1 0x1 ADD SWAP1 PUSH2 0x8D8 JUMP JUMPDEST POP POP POP POP DUP2 MSTORE PUSH1 0x20 ADD PUSH1 0x6 DUP3 ADD PUSH1 0x3 DUP1 PUSH1 0x20 MUL PUSH1 0x40 MLOAD SWAP1 DUP2 ADD PUSH1 0x40 MSTORE DUP1 SWAP3 SWAP2 SWAP1 PUSH1 0x0 SWAP1 JUMPDEST DUP3 DUP3 LT ISZERO PUSH2 0x9F2 JUMPI DUP4 DUP3 ADD PUSH1 0x3 DUP1 PUSH1 0x20 MUL PUSH1 0x40 MLOAD SWAP1 DUP2 ADD PUSH1 0x40 MSTORE DUP1 SWAP3 SWAP2 SWAP1 DUP3 PUSH1 0x3 DUP1 ISZERO PUSH2 0x9DE JUMPI PUSH1 0x20 MUL DUP3 ADD SWAP2 PUSH1 0x0 SWAP1 JUMPDEST DUP3 DUP3 SWAP1 SLOAD SWAP1 PUSH2 0x100 EXP SWAP1 DIV PUSH1 0xFF AND ISZERO ISZERO DUP2 MSTORE PUSH1 0x20 ADD SWAP1 PUSH1 0x1 ADD SWAP1 PUSH1 0x20 DUP3 PUSH1 0x0 ADD DIV SWAP3 DUP4 ADD SWAP3 PUSH1 0x1 SUB DUP3 MUL SWAP2 POP DUP1 DUP5 GT PUSH2 0x9A8 JUMPI SWAP1 POP JUMPDEST POP POP POP POP POP DUP2 MSTORE PUSH1 0x20 ADD SWAP1 PUSH1 0x1 ADD SWAP1 PUSH2 0x977 JUMP JUMPDEST POP POP POP POP DUP2 MSTORE PUSH1 0x20 ADD PUSH1 0x9 DUP3 ADD PUSH1 0x0 SWAP1 SLOAD SWAP1 PUSH2 0x100 EXP SWAP1 DIV PUSH1 0x0 SIGNEXTEND PUSH1 0x0 SIGNEXTEND PUSH1 0x0 SIGNEXTEND DUP2 MSTORE PUSH1 0x20 ADD PUSH1 0x9 DUP3 ADD PUSH1 0x1 SWAP1 SLOAD SWAP1 PUSH2 0x100 EXP SWAP1 DIV PUSH1 0xFF AND ISZERO ISZERO ISZERO ISZERO DUP2 MSTORE PUSH1 0x20 ADD PUSH1 0xA DUP3 ADD PUSH1 0x2 DUP1 PUSH1 0x20 MUL PUSH1 0x40 MLOAD SWAP1 DUP2 ADD PUSH1 0x40 MSTORE DUP1 SWAP3 SWAP2 SWAP1 DUP3 PUSH1 0x2 DUP1 ISZERO PUSH2 0xA94 JUMPI PUSH1 0x20 MUL DUP3 ADD SWAP2 PUSH1 0x0 SWAP1 JUMPDEST DUP3 DUP3 SWAP1 SLOAD SWAP1 PUSH2 0x100 EXP SWAP1 DIV PUSH1 0xFF AND PUSH1 0xFF AND DUP2 MSTORE PUSH1 0x20 ADD SWAP1 PUSH1 0x1 ADD SWAP1 PUSH1 0x20 DUP3 PUSH1 0x0 ADD DIV SWAP3 DUP4 ADD SWAP3 PUSH1 0x1 SUB DUP3 MUL SWAP2 POP DUP1 DUP5 GT PUSH2 0xA5D JUMPI SWAP1 POP JUMPDEST POP POP POP POP POP DUP2 MSTORE POP POP SWAP1 POP SWAP2 SWAP1 POP JUMP JUMPDEST PUSH1 0x0 PUSH1 0xE SWAP1 POP SWAP1 JUMP JUMPDEST PUSH2 0xAB5 PUSH2 0x1AB8 JUMP JUMPDEST PUSH1 0x3 PUSH1 0x0 DUP4 PUSH20 0xFFFFFFFFFFFFFFFFFFFFFFFFFFFFFFFFFFFFFFFF AND PUSH20 0xFFFFFFFFFFFFFFFFFFFFFFFFFFFFFFFFFFFFFFFF AND DUP2 MSTORE PUSH1 0x20 ADD SWAP1 DUP2 MSTORE PUSH1 0x20 ADD PUSH1 0x0 KECCAK256 PUSH1 0x40 MLOAD DUP1 PUSH1 0x60 ADD PUSH1 0x40 MSTORE SWAP1 DUP2 PUSH1 0x0 DUP3 ADD PUSH1 0x0 SWAP1 SLOAD SWAP1 PUSH2 0x100 EXP SWAP1 DIV PUSH1 0xFF AND PUSH1 0xFF AND PUSH1 0xFF AND DUP2 MSTORE PUSH1 0x20 ADD PUSH1 0x0 DUP3 ADD PUSH1 0x1 SWAP1 SLOAD SWAP1 PUSH2 0x100 EXP SWAP1 DIV PUSH1 0xFF AND PUSH1 0xFF AND PUSH1 0xFF AND DUP2 MSTORE PUSH1 0x20 ADD PUSH1 0x0 DUP3 ADD PUSH1 0x2 SWAP1 SLOAD SWAP1 PUSH2 0x100 EXP SWAP1 DIV PUSH1 0xFF AND PUSH1 0xFF AND PUSH1 0xFF AND DUP2 MSTORE POP POP SWAP1 POP SWAP2 SWAP1 POP JUMP JUMPDEST PUSH2 0xB65 PUSH2 0x1AE2 JUMP JUMPDEST PUSH1 0x0 DUP1 DUP4 PUSH20 0xFFFFFFFFFFFFFFFFFFFFFFFFFFFFFFFFFFFFFFFF AND PUSH20 0xFFFFFFFFFFFFFFFFFFFFFFFFFFFFFFFFFFFFFFFF AND DUP2 MSTORE PUSH1 0x20 ADD SWAP1 DUP2 MSTORE PUSH1 0x20 ADD PUSH1 0x0 KECCAK256 PUSH1 0x40 MLOAD DUP1 PUSH1 0x40 ADD PUSH1 0x40 MSTORE SWAP1 DUP2 PUSH1 0x0 DUP3 ADD PUSH1 0x6 DUP1 PUSH1 0x20 MUL PUSH1 0x40 MLOAD SWAP1 DUP2 ADD PUSH1 0x40 MSTORE DUP1 SWAP3 SWAP2 SWAP1 PUSH1 0x0 SWAP1 JUMPDEST DUP3 DUP3 LT ISZERO PUSH2 0xC7E JUMPI DUP4 DUP3 PUSH1 0x6 MUL ADD PUSH1 0x6 DUP1 PUSH1 0x20 MUL PUSH1 0x40 MLOAD SWAP1 DUP2 ADD PUSH1 0x40 MSTORE DUP1 SWAP3 SWAP2 SWAP1 PUSH1 0x0 SWAP1 JUMPDEST DUP3 DUP3 LT ISZERO PUSH2 0xC6B JUMPI DUP4 DUP3 ADD PUSH1 0x6 DUP1 PUSH1 0x20 MUL PUSH1 0x40 MLOAD SWAP1 DUP2 ADD PUSH1 0x40 MSTORE DUP1 SWAP3 SWAP2 SWAP1 DUP3 PUSH1 0x6 DUP1 ISZERO PUSH2 0xC57 JUMPI PUSH1 0x20 MUL DUP3 ADD SWAP2 PUSH1 0x0 SWAP1 JUMPDEST DUP3 DUP3 SWAP1 SLOAD SWAP1 PUSH2 0x100 EXP SWAP1 DIV PUSH1 0xFF AND PUSH1 0xFF AND DUP2 MSTORE PUSH1 0x20 ADD SWAP1 PUSH1 0x1 ADD SWAP1 PUSH1 0x20 DUP3 PUSH1 0x0 ADD DIV SWAP3 DUP4 ADD SWAP3 PUSH1 0x1 SUB DUP3 MUL SWAP2 POP DUP1 DUP5 GT PUSH2 0xC20 JUMPI SWAP1 POP JUMPDEST POP POP POP POP POP DUP2 MSTORE PUSH1 0x20 ADD SWAP1 PUSH1 0x1 ADD SWAP1 PUSH2 0xBEF JUMP JUMPDEST POP POP POP POP DUP2 MSTORE PUSH1 0x20 ADD SWAP1 PUSH1 0x1 ADD SWAP1 PUSH2 0xBCA JUMP JUMPDEST POP POP POP POP DUP2 MSTORE PUSH1 0x20 ADD PUSH1 0x24 DUP3 ADD PUSH1 0x4 DUP1 PUSH1 0x20 MUL PUSH1 0x40 MLOAD SWAP1 DUP2 ADD PUSH1 0x40 MSTORE DUP1 SWAP3 SWAP2 SWAP1 DUP3 PUSH1 0x4 DUP1 ISZERO PUSH2 0xCE8 JUMPI PUSH1 0x20 MUL DUP3 ADD SWAP2 PUSH1 0x0 SWAP1 JUMPDEST DUP3 DUP3 SWAP1 SLOAD SWAP1 PUSH2 0x100 EXP SWAP1 DIV PUSH1 0xFF AND PUSH1 0xFF AND DUP2 MSTORE PUSH1 0x20 ADD SWAP1 PUSH1 0x1 ADD SWAP1 PUSH1 0x20 DUP3 PUSH1 0x0 ADD DIV SWAP3 DUP4 ADD SWAP3 PUSH1 0x1 SUB DUP3 MUL SWAP2 POP DUP1 DUP5 GT PUSH2 0xCB1 JUMPI SWAP1 POP JUMPDEST POP POP POP POP POP DUP2 MSTORE POP POP SWAP1 POP SWAP2 SWAP1 POP JUMP JUMPDEST PUSH2 0xD00 PUSH2 0x1B08 JUMP JUMPDEST PUSH1 0x40 MLOAD DUP1 PUSH1 0xC0 ADD PUSH1 0x40 MSTORE DUP1 PUSH1 0x4 PUSH1 0xFF AND DUP2 MSTORE PUSH1 0x20 ADD PUSH1 0x4 PUSH1 0xFF AND DUP2 MSTORE PUSH1 0x20 ADD PUSH1 0x4 PUSH1 0xFF AND DUP2 MSTORE PUSH1 0x20 ADD PUSH1 0x4 PUSH1 0xFF AND DUP2 MSTORE PUSH1 0x20 ADD PUSH1 0x4 PUSH1 0xFF AND DUP2 MSTORE PUSH1 0x20 ADD PUSH1 0x4 PUSH1 0xFF AND DUP2 MSTORE POP SWAP1 POP SWAP1 JUMP JUMPDEST PUSH2 0xD52 PUSH2 0x1B2A JUMP JUMPDEST PUSH2 0xD5A PUSH2 0x1B2A JUMP JUMPDEST PUSH1 0x40 MLOAD DUP1 PUSH1 0xC0 ADD PUSH1 0x40 MSTORE DUP1 PUSH1 0x1 PUSH1 0xFF AND DUP2 MSTORE PUSH1 0x20 ADD PUSH1 0x1 PUSH1 0xFF AND DUP2 MSTORE PUSH1 0x20 ADD PUSH1 0x0 PUSH1 0xFF AND DUP2 MSTORE PUSH1 0x20 ADD PUSH1 0x1 PUSH1 0xFF AND DUP2 MSTORE PUSH1 0x20 ADD PUSH1 0x0 PUSH1 0xFF AND DUP2 MSTORE PUSH1 0x20 ADD PUSH1 0x0 PUSH1 0xFF AND DUP2 MSTORE POP DUP2 PUSH1 0x0 PUSH1 0x6 DUP2 LT PUSH2 0xDB3 JUMPI PUSH2 0xDB2 PUSH2 0x36E0 JUMP JUMPDEST JUMPDEST PUSH1 0x20 MUL ADD DUP2 SWAP1 MSTORE POP PUSH1 0x40 MLOAD DUP1 PUSH1 0xC0 ADD PUSH1 0x40 MSTORE DUP1 PUSH1 0x1 PUSH1 0xFF AND DUP2 MSTORE PUSH1 0x20 ADD PUSH1 0x0 PUSH1 0xFF AND DUP2 MSTORE PUSH1 0x20 ADD PUSH1 0x0 PUSH1 0xFF AND DUP2 MSTORE PUSH1 0x20 ADD PUSH1 0x1 PUSH1 0xFF AND DUP2 MSTORE PUSH1 0x20 ADD PUSH1 0x0 PUSH1 0xFF AND DUP2 MSTORE PUSH1 0x20 ADD PUSH1 0x0 PUSH1 0xFF AND DUP2 MSTORE POP DUP2 PUSH1 0x1 PUSH1 0x6 DUP2 LT PUSH2 0xE14 JUMPI PUSH2 0xE13 PUSH2 0x36E0 JUMP JUMPDEST JUMPDEST PUSH1 0x20 MUL ADD DUP2 SWAP1 MSTORE POP PUSH1 0x40 MLOAD DUP1 PUSH1 0xC0 ADD PUSH1 0x40 MSTORE DUP1 PUSH1 0x1 PUSH1 0xFF AND DUP2 MSTORE PUSH1 0x20 ADD PUSH1 0x0 PUSH1 0xFF AND DUP2 MSTORE PUSH1 0x20 ADD PUSH1 0x1 PUSH1 0xFF AND DUP2 MSTORE PUSH1 0x20 ADD PUSH1 0x0 PUSH1 0xFF AND DUP2 MSTORE PUSH1 0x20 ADD PUSH1 0x1 PUSH1 0xFF AND DUP2 MSTORE PUSH1 0x20 ADD PUSH1 0x0 PUSH1 0xFF AND DUP2 MSTORE POP DUP2 PUSH1 0x2 PUSH1 0x6 DUP2 LT PUSH2 0xE75 JUMPI PUSH2 0xE74 PUSH2 0x36E0 JUMP JUMPDEST JUMPDEST PUSH1 0x20 MUL ADD DUP2 SWAP1 MSTORE POP PUSH1 0x40 MLOAD DUP1 PUSH1 0xC0 ADD PUSH1 0x40 MSTORE DUP1 PUSH1 0x1 PUSH1 0xFF AND DUP2 MSTORE PUSH1 0x20 ADD PUSH1 0x1 PUSH1 0xFF AND DUP2 MSTORE PUSH1 0x20 ADD PUSH1 0x0 PUSH1 0xFF AND DUP2 MSTORE PUSH1 0x20 ADD PUSH1 0x1 PUSH1 0xFF AND DUP2 MSTORE PUSH1 0x20 ADD PUSH1 0x0 PUSH1 0xFF AND DUP2 MSTORE PUSH1 0x20 ADD PUSH1 0x0 PUSH1 0xFF AND DUP2 MSTORE POP DUP2 PUSH1 0x3 PUSH1 0x6 DUP2 LT PUSH2 0xED6 JUMPI PUSH2 0xED5 PUSH2 0x36E0 JUMP JUMPDEST JUMPDEST PUSH1 0x20 MUL ADD DUP2 SWAP1 MSTORE POP PUSH1 0x40 MLOAD DUP1 PUSH1 0xC0 ADD PUSH1 0x40 MSTORE DUP1 PUSH1 0x1 PUSH1 0xFF AND DUP2 MSTORE PUSH1 0x20 ADD PUSH1 0x0 PUSH1 0xFF AND DUP2 MSTORE PUSH1 0x20 ADD PUSH1 0x1 PUSH1 0xFF AND DUP2 MSTORE PUSH1 0x20 ADD PUSH1 0x0 PUSH1 0xFF AND DUP2 MSTORE PUSH1 0x20 ADD PUSH1 0x1 PUSH1 0xFF AND DUP2 MSTORE PUSH1 0x20 ADD PUSH1 0x0 PUSH1 0xFF AND DUP2 MSTORE POP DUP2 PUSH1 0x4 PUSH1 0x6 DUP2 LT PUSH2 0xF37 JUMPI PUSH2 0xF36 PUSH2 0x36E0 JUMP JUMPDEST JUMPDEST PUSH1 0x20 MUL ADD DUP2 SWAP1 MSTORE POP PUSH1 0x40 MLOAD DUP1 PUSH1 0xC0 ADD PUSH1 0x40 MSTORE DUP1 PUSH1 0x1 PUSH1 0xFF AND DUP2 MSTORE PUSH1 0x20 ADD PUSH1 0x1 PUSH1 0xFF AND DUP2 MSTORE PUSH1 0x20 ADD PUSH1 0x1 PUSH1 0xFF AND DUP2 MSTORE PUSH1 0x20 ADD PUSH1 0x0 PUSH1 0xFF AND DUP2 MSTORE PUSH1 0x20 ADD PUSH1 0x1 PUSH1 0xFF AND DUP2 MSTORE PUSH1 0x20 ADD PUSH1 0x0 PUSH1 0xFF AND DUP2 MSTORE POP DUP2 PUSH1 0x5 PUSH1 0x6 DUP2 LT PUSH2 0xF98 JUMPI PUSH2 0xF97 PUSH2 0x36E0 JUMP JUMPDEST JUMPDEST PUSH1 0x20 MUL ADD DUP2 SWAP1 MSTORE POP DUP1 SWAP2 POP POP SWAP1 JUMP JUMPDEST PUSH1 0x60 PUSH1 0x0 DUP1 JUMPDEST DUP5 MLOAD DUP2 PUSH4 0xFFFFFFFF AND LT ISZERO PUSH2 0xFDD JUMPI DUP2 DUP1 PUSH2 0xFC7 SWAP1 PUSH2 0x3768 JUMP JUMPDEST SWAP3 POP POP DUP1 DUP1 PUSH2 0xFD5 SWAP1 PUSH2 0x3768 JUMP JUMPDEST SWAP2 POP POP PUSH2 0xFAD JUMP JUMPDEST POP PUSH1 0x0 JUMPDEST DUP4 MLOAD DUP2 PUSH4 0xFFFFFFFF AND LT ISZERO PUSH2 0x1011 JUMPI DUP2 DUP1 PUSH2 0xFFB SWAP1 PUSH2 0x3768 JUMP JUMPDEST SWAP3 POP POP DUP1 DUP1 PUSH2 0x1009 SWAP1 PUSH2 0x3768 JUMP JUMPDEST SWAP2 POP POP PUSH2 0xFE1 JUMP JUMPDEST POP PUSH1 0x0 DUP2 PUSH4 0xFFFFFFFF AND PUSH8 0xFFFFFFFFFFFFFFFF DUP2 GT ISZERO PUSH2 0x1034 JUMPI PUSH2 0x1033 PUSH2 0x2F13 JUMP JUMPDEST JUMPDEST PUSH1 0x40 MLOAD SWAP1 DUP1 DUP3 MSTORE DUP1 PUSH1 0x20 MUL PUSH1 0x20 ADD DUP3 ADD PUSH1 0x40 MSTORE DUP1 ISZERO PUSH2 0x1062 JUMPI DUP2 PUSH1 0x20 ADD PUSH1 0x20 DUP3 MUL DUP1 CALLDATASIZE DUP4 CALLDATACOPY DUP1 DUP3 ADD SWAP2 POP POP SWAP1 POP JUMPDEST POP SWAP1 POP PUSH1 0x0 JUMPDEST DUP6 MLOAD DUP2 PUSH4 0xFFFFFFFF AND LT ISZERO PUSH2 0x10DE JUMPI DUP6 DUP2 PUSH4 0xFFFFFFFF AND DUP2 MLOAD DUP2 LT PUSH2 0x1090 JUMPI PUSH2 0x108F PUSH2 0x36E0 JUMP JUMPDEST JUMPDEST PUSH1 0x20 MUL PUSH1 0x20 ADD ADD MLOAD DUP3 DUP3 PUSH4 0xFFFFFFFF AND DUP2 MLOAD DUP2 LT PUSH2 0x10B1 JUMPI PUSH2 0x10B0 PUSH2 0x36E0 JUMP JUMPDEST JUMPDEST PUSH1 0x20 MUL PUSH1 0x20 ADD ADD SWAP1 PUSH4 0xFFFFFFFF AND SWAP1 DUP2 PUSH4 0xFFFFFFFF AND DUP2 MSTORE POP POP DUP1 DUP1 PUSH2 0x10D6 SWAP1 PUSH2 0x3768 JUMP JUMPDEST SWAP2 POP POP PUSH2 0x1068 JUMP JUMPDEST POP PUSH1 0x0 DUP6 MLOAD SWAP1 POP JUMPDEST DUP3 PUSH4 0xFFFFFFFF AND DUP2 LT ISZERO PUSH2 0x114F JUMPI DUP5 DUP2 DUP2 MLOAD DUP2 LT PUSH2 0x1107 JUMPI PUSH2 0x1106 PUSH2 0x36E0 JUMP JUMPDEST JUMPDEST PUSH1 0x20 MUL PUSH1 0x20 ADD ADD MLOAD DUP3 DUP3 DUP2 MLOAD DUP2 LT PUSH2 0x1122 JUMPI PUSH2 0x1121 PUSH2 0x36E0 JUMP JUMPDEST JUMPDEST PUSH1 0x20 MUL PUSH1 0x20 ADD ADD SWAP1 PUSH4 0xFFFFFFFF AND SWAP1 DUP2 PUSH4 0xFFFFFFFF AND DUP2 MSTORE POP POP DUP1 DUP1 PUSH2 0x1147 SWAP1 PUSH2 0x3795 JUMP JUMPDEST SWAP2 POP POP PUSH2 0x10E6 JUMP JUMPDEST POP DUP1 SWAP3 POP POP POP SWAP3 SWAP2 POP POP JUMP JUMPDEST PUSH2 0x1163 PUSH2 0x148A JUMP JUMPDEST PUSH2 0x116B PUSH2 0x148C JUMP JUMPDEST JUMP JUMPDEST PUSH2 0x1175 PUSH2 0x1B57 JUMP JUMPDEST PUSH1 0x1 PUSH1 0x0 DUP4 PUSH20 0xFFFFFFFFFFFFFFFFFFFFFFFFFFFFFFFFFFFFFFFF AND PUSH20 0xFFFFFFFFFFFFFFFFFFFFFFFFFFFFFFFFFFFFFFFF AND DUP2 MSTORE PUSH1 0x20 ADD SWAP1 DUP2 MSTORE PUSH1 0x20 ADD PUSH1 0x0 KECCAK256 PUSH1 0x40 MLOAD DUP1 PUSH1 0x60 ADD PUSH1 0x40 MSTORE SWAP1 DUP2 PUSH1 0x0 DUP3 ADD PUSH1 0x6 DUP1 PUSH1 0x20 MUL PUSH1 0x40 MLOAD SWAP1 DUP2 ADD PUSH1 0x40 MSTORE DUP1 SWAP3 SWAP2 SWAP1 PUSH1 0x0 SWAP1 JUMPDEST DUP3 DUP3 LT ISZERO PUSH2 0x1257 JUMPI DUP4 DUP3 ADD PUSH1 0x10 DUP1 PUSH1 0x20 MUL PUSH1 0x40 MLOAD SWAP1 DUP2 ADD PUSH1 0x40 MSTORE DUP1 SWAP3 SWAP2 SWAP1 DUP3 PUSH1 0x10 DUP1 ISZERO PUSH2 0x1243 JUMPI PUSH1 0x20 MUL DUP3 ADD SWAP2 PUSH1 0x0 SWAP1 JUMPDEST DUP3 DUP3 SWAP1 SLOAD SWAP1 PUSH2 0x100 EXP SWAP1 DIV PUSH1 0xFF AND PUSH1 0xFF AND DUP2 MSTORE PUSH1 0x20 ADD SWAP1 PUSH1 0x1 ADD SWAP1 PUSH1 0x20 DUP3 PUSH1 0x0 ADD DIV SWAP3 DUP4 ADD SWAP3 PUSH1 0x1 SUB DUP3 MUL SWAP2 POP DUP1 DUP5 GT PUSH2 0x120C JUMPI SWAP1 POP JUMPDEST POP POP POP POP POP DUP2 MSTORE PUSH1 0x20 ADD SWAP1 PUSH1 0x1 ADD SWAP1 PUSH2 0x11DB JUMP JUMPDEST POP POP POP POP DUP2 MSTORE PUSH1 0x20 ADD PUSH1 0x6 DUP3 ADD PUSH1 0xA DUP1 PUSH1 0x20 MUL PUSH1 0x40 MLOAD SWAP1 DUP2 ADD PUSH1 0x40 MSTORE DUP1 SWAP3 SWAP2 SWAP1 DUP3 PUSH1 0xA DUP1 ISZERO PUSH2 0x12C1 JUMPI PUSH1 0x20 MUL DUP3 ADD SWAP2 PUSH1 0x0 SWAP1 JUMPDEST DUP3 DUP3 SWAP1 SLOAD SWAP1 PUSH2 0x100 EXP SWAP1 DIV PUSH1 0xFF AND PUSH1 0xFF AND DUP2 MSTORE PUSH1 0x20 ADD SWAP1 PUSH1 0x1 ADD SWAP1 PUSH1 0x20 DUP3 PUSH1 0x0 ADD DIV SWAP3 DUP4 ADD SWAP3 PUSH1 0x1 SUB DUP3 MUL SWAP2 POP DUP1 DUP5 GT PUSH2 0x128A JUMPI SWAP1 POP JUMPDEST POP POP POP POP POP DUP2 MSTORE PUSH1 0x20 ADD PUSH1 0x7 DUP3 ADD PUSH1 0x6 DUP1 PUSH1 0x20 MUL PUSH1 0x40 MLOAD SWAP1 DUP2 ADD PUSH1 0x40 MSTORE DUP1 SWAP3 SWAP2 SWAP1 PUSH1 0x0 SWAP1 JUMPDEST DUP3 DUP3 LT ISZERO PUSH2 0x133F JUMPI DUP4 DUP3 PUSH1 0x6 MUL ADD PUSH1 0x6 DUP1 PUSH1 0x20 MUL PUSH1 0x40 MLOAD SWAP1 DUP2 ADD PUSH1 0x40 MSTORE DUP1 SWAP3 SWAP2 SWAP1 DUP3 PUSH1 0x6 DUP1 ISZERO PUSH2 0x132B JUMPI PUSH1 0x20 MUL DUP3 ADD SWAP2 JUMPDEST DUP2 SLOAD DUP2 MSTORE PUSH1 0x20 ADD SWAP1 PUSH1 0x1 ADD SWAP1 DUP1 DUP4 GT PUSH2 0x1317 JUMPI JUMPDEST POP POP POP POP POP DUP2 MSTORE PUSH1 0x20 ADD SWAP1 PUSH1 0x1 ADD SWAP1 PUSH2 0x12E6 JUMP JUMPDEST POP POP POP POP DUP2 MSTORE POP POP SWAP1 POP SWAP2 SWAP1 POP JUMP JUMPDEST PUSH2 0x1356 PUSH2 0x148A JUMP JUMPDEST JUMP JUMPDEST PUSH2 0x1360 PUSH2 0x1B8A JUMP JUMPDEST PUSH1 0x40 MLOAD DUP1 PUSH1 0xE0 ADD PUSH1 0x40 MSTORE DUP1 PUSH1 0x2 PUSH1 0xFF AND DUP2 MSTORE PUSH1 0x20 ADD PUSH1 0x5 PUSH1 0xFF AND DUP2 MSTORE PUSH1 0x20 ADD PUSH1 0x8 PUSH1 0xFF AND DUP2 MSTORE PUSH1 0x20 ADD PUSH1 0xB PUSH1 0xFF AND DUP2 MSTORE PUSH1 0x20 ADD PUSH1 0xE PUSH1 0xFF AND DUP2 MSTORE PUSH1 0x20 ADD PUSH1 0x11 PUSH1 0xFF AND DUP2 MSTORE PUSH1 0x20 ADD PUSH1 0x14 PUSH1 0xFF AND DUP2 MSTORE POP SWAP1 POP SWAP1 JUMP JUMPDEST PUSH2 0x13BC PUSH2 0x1BAC JUMP JUMPDEST PUSH2 0x13C4 PUSH2 0x1BAC JUMP JUMPDEST PUSH1 0x0 JUMPDEST PUSH1 0x2 DUP2 LT ISZERO PUSH2 0x1458 JUMPI PUSH1 0x1 PUSH1 0x6 DUP3 DUP7 PUSH2 0x13E0 SWAP2 SWAP1 PUSH2 0x37DE JUMP JUMPDEST TIMESTAMP CALLER PUSH1 0x40 MLOAD PUSH1 0x20 ADD PUSH2 0x13F4 SWAP4 SWAP3 SWAP2 SWAP1 PUSH2 0x3852 JUMP JUMPDEST PUSH1 0x40 MLOAD PUSH1 0x20 DUP2 DUP4 SUB SUB DUP2 MSTORE SWAP1 PUSH1 0x40 MSTORE DUP1 MLOAD SWAP1 PUSH1 0x20 ADD KECCAK256 PUSH1 0x0 SHR PUSH2 0x1417 SWAP2 SWAP1 PUSH2 0x38B8 JUMP JUMPDEST PUSH2 0x1421 SWAP2 SWAP1 PUSH2 0x37DE JUMP JUMPDEST DUP3 DUP3 PUSH1 0x2 DUP2 LT PUSH2 0x1434 JUMPI PUSH2 0x1433 PUSH2 0x36E0 JUMP JUMPDEST JUMPDEST PUSH1 0x20 MUL ADD SWAP1 PUSH1 0xFF AND SWAP1 DUP2 PUSH1 0xFF AND DUP2 MSTORE POP POP DUP1 DUP1 PUSH2 0x1450 SWAP1 PUSH2 0x3795 JUMP JUMPDEST SWAP2 POP POP PUSH2 0x13C7 JUMP JUMPDEST POP DUP1 SWAP2 POP POP SWAP2 SWAP1 POP JUMP JUMPDEST PUSH1 0x0 PUSH32 0xFFFFFFFFFFFFFFFFFFFFFFFFFFFFFFFFFFFFFFFFFFFFFFFFFFFFFFFFFFFFFFFA SWAP1 POP SWAP1 JUMP JUMPDEST JUMP JUMPDEST PUSH1 0x1 PUSH1 0x4 PUSH1 0x0 CALLER PUSH20 0xFFFFFFFFFFFFFFFFFFFFFFFFFFFFFFFFFFFFFFFF AND PUSH20 0xFFFFFFFFFFFFFFFFFFFFFFFFFFFFFFFFFFFFFFFF AND DUP2 MSTORE PUSH1 0x20 ADD SWAP1 DUP2 MSTORE PUSH1 0x20 ADD PUSH1 0x0 KECCAK256 PUSH1 0x0 PUSH2 0x100 EXP DUP2 SLOAD DUP2 PUSH1 0xFF MUL NOT AND SWAP1 DUP4 ISZERO ISZERO MUL OR SWAP1 SSTORE POP PUSH2 0x14EC PUSH2 0x1BCE JUMP JUMPDEST DUP1 PUSH1 0x0 DUP1 CALLER PUSH20 0xFFFFFFFFFFFFFFFFFFFFFFFFFFFFFFFFFFFFFFFF AND PUSH20 0xFFFFFFFFFFFFFFFFFFFFFFFFFFFFFFFFFFFFFFFF AND DUP2 MSTORE PUSH1 0x20 ADD SWAP1 DUP2 MSTORE PUSH1 0x20 ADD PUSH1 0x0 KECCAK256 PUSH1 0x0 ADD SWAP1 PUSH1 0x6 PUSH2 0x153C SWAP3 SWAP2 SWAP1 PUSH2 0x1BFB JUMP JUMPDEST POP PUSH1 0x40 MLOAD DUP1 PUSH1 0x80 ADD PUSH1 0x40 MSTORE DUP1 PUSH1 0x0 PUSH1 0xFF AND DUP2 MSTORE PUSH1 0x20 ADD PUSH1 0x0 PUSH1 0xFF AND DUP2 MSTORE PUSH1 0x20 ADD PUSH1 0x0 PUSH1 0xFF AND DUP2 MSTORE PUSH1 0x20 ADD PUSH1 0x0 PUSH1 0xFF AND DUP2 MSTORE POP PUSH1 0x0 DUP1 CALLER PUSH20 0xFFFFFFFFFFFFFFFFFFFFFFFFFFFFFFFFFFFFFFFF AND PUSH20 0xFFFFFFFFFFFFFFFFFFFFFFFFFFFFFFFFFFFFFFFF AND DUP2 MSTORE PUSH1 0x20 ADD SWAP1 DUP2 MSTORE PUSH1 0x20 ADD PUSH1 0x0 KECCAK256 PUSH1 0x24 ADD SWAP1 PUSH1 0x4 PUSH2 0x15BD SWAP3 SWAP2 SWAP1 PUSH2 0x1C4B JUMP JUMPDEST POP PUSH2 0x15C6 PUSH2 0x1CE5 JUMP JUMPDEST DUP1 PUSH1 0x1 PUSH1 0x0 CALLER PUSH20 0xFFFFFFFFFFFFFFFFFFFFFFFFFFFFFFFFFFFFFFFF AND PUSH20 0xFFFFFFFFFFFFFFFFFFFFFFFFFFFFFFFFFFFFFFFF AND DUP2 MSTORE PUSH1 0x20 ADD SWAP1 DUP2 MSTORE PUSH1 0x20 ADD PUSH1 0x0 KECCAK256 PUSH1 0x0 ADD SWAP1 PUSH1 0x6 PUSH2 0x1617 SWAP3 SWAP2 SWAP1 PUSH2 0x1D12 JUMP JUMPDEST POP PUSH2 0x1620 PUSH2 0x1D60 JUMP JUMPDEST DUP1 PUSH1 0x1 PUSH1 0x0 CALLER PUSH20 0xFFFFFFFFFFFFFFFFFFFFFFFFFFFFFFFFFFFFFFFF AND PUSH20 0xFFFFFFFFFFFFFFFFFFFFFFFFFFFFFFFFFFFFFFFF AND DUP2 MSTORE PUSH1 0x20 ADD SWAP1 DUP2 MSTORE PUSH1 0x20 ADD PUSH1 0x0 KECCAK256 PUSH1 0x6 ADD SWAP1 PUSH1 0xA PUSH2 0x1671 SWAP3 SWAP2 SWAP1 PUSH2 0x1D83 JUMP JUMPDEST POP PUSH2 0x167A PUSH2 0x1E1D JUMP JUMPDEST DUP1 PUSH1 0x1 PUSH1 0x0 CALLER PUSH20 0xFFFFFFFFFFFFFFFFFFFFFFFFFFFFFFFFFFFFFFFF AND PUSH20 0xFFFFFFFFFFFFFFFFFFFFFFFFFFFFFFFFFFFFFFFF AND DUP2 MSTORE PUSH1 0x20 ADD SWAP1 DUP2 MSTORE PUSH1 0x20 ADD PUSH1 0x0 KECCAK256 PUSH1 0x7 ADD SWAP1 PUSH1 0x6 PUSH2 0x16CB SWAP3 SWAP2 SWAP1 PUSH2 0x1E4A JUMP JUMPDEST POP PUSH2 0x16D4 PUSH2 0x1E9A JUMP JUMPDEST DUP1 PUSH1 0x2 PUSH1 0x0 CALLER PUSH20 0xFFFFFFFFFFFFFFFFFFFFFFFFFFFFFFFFFFFFFFFF AND PUSH20 0xFFFFFFFFFFFFFFFFFFFFFFFFFFFFFFFFFFFFFFFF AND DUP2 MSTORE PUSH1 0x20 ADD SWAP1 DUP2 MSTORE PUSH1 0x20 ADD PUSH1 0x0 KECCAK256 PUSH1 0x0 ADD SWAP1 PUSH1 0x3 PUSH2 0x1725 SWAP3 SWAP2 SWAP1 PUSH2 0x1EC7 JUMP JUMPDEST POP PUSH2 0x172E PUSH2 0x1E9A JUMP JUMPDEST DUP1 PUSH1 0x2 PUSH1 0x0 CALLER PUSH20 0xFFFFFFFFFFFFFFFFFFFFFFFFFFFFFFFFFFFFFFFF AND PUSH20 0xFFFFFFFFFFFFFFFFFFFFFFFFFFFFFFFFFFFFFFFF AND DUP2 MSTORE PUSH1 0x20 ADD SWAP1 DUP2 MSTORE PUSH1 0x20 ADD PUSH1 0x0 KECCAK256 PUSH1 0x3 ADD SWAP1 PUSH1 0x3 PUSH2 0x177F SWAP3 SWAP2 SWAP1 PUSH2 0x1EC7 JUMP JUMPDEST POP PUSH2 0x1788 PUSH2 0x1F15 JUMP JUMPDEST DUP1 PUSH1 0x2 PUSH1 0x0 CALLER PUSH20 0xFFFFFFFFFFFFFFFFFFFFFFFFFFFFFFFFFFFFFFFF AND PUSH20 0xFFFFFFFFFFFFFFFFFFFFFFFFFFFFFFFFFFFFFFFF AND DUP2 MSTORE PUSH1 0x20 ADD SWAP1 DUP2 MSTORE PUSH1 0x20 ADD PUSH1 0x0 KECCAK256 PUSH1 0x6 ADD SWAP1 PUSH1 0x3 PUSH2 0x17D9 SWAP3 SWAP2 SWAP1 PUSH2 0x1F42 JUMP JUMPDEST POP PUSH1 0x0 PUSH1 0x2 PUSH1 0x0 CALLER PUSH20 0xFFFFFFFFFFFFFFFFFFFFFFFFFFFFFFFFFFFFFFFF AND PUSH20 0xFFFFFFFFFFFFFFFFFFFFFFFFFFFFFFFFFFFFFFFF AND DUP2 MSTORE PUSH1 0x20 ADD SWAP1 DUP2 MSTORE PUSH1 0x20 ADD PUSH1 0x0 KECCAK256 PUSH1 0x9 ADD PUSH1 0x0 PUSH2 0x100 EXP DUP2 SLOAD DUP2 PUSH1 0xFF MUL NOT AND SWAP1 DUP4 PUSH1 0x0 SIGNEXTEND PUSH1 0xFF AND MUL OR SWAP1 SSTORE POP PUSH1 0x0 PUSH1 0x2 PUSH1 0x0 CALLER PUSH20 0xFFFFFFFFFFFFFFFFFFFFFFFFFFFFFFFFFFFFFFFF AND PUSH20 0xFFFFFFFFFFFFFFFFFFFFFFFFFFFFFFFFFFFFFFFF AND DUP2 MSTORE PUSH1 0x20 ADD SWAP1 DUP2 MSTORE PUSH1 0x20 ADD PUSH1 0x0 KECCAK256 PUSH1 0x9 ADD PUSH1 0x1 PUSH2 0x100 EXP DUP2 SLOAD DUP2 PUSH1 0xFF MUL NOT AND SWAP1 DUP4 ISZERO ISZERO MUL OR SWAP1 SSTORE POP PUSH2 0x189C PUSH2 0x1BAC JUMP JUMPDEST DUP1 PUSH1 0x2 PUSH1 0x0 CALLER PUSH20 0xFFFFFFFFFFFFFFFFFFFFFFFFFFFFFFFFFFFFFFFF AND PUSH20 0xFFFFFFFFFFFFFFFFFFFFFFFFFFFFFFFFFFFFFFFF AND DUP2 MSTORE PUSH1 0x20 ADD SWAP1 DUP2 MSTORE PUSH1 0x20 ADD PUSH1 0x0 KECCAK256 PUSH1 0xA ADD SWAP1 PUSH1 0x2 PUSH2 0x18ED SWAP3 SWAP2 SWAP1 PUSH2 0x1F90 JUMP JUMPDEST POP PUSH1 0x0 PUSH1 0x3 PUSH1 0x0 CALLER PUSH20 0xFFFFFFFFFFFFFFFFFFFFFFFFFFFFFFFFFFFFFFFF AND PUSH20 0xFFFFFFFFFFFFFFFFFFFFFFFFFFFFFFFFFFFFFFFF AND DUP2 MSTORE PUSH1 0x20 ADD SWAP1 DUP2 MSTORE PUSH1 0x20 ADD PUSH1 0x0 KECCAK256 PUSH1 0x0 ADD PUSH1 0x0 PUSH2 0x100 EXP DUP2 SLOAD DUP2 PUSH1 0xFF MUL NOT AND SWAP1 DUP4 PUSH1 0xFF AND MUL OR SWAP1 SSTORE POP PUSH1 0x0 PUSH1 0x3 PUSH1 0x0 CALLER PUSH20 0xFFFFFFFFFFFFFFFFFFFFFFFFFFFFFFFFFFFFFFFF AND PUSH20 0xFFFFFFFFFFFFFFFFFFFFFFFFFFFFFFFFFFFFFFFF AND DUP2 MSTORE PUSH1 0x20 ADD SWAP1 DUP2 MSTORE PUSH1 0x20 ADD PUSH1 0x0 KECCAK256 PUSH1 0x0 ADD PUSH1 0x1 PUSH2 0x100 EXP DUP2 SLOAD DUP2 PUSH1 0xFF MUL NOT AND SWAP1 DUP4 PUSH1 0xFF AND MUL OR SWAP1 SSTORE POP PUSH1 0x0 PUSH1 0x3 PUSH1 0x0 CALLER PUSH20 0xFFFFFFFFFFFFFFFFFFFFFFFFFFFFFFFFFFFFFFFF AND PUSH20 0xFFFFFFFFFFFFFFFFFFFFFFFFFFFFFFFFFFFFFFFF AND DUP2 MSTORE PUSH1 0x20 ADD SWAP1 DUP2 MSTORE PUSH1 0x20 ADD PUSH1 0x0 KECCAK256 PUSH1 0x0 ADD PUSH1 0x2 PUSH2 0x100 EXP DUP2 SLOAD DUP2 PUSH1 0xFF MUL NOT AND SWAP1 DUP4 PUSH1 0xFF AND MUL OR SWAP1 SSTORE POP POP POP POP POP POP POP POP POP JUMP JUMPDEST PUSH1 0x40 MLOAD DUP1 PUSH1 0xA0 ADD PUSH1 0x40 MSTORE DUP1 PUSH1 0x5 SWAP1 JUMPDEST PUSH2 0x1A23 PUSH2 0x202A JUMP JUMPDEST DUP2 MSTORE PUSH1 0x20 ADD SWAP1 PUSH1 0x1 SWAP1 SUB SWAP1 DUP2 PUSH2 0x1A1B JUMPI SWAP1 POP POP SWAP1 JUMP JUMPDEST PUSH1 0x40 MLOAD DUP1 PUSH1 0xA0 ADD PUSH1 0x40 MSTORE DUP1 PUSH1 0x5 SWAP1 JUMPDEST PUSH2 0x1A50 PUSH2 0x2057 JUMP JUMPDEST DUP2 MSTORE PUSH1 0x20 ADD SWAP1 PUSH1 0x1 SWAP1 SUB SWAP1 DUP2 PUSH2 0x1A48 JUMPI SWAP1 POP POP SWAP1 JUMP JUMPDEST PUSH1 0x40 MLOAD DUP1 PUSH1 0xC0 ADD PUSH1 0x40 MSTORE DUP1 PUSH2 0x1A79 PUSH2 0x1E9A JUMP JUMPDEST DUP2 MSTORE PUSH1 0x20 ADD PUSH2 0x1A86 PUSH2 0x1E9A JUMP JUMPDEST DUP2 MSTORE PUSH1 0x20 ADD PUSH2 0x1A93 PUSH2 0x1F15 JUMP JUMPDEST DUP2 MSTORE PUSH1 0x20 ADD PUSH1 0x0 DUP1 SIGNEXTEND DUP2 MSTORE PUSH1 0x20 ADD PUSH1 0x0 ISZERO ISZERO DUP2 MSTORE PUSH1 0x20 ADD PUSH2 0x1AB2 PUSH2 0x1BAC JUMP JUMPDEST DUP2 MSTORE POP SWAP1 JUMP JUMPDEST PUSH1 0x40 MLOAD DUP1 PUSH1 0x60 ADD PUSH1 0x40 MSTORE DUP1 PUSH1 0x0 PUSH1 0xFF AND DUP2 MSTORE PUSH1 0x20 ADD PUSH1 0x0 PUSH1 0xFF AND DUP2 MSTORE PUSH1 0x20 ADD PUSH1 0x0 PUSH1 0xFF AND DUP2 MSTORE POP SWAP1 JUMP JUMPDEST PUSH1 0x40 MLOAD DUP1 PUSH1 0x40 ADD PUSH1 0x40 MSTORE DUP1 PUSH2 0x1AF5 PUSH2 0x1BCE JUMP JUMPDEST DUP2 MSTORE PUSH1 0x20 ADD PUSH2 0x1B02 PUSH2 0x2079 JUMP JUMPDEST DUP2 MSTORE POP SWAP1 JUMP JUMPDEST PUSH1 0x40 MLOAD DUP1 PUSH1 0xC0 ADD PUSH1 0x40 MSTORE DUP1 PUSH1 0x6 SWAP1 PUSH1 0x20 DUP3 MUL DUP1 CALLDATASIZE DUP4 CALLDATACOPY DUP1 DUP3 ADD SWAP2 POP POP SWAP1 POP POP SWAP1 JUMP JUMPDEST PUSH1 0x40 MLOAD DUP1 PUSH1 0xC0 ADD PUSH1 0x40 MSTORE DUP1 PUSH1 0x6 SWAP1 JUMPDEST PUSH2 0x1B41 PUSH2 0x1B08 JUMP JUMPDEST DUP2 MSTORE PUSH1 0x20 ADD SWAP1 PUSH1 0x1 SWAP1 SUB SWAP1 DUP2 PUSH2 0x1B39 JUMPI SWAP1 POP POP SWAP1 JUMP JUMPDEST PUSH1 0x40 MLOAD DUP1 PUSH1 0x60 ADD PUSH1 0x40 MSTORE DUP1 PUSH2 0x1B6A PUSH2 0x1CE5 JUMP JUMPDEST DUP2 MSTORE PUSH1 0x20 ADD PUSH2 0x1B77 PUSH2 0x1D60 JUMP JUMPDEST DUP2 MSTORE PUSH1 0x20 ADD PUSH2 0x1B84 PUSH2 0x1E1D JUMP JUMPDEST DUP2 MSTORE POP SWAP1 JUMP JUMPDEST PUSH1 0x40 MLOAD DUP1 PUSH1 0xE0 ADD PUSH1 0x40 MSTORE DUP1 PUSH1 0x7 SWAP1 PUSH1 0x20 DUP3 MUL DUP1 CALLDATASIZE DUP4 CALLDATACOPY DUP1 DUP3 ADD SWAP2 POP POP SWAP1 POP POP SWAP1 JUMP JUMPDEST PUSH1 0x40 MLOAD DUP1 PUSH1 0x40 ADD PUSH1 0x40 MSTORE DUP1 PUSH1 0x2 SWAP1 PUSH1 0x20 DUP3 MUL DUP1 CALLDATASIZE DUP4 CALLDATACOPY DUP1 DUP3 ADD SWAP2 POP POP SWAP1 POP POP SWAP1 JUMP JUMPDEST PUSH1 0x40 MLOAD DUP1 PUSH1 0xC0 ADD PUSH1 0x40 MSTORE DUP1 PUSH1 0x6 SWAP1 JUMPDEST PUSH2 0x1BE5 PUSH2 0x1B2A JUMP JUMPDEST DUP2 MSTORE PUSH1 0x20 ADD SWAP1 PUSH1 0x1 SWAP1 SUB SWAP1 DUP2 PUSH2 0x1BDD JUMPI SWAP1 POP POP SWAP1 JUMP JUMPDEST DUP3 PUSH1 0x6 DUP1 MUL DUP2 ADD SWAP3 DUP3 ISZERO PUSH2 0x1C3A JUMPI SWAP2 PUSH1 0x20 MUL DUP3 ADD JUMPDEST DUP3 DUP2 GT ISZERO PUSH2 0x1C39 JUMPI DUP3 MLOAD DUP3 SWAP1 PUSH1 0x6 PUSH2 0x1C29 SWAP3 SWAP2 SWAP1 PUSH2 0x209B JUMP JUMPDEST POP SWAP2 PUSH1 0x20 ADD SWAP2 SWAP1 PUSH1 0x6 ADD SWAP1 PUSH2 0x1C10 JUMP JUMPDEST JUMPDEST POP SWAP1 POP PUSH2 0x1C47 SWAP2 SWAP1 PUSH2 0x20E9 JUMP JUMPDEST POP SWAP1 JUMP JUMPDEST DUP3 PUSH1 0x4 PUSH1 0x1F ADD PUSH1 0x20 SWAP1 DIV DUP2 ADD SWAP3 DUP3 ISZERO PUSH2 0x1CD4 JUMPI SWAP2 PUSH1 0x20 MUL DUP3 ADD PUSH1 0x0 JUMPDEST DUP4 DUP3 GT ISZERO PUSH2 0x1CA5 JUMPI DUP4 MLOAD DUP4 DUP3 PUSH2 0x100 EXP DUP2 SLOAD DUP2 PUSH1 0xFF MUL NOT AND SWAP1 DUP4 PUSH1 0xFF AND MUL OR SWAP1 SSTORE POP SWAP3 PUSH1 0x20 ADD SWAP3 PUSH1 0x1 ADD PUSH1 0x20 DUP2 PUSH1 0x0 ADD DIV SWAP3 DUP4 ADD SWAP3 PUSH1 0x1 SUB MUL PUSH2 0x1C67 JUMP JUMPDEST DUP1 ISZERO PUSH2 0x1CD2 JUMPI DUP3 DUP2 PUSH2 0x100 EXP DUP2 SLOAD SWAP1 PUSH1 0xFF MUL NOT AND SWAP1 SSTORE PUSH1 0x1 ADD PUSH1 0x20 DUP2 PUSH1 0x0 ADD DIV SWAP3 DUP4 ADD SWAP3 PUSH1 0x1 SUB MUL PUSH2 0x1CA5 JUMP JUMPDEST POP JUMPDEST POP SWAP1 POP PUSH2 0x1CE1 SWAP2 SWAP1 PUSH2 0x210D JUMP JUMPDEST POP SWAP1 JUMP JUMPDEST PUSH1 0x40 MLOAD DUP1 PUSH1 0xC0 ADD PUSH1 0x40 MSTORE DUP1 PUSH1 0x6 SWAP1 JUMPDEST PUSH2 0x1CFC PUSH2 0x212A JUMP JUMPDEST DUP2 MSTORE PUSH1 0x20 ADD SWAP1 PUSH1 0x1 SWAP1 SUB SWAP1 DUP2 PUSH2 0x1CF4 JUMPI SWAP1 POP POP SWAP1 JUMP JUMPDEST DUP3 PUSH1 0x6 DUP2 ADD SWAP3 DUP3 ISZERO PUSH2 0x1D4F JUMPI SWAP2 PUSH1 0x20 MUL DUP3 ADD JUMPDEST DUP3 DUP2 GT ISZERO PUSH2 0x1D4E JUMPI DUP3 MLOAD DUP3 SWAP1 PUSH1 0x10 PUSH2 0x1D3E SWAP3 SWAP2 SWAP1 PUSH2 0x214D JUMP JUMPDEST POP SWAP2 PUSH1 0x20 ADD SWAP2 SWAP1 PUSH1 0x1 ADD SWAP1 PUSH2 0x1D25 JUMP JUMPDEST JUMPDEST POP SWAP1 POP PUSH2 0x1D5C SWAP2 SWAP1 PUSH2 0x21E7 JUMP JUMPDEST POP SWAP1 JUMP JUMPDEST PUSH1 0x40 MLOAD DUP1 PUSH2 0x140 ADD PUSH1 0x40 MSTORE DUP1 PUSH1 0xA SWAP1 PUSH1 0x20 DUP3 MUL DUP1 CALLDATASIZE DUP4 CALLDATACOPY DUP1 DUP3 ADD SWAP2 POP POP SWAP1 POP POP SWAP1 JUMP JUMPDEST DUP3 PUSH1 0xA PUSH1 0x1F ADD PUSH1 0x20 SWAP1 DIV DUP2 ADD SWAP3 DUP3 ISZERO PUSH2 0x1E0C JUMPI SWAP2 PUSH1 0x20 MUL DUP3 ADD PUSH1 0x0 JUMPDEST DUP4 DUP3 GT ISZERO PUSH2 0x1DDD JUMPI DUP4 MLOAD DUP4 DUP3 PUSH2 0x100 EXP DUP2 SLOAD DUP2 PUSH1 0xFF MUL NOT AND SWAP1 DUP4 PUSH1 0xFF AND MUL OR SWAP1 SSTORE POP SWAP3 PUSH1 0x20 ADD SWAP3 PUSH1 0x1 ADD PUSH1 0x20 DUP2 PUSH1 0x0 ADD DIV SWAP3 DUP4 ADD SWAP3 PUSH1 0x1 SUB MUL PUSH2 0x1D9F JUMP JUMPDEST DUP1 ISZERO PUSH2 0x1E0A JUMPI DUP3 DUP2 PUSH2 0x100 EXP DUP2 SLOAD SWAP1 PUSH1 0xFF MUL NOT AND SWAP1 SSTORE PUSH1 0x1 ADD PUSH1 0x20 DUP2 PUSH1 0x0 ADD DIV SWAP3 DUP4 ADD SWAP3 PUSH1 0x1 SUB MUL PUSH2 0x1DDD JUMP JUMPDEST POP JUMPDEST POP SWAP1 POP PUSH2 0x1E19 SWAP2 SWAP1 PUSH2 0x210D JUMP JUMPDEST POP SWAP1 JUMP JUMPDEST PUSH1 0x40 MLOAD DUP1 PUSH1 0xC0 ADD PUSH1 0x40 MSTORE DUP1 PUSH1 0x6 SWAP1 JUMPDEST PUSH2 0x1E34 PUSH2 0x220B JUMP JUMPDEST DUP2 MSTORE PUSH1 0x20 ADD SWAP1 PUSH1 0x1 SWAP1 SUB SWAP1 DUP2 PUSH2 0x1E2C JUMPI SWAP1 POP POP SWAP1 JUMP JUMPDEST DUP3 PUSH1 0x6 DUP1 MUL DUP2 ADD SWAP3 DUP3 ISZERO PUSH2 0x1E89 JUMPI SWAP2 PUSH1 0x20 MUL DUP3 ADD JUMPDEST DUP3 DUP2 GT ISZERO PUSH2 0x1E88 JUMPI DUP3 MLOAD DUP3 SWAP1 PUSH1 0x6 PUSH2 0x1E78 SWAP3 SWAP2 SWAP1 PUSH2 0x222D JUMP JUMPDEST POP SWAP2 PUSH1 0x20 ADD SWAP2 SWAP1 PUSH1 0x6 ADD SWAP1 PUSH2 0x1E5F JUMP JUMPDEST JUMPDEST POP SWAP1 POP PUSH2 0x1E96 SWAP2 SWAP1 PUSH2 0x226D JUMP JUMPDEST POP SWAP1 JUMP JUMPDEST PUSH1 0x40 MLOAD DUP1 PUSH1 0x60 ADD PUSH1 0x40 MSTORE DUP1 PUSH1 0x3 SWAP1 JUMPDEST PUSH2 0x1EB1 PUSH2 0x2057 JUMP JUMPDEST DUP2 MSTORE PUSH1 0x20 ADD SWAP1 PUSH1 0x1 SWAP1 SUB SWAP1 DUP2 PUSH2 0x1EA9 JUMPI SWAP1 POP POP SWAP1 JUMP JUMPDEST DUP3 PUSH1 0x3 DUP2 ADD SWAP3 DUP3 ISZERO PUSH2 0x1F04 JUMPI SWAP2 PUSH1 0x20 MUL DUP3 ADD JUMPDEST DUP3 DUP2 GT ISZERO PUSH2 0x1F03 JUMPI DUP3 MLOAD DUP3 SWAP1 PUSH1 0x6 PUSH2 0x1EF3 SWAP3 SWAP2 SWAP1 PUSH2 0x2291 JUMP JUMPDEST POP SWAP2 PUSH1 0x20 ADD SWAP2 SWAP1 PUSH1 0x1 ADD SWAP1 PUSH2 0x1EDA JUMP JUMPDEST JUMPDEST POP SWAP1 POP PUSH2 0x1F11 SWAP2 SWAP1 PUSH2 0x232A JUMP JUMPDEST POP SWAP1 JUMP JUMPDEST PUSH1 0x40 MLOAD DUP1 PUSH1 0x60 ADD PUSH1 0x40 MSTORE DUP1 PUSH1 0x3 SWAP1 JUMPDEST PUSH2 0x1F2C PUSH2 0x234E JUMP JUMPDEST DUP2 MSTORE PUSH1 0x20 ADD SWAP1 PUSH1 0x1 SWAP1 SUB SWAP1 DUP2 PUSH2 0x1F24 JUMPI SWAP1 POP POP SWAP1 JUMP JUMPDEST DUP3 PUSH1 0x3 DUP2 ADD SWAP3 DUP3 ISZERO PUSH2 0x1F7F JUMPI SWAP2 PUSH1 0x20 MUL DUP3 ADD JUMPDEST DUP3 DUP2 GT ISZERO PUSH2 0x1F7E JUMPI DUP3 MLOAD DUP3 SWAP1 PUSH1 0x3 PUSH2 0x1F6E SWAP3 SWAP2 SWAP1 PUSH2 0x2370 JUMP JUMPDEST POP SWAP2 PUSH1 0x20 ADD SWAP2 SWAP1 PUSH1 0x1 ADD SWAP1 PUSH2 0x1F55 JUMP JUMPDEST JUMPDEST POP SWAP1 POP PUSH2 0x1F8C SWAP2 SWAP1 PUSH2 0x2409 JUMP JUMPDEST POP SWAP1 JUMP JUMPDEST DUP3 PUSH1 0x2 PUSH1 0x1F ADD PUSH1 0x20 SWAP1 DIV DUP2 ADD SWAP3 DUP3 ISZERO PUSH2 0x2019 JUMPI SWAP2 PUSH1 0x20 MUL DUP3 ADD PUSH1 0x0 JUMPDEST DUP4 DUP3 GT ISZERO PUSH2 0x1FEA JUMPI DUP4 MLOAD DUP4 DUP3 PUSH2 0x100 EXP DUP2 SLOAD DUP2 PUSH1 0xFF MUL NOT AND SWAP1 DUP4 PUSH1 0xFF AND MUL OR SWAP1 SSTORE POP SWAP3 PUSH1 0x20 ADD SWAP3 PUSH1 0x1 ADD PUSH1 0x20 DUP2 PUSH1 0x0 ADD DIV SWAP3 DUP4 ADD SWAP3 PUSH1 0x1 SUB MUL PUSH2 0x1FAC JUMP JUMPDEST DUP1 ISZERO PUSH2 0x2017 JUMPI DUP3 DUP2 PUSH2 0x100 EXP DUP2 SLOAD SWAP1 PUSH1 0xFF MUL NOT AND SWAP1 SSTORE PUSH1 0x1 ADD PUSH1 0x20 DUP2 PUSH1 0x0 ADD DIV SWAP3 DUP4 ADD SWAP3 PUSH1 0x1 SUB MUL PUSH2 0x1FEA JUMP JUMPDEST POP JUMPDEST POP SWAP1 POP PUSH2 0x2026 SWAP2 SWAP1 PUSH2 0x210D JUMP JUMPDEST POP SWAP1 JUMP JUMPDEST PUSH1 0x40 MLOAD DUP1 PUSH1 0x40 ADD PUSH1 0x40 MSTORE DUP1 PUSH1 0x2 SWAP1 JUMPDEST PUSH2 0x2041 PUSH2 0x2057 JUMP JUMPDEST DUP2 MSTORE PUSH1 0x20 ADD SWAP1 PUSH1 0x1 SWAP1 SUB SWAP1 DUP2 PUSH2 0x2039 JUMPI SWAP1 POP POP SWAP1 JUMP JUMPDEST PUSH1 0x40 MLOAD DUP1 PUSH1 0xC0 ADD PUSH1 0x40 MSTORE DUP1 PUSH1 0x6 SWAP1 PUSH1 0x20 DUP3 MUL DUP1 CALLDATASIZE DUP4 CALLDATACOPY DUP1 DUP3 ADD SWAP2 POP POP SWAP1 POP POP SWAP1 JUMP JUMPDEST PUSH1 0x40 MLOAD DUP1 PUSH1 0x80 ADD PUSH1 0x40 MSTORE DUP1 PUSH1 0x4 SWAP1 PUSH1 0x20 DUP3 MUL DUP1 CALLDATASIZE DUP4 CALLDATACOPY DUP1 DUP3 ADD SWAP2 POP POP SWAP1 POP POP SWAP1 JUMP JUMPDEST DUP3 PUSH1 0x6 DUP2 ADD SWAP3 DUP3 ISZERO PUSH2 0x20D8 JUMPI SWAP2 PUSH1 0x20 MUL DUP3 ADD JUMPDEST DUP3 DUP2 GT ISZERO PUSH2 0x20D7 JUMPI DUP3 MLOAD DUP3 SWAP1 PUSH1 0x6 PUSH2 0x20C7 SWAP3 SWAP2 SWAP1 PUSH2 0x242D JUMP JUMPDEST POP SWAP2 PUSH1 0x20 ADD SWAP2 SWAP1 PUSH1 0x1 ADD SWAP1 PUSH2 0x20AE JUMP JUMPDEST JUMPDEST POP SWAP1 POP PUSH2 0x20E5 SWAP2 SWAP1 PUSH2 0x24C7 JUMP JUMPDEST POP SWAP1 JUMP JUMPDEST JUMPDEST DUP1 DUP3 GT ISZERO PUSH2 0x2109 JUMPI PUSH1 0x0 DUP2 DUP2 PUSH2 0x2100 SWAP2 SWAP1 PUSH2 0x24EB JUMP JUMPDEST POP PUSH1 0x6 ADD PUSH2 0x20EA JUMP JUMPDEST POP SWAP1 JUMP JUMPDEST JUMPDEST DUP1 DUP3 GT ISZERO PUSH2 0x2126 JUMPI PUSH1 0x0 DUP2 PUSH1 0x0 SWAP1 SSTORE POP PUSH1 0x1 ADD PUSH2 0x210E JUMP JUMPDEST POP SWAP1 JUMP JUMPDEST PUSH1 0x40 MLOAD DUP1 PUSH2 0x200 ADD PUSH1 0x40 MSTORE DUP1 PUSH1 0x10 SWAP1 PUSH1 0x20 DUP3 MUL DUP1 CALLDATASIZE DUP4 CALLDATACOPY DUP1 DUP3 ADD SWAP2 POP POP SWAP1 POP POP SWAP1 JUMP JUMPDEST DUP3 PUSH1 0x10 PUSH1 0x1F ADD PUSH1 0x20 SWAP1 DIV DUP2 ADD SWAP3 DUP3 ISZERO PUSH2 0x21D6 JUMPI SWAP2 PUSH1 0x20 MUL DUP3 ADD PUSH1 0x0 JUMPDEST DUP4 DUP3 GT ISZERO PUSH2 0x21A7 JUMPI DUP4 MLOAD DUP4 DUP3 PUSH2 0x100 EXP DUP2 SLOAD DUP2 PUSH1 0xFF MUL NOT AND SWAP1 DUP4 PUSH1 0xFF AND MUL OR SWAP1 SSTORE POP SWAP3 PUSH1 0x20 ADD SWAP3 PUSH1 0x1 ADD PUSH1 0x20 DUP2 PUSH1 0x0 ADD DIV SWAP3 DUP4 ADD SWAP3 PUSH1 0x1 SUB MUL PUSH2 0x2169 JUMP JUMPDEST DUP1 ISZERO PUSH2 0x21D4 JUMPI DUP3 DUP2 PUSH2 0x100 EXP DUP2 SLOAD SWAP1 PUSH1 0xFF MUL NOT AND SWAP1 SSTORE PUSH1 0x1 ADD PUSH1 0x20 DUP2 PUSH1 0x0 ADD DIV SWAP3 DUP4 ADD SWAP3 PUSH1 0x1 SUB MUL PUSH2 0x21A7 JUMP JUMPDEST POP JUMPDEST POP SWAP1 POP PUSH2 0x21E3 SWAP2 SWAP1 PUSH2 0x210D JUMP JUMPDEST POP SWAP1 JUMP JUMPDEST JUMPDEST DUP1 DUP3 GT ISZERO PUSH2 0x2207 JUMPI PUSH1 0x0 DUP2 DUP2 PUSH2 0x21FE SWAP2 SWAP1 PUSH2 0x24FE JUMP JUMPDEST POP PUSH1 0x1 ADD PUSH2 0x21E8 JUMP JUMPDEST POP SWAP1 JUMP JUMPDEST PUSH1 0x40 MLOAD DUP1 PUSH1 0xC0 ADD PUSH1 0x40 MSTORE DUP1 PUSH1 0x6 SWAP1 PUSH1 0x20 DUP3 MUL DUP1 CALLDATASIZE DUP4 CALLDATACOPY DUP1 DUP3 ADD SWAP2 POP POP SWAP1 POP POP SWAP1 JUMP JUMPDEST DUP3 PUSH1 0x6 DUP2 ADD SWAP3 DUP3 ISZERO PUSH2 0x225C JUMPI SWAP2 PUSH1 0x20 MUL DUP3 ADD JUMPDEST DUP3 DUP2 GT ISZERO PUSH2 0x225B JUMPI DUP3 MLOAD DUP3 SSTORE SWAP2 PUSH1 0x20 ADD SWAP2 SWAP1 PUSH1 0x1 ADD SWAP1 PUSH2 0x2240 JUMP JUMPDEST JUMPDEST POP SWAP1 POP PUSH2 0x2269 SWAP2 SWAP1 PUSH2 0x210D JUMP JUMPDEST POP SWAP1 JUMP JUMPDEST JUMPDEST DUP1 DUP3 GT ISZERO PUSH2 0x228D JUMPI PUSH1 0x0 DUP2 DUP2 PUSH2 0x2284 SWAP2 SWAP1 PUSH2 0x2505 JUMP JUMPDEST POP PUSH1 0x6 ADD PUSH2 0x226E JUMP JUMPDEST POP SWAP1 JUMP JUMPDEST DUP3 PUSH1 0x6 PUSH1 0x1F ADD PUSH1 0x20 SWAP1 DIV DUP2 ADD SWAP3 DUP3 ISZERO PUSH2 0x2319 JUMPI SWAP2 PUSH1 0x20 MUL DUP3 ADD PUSH1 0x0 JUMPDEST DUP4 DUP3 GT ISZERO PUSH2 0x22EA JUMPI DUP4 MLOAD DUP4 DUP3 PUSH2 0x100 EXP DUP2 SLOAD DUP2 PUSH1 0xFF MUL NOT AND SWAP1 DUP4 ISZERO ISZERO MUL OR SWAP1 SSTORE POP SWAP3 PUSH1 0x20 ADD SWAP3 PUSH1 0x1 ADD PUSH1 0x20 DUP2 PUSH1 0x0 ADD DIV SWAP3 DUP4 ADD SWAP3 PUSH1 0x1 SUB MUL PUSH2 0x22AD JUMP JUMPDEST DUP1 ISZERO PUSH2 0x2317 JUMPI DUP3 DUP2 PUSH2 0x100 EXP DUP2 SLOAD SWAP1 PUSH1 0xFF MUL NOT AND SWAP1 SSTORE PUSH1 0x1 ADD PUSH1 0x20 DUP2 PUSH1 0x0 ADD DIV SWAP3 DUP4 ADD SWAP3 PUSH1 0x1 SUB MUL PUSH2 0x22EA JUMP JUMPDEST POP JUMPDEST POP SWAP1 POP PUSH2 0x2326 SWAP2 SWAP1 PUSH2 0x210D JUMP JUMPDEST POP SWAP1 JUMP JUMPDEST JUMPDEST DUP1 DUP3 GT ISZERO PUSH2 0x234A JUMPI PUSH1 0x0 DUP2 DUP2 PUSH2 0x2341 SWAP2 SWAP1 PUSH2 0x2518 JUMP JUMPDEST POP PUSH1 0x1 ADD PUSH2 0x232B JUMP JUMPDEST POP SWAP1 JUMP JUMPDEST PUSH1 0x40 MLOAD DUP1 PUSH1 0x60 ADD PUSH1 0x40 MSTORE DUP1 PUSH1 0x3 SWAP1 PUSH1 0x20 DUP3 MUL DUP1 CALLDATASIZE DUP4 CALLDATACOPY DUP1 DUP3 ADD SWAP2 POP POP SWAP1 POP POP SWAP1 JUMP JUMPDEST DUP3 PUSH1 0x3 PUSH1 0x1F ADD PUSH1 0x20 SWAP1 DIV DUP2 ADD SWAP3 DUP3 ISZERO PUSH2 0x23F8 JUMPI SWAP2 PUSH1 0x20 MUL DUP3 ADD PUSH1 0x0 JUMPDEST DUP4 DUP3 GT ISZERO PUSH2 0x23C9 JUMPI DUP4 MLOAD DUP4 DUP3 PUSH2 0x100 EXP DUP2 SLOAD DUP2 PUSH1 0xFF MUL NOT AND SWAP1 DUP4 ISZERO ISZERO MUL OR SWAP1 SSTORE POP SWAP3 PUSH1 0x20 ADD SWAP3 PUSH1 0x1 ADD PUSH1 0x20 DUP2 PUSH1 0x0 ADD DIV SWAP3 DUP4 ADD SWAP3 PUSH1 0x1 SUB MUL PUSH2 0x238C JUMP JUMPDEST DUP1 ISZERO PUSH2 0x23F6 JUMPI DUP3 DUP2 PUSH2 0x100 EXP DUP2 SLOAD SWAP1 PUSH1 0xFF MUL NOT AND SWAP1 SSTORE PUSH1 0x1 ADD PUSH1 0x20 DUP2 PUSH1 0x0 ADD DIV SWAP3 DUP4 ADD SWAP3 PUSH1 0x1 SUB MUL PUSH2 0x23C9 JUMP JUMPDEST POP JUMPDEST POP SWAP1 POP PUSH2 0x2405 SWAP2 SWAP1 PUSH2 0x210D JUMP JUMPDEST POP SWAP1 JUMP JUMPDEST JUMPDEST DUP1 DUP3 GT ISZERO PUSH2 0x2429 JUMPI PUSH1 0x0 DUP2 DUP2 PUSH2 0x2420 SWAP2 SWAP1 PUSH2 0x251F JUMP JUMPDEST POP PUSH1 0x1 ADD PUSH2 0x240A JUMP JUMPDEST POP SWAP1 JUMP JUMPDEST DUP3 PUSH1 0x6 PUSH1 0x1F ADD PUSH1 0x20 SWAP1 DIV DUP2 ADD SWAP3 DUP3 ISZERO PUSH2 0x24B6 JUMPI SWAP2 PUSH1 0x20 MUL DUP3 ADD PUSH1 0x0 JUMPDEST DUP4 DUP3 GT ISZERO PUSH2 0x2487 JUMPI DUP4 MLOAD DUP4 DUP3 PUSH2 0x100 EXP DUP2 SLOAD DUP2 PUSH1 0xFF MUL NOT AND SWAP1 DUP4 PUSH1 0xFF AND MUL OR SWAP1 SSTORE POP SWAP3 PUSH1 0x20 ADD SWAP3 PUSH1 0x1 ADD PUSH1 0x20 DUP2 PUSH1 0x0 ADD DIV SWAP3 DUP4 ADD SWAP3 PUSH1 0x1 SUB MUL PUSH2 0x2449 JUMP JUMPDEST DUP1 ISZERO PUSH2 0x24B4 JUMPI DUP3 DUP2 PUSH2 0x100 EXP DUP2 SLOAD SWAP1 PUSH1 0xFF MUL NOT AND SWAP1 SSTORE PUSH1 0x1 ADD PUSH1 0x20 DUP2 PUSH1 0x0 ADD DIV SWAP3 DUP4 ADD SWAP3 PUSH1 0x1 SUB MUL PUSH2 0x2487 JUMP JUMPDEST POP JUMPDEST POP SWAP1 POP PUSH2 0x24C3 SWAP2 SWAP1 PUSH2 0x210D JUMP JUMPDEST POP SWAP1 JUMP JUMPDEST JUMPDEST DUP1 DUP3 GT ISZERO PUSH2 0x24E7 JUMPI PUSH1 0x0 DUP2 DUP2 PUSH2 0x24DE SWAP2 SWAP1 PUSH2 0x2526 JUMP JUMPDEST POP PUSH1 0x1 ADD PUSH2 0x24C8 JUMP JUMPDEST POP SWAP1 JUMP JUMPDEST POP DUP1 PUSH1 0x6 ADD SWAP1 PUSH2 0x24FB SWAP2 SWAP1 PUSH2 0x24C7 JUMP JUMPDEST POP JUMP JUMPDEST POP PUSH1 0x0 SWAP1 SSTORE JUMP JUMPDEST POP DUP1 PUSH1 0x6 ADD SWAP1 PUSH2 0x2515 SWAP2 SWAP1 PUSH2 0x210D JUMP JUMPDEST POP JUMP JUMPDEST POP PUSH1 0x0 SWAP1 SSTORE JUMP JUMPDEST POP PUSH1 0x0 SWAP1 SSTORE JUMP JUMPDEST POP PUSH1 0x0 SWAP1 SSTORE JUMP JUMPDEST PUSH1 0x0 PUSH1 0x5 SWAP1 POP SWAP2 SWAP1 POP JUMP JUMPDEST PUSH1 0x0 DUP2 SWAP1 POP SWAP3 SWAP2 POP POP JUMP JUMPDEST PUSH1 0x0 DUP2 SWAP1 POP SWAP2 SWAP1 POP JUMP JUMPDEST PUSH1 0x0 PUSH1 0x2 SWAP1 POP SWAP2 SWAP1 POP JUMP JUMPDEST PUSH1 0x0 DUP2 SWAP1 POP SWAP3 SWAP2 POP POP JUMP JUMPDEST PUSH1 0x0 DUP2 SWAP1 POP SWAP2 SWAP1 POP JUMP JUMPDEST PUSH1 0x0 PUSH1 0x6 SWAP1 POP SWAP2 SWAP1 POP JUMP JUMPDEST PUSH1 0x0 DUP2 SWAP1 POP SWAP3 SWAP2 POP POP JUMP JUMPDEST PUSH1 0x0 DUP2 SWAP1 POP SWAP2 SWAP1 POP JUMP JUMPDEST PUSH1 0x0 DUP2 ISZERO ISZERO SWAP1 POP SWAP2 SWAP1 POP JUMP JUMPDEST PUSH2 0x25A2 DUP2 PUSH2 0x258D JUMP JUMPDEST DUP3 MSTORE POP POP JUMP JUMPDEST PUSH1 0x0 PUSH2 0x25B4 DUP4 DUP4 PUSH2 0x2599 JUMP JUMPDEST PUSH1 0x20 DUP4 ADD SWAP1 POP SWAP3 SWAP2 POP POP JUMP JUMPDEST PUSH1 0x0 PUSH1 0x20 DUP3 ADD SWAP1 POP SWAP2 SWAP1 POP JUMP JUMPDEST PUSH2 0x25D6 DUP2 PUSH2 0x256D JUMP JUMPDEST PUSH2 0x25E0 DUP2 DUP5 PUSH2 0x2578 JUMP JUMPDEST SWAP3 POP PUSH2 0x25EB DUP3 PUSH2 0x2583 JUMP JUMPDEST DUP1 PUSH1 0x0 JUMPDEST DUP4 DUP2 LT ISZERO PUSH2 0x261C JUMPI DUP2 MLOAD PUSH2 0x2603 DUP8 DUP3 PUSH2 0x25A8 JUMP JUMPDEST SWAP7 POP PUSH2 0x260E DUP4 PUSH2 0x25C0 JUMP JUMPDEST SWAP3 POP POP PUSH1 0x1 DUP2 ADD SWAP1 POP PUSH2 0x25EF JUMP JUMPDEST POP POP POP POP POP POP JUMP JUMPDEST PUSH1 0x0 PUSH2 0x2630 DUP4 DUP4 PUSH2 0x25CD JUMP JUMPDEST PUSH1 0xC0 DUP4 ADD SWAP1 POP SWAP3 SWAP2 POP POP JUMP JUMPDEST PUSH1 0x0 PUSH1 0x20 DUP3 ADD SWAP1 POP SWAP2 SWAP1 POP JUMP JUMPDEST PUSH2 0x2652 DUP2 PUSH2 0x254D JUMP JUMPDEST PUSH2 0x265C DUP2 DUP5 PUSH2 0x2558 JUMP JUMPDEST SWAP3 POP PUSH2 0x2667 DUP3 PUSH2 0x2563 JUMP JUMPDEST DUP1 PUSH1 0x0 JUMPDEST DUP4 DUP2 LT ISZERO PUSH2 0x2698 JUMPI DUP2 MLOAD PUSH2 0x267F DUP8 DUP3 PUSH2 0x2624 JUMP JUMPDEST SWAP7 POP PUSH2 0x268A DUP4 PUSH2 0x263C JUMP JUMPDEST SWAP3 POP POP PUSH1 0x1 DUP2 ADD SWAP1 POP PUSH2 0x266B JUMP JUMPDEST POP POP POP POP POP POP JUMP JUMPDEST PUSH1 0x0 PUSH2 0x26AC DUP4 DUP4 PUSH2 0x2649 JUMP JUMPDEST PUSH2 0x180 DUP4 ADD SWAP1 POP SWAP3 SWAP2 POP POP JUMP JUMPDEST PUSH1 0x0 PUSH1 0x20 DUP3 ADD SWAP1 POP SWAP2 SWAP1 POP JUMP JUMPDEST PUSH2 0x26CF DUP2 PUSH2 0x252D JUMP JUMPDEST PUSH2 0x26D9 DUP2 DUP5 PUSH2 0x2538 JUMP JUMPDEST SWAP3 POP PUSH2 0x26E4 DUP3 PUSH2 0x2543 JUMP JUMPDEST DUP1 PUSH1 0x0 JUMPDEST DUP4 DUP2 LT ISZERO PUSH2 0x2715 JUMPI DUP2 MLOAD PUSH2 0x26FC DUP8 DUP3 PUSH2 0x26A0 JUMP JUMPDEST SWAP7 POP PUSH2 0x2707 DUP4 PUSH2 0x26B9 JUMP JUMPDEST SWAP3 POP POP PUSH1 0x1 DUP2 ADD SWAP1 POP PUSH2 0x26E8 JUMP JUMPDEST POP POP POP POP POP POP JUMP JUMPDEST PUSH1 0x0 PUSH2 0x780 DUP3 ADD SWAP1 POP PUSH2 0x2733 PUSH1 0x0 DUP4 ADD DUP5 PUSH2 0x26C6 JUMP JUMPDEST SWAP3 SWAP2 POP POP JUMP JUMPDEST PUSH1 0x0 PUSH1 0x40 MLOAD SWAP1 POP SWAP1 JUMP JUMPDEST PUSH1 0x0 DUP1 REVERT JUMPDEST PUSH1 0x0 DUP1 REVERT JUMPDEST PUSH1 0x0 PUSH20 0xFFFFFFFFFFFFFFFFFFFFFFFFFFFFFFFFFFFFFFFF DUP3 AND SWAP1 POP SWAP2 SWAP1 POP JUMP JUMPDEST PUSH1 0x0 PUSH2 0x2778 DUP3 PUSH2 0x274D JUMP JUMPDEST SWAP1 POP SWAP2 SWAP1 POP JUMP JUMPDEST PUSH2 0x2788 DUP2 PUSH2 0x276D JUMP JUMPDEST DUP2 EQ PUSH2 0x2793 JUMPI PUSH1 0x0 DUP1 REVERT JUMPDEST POP JUMP JUMPDEST PUSH1 0x0 DUP2 CALLDATALOAD SWAP1 POP PUSH2 0x27A5 DUP2 PUSH2 0x277F JUMP JUMPDEST SWAP3 SWAP2 POP POP JUMP JUMPDEST PUSH1 0x0 PUSH1 0x20 DUP3 DUP5 SUB SLT ISZERO PUSH2 0x27C1 JUMPI PUSH2 0x27C0 PUSH2 0x2743 JUMP JUMPDEST JUMPDEST PUSH1 0x0 PUSH2 0x27CF DUP5 DUP3 DUP6 ADD PUSH2 0x2796 JUMP JUMPDEST SWAP2 POP POP SWAP3 SWAP2 POP POP JUMP JUMPDEST PUSH1 0x0 PUSH1 0x3 SWAP1 POP SWAP2 SWAP1 POP JUMP JUMPDEST PUSH1 0x0 DUP2 SWAP1 POP SWAP3 SWAP2 POP POP JUMP JUMPDEST PUSH1 0x0 DUP2 SWAP1 POP SWAP2 SWAP1 POP JUMP JUMPDEST PUSH1 0x0 PUSH1 0x20 DUP3 ADD SWAP1 POP SWAP2 SWAP1 POP JUMP JUMPDEST PUSH2 0x280E DUP2 PUSH2 0x27D8 JUMP JUMPDEST PUSH2 0x2818 DUP2 DUP5 PUSH2 0x27E3 JUMP JUMPDEST SWAP3 POP PUSH2 0x2823 DUP3 PUSH2 0x27EE JUMP JUMPDEST DUP1 PUSH1 0x0 JUMPDEST DUP4 DUP2 LT ISZERO PUSH2 0x2854 JUMPI DUP2 MLOAD PUSH2 0x283B DUP8 DUP3 PUSH2 0x2624 JUMP JUMPDEST SWAP7 POP PUSH2 0x2846 DUP4 PUSH2 0x27F8 JUMP JUMPDEST SWAP3 POP POP PUSH1 0x1 DUP2 ADD SWAP1 POP PUSH2 0x2827 JUMP JUMPDEST POP POP POP POP POP POP JUMP JUMPDEST PUSH1 0x0 PUSH1 0x3 SWAP1 POP SWAP2 SWAP1 POP JUMP JUMPDEST PUSH1 0x0 DUP2 SWAP1 POP SWAP3 SWAP2 POP POP JUMP JUMPDEST PUSH1 0x0 DUP2 SWAP1 POP SWAP2 SWAP1 POP JUMP JUMPDEST PUSH1 0x0 PUSH1 0x3 SWAP1 POP SWAP2 SWAP1 POP JUMP JUMPDEST PUSH1 0x0 DUP2 SWAP1 POP SWAP3 SWAP2 POP POP JUMP JUMPDEST PUSH1 0x0 DUP2 SWAP1 POP SWAP2 SWAP1 POP JUMP JUMPDEST PUSH1 0x0 PUSH1 0x20 DUP3 ADD SWAP1 POP SWAP2 SWAP1 POP JUMP JUMPDEST PUSH2 0x28B2 DUP2 PUSH2 0x287C JUMP JUMPDEST PUSH2 0x28BC DUP2 DUP5 PUSH2 0x2887 JUMP JUMPDEST SWAP3 POP PUSH2 0x28C7 DUP3 PUSH2 0x2892 JUMP JUMPDEST DUP1 PUSH1 0x0 JUMPDEST DUP4 DUP2 LT ISZERO PUSH2 0x28F8 JUMPI DUP2 MLOAD PUSH2 0x28DF DUP8 DUP3 PUSH2 0x25A8 JUMP JUMPDEST SWAP7 POP PUSH2 0x28EA DUP4 PUSH2 0x289C JUMP JUMPDEST SWAP3 POP POP PUSH1 0x1 DUP2 ADD SWAP1 POP PUSH2 0x28CB JUMP JUMPDEST POP POP POP POP POP POP JUMP JUMPDEST PUSH1 0x0 PUSH2 0x290C DUP4 DUP4 PUSH2 0x28A9 JUMP JUMPDEST PUSH1 0x60 DUP4 ADD SWAP1 POP SWAP3 SWAP2 POP POP JUMP JUMPDEST PUSH1 0x0 PUSH1 0x20 DUP3 ADD SWAP1 POP SWAP2 SWAP1 POP JUMP JUMPDEST PUSH2 0x292E DUP2 PUSH2 0x285C JUMP JUMPDEST PUSH2 0x2938 DUP2 DUP5 PUSH2 0x2867 JUMP JUMPDEST SWAP3 POP PUSH2 0x2943 DUP3 PUSH2 0x2872 JUMP JUMPDEST DUP1 PUSH1 0x0 JUMPDEST DUP4 DUP2 LT ISZERO PUSH2 0x2974 JUMPI DUP2 MLOAD PUSH2 0x295B DUP8 DUP3 PUSH2 0x2900 JUMP JUMPDEST SWAP7 POP PUSH2 0x2966 DUP4 PUSH2 0x2918 JUMP JUMPDEST SWAP3 POP POP PUSH1 0x1 DUP2 ADD SWAP1 POP PUSH2 0x2947 JUMP JUMPDEST POP POP POP POP POP POP JUMP JUMPDEST PUSH1 0x0 DUP2 PUSH1 0x0 SIGNEXTEND SWAP1 POP SWAP2 SWAP1 POP JUMP JUMPDEST PUSH2 0x2992 DUP2 PUSH2 0x297C JUMP JUMPDEST DUP3 MSTORE POP POP JUMP JUMPDEST PUSH1 0x0 PUSH1 0x2 SWAP1 POP SWAP2 SWAP1 POP JUMP JUMPDEST PUSH1 0x0 DUP2 SWAP1 POP SWAP3 SWAP2 POP POP JUMP JUMPDEST PUSH1 0x0 DUP2 SWAP1 POP SWAP2 SWAP1 POP JUMP JUMPDEST PUSH1 0x0 PUSH1 0xFF DUP3 AND SWAP1 POP SWAP2 SWAP1 POP JUMP JUMPDEST PUSH2 0x29CE DUP2 PUSH2 0x29B8 JUMP JUMPDEST DUP3 MSTORE POP POP JUMP JUMPDEST PUSH1 0x0 PUSH2 0x29E0 DUP4 DUP4 PUSH2 0x29C5 JUMP JUMPDEST PUSH1 0x20 DUP4 ADD SWAP1 POP SWAP3 SWAP2 POP POP JUMP JUMPDEST PUSH1 0x0 PUSH1 0x20 DUP3 ADD SWAP1 POP SWAP2 SWAP1 POP JUMP JUMPDEST PUSH2 0x2A02 DUP2 PUSH2 0x2998 JUMP JUMPDEST PUSH2 0x2A0C DUP2 DUP5 PUSH2 0x29A3 JUMP JUMPDEST SWAP3 POP PUSH2 0x2A17 DUP3 PUSH2 0x29AE JUMP JUMPDEST DUP1 PUSH1 0x0 JUMPDEST DUP4 DUP2 LT ISZERO PUSH2 0x2A48 JUMPI DUP2 MLOAD PUSH2 0x2A2F DUP8 DUP3 PUSH2 0x29D4 JUMP JUMPDEST SWAP7 POP PUSH2 0x2A3A DUP4 PUSH2 0x29EC JUMP JUMPDEST SWAP3 POP POP PUSH1 0x1 DUP2 ADD SWAP1 POP PUSH2 0x2A1B JUMP JUMPDEST POP POP POP POP POP POP JUMP JUMPDEST PUSH2 0x620 DUP3 ADD PUSH1 0x0 DUP3 ADD MLOAD PUSH2 0x2A67 PUSH1 0x0 DUP6 ADD DUP3 PUSH2 0x2805 JUMP JUMPDEST POP PUSH1 0x20 DUP3 ADD MLOAD PUSH2 0x2A7B PUSH2 0x240 DUP6 ADD DUP3 PUSH2 0x2805 JUMP JUMPDEST POP PUSH1 0x40 DUP3 ADD MLOAD PUSH2 0x2A8F PUSH2 0x480 DUP6 ADD DUP3 PUSH2 0x2925 JUMP JUMPDEST POP PUSH1 0x60 DUP3 ADD MLOAD PUSH2 0x2AA3 PUSH2 0x5A0 DUP6 ADD DUP3 PUSH2 0x2989 JUMP JUMPDEST POP PUSH1 0x80 DUP3 ADD MLOAD PUSH2 0x2AB7 PUSH2 0x5C0 DUP6 ADD DUP3 PUSH2 0x2599 JUMP JUMPDEST POP PUSH1 0xA0 DUP3 ADD MLOAD PUSH2 0x2ACB PUSH2 0x5E0 DUP6 ADD DUP3 PUSH2 0x29F9 JUMP JUMPDEST POP POP POP POP JUMP JUMPDEST PUSH1 0x0 PUSH2 0x620 DUP3 ADD SWAP1 POP PUSH2 0x2AE7 PUSH1 0x0 DUP4 ADD DUP5 PUSH2 0x2A50 JUMP JUMPDEST SWAP3 SWAP2 POP POP JUMP JUMPDEST PUSH2 0x2AF6 DUP2 PUSH2 0x29B8 JUMP JUMPDEST DUP3 MSTORE POP POP JUMP JUMPDEST PUSH1 0x0 PUSH1 0x20 DUP3 ADD SWAP1 POP PUSH2 0x2B11 PUSH1 0x0 DUP4 ADD DUP5 PUSH2 0x2AED JUMP JUMPDEST SWAP3 SWAP2 POP POP JUMP JUMPDEST PUSH1 0x60 DUP3 ADD PUSH1 0x0 DUP3 ADD MLOAD PUSH2 0x2B2D PUSH1 0x0 DUP6 ADD DUP3 PUSH2 0x29C5 JUMP JUMPDEST POP PUSH1 0x20 DUP3 ADD MLOAD PUSH2 0x2B40 PUSH1 0x20 DUP6 ADD DUP3 PUSH2 0x29C5 JUMP JUMPDEST POP PUSH1 0x40 DUP3 ADD MLOAD PUSH2 0x2B53 PUSH1 0x40 DUP6 ADD DUP3 PUSH2 0x29C5 JUMP JUMPDEST POP POP POP POP JUMP JUMPDEST PUSH1 0x0 PUSH1 0x60 DUP3 ADD SWAP1 POP PUSH2 0x2B6E PUSH1 0x0 DUP4 ADD DUP5 PUSH2 0x2B17 JUMP JUMPDEST SWAP3 SWAP2 POP POP JUMP JUMPDEST PUSH1 0x0 PUSH1 0x6 SWAP1 POP SWAP2 SWAP1 POP JUMP JUMPDEST PUSH1 0x0 DUP2 SWAP1 POP SWAP3 SWAP2 POP POP JUMP JUMPDEST PUSH1 0x0 DUP2 SWAP1 POP SWAP2 SWAP1 POP JUMP JUMPDEST PUSH1 0x0 PUSH1 0x6 SWAP1 POP SWAP2 SWAP1 POP JUMP JUMPDEST PUSH1 0x0 DUP2 SWAP1 POP SWAP3 SWAP2 POP POP JUMP JUMPDEST PUSH1 0x0 DUP2 SWAP1 POP SWAP2 SWAP1 POP JUMP JUMPDEST PUSH1 0x0 PUSH1 0x6 SWAP1 POP SWAP2 SWAP1 POP JUMP JUMPDEST PUSH1 0x0 DUP2 SWAP1 POP SWAP3 SWAP2 POP POP JUMP JUMPDEST PUSH1 0x0 DUP2 SWAP1 POP SWAP2 SWAP1 POP JUMP JUMPDEST PUSH1 0x0 PUSH1 0x20 DUP3 ADD SWAP1 POP SWAP2 SWAP1 POP JUMP JUMPDEST PUSH2 0x2BEA DUP2 PUSH2 0x2BB4 JUMP JUMPDEST PUSH2 0x2BF4 DUP2 DUP5 PUSH2 0x2BBF JUMP JUMPDEST SWAP3 POP PUSH2 0x2BFF DUP3 PUSH2 0x2BCA JUMP JUMPDEST DUP1 PUSH1 0x0 JUMPDEST DUP4 DUP2 LT ISZERO PUSH2 0x2C30 JUMPI DUP2 MLOAD PUSH2 0x2C17 DUP8 DUP3 PUSH2 0x29D4 JUMP JUMPDEST SWAP7 POP PUSH2 0x2C22 DUP4 PUSH2 0x2BD4 JUMP JUMPDEST SWAP3 POP POP PUSH1 0x1 DUP2 ADD SWAP1 POP PUSH2 0x2C03 JUMP JUMPDEST POP POP POP POP POP POP JUMP JUMPDEST PUSH1 0x0 PUSH2 0x2C44 DUP4 DUP4 PUSH2 0x2BE1 JUMP JUMPDEST PUSH1 0xC0 DUP4 ADD SWAP1 POP SWAP3 SWAP2 POP POP JUMP JUMPDEST PUSH1 0x0 PUSH1 0x20 DUP3 ADD SWAP1 POP SWAP2 SWAP1 POP JUMP JUMPDEST PUSH2 0x2C66 DUP2 PUSH2 0x2B94 JUMP JUMPDEST PUSH2 0x2C70 DUP2 DUP5 PUSH2 0x2B9F JUMP JUMPDEST SWAP3 POP PUSH2 0x2C7B DUP3 PUSH2 0x2BAA JUMP JUMPDEST DUP1 PUSH1 0x0 JUMPDEST DUP4 DUP2 LT ISZERO PUSH2 0x2CAC JUMPI DUP2 MLOAD PUSH2 0x2C93 DUP8 DUP3 PUSH2 0x2C38 JUMP JUMPDEST SWAP7 POP PUSH2 0x2C9E DUP4 PUSH2 0x2C50 JUMP JUMPDEST SWAP3 POP POP PUSH1 0x1 DUP2 ADD SWAP1 POP PUSH2 0x2C7F JUMP JUMPDEST POP POP POP POP POP POP JUMP JUMPDEST PUSH1 0x0 PUSH2 0x2CC0 DUP4 DUP4 PUSH2 0x2C5D JUMP JUMPDEST PUSH2 0x480 DUP4 ADD SWAP1 POP SWAP3 SWAP2 POP POP JUMP JUMPDEST PUSH1 0x0 PUSH1 0x20 DUP3 ADD SWAP1 POP SWAP2 SWAP1 POP JUMP JUMPDEST PUSH2 0x2CE3 DUP2 PUSH2 0x2B74 JUMP JUMPDEST PUSH2 0x2CED DUP2 DUP5 PUSH2 0x2B7F JUMP JUMPDEST SWAP3 POP PUSH2 0x2CF8 DUP3 PUSH2 0x2B8A JUMP JUMPDEST DUP1 PUSH1 0x0 JUMPDEST DUP4 DUP2 LT ISZERO PUSH2 0x2D29 JUMPI DUP2 MLOAD PUSH2 0x2D10 DUP8 DUP3 PUSH2 0x2CB4 JUMP JUMPDEST SWAP7 POP PUSH2 0x2D1B DUP4 PUSH2 0x2CCD JUMP JUMPDEST SWAP3 POP POP PUSH1 0x1 DUP2 ADD SWAP1 POP PUSH2 0x2CFC JUMP JUMPDEST POP POP POP POP POP POP JUMP JUMPDEST PUSH1 0x0 PUSH1 0x4 SWAP1 POP SWAP2 SWAP1 POP JUMP JUMPDEST PUSH1 0x0 DUP2 SWAP1 POP SWAP3 SWAP2 POP POP JUMP JUMPDEST PUSH1 0x0 DUP2 SWAP1 POP SWAP2 SWAP1 POP JUMP JUMPDEST PUSH1 0x0 PUSH1 0x20 DUP3 ADD SWAP1 POP SWAP2 SWAP1 POP JUMP JUMPDEST PUSH2 0x2D67 DUP2 PUSH2 0x2D31 JUMP JUMPDEST PUSH2 0x2D71 DUP2 DUP5 PUSH2 0x2D3C JUMP JUMPDEST SWAP3 POP PUSH2 0x2D7C DUP3 PUSH2 0x2D47 JUMP JUMPDEST DUP1 PUSH1 0x0 JUMPDEST DUP4 DUP2 LT ISZERO PUSH2 0x2DAD JUMPI DUP2 MLOAD PUSH2 0x2D94 DUP8 DUP3 PUSH2 0x29D4 JUMP JUMPDEST SWAP7 POP PUSH2 0x2D9F DUP4 PUSH2 0x2D51 JUMP JUMPDEST SWAP3 POP POP PUSH1 0x1 DUP2 ADD SWAP1 POP PUSH2 0x2D80 JUMP JUMPDEST POP POP POP POP POP POP JUMP JUMPDEST PUSH2 0x1B80 DUP3 ADD PUSH1 0x0 DUP3 ADD MLOAD PUSH2 0x2DCC PUSH1 0x0 DUP6 ADD DUP3 PUSH2 0x2CDA JUMP JUMPDEST POP PUSH1 0x20 DUP3 ADD MLOAD PUSH2 0x2DE0 PUSH2 0x1B00 DUP6 ADD DUP3 PUSH2 0x2D5E JUMP JUMPDEST POP POP POP POP JUMP JUMPDEST PUSH1 0x0 PUSH2 0x1B80 DUP3 ADD SWAP1 POP PUSH2 0x2DFC PUSH1 0x0 DUP4 ADD DUP5 PUSH2 0x2DB5 JUMP JUMPDEST SWAP3 SWAP2 POP POP JUMP JUMPDEST PUSH1 0x0 DUP2 SWAP1 POP SWAP3 SWAP2 POP POP JUMP JUMPDEST PUSH2 0x2E16 DUP2 PUSH2 0x2BB4 JUMP JUMPDEST PUSH2 0x2E20 DUP2 DUP5 PUSH2 0x2E02 JUMP JUMPDEST SWAP3 POP PUSH2 0x2E2B DUP3 PUSH2 0x2BCA JUMP JUMPDEST DUP1 PUSH1 0x0 JUMPDEST DUP4 DUP2 LT ISZERO PUSH2 0x2E5C JUMPI DUP2 MLOAD PUSH2 0x2E43 DUP8 DUP3 PUSH2 0x29D4 JUMP JUMPDEST SWAP7 POP PUSH2 0x2E4E DUP4 PUSH2 0x2BD4 JUMP JUMPDEST SWAP3 POP POP PUSH1 0x1 DUP2 ADD SWAP1 POP PUSH2 0x2E2F JUMP JUMPDEST POP POP POP POP POP POP JUMP JUMPDEST PUSH1 0x0 PUSH1 0xC0 DUP3 ADD SWAP1 POP PUSH2 0x2E79 PUSH1 0x0 DUP4 ADD DUP5 PUSH2 0x2E0D JUMP JUMPDEST SWAP3 SWAP2 POP POP JUMP JUMPDEST PUSH1 0x0 DUP2 SWAP1 POP SWAP3 SWAP2 POP POP JUMP JUMPDEST PUSH2 0x2E93 DUP2 PUSH2 0x2B94 JUMP JUMPDEST PUSH2 0x2E9D DUP2 DUP5 PUSH2 0x2E7F JUMP JUMPDEST SWAP3 POP PUSH2 0x2EA8 DUP3 PUSH2 0x2BAA JUMP JUMPDEST DUP1 PUSH1 0x0 JUMPDEST DUP4 DUP2 LT ISZERO PUSH2 0x2ED9 JUMPI DUP2 MLOAD PUSH2 0x2EC0 DUP8 DUP3 PUSH2 0x2C38 JUMP JUMPDEST SWAP7 POP PUSH2 0x2ECB DUP4 PUSH2 0x2C50 JUMP JUMPDEST SWAP3 POP POP PUSH1 0x1 DUP2 ADD SWAP1 POP PUSH2 0x2EAC JUMP JUMPDEST POP POP POP POP POP POP JUMP JUMPDEST PUSH1 0x0 PUSH2 0x480 DUP3 ADD SWAP1 POP PUSH2 0x2EF7 PUSH1 0x0 DUP4 ADD DUP5 PUSH2 0x2E8A JUMP JUMPDEST SWAP3 SWAP2 POP POP JUMP JUMPDEST PUSH1 0x0 DUP1 REVERT JUMPDEST PUSH1 0x0 PUSH1 0x1F NOT PUSH1 0x1F DUP4 ADD AND SWAP1 POP SWAP2 SWAP1 POP JUMP JUMPDEST PUSH32 0x4E487B7100000000000000000000000000000000000000000000000000000000 PUSH1 0x0 MSTORE PUSH1 0x41 PUSH1 0x4 MSTORE PUSH1 0x24 PUSH1 0x0 REVERT JUMPDEST PUSH2 0x2F4B DUP3 PUSH2 0x2F02 JUMP JUMPDEST DUP2 ADD DUP2 DUP2 LT PUSH8 0xFFFFFFFFFFFFFFFF DUP3 GT OR ISZERO PUSH2 0x2F6A JUMPI PUSH2 0x2F69 PUSH2 0x2F13 JUMP JUMPDEST JUMPDEST DUP1 PUSH1 0x40 MSTORE POP POP POP JUMP JUMPDEST PUSH1 0x0 PUSH2 0x2F7D PUSH2 0x2739 JUMP JUMPDEST SWAP1 POP PUSH2 0x2F89 DUP3 DUP3 PUSH2 0x2F42 JUMP JUMPDEST SWAP2 SWAP1 POP JUMP JUMPDEST PUSH1 0x0 PUSH8 0xFFFFFFFFFFFFFFFF DUP3 GT ISZERO PUSH2 0x2FA9 JUMPI PUSH2 0x2FA8 PUSH2 0x2F13 JUMP JUMPDEST JUMPDEST PUSH1 0x20 DUP3 MUL SWAP1 POP PUSH1 0x20 DUP2 ADD SWAP1 POP SWAP2 SWAP1 POP JUMP JUMPDEST PUSH1 0x0 DUP1 REVERT JUMPDEST PUSH1 0x0 PUSH4 0xFFFFFFFF DUP3 AND SWAP1 POP SWAP2 SWAP1 POP JUMP JUMPDEST PUSH2 0x2FD8 DUP2 PUSH2 0x2FBF JUMP JUMPDEST DUP2 EQ PUSH2 0x2FE3 JUMPI PUSH1 0x0 DUP1 REVERT JUMPDEST POP JUMP JUMPDEST PUSH1 0x0 DUP2 CALLDATALOAD SWAP1 POP PUSH2 0x2FF5 DUP2 PUSH2 0x2FCF JUMP JUMPDEST SWAP3 SWAP2 POP POP JUMP JUMPDEST PUSH1 0x0 PUSH2 0x300E PUSH2 0x3009 DUP5 PUSH2 0x2F8E JUMP JUMPDEST PUSH2 0x2F73 JUMP JUMPDEST SWAP1 POP DUP1 DUP4 DUP3 MSTORE PUSH1 0x20 DUP3 ADD SWAP1 POP PUSH1 0x20 DUP5 MUL DUP4 ADD DUP6 DUP2 GT ISZERO PUSH2 0x3031 JUMPI PUSH2 0x3030 PUSH2 0x2FBA JUMP JUMPDEST JUMPDEST DUP4 JUMPDEST DUP2 DUP2 LT ISZERO PUSH2 0x305A JUMPI DUP1 PUSH2 0x3046 DUP9 DUP3 PUSH2 0x2FE6 JUMP JUMPDEST DUP5 MSTORE PUSH1 0x20 DUP5 ADD SWAP4 POP POP PUSH1 0x20 DUP2 ADD SWAP1 POP PUSH2 0x3033 JUMP JUMPDEST POP POP POP SWAP4 SWAP3 POP POP POP JUMP JUMPDEST PUSH1 0x0 DUP3 PUSH1 0x1F DUP4 ADD SLT PUSH2 0x3079 JUMPI PUSH2 0x3078 PUSH2 0x2EFD JUMP JUMPDEST JUMPDEST DUP2 CALLDATALOAD PUSH2 0x3089 DUP5 DUP3 PUSH1 0x20 DUP7 ADD PUSH2 0x2FFB JUMP JUMPDEST SWAP2 POP POP SWAP3 SWAP2 POP POP JUMP JUMPDEST PUSH1 0x0 DUP1 PUSH1 0x40 DUP4 DUP6 SUB SLT ISZERO PUSH2 0x30A9 JUMPI PUSH2 0x30A8 PUSH2 0x2743 JUMP JUMPDEST JUMPDEST PUSH1 0x0 DUP4 ADD CALLDATALOAD PUSH8 0xFFFFFFFFFFFFFFFF DUP2 GT ISZERO PUSH2 0x30C7 JUMPI PUSH2 0x30C6 PUSH2 0x2748 JUMP JUMPDEST JUMPDEST PUSH2 0x30D3 DUP6 DUP3 DUP7 ADD PUSH2 0x3064 JUMP JUMPDEST SWAP3 POP POP PUSH1 0x20 DUP4 ADD CALLDATALOAD PUSH8 0xFFFFFFFFFFFFFFFF DUP2 GT ISZERO PUSH2 0x30F4 JUMPI PUSH2 0x30F3 PUSH2 0x2748 JUMP JUMPDEST JUMPDEST PUSH2 0x3100 DUP6 DUP3 DUP7 ADD PUSH2 0x3064 JUMP JUMPDEST SWAP2 POP POP SWAP3 POP SWAP3 SWAP1 POP JUMP JUMPDEST PUSH1 0x0 DUP2 MLOAD SWAP1 POP SWAP2 SWAP1 POP JUMP JUMPDEST PUSH1 0x0 DUP3 DUP3 MSTORE PUSH1 0x20 DUP3 ADD SWAP1 POP SWAP3 SWAP2 POP POP JUMP JUMPDEST PUSH1 0x0 DUP2 SWAP1 POP PUSH1 0x20 DUP3 ADD SWAP1 POP SWAP2 SWAP1 POP JUMP JUMPDEST PUSH2 0x313F DUP2 PUSH2 0x2FBF JUMP JUMPDEST DUP3 MSTORE POP POP JUMP JUMPDEST PUSH1 0x0 PUSH2 0x3151 DUP4 DUP4 PUSH2 0x3136 JUMP JUMPDEST PUSH1 0x20 DUP4 ADD SWAP1 POP SWAP3 SWAP2 POP POP JUMP JUMPDEST PUSH1 0x0 PUSH1 0x20 DUP3 ADD SWAP1 POP SWAP2 SWAP1 POP JUMP JUMPDEST PUSH1 0x0 PUSH2 0x3175 DUP3 PUSH2 0x310A JUMP JUMPDEST PUSH2 0x317F DUP2 DUP6 PUSH2 0x3115 JUMP JUMPDEST SWAP4 POP PUSH2 0x318A DUP4 PUSH2 0x3126 JUMP JUMPDEST DUP1 PUSH1 0x0 JUMPDEST DUP4 DUP2 LT ISZERO PUSH2 0x31BB JUMPI DUP2 MLOAD PUSH2 0x31A2 DUP9 DUP3 PUSH2 0x3145 JUMP JUMPDEST SWAP8 POP PUSH2 0x31AD DUP4 PUSH2 0x315D JUMP JUMPDEST SWAP3 POP POP PUSH1 0x1 DUP2 ADD SWAP1 POP PUSH2 0x318E JUMP JUMPDEST POP DUP6 SWAP4 POP POP POP POP SWAP3 SWAP2 POP POP JUMP JUMPDEST PUSH1 0x0 PUSH1 0x20 DUP3 ADD SWAP1 POP DUP2 DUP2 SUB PUSH1 0x0 DUP4 ADD MSTORE PUSH2 0x31E2 DUP2 DUP5 PUSH2 0x316A JUMP JUMPDEST SWAP1 POP SWAP3 SWAP2 POP POP JUMP JUMPDEST PUSH1 0x0 PUSH1 0x6 SWAP1 POP SWAP2 SWAP1 POP JUMP JUMPDEST PUSH1 0x0 DUP2 SWAP1 POP SWAP3 SWAP2 POP POP JUMP JUMPDEST PUSH1 0x0 DUP2 SWAP1 POP SWAP2 SWAP1 POP JUMP JUMPDEST PUSH1 0x0 PUSH1 0x10 SWAP1 POP SWAP2 SWAP1 POP JUMP JUMPDEST PUSH1 0x0 DUP2 SWAP1 POP SWAP3 SWAP2 POP POP JUMP JUMPDEST PUSH1 0x0 DUP2 SWAP1 POP SWAP2 SWAP1 POP JUMP JUMPDEST PUSH1 0x0 PUSH1 0x20 DUP3 ADD SWAP1 POP SWAP2 SWAP1 POP JUMP JUMPDEST PUSH2 0x3240 DUP2 PUSH2 0x320A JUMP JUMPDEST PUSH2 0x324A DUP2 DUP5 PUSH2 0x3215 JUMP JUMPDEST SWAP3 POP PUSH2 0x3255 DUP3 PUSH2 0x3220 JUMP JUMPDEST DUP1 PUSH1 0x0 JUMPDEST DUP4 DUP2 LT ISZERO PUSH2 0x3286 JUMPI DUP2 MLOAD PUSH2 0x326D DUP8 DUP3 PUSH2 0x29D4 JUMP JUMPDEST SWAP7 POP PUSH2 0x3278 DUP4 PUSH2 0x322A JUMP JUMPDEST SWAP3 POP POP PUSH1 0x1 DUP2 ADD SWAP1 POP PUSH2 0x3259 JUMP JUMPDEST POP POP POP POP POP POP JUMP JUMPDEST PUSH1 0x0 PUSH2 0x329A DUP4 DUP4 PUSH2 0x3237 JUMP JUMPDEST PUSH2 0x200 DUP4 ADD SWAP1 POP SWAP3 SWAP2 POP POP JUMP JUMPDEST PUSH1 0x0 PUSH1 0x20 DUP3 ADD SWAP1 POP SWAP2 SWAP1 POP JUMP JUMPDEST PUSH2 0x32BD DUP2 PUSH2 0x31EA JUMP JUMPDEST PUSH2 0x32C7 DUP2 DUP5 PUSH2 0x31F5 JUMP JUMPDEST SWAP3 POP PUSH2 0x32D2 DUP3 PUSH2 0x3200 JUMP JUMPDEST DUP1 PUSH1 0x0 JUMPDEST DUP4 DUP2 LT ISZERO PUSH2 0x3303 JUMPI DUP2 MLOAD PUSH2 0x32EA DUP8 DUP3 PUSH2 0x328E JUMP JUMPDEST SWAP7 POP PUSH2 0x32F5 DUP4 PUSH2 0x32A7 JUMP JUMPDEST SWAP3 POP POP PUSH1 0x1 DUP2 ADD SWAP1 POP PUSH2 0x32D6 JUMP JUMPDEST POP POP POP POP POP POP JUMP JUMPDEST PUSH1 0x0 PUSH1 0xA SWAP1 POP SWAP2 SWAP1 POP JUMP JUMPDEST PUSH1 0x0 DUP2 SWAP1 POP SWAP3 SWAP2 POP POP JUMP JUMPDEST PUSH1 0x0 DUP2 SWAP1 POP SWAP2 SWAP1 POP JUMP JUMPDEST PUSH1 0x0 PUSH1 0x20 DUP3 ADD SWAP1 POP SWAP2 SWAP1 POP JUMP JUMPDEST PUSH2 0x3341 DUP2 PUSH2 0x330B JUMP JUMPDEST PUSH2 0x334B DUP2 DUP5 PUSH2 0x3316 JUMP JUMPDEST SWAP3 POP PUSH2 0x3356 DUP3 PUSH2 0x3321 JUMP JUMPDEST DUP1 PUSH1 0x0 JUMPDEST DUP4 DUP2 LT ISZERO PUSH2 0x3387 JUMPI DUP2 MLOAD PUSH2 0x336E DUP8 DUP3 PUSH2 0x29D4 JUMP JUMPDEST SWAP7 POP PUSH2 0x3379 DUP4 PUSH2 0x332B JUMP JUMPDEST SWAP3 POP POP PUSH1 0x1 DUP2 ADD SWAP1 POP PUSH2 0x335A JUMP JUMPDEST POP POP POP POP POP POP JUMP JUMPDEST PUSH1 0x0 PUSH1 0x6 SWAP1 POP SWAP2 SWAP1 POP JUMP JUMPDEST PUSH1 0x0 DUP2 SWAP1 POP SWAP3 SWAP2 POP POP JUMP JUMPDEST PUSH1 0x0 DUP2 SWAP1 POP SWAP2 SWAP1 POP JUMP JUMPDEST PUSH1 0x0 PUSH1 0x6 SWAP1 POP SWAP2 SWAP1 POP JUMP JUMPDEST PUSH1 0x0 DUP2 SWAP1 POP SWAP3 SWAP2 POP POP JUMP JUMPDEST PUSH1 0x0 DUP2 SWAP1 POP SWAP2 SWAP1 POP JUMP JUMPDEST PUSH1 0x0 DUP2 SWAP1 POP SWAP2 SWAP1 POP JUMP JUMPDEST PUSH2 0x33E2 DUP2 PUSH2 0x33CF JUMP JUMPDEST DUP3 MSTORE POP POP JUMP JUMPDEST PUSH1 0x0 PUSH2 0x33F4 DUP4 DUP4 PUSH2 0x33D9 JUMP JUMPDEST PUSH1 0x20 DUP4 ADD SWAP1 POP SWAP3 SWAP2 POP POP JUMP JUMPDEST PUSH1 0x0 PUSH1 0x20 DUP3 ADD SWAP1 POP SWAP2 SWAP1 POP JUMP JUMPDEST PUSH2 0x3416 DUP2 PUSH2 0x33AF JUMP JUMPDEST PUSH2 0x3420 DUP2 DUP5 PUSH2 0x33BA JUMP JUMPDEST SWAP3 POP PUSH2 0x342B DUP3 PUSH2 0x33C5 JUMP JUMPDEST DUP1 PUSH1 0x0 JUMPDEST DUP4 DUP2 LT ISZERO PUSH2 0x345C JUMPI DUP2 MLOAD PUSH2 0x3443 DUP8 DUP3 PUSH2 0x33E8 JUMP JUMPDEST SWAP7 POP PUSH2 0x344E DUP4 PUSH2 0x3400 JUMP JUMPDEST SWAP3 POP POP PUSH1 0x1 DUP2 ADD SWAP1 POP PUSH2 0x342F JUMP JUMPDEST POP POP POP POP POP POP JUMP JUMPDEST PUSH1 0x0 PUSH2 0x3470 DUP4 DUP4 PUSH2 0x340D JUMP JUMPDEST PUSH1 0xC0 DUP4 ADD SWAP1 POP SWAP3 SWAP2 POP POP JUMP JUMPDEST PUSH1 0x0 PUSH1 0x20 DUP3 ADD SWAP1 POP SWAP2 SWAP1 POP JUMP JUMPDEST PUSH2 0x3492 DUP2 PUSH2 0x338F JUMP JUMPDEST PUSH2 0x349C DUP2 DUP5 PUSH2 0x339A JUMP JUMPDEST SWAP3 POP PUSH2 0x34A7 DUP3 PUSH2 0x33A5 JUMP JUMPDEST DUP1 PUSH1 0x0 JUMPDEST DUP4 DUP2 LT ISZERO PUSH2 0x34D8 JUMPI DUP2 MLOAD PUSH2 0x34BF DUP8 DUP3 PUSH2 0x3464 JUMP JUMPDEST SWAP7 POP PUSH2 0x34CA DUP4 PUSH2 0x347C JUMP JUMPDEST SWAP3 POP POP PUSH1 0x1 DUP2 ADD SWAP1 POP PUSH2 0x34AB JUMP JUMPDEST POP POP POP POP POP POP JUMP JUMPDEST PUSH2 0x11C0 DUP3 ADD PUSH1 0x0 DUP3 ADD MLOAD PUSH2 0x34F7 PUSH1 0x0 DUP6 ADD DUP3 PUSH2 0x32B4 JUMP JUMPDEST POP PUSH1 0x20 DUP3 ADD MLOAD PUSH2 0x350B PUSH2 0xC00 DUP6 ADD DUP3 PUSH2 0x3338 JUMP JUMPDEST POP PUSH1 0x40 DUP3 ADD MLOAD PUSH2 0x351F PUSH2 0xD40 DUP6 ADD DUP3 PUSH2 0x3489 JUMP JUMPDEST POP POP POP POP JUMP JUMPDEST PUSH1 0x0 PUSH2 0x11C0 DUP3 ADD SWAP1 POP PUSH2 0x353B PUSH1 0x0 DUP4 ADD DUP5 PUSH2 0x34E0 JUMP JUMPDEST SWAP3 SWAP2 POP POP JUMP JUMPDEST PUSH1 0x0 PUSH1 0x7 SWAP1 POP SWAP2 SWAP1 POP JUMP JUMPDEST PUSH1 0x0 DUP2 SWAP1 POP SWAP3 SWAP2 POP POP JUMP JUMPDEST PUSH1 0x0 DUP2 SWAP1 POP SWAP2 SWAP1 POP JUMP JUMPDEST PUSH1 0x0 PUSH1 0x20 DUP3 ADD SWAP1 POP SWAP2 SWAP1 POP JUMP JUMPDEST PUSH2 0x3577 DUP2 PUSH2 0x3541 JUMP JUMPDEST PUSH2 0x3581 DUP2 DUP5 PUSH2 0x354C JUMP JUMPDEST SWAP3 POP PUSH2 0x358C DUP3 PUSH2 0x3557 JUMP JUMPDEST DUP1 PUSH1 0x0 JUMPDEST DUP4 DUP2 LT ISZERO PUSH2 0x35BD JUMPI DUP2 MLOAD PUSH2 0x35A4 DUP8 DUP3 PUSH2 0x29D4 JUMP JUMPDEST SWAP7 POP PUSH2 0x35AF DUP4 PUSH2 0x3561 JUMP JUMPDEST SWAP3 POP POP PUSH1 0x1 DUP2 ADD SWAP1 POP PUSH2 0x3590 JUMP JUMPDEST POP POP POP POP POP POP JUMP JUMPDEST PUSH1 0x0 PUSH1 0xE0 DUP3 ADD SWAP1 POP PUSH2 0x35DA PUSH1 0x0 DUP4 ADD DUP5 PUSH2 0x356E JUMP JUMPDEST SWAP3 SWAP2 POP POP JUMP JUMPDEST PUSH2 0x35E9 DUP2 PUSH2 0x33CF JUMP JUMPDEST DUP2 EQ PUSH2 0x35F4 JUMPI PUSH1 0x0 DUP1 REVERT JUMPDEST POP JUMP JUMPDEST PUSH1 0x0 DUP2 CALLDATALOAD SWAP1 POP PUSH2 0x3606 DUP2 PUSH2 0x35E0 JUMP JUMPDEST SWAP3 SWAP2 POP POP JUMP JUMPDEST PUSH1 0x0 PUSH1 0x20 DUP3 DUP5 SUB SLT ISZERO PUSH2 0x3622 JUMPI PUSH2 0x3621 PUSH2 0x2743 JUMP JUMPDEST JUMPDEST PUSH1 0x0 PUSH2 0x3630 DUP5 DUP3 DUP6 ADD PUSH2 0x35F7 JUMP JUMPDEST SWAP2 POP POP SWAP3 SWAP2 POP POP JUMP JUMPDEST PUSH1 0x0 DUP2 SWAP1 POP SWAP3 SWAP2 POP POP JUMP JUMPDEST PUSH2 0x364D DUP2 PUSH2 0x2998 JUMP JUMPDEST PUSH2 0x3657 DUP2 DUP5 PUSH2 0x3639 JUMP JUMPDEST SWAP3 POP PUSH2 0x3662 DUP3 PUSH2 0x29AE JUMP JUMPDEST DUP1 PUSH1 0x0 JUMPDEST DUP4 DUP2 LT ISZERO PUSH2 0x3693 JUMPI DUP2 MLOAD PUSH2 0x367A DUP8 DUP3 PUSH2 0x29D4 JUMP JUMPDEST SWAP7 POP PUSH2 0x3685 DUP4 PUSH2 0x29EC JUMP JUMPDEST SWAP3 POP POP PUSH1 0x1 DUP2 ADD SWAP1 POP PUSH2 0x3666 JUMP JUMPDEST POP POP POP POP POP POP JUMP JUMPDEST PUSH1 0x0 PUSH1 0x40 DUP3 ADD SWAP1 POP PUSH2 0x36B0 PUSH1 0x0 DUP4 ADD DUP5 PUSH2 0x3644 JUMP JUMPDEST SWAP3 SWAP2 POP POP JUMP JUMPDEST PUSH2 0x36BF DUP2 PUSH2 0x297C JUMP JUMPDEST DUP3 MSTORE POP POP JUMP JUMPDEST PUSH1 0x0 PUSH1 0x20 DUP3 ADD SWAP1 POP PUSH2 0x36DA PUSH1 0x0 DUP4 ADD DUP5 PUSH2 0x36B6 JUMP JUMPDEST SWAP3 SWAP2 POP POP JUMP JUMPDEST PUSH32 0x4E487B7100000000000000000000000000000000000000000000000000000000 PUSH1 0x0 MSTORE PUSH1 0x32 PUSH1 0x4 MSTORE PUSH1 0x24 PUSH1 0x0 REVERT JUMPDEST PUSH32 0x4E487B7100000000000000000000000000000000000000000000000000000000 PUSH1 0x0 MSTORE PUSH1 0x11 PUSH1 0x4 MSTORE PUSH1 0x24 PUSH1 0x0 REVERT JUMPDEST PUSH1 0x0 PUSH2 0x3749 DUP3 PUSH2 0x29B8 JUMP JUMPDEST SWAP2 POP PUSH1 0xFF DUP3 EQ ISZERO PUSH2 0x375D JUMPI PUSH2 0x375C PUSH2 0x370F JUMP JUMPDEST JUMPDEST PUSH1 0x1 DUP3 ADD SWAP1 POP SWAP2 SWAP1 POP JUMP JUMPDEST PUSH1 0x0 PUSH2 0x3773 DUP3 PUSH2 0x2FBF JUMP JUMPDEST SWAP2 POP PUSH4 0xFFFFFFFF DUP3 EQ ISZERO PUSH2 0x378A JUMPI PUSH2 0x3789 PUSH2 0x370F JUMP JUMPDEST JUMPDEST PUSH1 0x1 DUP3 ADD SWAP1 POP SWAP2 SWAP1 POP JUMP JUMPDEST PUSH1 0x0 PUSH2 0x37A0 DUP3 PUSH2 0x33CF JUMP JUMPDEST SWAP2 POP PUSH32 0xFFFFFFFFFFFFFFFFFFFFFFFFFFFFFFFFFFFFFFFFFFFFFFFFFFFFFFFFFFFFFFFF DUP3 EQ ISZERO PUSH2 0x37D3 JUMPI PUSH2 0x37D2 PUSH2 0x370F JUMP JUMPDEST JUMPDEST PUSH1 0x1 DUP3 ADD SWAP1 POP SWAP2 SWAP1 POP JUMP JUMPDEST PUSH1 0x0 PUSH2 0x37E9 DUP3 PUSH2 0x33CF JUMP JUMPDEST SWAP2 POP PUSH2 0x37F4 DUP4 PUSH2 0x33CF JUMP JUMPDEST SWAP3 POP DUP3 PUSH32 0xFFFFFFFFFFFFFFFFFFFFFFFFFFFFFFFFFFFFFFFFFFFFFFFFFFFFFFFFFFFFFFFF SUB DUP3 GT ISZERO PUSH2 0x3829 JUMPI PUSH2 0x3828 PUSH2 0x370F JUMP JUMPDEST JUMPDEST DUP3 DUP3 ADD SWAP1 POP SWAP3 SWAP2 POP POP JUMP JUMPDEST PUSH2 0x383D DUP2 PUSH2 0x33CF JUMP JUMPDEST DUP3 MSTORE POP POP JUMP JUMPDEST PUSH2 0x384C DUP2 PUSH2 0x276D JUMP JUMPDEST DUP3 MSTORE POP POP JUMP JUMPDEST PUSH1 0x0 PUSH1 0x60 DUP3 ADD SWAP1 POP PUSH2 0x3867 PUSH1 0x0 DUP4 ADD DUP7 PUSH2 0x3834 JUMP JUMPDEST PUSH2 0x3874 PUSH1 0x20 DUP4 ADD DUP6 PUSH2 0x3834 JUMP JUMPDEST PUSH2 0x3881 PUSH1 0x40 DUP4 ADD DUP5 PUSH2 0x3843 JUMP JUMPDEST SWAP5 SWAP4 POP POP POP POP JUMP JUMPDEST PUSH32 0x4E487B7100000000000000000000000000000000000000000000000000000000 PUSH1 0x0 MSTORE PUSH1 0x12 PUSH1 0x4 MSTORE PUSH1 0x24 PUSH1 0x0 REVERT JUMPDEST PUSH1 0x0 PUSH2 0x38C3 DUP3 PUSH2 0x33CF JUMP JUMPDEST SWAP2 POP PUSH2 0x38CE DUP4 PUSH2 0x33CF JUMP JUMPDEST SWAP3 POP DUP3 PUSH2 0x38DE JUMPI PUSH2 0x38DD PUSH2 0x3889 JUMP JUMPDEST JUMPDEST DUP3 DUP3 MOD SWAP1 POP SWAP3 SWAP2 POP POP JUMP INVALID LOG2 PUSH5 0x6970667358 0x22 SLT KECCAK256 0xDB 0xCF PUSH32 0xAF62B24AFF769CB3F7F976A10BDCD08935CD69D61E9AB11063AE34184B64736F PUSH13 0x634300080B0033000000000000 "
		},
		"gasEstimates": {
			"creation": {
				"codeDepositCost": "2924600",
				"executionCost": "3200",
				"totalCost": "2927800"
			},
			"external": {
				"actorOfAllPlayers(address)": "infinite",
				"allSpentTimes()": "infinite",
				"artifactCheckValue()": "infinite",
				"combatHitDices()": "infinite",
				"combination(uint32[],uint32[])": "infinite",
				"deathHitPoint()": "433",
				"doomsdayCountdown()": "411",
				"eventdaysIndex()": "infinite",
				"mapOfAllPlayers(address)": "infinite",
				"mockRandomNumbers(uint256)": "infinite",
				"reStartGame()": "infinite",
				"startGame()": "190",
				"timeTrackOfAllPlayers(address)": "infinite",
				"workshopOfAllPlayers(address)": "infinite"
			},
			"internal": {
				"createMemoryArray(uint32)": "infinite",
				"gameOver()": "infinite",
				"initGame()": "9",
				"reloadGameData()": "infinite"
			}
		},
		"methodIdentifiers": {
			"actorOfAllPlayers(address)": "40d1230d",
			"allSpentTimes()": "94fd5e9d",
			"artifactCheckValue()": "9284b80f",
			"combatHitDices()": "267729d1",
			"combination(uint32[],uint32[])": "a8237a93",
			"deathHitPoint()": "fb8a9a0c",
			"doomsdayCountdown()": "5ae0dda9",
			"eventdaysIndex()": "e0786c18",
			"mapOfAllPlayers(address)": "7f5a96ae",
			"mockRandomNumbers(uint256)": "e0a5d894",
			"reStartGame()": "d37d55ca",
			"startGame()": "d65ab5f2",
			"timeTrackOfAllPlayers(address)": "6c38f32d",
			"workshopOfAllPlayers(address)": "d5d19df4"
		}
	},
	"abi": [
		{
			"inputs": [],
			"stateMutability": "nonpayable",
			"type": "constructor"
		},
		{
			"inputs": [
				{
					"internalType": "address",
					"name": "playerAddress",
					"type": "address"
				}
			],
			"name": "actorOfAllPlayers",
			"outputs": [
				{
					"components": [
						{
							"internalType": "bool[6][3]",
							"name": "artifactsStates",
							"type": "bool[6][3]"
						},
						{
							"internalType": "bool[6][3]",
							"name": "treasuresStates",
							"type": "bool[6][3]"
						},
						{
							"internalType": "bool[3][3]",
							"name": "toolsStates",
							"type": "bool[3][3]"
						},
						{
							"internalType": "int8",
							"name": "hitPoints",
							"type": "int8"
						},
						{
							"internalType": "bool",
							"name": "isOutdoorOrInWorkshop",
							"type": "bool"
						},
						{
							"internalType": "uint8[2]",
							"name": "inMapIndex",
							"type": "uint8[2]"
						}
					],
					"internalType": "struct HydraEngine.Actor",
					"name": "",
					"type": "tuple"
				}
			],
			"stateMutability": "view",
			"type": "function"
		},
		{
			"inputs": [],
			"name": "allSpentTimes",
			"outputs": [
				{
					"internalType": "uint8[6][6]",
					"name": "",
					"type": "uint8[6][6]"
				}
			],
			"stateMutability": "pure",
			"type": "function"
		},
		{
			"inputs": [],
			"name": "artifactCheckValue",
			"outputs": [
				{
					"internalType": "uint8[6]",
					"name": "",
					"type": "uint8[6]"
				}
			],
			"stateMutability": "pure",
			"type": "function"
		},
		{
			"inputs": [],
			"name": "combatHitDices",
			"outputs": [
				{
					"internalType": "bool[6][2][5]",
					"name": "",
					"type": "bool[6][2][5]"
				}
			],
			"stateMutability": "pure",
			"type": "function"
		},
		{
			"inputs": [
				{
					"internalType": "uint32[]",
					"name": "arrayA",
					"type": "uint32[]"
				},
				{
					"internalType": "uint32[]",
					"name": "arrayB",
					"type": "uint32[]"
				}
			],
			"name": "combination",
			"outputs": [
				{
					"internalType": "uint32[]",
					"name": "",
					"type": "uint32[]"
				}
			],
			"stateMutability": "pure",
			"type": "function"
		},
		{
			"inputs": [],
			"name": "deathHitPoint",
			"outputs": [
				{
					"internalType": "int8",
					"name": "",
					"type": "int8"
				}
			],
			"stateMutability": "pure",
			"type": "function"
		},
		{
			"inputs": [],
			"name": "doomsdayCountdown",
			"outputs": [
				{
					"internalType": "uint8",
					"name": "",
					"type": "uint8"
				}
			],
			"stateMutability": "pure",
			"type": "function"
		},
		{
			"inputs": [],
			"name": "eventdaysIndex",
			"outputs": [
				{
					"internalType": "uint8[7]",
					"name": "",
					"type": "uint8[7]"
				}
			],
			"stateMutability": "pure",
			"type": "function"
		},
		{
			"inputs": [
				{
					"internalType": "address",
					"name": "playerAddress",
					"type": "address"
				}
			],
			"name": "mapOfAllPlayers",
			"outputs": [
				{
					"components": [
						{
							"internalType": "uint8[6][6][6]",
							"name": "regions",
							"type": "uint8[6][6][6]"
						},
						{
							"internalType": "uint8[4]",
							"name": "eventInRegions",
							"type": "uint8[4]"
						}
					],
					"internalType": "struct HydraEngine.Map",
					"name": "",
					"type": "tuple"
				}
			],
			"stateMutability": "view",
			"type": "function"
		},
		{
			"inputs": [
				{
					"internalType": "uint256",
					"name": "randomValue",
					"type": "uint256"
				}
			],
			"name": "mockRandomNumbers",
			"outputs": [
				{
					"internalType": "uint8[2]",
					"name": "randomNumbers",
					"type": "uint8[2]"
				}
			],
			"stateMutability": "view",
			"type": "function"
		},
		{
			"inputs": [],
			"name": "reStartGame",
			"outputs": [],
			"stateMutability": "nonpayable",
			"type": "function"
		},
		{
			"inputs": [],
			"name": "startGame",
			"outputs": [],
			"stateMutability": "nonpayable",
			"type": "function"
		},
		{
			"inputs": [
				{
					"internalType": "address",
					"name": "playerAddress",
					"type": "address"
				}
			],
			"name": "timeTrackOfAllPlayers",
			"outputs": [
				{
					"components": [
						{
							"internalType": "uint8",
							"name": "spentFreedays",
							"type": "uint8"
						},
						{
							"internalType": "uint8",
							"name": "handOfGodEnergy",
							"type": "uint8"
						},
						{
							"internalType": "uint8",
							"name": "delayedDoomsday",
							"type": "uint8"
						}
					],
					"internalType": "struct HydraEngine.TimeTrack",
					"name": "",
					"type": "tuple"
				}
			],
			"stateMutability": "view",
			"type": "function"
		},
		{
			"inputs": [
				{
					"internalType": "address",
					"name": "playerAddress",
					"type": "address"
				}
			],
			"name": "workshopOfAllPlayers",
			"outputs": [
				{
					"components": [
						{
							"internalType": "uint8[16][6]",
							"name": "artifactFragments",
							"type": "uint8[16][6]"
						},
						{
							"internalType": "uint8[10]",
							"name": "wastebasket",
							"type": "uint8[10]"
						},
						{
							"internalType": "uint256[6][6]",
							"name": "linkPaths",
							"type": "uint256[6][6]"
						}
					],
					"internalType": "struct HydraEngine.Workshop",
					"name": "",
					"type": "tuple"
				}
			],
			"stateMutability": "view",
			"type": "function"
		}
	]
}