{
	"data": {
		"bytecode": {
			"linkReferences": {},
			"object": "608060405234801561001057600080fd5b50613dc0806100206000396000f3fe608060405234801561001057600080fd5b50600436106100575760003560e01c8063171cfb901461005c57806370a60b361461008c578063d65ab5f2146100bc578063dabd2de1146100c6578063deab2a17146100f6575b600080fd5b61007660048036038101906100719190612ea6565b610126565b604051610083919061335d565b60405180910390f35b6100a660048036038101906100a19190612ea6565b61048b565b6040516100b39190613388565b60405180910390f35b6100c46104e4565b005b6100e060048036038101906100db9190612ea6565b6104ee565b6040516100ed91906138aa565b60405180910390f35b610110600480360381019061010b9190612ea6565b6107b4565b60405161011d9190613ce6565b60405180910390f35b61012e6120e9565b600260008373ffffffffffffffffffffffffffffffffffffffff1673ffffffffffffffffffffffffffffffffffffffff1681526020019081526020016000206040518061012001604052908160008201600380602002604051908101604052809291906000905b82821015610210578382016006806020026040519081016040528092919082600680156101fc576020028201916000905b82829054906101000a900460ff161515815260200190600101906020826000010492830192600103820291508084116101c65790505b505050505081526020019060010190610195565b50505050815260200160038201600380602002604051908101604052809291906000905b828210156102af5783820160068060200260405190810160405280929190826006801561029b576020028201916000905b82829054906101000a900460ff161515815260200190600101906020826000010492830192600103820291508084116102655790505b505050505081526020019060010190610234565b50505050815260200160068201600380602002604051908101604052809291906000905b8282101561034e5783820160038060200260405190810160405280929190826003801561033a576020028201916000905b82829054906101000a900460ff161515815260200190600101906020826000010492830192600103820291508084116103045790505b5050505050815260200190600101906102d3565b5050505081526020016009820160009054906101000a900460000b60000b60000b81526020016009820160019054906101000a900460ff1660ff1660ff1681526020016009820160029054906101000a900460ff161515151581526020016009820160039054906101000a900460ff1660ff1660ff1681526020016009820160049054906101000a900460ff1660ff1660ff168152602001600a8201600380602002604051908101604052809291906000905b8282101561047c57838201601680602002604051908101604052809291908260168015610468576020028201916000905b82829054906101000a900460ff161515815260200190600101906020826000010492830192600103820291508084116104325790505b505050505081526020019060010190610401565b50505050815250509050919050565b6000600260008373ffffffffffffffffffffffffffffffffffffffff1673ffffffffffffffffffffffffffffffffffffffff16815260200190815260200160002060090160019054906101000a900460ff169050919050565b6104ec610b56565b565b6104f661215a565b600160008373ffffffffffffffffffffffffffffffffffffffff1673ffffffffffffffffffffffffffffffffffffffff1681526020019081526020016000206040518060a001604052908160008201600680602002604051908101604052809291906000905b828210156105d8578382016010806020026040519081016040528092919082601080156105c4576020028201916000905b82829054906101000a900460ff1660ff168152602001906001019060208260000104928301926001038202915080841161058d5790505b50505050508152602001906001019061055c565b50505050815260200160068201600680602002604051908101604052809291908260068015610642576020028201916000905b82829054906101000a900460ff1660ff168152602001906001019060208260000104928301926001038202915080841161060b5790505b5050505050815260200160078201600a806020026040519081016040528092919082600a80156106ad576020028201916000905b82829054906101000a900460ff1660ff16815260200190600101906020826000010492830192600103820291508084116106765790505b5050505050815260200160088201600680602002604051908101604052809291906000905b8282101561072b57838260060201600680602002604051908101604052809291908260068015610717576020028201915b815481526020019060010190808311610703575b5050505050815260200190600101906106d2565b505050508152602001602c82016006806020026040519081016040528092919082600680156107a4576020028201916000905b82829054906101000a900460ff16600581111561077e5761077d61374a565b5b8152602001906001019060208260000104928301926001038202915080841161075e5790505b5050505050815250509050919050565b6107bc6121a7565b6000808373ffffffffffffffffffffffffffffffffffffffff1673ffffffffffffffffffffffffffffffffffffffff16815260200190815260200160002060405180606001604052908160008201600680602002604051908101604052809291906000905b82821015610a05578382600802016040518060a001604052908160008201600680602002604051908101604052809291906000905b828210156108d2578382016006806020026040519081016040528092919082600680156108be576020028201916000905b82829054906101000a900460ff1660ff16815260200190600101906020826000010492830192600103820291508084116108875790505b505050505081526020019060010190610856565b5050505081526020016006820160009054906101000a900460ff1660058111156108ff576108fe61374a565b5b60058111156109115761091061374a565b5b81526020016006820160019054906101000a900460ff16600581111561093a5761093961374a565b5b600581111561094c5761094b61374a565b5b81526020016006820160029054906101000a900460ff1660058111156109755761097461374a565b5b60058111156109875761098661374a565b5b8152602001600782016006806020026040519081016040528092919082600680156109ed576020028201916000905b82829054906101000a900460ff1660ff16815260200190600101906020826000010492830192600103820291508084116109b65790505b50505050508152505081526020019060010190610821565b50505050815260200160308201600480602002604051908101604052809291908260048015610a6f576020028201916000905b82829054906101000a900460ff1660ff1681526020019060010190602082600001049283019260010382029150808411610a385790505b5050505050815260200160318201600580602002604051908101604052809291906000905b82821015610b4757838260020201600280602002604051908101604052809291906000905b82821015610b3457838201600680602002604051908101604052809291908260068015610b20576020028201916000905b82829054906101000a900460ff16151581526020019060010190602082600001049283019260010382029150808411610aea5790505b505050505081526020019060010190610ab9565b5050505081526020019060010190610a94565b50505050815250509050919050565b610b5e6121da565b6040518060c00160405280600160ff168152602001600160ff168152602001600060ff168152602001600160ff168152602001600060ff168152602001600060ff1681525081600060068110610bb757610bb6613d02565b5b60200201819052506040518060c00160405280600160ff168152602001600060ff168152602001600060ff168152602001600160ff168152602001600060ff168152602001600060ff1681525081600160068110610c1857610c17613d02565b5b60200201819052506040518060c00160405280600160ff168152602001600060ff168152602001600160ff168152602001600060ff168152602001600160ff168152602001600060ff1681525081600260068110610c7957610c78613d02565b5b60200201819052506040518060c00160405280600160ff168152602001600160ff168152602001600060ff168152602001600160ff168152602001600060ff168152602001600060ff1681525081600360068110610cda57610cd9613d02565b5b60200201819052506040518060c00160405280600160ff168152602001600060ff168152602001600160ff168152602001600060ff168152602001600160ff168152602001600060ff1681525081600460068110610d3b57610d3a613d02565b5b60200201819052506040518060c00160405280600160ff168152602001600160ff168152602001600160ff168152602001600060ff168152602001600160ff168152602001600060ff1681525081600560068110610d9c57610d9b613d02565b5b602002018190525060005b60068160ff16101561106c57610dbb612207565b60005b60068160ff161015610e475760005b60068160ff161015610e3357600083600001518360ff1660068110610df557610df4613d02565b5b60200201518260ff1660068110610e0f57610e0e613d02565b5b602002019060ff16908160ff16815250508080610e2b90613d60565b915050610dcd565b508080610e3f90613d60565b915050610dbe565b508160ff166005811115610e5e57610e5d61374a565b5b81602001906005811115610e7557610e7461374a565b5b90816005811115610e8957610e8861374a565b5b815250508160ff166005811115610ea357610ea261374a565b5b81604001906005811115610eba57610eb961374a565b5b90816005811115610ece57610ecd61374a565b5b815250508160ff166005811115610ee857610ee761374a565b5b81606001906005811115610eff57610efe61374a565b5b90816005811115610f1357610f1261374a565b5b81525050828260ff1660068110610f2d57610f2c613d02565b5b60200201518160800181905250806000803373ffffffffffffffffffffffffffffffffffffffff1673ffffffffffffffffffffffffffffffffffffffff1681526020019081526020016000206000018360ff1660068110610f9157610f90613d02565b5b60080201600082015181600001906006610fac929190612278565b5060208201518160060160006101000a81548160ff02191690836005811115610fd857610fd761374a565b5b021790555060408201518160060160016101000a81548160ff021916908360058111156110085761100761374a565b5b021790555060608201518160060160026101000a81548160ff021916908360058111156110385761103761374a565b5b02179055506080820151816007019060066110549291906122c6565b5090505050808061106490613d60565b915050610da7565b506040518060800160405280600060ff168152602001600060ff168152602001600060ff168152602001600060ff168152506000803373ffffffffffffffffffffffffffffffffffffffff1673ffffffffffffffffffffffffffffffffffffffff1681526020019081526020016000206030019060046110ed929190612360565b506110f66123fa565b6040518060c00160405280600115151515815260200160001515151581526020016000151515158152602001600015151515815260200160001515151581526020016000151515158152508160006005811061115557611154613d02565b5b60200201819052506040518060c0016040528060011515151581526020016000151515158152602001600015151515815260200160001515151581526020016000151515158152602001600015151515815250816001600581106111bc576111bb613d02565b5b60200201819052506040518060c00160405280600115151515815260200160011515151581526020016000151515158152602001600015151515815260200160001515151581526020016000151515158152508160026005811061122357611222613d02565b5b60200201819052506040518060c00160405280600115151515815260200160011515151581526020016001151515158152602001600015151515815260200160001515151581526020016000151515158152508160036005811061128a57611289613d02565b5b60200201819052506040518060c0016040528060011515151581526020016001151515158152602001600115151515815260200160011515151581526020016000151515158152602001600015151515815250816004600581106112f1576112f0613d02565b5b60200201819052506113016123fa565b6040518060c0016040528060001515151581526020016000151515158152602001600015151515815260200160001515151581526020016001151515158152602001600115151515815250816000600581106113605761135f613d02565b5b60200201819052506040518060c0016040528060001515151581526020016000151515158152602001600015151515815260200160001515151581526020016000151515158152602001600115151515815250816001600581106113c7576113c6613d02565b5b60200201819052506040518060c00160405280600015151515815260200160001515151581526020016000151515158152602001600015151515815260200160001515151581526020016001151515158152508160026005811061142e5761142d613d02565b5b60200201819052506040518060c00160405280600015151515815260200160001515151581526020016000151515158152602001600015151515815260200160001515151581526020016001151515158152508160036005811061149557611494613d02565b5b60200201819052506040518060c0016040528060001515151581526020016000151515158152602001600015151515815260200160001515151581526020016000151515158152602001600115151515815250816004600581106114fc576114fb613d02565b5b602002018190525061150c612427565b60005b60058160ff1610156115d057838160ff166005811061153157611530613d02565b5b6020020151828260ff166005811061154c5761154b613d02565b5b602002015160006002811061156457611563613d02565b5b6020020181905250828160ff166005811061158257611581613d02565b5b6020020151828260ff166005811061159d5761159c613d02565b5b60200201516001600281106115b5576115b4613d02565b5b602002018190525080806115c890613d60565b91505061150f565b50806000803373ffffffffffffffffffffffffffffffffffffffff1673ffffffffffffffffffffffffffffffffffffffff168152602001908152602001600020603101906005611621929190612454565b5061162a6124a5565b60005b60068160ff1610156116b25760005b60108160ff16101561169e576000838360ff16600681106116605761165f613d02565b5b60200201518260ff166010811061167a57611679613d02565b5b602002019060ff16908160ff1681525050808061169690613d60565b91505061163c565b5080806116aa90613d60565b91505061162d565b5080600160003373ffffffffffffffffffffffffffffffffffffffff1673ffffffffffffffffffffffffffffffffffffffff1681526020019081526020016000206000019060066117049291906124d2565b506040518060c00160405280600460ff168152602001600460ff168152602001600460ff168152602001600460ff168152602001600460ff168152602001600460ff16815250600160003373ffffffffffffffffffffffffffffffffffffffff1673ffffffffffffffffffffffffffffffffffffffff16815260200190815260200160002060060190600661179a9291906122c6565b506117a3612520565b60005b600a8160ff1610156117ee576000828260ff16600a81106117ca576117c9613d02565b5b602002019060ff16908160ff168152505080806117e690613d60565b9150506117a6565b5080600160003373ffffffffffffffffffffffffffffffffffffffff1673ffffffffffffffffffffffffffffffffffffffff16815260200190815260200160002060070190600a611840929190612543565b506118496125dd565b60005b60068160ff1610156118c95760005b60068160ff1610156118b5576000838360ff166006811061187f5761187e613d02565b5b60200201518260ff166006811061189957611898613d02565b5b60200201818152505080806118ad90613d60565b91505061185b565b5080806118c190613d60565b91505061184c565b5080600160003373ffffffffffffffffffffffffffffffffffffffff1673ffffffffffffffffffffffffffffffffffffffff16815260200190815260200160002060080190600661191b92919061260a565b5061192461265a565b60005b60068160ff1610156119a1578060ff1660058111156119495761194861374a565b5b828260ff166006811061195f5761195e613d02565b5b602002019060058111156119765761197561374a565b5b9081600581111561198a5761198961374a565b5b81525050808061199990613d60565b915050611927565b5080600160003373ffffffffffffffffffffffffffffffffffffffff1673ffffffffffffffffffffffffffffffffffffffff168152602001908152602001600020602c019060066119f392919061267c565b506119fc612725565b60005b60038160ff161015611a825760005b60068160ff161015611a6e576000838360ff1660038110611a3257611a31613d02565b5b60200201518260ff1660068110611a4c57611a4b613d02565b5b6020020190151590811515815250508080611a6690613d60565b915050611a0e565b508080611a7a90613d60565b9150506119ff565b5080600260003373ffffffffffffffffffffffffffffffffffffffff1673ffffffffffffffffffffffffffffffffffffffff168152602001908152602001600020600001906003611ad4929190612752565b50611add612725565b60005b60038160ff161015611b635760005b60068160ff161015611b4f576000838360ff1660038110611b1357611b12613d02565b5b60200201518260ff1660068110611b2d57611b2c613d02565b5b6020020190151590811515815250508080611b4790613d60565b915050611aef565b508080611b5b90613d60565b915050611ae0565b5080600260003373ffffffffffffffffffffffffffffffffffffffff1673ffffffffffffffffffffffffffffffffffffffff168152602001908152602001600020600301906003611bb5929190612752565b50611bbe6127a0565b60005b60038160ff161015611c445760005b60038160ff161015611c30576000838360ff1660038110611bf457611bf3613d02565b5b60200201518260ff1660038110611c0e57611c0d613d02565b5b6020020190151590811515815250508080611c2890613d60565b915050611bd0565b508080611c3c90613d60565b915050611bc1565b5080600260003373ffffffffffffffffffffffffffffffffffffffff1673ffffffffffffffffffffffffffffffffffffffff168152602001908152602001600020600601906003611c969291906127cd565b506006600260003373ffffffffffffffffffffffffffffffffffffffff1673ffffffffffffffffffffffffffffffffffffffff16815260200190815260200160002060090160006101000a81548160ff021916908360000b60ff1602179055506006600260003373ffffffffffffffffffffffffffffffffffffffff1673ffffffffffffffffffffffffffffffffffffffff16815260200190815260200160002060090160016101000a81548160ff021916908360ff1602179055506001600260003373ffffffffffffffffffffffffffffffffffffffff1673ffffffffffffffffffffffffffffffffffffffff16815260200190815260200160002060090160026101000a81548160ff0219169083151502179055506000600260003373ffffffffffffffffffffffffffffffffffffffff1673ffffffffffffffffffffffffffffffffffffffff16815260200190815260200160002060090160036101000a81548160ff021916908360ff1602179055506000600260003373ffffffffffffffffffffffffffffffffffffffff1673ffffffffffffffffffffffffffffffffffffffff16815260200190815260200160002060090160046101000a81548160ff021916908360ff160217905550611e6d61281b565b60005b60168160ff161015611f4c57600182600060038110611e9257611e91613d02565b5b60200201518260ff1660168110611eac57611eab613d02565b5b602002019015159081151581525050600082600160038110611ed157611ed0613d02565b5b60200201518260ff1660168110611eeb57611eea613d02565b5b602002019015159081151581525050600082600260038110611f1057611f0f613d02565b5b60200201518260ff1660168110611f2a57611f29613d02565b5b6020020190151590811515815250508080611f4490613d60565b915050611e70565b5060006040518060e00160405280600160ff168152602001600460ff168152602001600760ff168152602001600a60ff168152602001600d60ff168152602001601060ff168152602001601360ff16815250905060005b60078160ff161015612021576000828260ff1660078110611fc757611fc6613d02565b5b60200201519050600184600160038110611fe457611fe3613d02565b5b60200201518260ff1660168110611ffe57611ffd613d02565b5b60200201901515908115158152505050808061201990613d60565b915050611fa3565b506000600e90505b60168160ff1610156120875760018360026003811061204b5761204a613d02565b5b60200201518260ff166016811061206557612064613d02565b5b602002019015159081151581525050808061207f90613d60565b915050612029565b5081600260003373ffffffffffffffffffffffffffffffffffffffff1673ffffffffffffffffffffffffffffffffffffffff168152602001908152602001600020600a019060036120d9929190612848565b5050505050505050505050505050565b6040518061012001604052806120fd612725565b815260200161210a612725565b81526020016121176127a0565b81526020016000800b8152602001600060ff168152602001600015158152602001600060ff168152602001600060ff16815260200161215461281b565b81525090565b6040518060a0016040528061216d6124a5565b815260200161217a612896565b8152602001612187612520565b81526020016121946125dd565b81526020016121a161265a565b81525090565b60405180606001604052806121ba6128b8565b81526020016121c76128e5565b81526020016121d4612427565b81525090565b6040518060c001604052806006905b6121f1612896565b8152602001906001900390816121e95790505090565b6040518060a0016040528061221a6121da565b8152602001600060058111156122335761223261374a565b5b81526020016000600581111561224c5761224b61374a565b5b8152602001600060058111156122655761226461374a565b5b8152602001612272612896565b81525090565b82600681019282156122b5579160200282015b828111156122b4578251829060066122a49291906122c6565b509160200191906001019061228b565b5b5090506122c29190612907565b5090565b826006601f0160209004810192821561234f5791602002820160005b8382111561232057835183826101000a81548160ff021916908360ff16021790555092602001926001016020816000010492830192600103026122e2565b801561234d5782816101000a81549060ff0219169055600101602081600001049283019260010302612320565b505b50905061235c919061292b565b5090565b826004601f016020900481019282156123e95791602002820160005b838211156123ba57835183826101000a81548160ff021916908360ff160217905550926020019260010160208160000104928301926001030261237c565b80156123e75782816101000a81549060ff02191690556001016020816000010492830192600103026123ba565b505b5090506123f6919061292b565b5090565b6040518060a001604052806005905b612411612948565b8152602001906001900390816124095790505090565b6040518060a001604052806005905b61243e61296a565b8152602001906001900390816124365790505090565b8260056002028101928215612494579160200282015b8281111561249357825182906002612483929190612997565b509160200191906002019061246a565b5b5090506124a191906129e5565b5090565b6040518060c001604052806006905b6124bc612a09565b8152602001906001900390816124b45790505090565b826006810192821561250f579160200282015b8281111561250e578251829060106124fe929190612a2c565b50916020019190600101906124e5565b5b50905061251c9190612ac6565b5090565b604051806101400160405280600a90602082028036833780820191505090505090565b82600a601f016020900481019282156125cc5791602002820160005b8382111561259d57835183826101000a81548160ff021916908360ff160217905550926020019260010160208160000104928301926001030261255f565b80156125ca5782816101000a81549060ff021916905560010160208160000104928301926001030261259d565b505b5090506125d9919061292b565b5090565b6040518060c001604052806006905b6125f4612aea565b8152602001906001900390816125ec5790505090565b82600680028101928215612649579160200282015b8281111561264857825182906006612638929190612b0c565b509160200191906006019061261f565b5b5090506126569190612b4c565b5090565b6040518060c00160405280600690602082028036833780820191505090505090565b826006601f016020900481019282156127145791602002820160005b838211156126e557835183826101000a81548160ff021916908360058111156126c4576126c361374a565b5b02179055509260200192600101602081600001049283019260010302612698565b80156127125782816101000a81549060ff02191690556001016020816000010492830192600103026126e5565b505b509050612721919061292b565b5090565b60405180606001604052806003905b61273c612948565b8152602001906001900390816127345790505090565b826003810192821561278f579160200282015b8281111561278e5782518290600661277e929190612b70565b5091602001919060010190612765565b5b50905061279c9190612c09565b5090565b60405180606001604052806003905b6127b7612c2d565b8152602001906001900390816127af5790505090565b826003810192821561280a579160200282015b82811115612809578251829060036127f9929190612c4f565b50916020019190600101906127e0565b5b5090506128179190612ce8565b5090565b60405180606001604052806003905b612832612d0c565b81526020019060019003908161282a5790505090565b8260038101928215612885579160200282015b8281111561288457825182906016612874929190612d2f565b509160200191906001019061285b565b5b5090506128929190612dc8565b5090565b6040518060c00160405280600690602082028036833780820191505090505090565b6040518060c001604052806006905b6128cf612207565b8152602001906001900390816128c75790505090565b6040518060800160405280600490602082028036833780820191505090505090565b5b80821115612927576000818161291e9190612dec565b50600101612908565b5090565b5b8082111561294457600081600090555060010161292c565b5090565b6040518060c00160405280600690602082028036833780820191505090505090565b60405180604001604052806002905b612981612948565b8152602001906001900390816129795790505090565b82600281019282156129d4579160200282015b828111156129d3578251829060066129c3929190612b70565b50916020019190600101906129aa565b5b5090506129e19190612c09565b5090565b5b80821115612a0557600081816129fc9190612df3565b506002016129e6565b5090565b604051806102000160405280601090602082028036833780820191505090505090565b826010601f01602090048101928215612ab55791602002820160005b83821115612a8657835183826101000a81548160ff021916908360ff1602179055509260200192600101602081600001049283019260010302612a48565b8015612ab35782816101000a81549060ff0219169055600101602081600001049283019260010302612a86565b505b509050612ac2919061292b565b5090565b5b80821115612ae65760008181612add9190612e14565b50600101612ac7565b5090565b6040518060c00160405280600690602082028036833780820191505090505090565b8260068101928215612b3b579160200282015b82811115612b3a578251825591602001919060010190612b1f565b5b509050612b48919061292b565b5090565b5b80821115612b6c5760008181612b639190612e1b565b50600601612b4d565b5090565b826006601f01602090048101928215612bf85791602002820160005b83821115612bc957835183826101000a81548160ff0219169083151502179055509260200192600101602081600001049283019260010302612b8c565b8015612bf65782816101000a81549060ff0219169055600101602081600001049283019260010302612bc9565b505b509050612c05919061292b565b5090565b5b80821115612c295760008181612c209190612e2e565b50600101612c0a565b5090565b6040518060600160405280600390602082028036833780820191505090505090565b826003601f01602090048101928215612cd75791602002820160005b83821115612ca857835183826101000a81548160ff0219169083151502179055509260200192600101602081600001049283019260010302612c6b565b8015612cd55782816101000a81549060ff0219169055600101602081600001049283019260010302612ca8565b505b509050612ce4919061292b565b5090565b5b80821115612d085760008181612cff9190612e35565b50600101612ce9565b5090565b604051806102c00160405280601690602082028036833780820191505090505090565b826016601f01602090048101928215612db75791602002820160005b83821115612d8857835183826101000a81548160ff0219169083151502179055509260200192600101602081600001049283019260010302612d4b565b8015612db55782816101000a81549060ff0219169055600101602081600001049283019260010302612d88565b505b509050612dc4919061292b565b5090565b5b80821115612de85760008181612ddf9190612e3c565b50600101612dc9565b5090565b5060009055565b5060008181612e029190612e2e565b506001016000612e129190612e2e565b565b5060009055565b508060060190612e2b919061292b565b50565b5060009055565b5060009055565b5060009055565b600080fd5b600073ffffffffffffffffffffffffffffffffffffffff82169050919050565b6000612e7382612e48565b9050919050565b612e8381612e68565b8114612e8e57600080fd5b50565b600081359050612ea081612e7a565b92915050565b600060208284031215612ebc57612ebb612e43565b5b6000612eca84828501612e91565b91505092915050565b600060039050919050565b600081905092915050565b6000819050919050565b600060069050919050565b600081905092915050565b6000819050919050565b60008115159050919050565b612f2881612f13565b82525050565b6000612f3a8383612f1f565b60208301905092915050565b6000602082019050919050565b612f5c81612ef3565b612f668184612efe565b9250612f7182612f09565b8060005b83811015612fa2578151612f898782612f2e565b9650612f9483612f46565b925050600181019050612f75565b505050505050565b6000612fb68383612f53565b60c08301905092915050565b6000602082019050919050565b612fd881612ed3565b612fe28184612ede565b9250612fed82612ee9565b8060005b8381101561301e5781516130058782612faa565b965061301083612fc2565b925050600181019050612ff1565b505050505050565b600060039050919050565b600081905092915050565b6000819050919050565b600060039050919050565b600081905092915050565b6000819050919050565b6000602082019050919050565b61307c81613046565b6130868184613051565b92506130918261305c565b8060005b838110156130c25781516130a98782612f2e565b96506130b483613066565b925050600181019050613095565b505050505050565b60006130d68383613073565b60608301905092915050565b6000602082019050919050565b6130f881613026565b6131028184613031565b925061310d8261303c565b8060005b8381101561313e57815161312587826130ca565b9650613130836130e2565b925050600181019050613111565b505050505050565b60008160000b9050919050565b61315c81613146565b82525050565b600060ff82169050919050565b61317881613162565b82525050565b600060039050919050565b600081905092915050565b6000819050919050565b600060169050919050565b600081905092915050565b6000819050919050565b6000602082019050919050565b6131d48161319e565b6131de81846131a9565b92506131e9826131b4565b8060005b8381101561321a5781516132018782612f2e565b965061320c836131be565b9250506001810190506131ed565b505050505050565b600061322e83836131cb565b6102c08301905092915050565b6000602082019050919050565b6132518161317e565b61325b8184613189565b925061326682613194565b8060005b8381101561329757815161327e8782613222565b96506132898361323b565b92505060018101905061326a565b505050505050565b610e80820160008201516132b66000850182612fcf565b5060208201516132ca610240850182612fcf565b5060408201516132de6104808501826130ef565b5060608201516132f26105a0850182613153565b5060808201516133066105c085018261316f565b5060a082015161331a6105e0850182612f1f565b5060c082015161332e61060085018261316f565b5060e082015161334261062085018261316f565b50610100820151613357610640850182613248565b50505050565b6000610e8082019050613373600083018461329f565b92915050565b61338281613162565b82525050565b600060208201905061339d6000830184613379565b92915050565b600060069050919050565b600081905092915050565b6000819050919050565b600060109050919050565b600081905092915050565b6000819050919050565b60006133ef838361316f565b60208301905092915050565b6000602082019050919050565b613411816133c3565b61341b81846133ce565b9250613426826133d9565b8060005b8381101561345757815161343e87826133e3565b9650613449836133fb565b92505060018101905061342a565b505050505050565b600061346b8383613408565b6102008301905092915050565b6000602082019050919050565b61348e816133a3565b61349881846133ae565b92506134a3826133b9565b8060005b838110156134d45781516134bb878261345f565b96506134c683613478565b9250506001810190506134a7565b505050505050565b600060069050919050565b600081905092915050565b6000819050919050565b6000602082019050919050565b613512816134dc565b61351c81846134e7565b9250613527826134f2565b8060005b8381101561355857815161353f87826133e3565b965061354a836134fc565b92505060018101905061352b565b505050505050565b6000600a9050919050565b600081905092915050565b6000819050919050565b6000602082019050919050565b61359681613560565b6135a0818461356b565b92506135ab82613576565b8060005b838110156135dc5781516135c387826133e3565b96506135ce83613580565b9250506001810190506135af565b505050505050565b600060069050919050565b600081905092915050565b6000819050919050565b600060069050919050565b600081905092915050565b6000819050919050565b6000819050919050565b61363781613624565b82525050565b6000613649838361362e565b60208301905092915050565b6000602082019050919050565b61366b81613604565b613675818461360f565b92506136808261361a565b8060005b838110156136b1578151613698878261363d565b96506136a383613655565b925050600181019050613684565b505050505050565b60006136c58383613662565b60c08301905092915050565b6000602082019050919050565b6136e7816135e4565b6136f181846135ef565b92506136fc826135fa565b8060005b8381101561372d57815161371487826136b9565b965061371f836136d1565b925050600181019050613700565b505050505050565b600060069050919050565b6000819050919050565b7f4e487b7100000000000000000000000000000000000000000000000000000000600052602160045260246000fd5b6006811061378a5761378961374a565b5b50565b600081905061379b82613779565b919050565b60006137ab8261378d565b9050919050565b6137bb816137a0565b82525050565b60006137cd83836137b2565b60208301905092915050565b6000602082019050919050565b6137ef81613735565b6137f981846134e7565b925061380482613740565b8060005b8381101561383557815161381c87826137c1565b9650613827836137d9565b925050600181019050613808565b505050505050565b611340820160008201516138546000850182613485565b506020820151613868610c00850182613509565b50604082015161387c610cc085018261358d565b506060820151613890610e008501826136de565b5060808201516138a46112808501826137e6565b50505050565b6000611340820190506138c0600083018461383d565b92915050565b600060069050919050565b600081905092915050565b6000819050919050565b600060069050919050565b600081905092915050565b6000819050919050565b60006139128383613509565b60c08301905092915050565b6000602082019050919050565b613934816138e6565b61393e81846138f1565b9250613949826138fc565b8060005b8381101561397a5781516139618782613906565b965061396c8361391e565b92505060018101905061394d565b505050505050565b600681106139935761399261374a565b5b50565b60008190506139a482613982565b919050565b60006139b482613996565b9050919050565b6139c4816139a9565b82525050565b600681106139db576139da61374a565b5b50565b60008190506139ec826139ca565b919050565b60006139fc826139de565b9050919050565b613a0c816139f1565b82525050565b6105a082016000820151613a29600085018261392b565b506020820151613a3d6104808501826139bb565b506040820151613a516104a08501826137b2565b506060820151613a656104c0850182613a03565b506080820151613a796104e0850182613509565b50505050565b6000613a8b8383613a12565b6105a08301905092915050565b6000602082019050919050565b613aae816138c6565b613ab881846138d1565b9250613ac3826138dc565b8060005b83811015613af4578151613adb8782613a7f565b9650613ae683613a98565b925050600181019050613ac7565b505050505050565b600060049050919050565b600081905092915050565b6000819050919050565b6000602082019050919050565b613b3281613afc565b613b3c8184613b07565b9250613b4782613b12565b8060005b83811015613b78578151613b5f87826133e3565b9650613b6a83613b1c565b925050600181019050613b4b565b505050505050565b600060059050919050565b600081905092915050565b6000819050919050565b600060029050919050565b600081905092915050565b6000819050919050565b6000602082019050919050565b613bd681613ba0565b613be08184613bab565b9250613beb82613bb6565b8060005b83811015613c1c578151613c038782612faa565b9650613c0e83613bc0565b925050600181019050613bef565b505050505050565b6000613c308383613bcd565b6101808301905092915050565b6000602082019050919050565b613c5381613b80565b613c5d8184613b8b565b9250613c6882613b96565b8060005b83811015613c99578151613c808782613c24565b9650613c8b83613c3d565b925050600181019050613c6c565b505050505050565b6129c082016000820151613cb86000850182613aa5565b506020820151613ccc6121c0850182613b29565b506040820151613ce0612240850182613c4a565b50505050565b60006129c082019050613cfc6000830184613ca1565b92915050565b7f4e487b7100000000000000000000000000000000000000000000000000000000600052603260045260246000fd5b7f4e487b7100000000000000000000000000000000000000000000000000000000600052601160045260246000fd5b6000613d6b82613162565b915060ff821415613d7f57613d7e613d31565b5b60018201905091905056fea264697066735822122018a463caf57b2867fdcf1ac219485b7c137515f13c78684cd591cdc35af5d96a64736f6c634300080b0033",
			"opcodes": "PUSH1 0x80 PUSH1 0x40 MSTORE CALLVALUE DUP1 ISZERO PUSH2 0x10 JUMPI PUSH1 0x0 DUP1 REVERT JUMPDEST POP PUSH2 0x3DC0 DUP1 PUSH2 0x20 PUSH1 0x0 CODECOPY PUSH1 0x0 RETURN INVALID PUSH1 0x80 PUSH1 0x40 MSTORE CALLVALUE DUP1 ISZERO PUSH2 0x10 JUMPI PUSH1 0x0 DUP1 REVERT JUMPDEST POP PUSH1 0x4 CALLDATASIZE LT PUSH2 0x57 JUMPI PUSH1 0x0 CALLDATALOAD PUSH1 0xE0 SHR DUP1 PUSH4 0x171CFB90 EQ PUSH2 0x5C JUMPI DUP1 PUSH4 0x70A60B36 EQ PUSH2 0x8C JUMPI DUP1 PUSH4 0xD65AB5F2 EQ PUSH2 0xBC JUMPI DUP1 PUSH4 0xDABD2DE1 EQ PUSH2 0xC6 JUMPI DUP1 PUSH4 0xDEAB2A17 EQ PUSH2 0xF6 JUMPI JUMPDEST PUSH1 0x0 DUP1 REVERT JUMPDEST PUSH2 0x76 PUSH1 0x4 DUP1 CALLDATASIZE SUB DUP2 ADD SWAP1 PUSH2 0x71 SWAP2 SWAP1 PUSH2 0x2EA6 JUMP JUMPDEST PUSH2 0x126 JUMP JUMPDEST PUSH1 0x40 MLOAD PUSH2 0x83 SWAP2 SWAP1 PUSH2 0x335D JUMP JUMPDEST PUSH1 0x40 MLOAD DUP1 SWAP2 SUB SWAP1 RETURN JUMPDEST PUSH2 0xA6 PUSH1 0x4 DUP1 CALLDATASIZE SUB DUP2 ADD SWAP1 PUSH2 0xA1 SWAP2 SWAP1 PUSH2 0x2EA6 JUMP JUMPDEST PUSH2 0x48B JUMP JUMPDEST PUSH1 0x40 MLOAD PUSH2 0xB3 SWAP2 SWAP1 PUSH2 0x3388 JUMP JUMPDEST PUSH1 0x40 MLOAD DUP1 SWAP2 SUB SWAP1 RETURN JUMPDEST PUSH2 0xC4 PUSH2 0x4E4 JUMP JUMPDEST STOP JUMPDEST PUSH2 0xE0 PUSH1 0x4 DUP1 CALLDATASIZE SUB DUP2 ADD SWAP1 PUSH2 0xDB SWAP2 SWAP1 PUSH2 0x2EA6 JUMP JUMPDEST PUSH2 0x4EE JUMP JUMPDEST PUSH1 0x40 MLOAD PUSH2 0xED SWAP2 SWAP1 PUSH2 0x38AA JUMP JUMPDEST PUSH1 0x40 MLOAD DUP1 SWAP2 SUB SWAP1 RETURN JUMPDEST PUSH2 0x110 PUSH1 0x4 DUP1 CALLDATASIZE SUB DUP2 ADD SWAP1 PUSH2 0x10B SWAP2 SWAP1 PUSH2 0x2EA6 JUMP JUMPDEST PUSH2 0x7B4 JUMP JUMPDEST PUSH1 0x40 MLOAD PUSH2 0x11D SWAP2 SWAP1 PUSH2 0x3CE6 JUMP JUMPDEST PUSH1 0x40 MLOAD DUP1 SWAP2 SUB SWAP1 RETURN JUMPDEST PUSH2 0x12E PUSH2 0x20E9 JUMP JUMPDEST PUSH1 0x2 PUSH1 0x0 DUP4 PUSH20 0xFFFFFFFFFFFFFFFFFFFFFFFFFFFFFFFFFFFFFFFF AND PUSH20 0xFFFFFFFFFFFFFFFFFFFFFFFFFFFFFFFFFFFFFFFF AND DUP2 MSTORE PUSH1 0x20 ADD SWAP1 DUP2 MSTORE PUSH1 0x20 ADD PUSH1 0x0 KECCAK256 PUSH1 0x40 MLOAD DUP1 PUSH2 0x120 ADD PUSH1 0x40 MSTORE SWAP1 DUP2 PUSH1 0x0 DUP3 ADD PUSH1 0x3 DUP1 PUSH1 0x20 MUL PUSH1 0x40 MLOAD SWAP1 DUP2 ADD PUSH1 0x40 MSTORE DUP1 SWAP3 SWAP2 SWAP1 PUSH1 0x0 SWAP1 JUMPDEST DUP3 DUP3 LT ISZERO PUSH2 0x210 JUMPI DUP4 DUP3 ADD PUSH1 0x6 DUP1 PUSH1 0x20 MUL PUSH1 0x40 MLOAD SWAP1 DUP2 ADD PUSH1 0x40 MSTORE DUP1 SWAP3 SWAP2 SWAP1 DUP3 PUSH1 0x6 DUP1 ISZERO PUSH2 0x1FC JUMPI PUSH1 0x20 MUL DUP3 ADD SWAP2 PUSH1 0x0 SWAP1 JUMPDEST DUP3 DUP3 SWAP1 SLOAD SWAP1 PUSH2 0x100 EXP SWAP1 DIV PUSH1 0xFF AND ISZERO ISZERO DUP2 MSTORE PUSH1 0x20 ADD SWAP1 PUSH1 0x1 ADD SWAP1 PUSH1 0x20 DUP3 PUSH1 0x0 ADD DIV SWAP3 DUP4 ADD SWAP3 PUSH1 0x1 SUB DUP3 MUL SWAP2 POP DUP1 DUP5 GT PUSH2 0x1C6 JUMPI SWAP1 POP JUMPDEST POP POP POP POP POP DUP2 MSTORE PUSH1 0x20 ADD SWAP1 PUSH1 0x1 ADD SWAP1 PUSH2 0x195 JUMP JUMPDEST POP POP POP POP DUP2 MSTORE PUSH1 0x20 ADD PUSH1 0x3 DUP3 ADD PUSH1 0x3 DUP1 PUSH1 0x20 MUL PUSH1 0x40 MLOAD SWAP1 DUP2 ADD PUSH1 0x40 MSTORE DUP1 SWAP3 SWAP2 SWAP1 PUSH1 0x0 SWAP1 JUMPDEST DUP3 DUP3 LT ISZERO PUSH2 0x2AF JUMPI DUP4 DUP3 ADD PUSH1 0x6 DUP1 PUSH1 0x20 MUL PUSH1 0x40 MLOAD SWAP1 DUP2 ADD PUSH1 0x40 MSTORE DUP1 SWAP3 SWAP2 SWAP1 DUP3 PUSH1 0x6 DUP1 ISZERO PUSH2 0x29B JUMPI PUSH1 0x20 MUL DUP3 ADD SWAP2 PUSH1 0x0 SWAP1 JUMPDEST DUP3 DUP3 SWAP1 SLOAD SWAP1 PUSH2 0x100 EXP SWAP1 DIV PUSH1 0xFF AND ISZERO ISZERO DUP2 MSTORE PUSH1 0x20 ADD SWAP1 PUSH1 0x1 ADD SWAP1 PUSH1 0x20 DUP3 PUSH1 0x0 ADD DIV SWAP3 DUP4 ADD SWAP3 PUSH1 0x1 SUB DUP3 MUL SWAP2 POP DUP1 DUP5 GT PUSH2 0x265 JUMPI SWAP1 POP JUMPDEST POP POP POP POP POP DUP2 MSTORE PUSH1 0x20 ADD SWAP1 PUSH1 0x1 ADD SWAP1 PUSH2 0x234 JUMP JUMPDEST POP POP POP POP DUP2 MSTORE PUSH1 0x20 ADD PUSH1 0x6 DUP3 ADD PUSH1 0x3 DUP1 PUSH1 0x20 MUL PUSH1 0x40 MLOAD SWAP1 DUP2 ADD PUSH1 0x40 MSTORE DUP1 SWAP3 SWAP2 SWAP1 PUSH1 0x0 SWAP1 JUMPDEST DUP3 DUP3 LT ISZERO PUSH2 0x34E JUMPI DUP4 DUP3 ADD PUSH1 0x3 DUP1 PUSH1 0x20 MUL PUSH1 0x40 MLOAD SWAP1 DUP2 ADD PUSH1 0x40 MSTORE DUP1 SWAP3 SWAP2 SWAP1 DUP3 PUSH1 0x3 DUP1 ISZERO PUSH2 0x33A JUMPI PUSH1 0x20 MUL DUP3 ADD SWAP2 PUSH1 0x0 SWAP1 JUMPDEST DUP3 DUP3 SWAP1 SLOAD SWAP1 PUSH2 0x100 EXP SWAP1 DIV PUSH1 0xFF AND ISZERO ISZERO DUP2 MSTORE PUSH1 0x20 ADD SWAP1 PUSH1 0x1 ADD SWAP1 PUSH1 0x20 DUP3 PUSH1 0x0 ADD DIV SWAP3 DUP4 ADD SWAP3 PUSH1 0x1 SUB DUP3 MUL SWAP2 POP DUP1 DUP5 GT PUSH2 0x304 JUMPI SWAP1 POP JUMPDEST POP POP POP POP POP DUP2 MSTORE PUSH1 0x20 ADD SWAP1 PUSH1 0x1 ADD SWAP1 PUSH2 0x2D3 JUMP JUMPDEST POP POP POP POP DUP2 MSTORE PUSH1 0x20 ADD PUSH1 0x9 DUP3 ADD PUSH1 0x0 SWAP1 SLOAD SWAP1 PUSH2 0x100 EXP SWAP1 DIV PUSH1 0x0 SIGNEXTEND PUSH1 0x0 SIGNEXTEND PUSH1 0x0 SIGNEXTEND DUP2 MSTORE PUSH1 0x20 ADD PUSH1 0x9 DUP3 ADD PUSH1 0x1 SWAP1 SLOAD SWAP1 PUSH2 0x100 EXP SWAP1 DIV PUSH1 0xFF AND PUSH1 0xFF AND PUSH1 0xFF AND DUP2 MSTORE PUSH1 0x20 ADD PUSH1 0x9 DUP3 ADD PUSH1 0x2 SWAP1 SLOAD SWAP1 PUSH2 0x100 EXP SWAP1 DIV PUSH1 0xFF AND ISZERO ISZERO ISZERO ISZERO DUP2 MSTORE PUSH1 0x20 ADD PUSH1 0x9 DUP3 ADD PUSH1 0x3 SWAP1 SLOAD SWAP1 PUSH2 0x100 EXP SWAP1 DIV PUSH1 0xFF AND PUSH1 0xFF AND PUSH1 0xFF AND DUP2 MSTORE PUSH1 0x20 ADD PUSH1 0x9 DUP3 ADD PUSH1 0x4 SWAP1 SLOAD SWAP1 PUSH2 0x100 EXP SWAP1 DIV PUSH1 0xFF AND PUSH1 0xFF AND PUSH1 0xFF AND DUP2 MSTORE PUSH1 0x20 ADD PUSH1 0xA DUP3 ADD PUSH1 0x3 DUP1 PUSH1 0x20 MUL PUSH1 0x40 MLOAD SWAP1 DUP2 ADD PUSH1 0x40 MSTORE DUP1 SWAP3 SWAP2 SWAP1 PUSH1 0x0 SWAP1 JUMPDEST DUP3 DUP3 LT ISZERO PUSH2 0x47C JUMPI DUP4 DUP3 ADD PUSH1 0x16 DUP1 PUSH1 0x20 MUL PUSH1 0x40 MLOAD SWAP1 DUP2 ADD PUSH1 0x40 MSTORE DUP1 SWAP3 SWAP2 SWAP1 DUP3 PUSH1 0x16 DUP1 ISZERO PUSH2 0x468 JUMPI PUSH1 0x20 MUL DUP3 ADD SWAP2 PUSH1 0x0 SWAP1 JUMPDEST DUP3 DUP3 SWAP1 SLOAD SWAP1 PUSH2 0x100 EXP SWAP1 DIV PUSH1 0xFF AND ISZERO ISZERO DUP2 MSTORE PUSH1 0x20 ADD SWAP1 PUSH1 0x1 ADD SWAP1 PUSH1 0x20 DUP3 PUSH1 0x0 ADD DIV SWAP3 DUP4 ADD SWAP3 PUSH1 0x1 SUB DUP3 MUL SWAP2 POP DUP1 DUP5 GT PUSH2 0x432 JUMPI SWAP1 POP JUMPDEST POP POP POP POP POP DUP2 MSTORE PUSH1 0x20 ADD SWAP1 PUSH1 0x1 ADD SWAP1 PUSH2 0x401 JUMP JUMPDEST POP POP POP POP DUP2 MSTORE POP POP SWAP1 POP SWAP2 SWAP1 POP JUMP JUMPDEST PUSH1 0x0 PUSH1 0x2 PUSH1 0x0 DUP4 PUSH20 0xFFFFFFFFFFFFFFFFFFFFFFFFFFFFFFFFFFFFFFFF AND PUSH20 0xFFFFFFFFFFFFFFFFFFFFFFFFFFFFFFFFFFFFFFFF AND DUP2 MSTORE PUSH1 0x20 ADD SWAP1 DUP2 MSTORE PUSH1 0x20 ADD PUSH1 0x0 KECCAK256 PUSH1 0x9 ADD PUSH1 0x1 SWAP1 SLOAD SWAP1 PUSH2 0x100 EXP SWAP1 DIV PUSH1 0xFF AND SWAP1 POP SWAP2 SWAP1 POP JUMP JUMPDEST PUSH2 0x4EC PUSH2 0xB56 JUMP JUMPDEST JUMP JUMPDEST PUSH2 0x4F6 PUSH2 0x215A JUMP JUMPDEST PUSH1 0x1 PUSH1 0x0 DUP4 PUSH20 0xFFFFFFFFFFFFFFFFFFFFFFFFFFFFFFFFFFFFFFFF AND PUSH20 0xFFFFFFFFFFFFFFFFFFFFFFFFFFFFFFFFFFFFFFFF AND DUP2 MSTORE PUSH1 0x20 ADD SWAP1 DUP2 MSTORE PUSH1 0x20 ADD PUSH1 0x0 KECCAK256 PUSH1 0x40 MLOAD DUP1 PUSH1 0xA0 ADD PUSH1 0x40 MSTORE SWAP1 DUP2 PUSH1 0x0 DUP3 ADD PUSH1 0x6 DUP1 PUSH1 0x20 MUL PUSH1 0x40 MLOAD SWAP1 DUP2 ADD PUSH1 0x40 MSTORE DUP1 SWAP3 SWAP2 SWAP1 PUSH1 0x0 SWAP1 JUMPDEST DUP3 DUP3 LT ISZERO PUSH2 0x5D8 JUMPI DUP4 DUP3 ADD PUSH1 0x10 DUP1 PUSH1 0x20 MUL PUSH1 0x40 MLOAD SWAP1 DUP2 ADD PUSH1 0x40 MSTORE DUP1 SWAP3 SWAP2 SWAP1 DUP3 PUSH1 0x10 DUP1 ISZERO PUSH2 0x5C4 JUMPI PUSH1 0x20 MUL DUP3 ADD SWAP2 PUSH1 0x0 SWAP1 JUMPDEST DUP3 DUP3 SWAP1 SLOAD SWAP1 PUSH2 0x100 EXP SWAP1 DIV PUSH1 0xFF AND PUSH1 0xFF AND DUP2 MSTORE PUSH1 0x20 ADD SWAP1 PUSH1 0x1 ADD SWAP1 PUSH1 0x20 DUP3 PUSH1 0x0 ADD DIV SWAP3 DUP4 ADD SWAP3 PUSH1 0x1 SUB DUP3 MUL SWAP2 POP DUP1 DUP5 GT PUSH2 0x58D JUMPI SWAP1 POP JUMPDEST POP POP POP POP POP DUP2 MSTORE PUSH1 0x20 ADD SWAP1 PUSH1 0x1 ADD SWAP1 PUSH2 0x55C JUMP JUMPDEST POP POP POP POP DUP2 MSTORE PUSH1 0x20 ADD PUSH1 0x6 DUP3 ADD PUSH1 0x6 DUP1 PUSH1 0x20 MUL PUSH1 0x40 MLOAD SWAP1 DUP2 ADD PUSH1 0x40 MSTORE DUP1 SWAP3 SWAP2 SWAP1 DUP3 PUSH1 0x6 DUP1 ISZERO PUSH2 0x642 JUMPI PUSH1 0x20 MUL DUP3 ADD SWAP2 PUSH1 0x0 SWAP1 JUMPDEST DUP3 DUP3 SWAP1 SLOAD SWAP1 PUSH2 0x100 EXP SWAP1 DIV PUSH1 0xFF AND PUSH1 0xFF AND DUP2 MSTORE PUSH1 0x20 ADD SWAP1 PUSH1 0x1 ADD SWAP1 PUSH1 0x20 DUP3 PUSH1 0x0 ADD DIV SWAP3 DUP4 ADD SWAP3 PUSH1 0x1 SUB DUP3 MUL SWAP2 POP DUP1 DUP5 GT PUSH2 0x60B JUMPI SWAP1 POP JUMPDEST POP POP POP POP POP DUP2 MSTORE PUSH1 0x20 ADD PUSH1 0x7 DUP3 ADD PUSH1 0xA DUP1 PUSH1 0x20 MUL PUSH1 0x40 MLOAD SWAP1 DUP2 ADD PUSH1 0x40 MSTORE DUP1 SWAP3 SWAP2 SWAP1 DUP3 PUSH1 0xA DUP1 ISZERO PUSH2 0x6AD JUMPI PUSH1 0x20 MUL DUP3 ADD SWAP2 PUSH1 0x0 SWAP1 JUMPDEST DUP3 DUP3 SWAP1 SLOAD SWAP1 PUSH2 0x100 EXP SWAP1 DIV PUSH1 0xFF AND PUSH1 0xFF AND DUP2 MSTORE PUSH1 0x20 ADD SWAP1 PUSH1 0x1 ADD SWAP1 PUSH1 0x20 DUP3 PUSH1 0x0 ADD DIV SWAP3 DUP4 ADD SWAP3 PUSH1 0x1 SUB DUP3 MUL SWAP2 POP DUP1 DUP5 GT PUSH2 0x676 JUMPI SWAP1 POP JUMPDEST POP POP POP POP POP DUP2 MSTORE PUSH1 0x20 ADD PUSH1 0x8 DUP3 ADD PUSH1 0x6 DUP1 PUSH1 0x20 MUL PUSH1 0x40 MLOAD SWAP1 DUP2 ADD PUSH1 0x40 MSTORE DUP1 SWAP3 SWAP2 SWAP1 PUSH1 0x0 SWAP1 JUMPDEST DUP3 DUP3 LT ISZERO PUSH2 0x72B JUMPI DUP4 DUP3 PUSH1 0x6 MUL ADD PUSH1 0x6 DUP1 PUSH1 0x20 MUL PUSH1 0x40 MLOAD SWAP1 DUP2 ADD PUSH1 0x40 MSTORE DUP1 SWAP3 SWAP2 SWAP1 DUP3 PUSH1 0x6 DUP1 ISZERO PUSH2 0x717 JUMPI PUSH1 0x20 MUL DUP3 ADD SWAP2 JUMPDEST DUP2 SLOAD DUP2 MSTORE PUSH1 0x20 ADD SWAP1 PUSH1 0x1 ADD SWAP1 DUP1 DUP4 GT PUSH2 0x703 JUMPI JUMPDEST POP POP POP POP POP DUP2 MSTORE PUSH1 0x20 ADD SWAP1 PUSH1 0x1 ADD SWAP1 PUSH2 0x6D2 JUMP JUMPDEST POP POP POP POP DUP2 MSTORE PUSH1 0x20 ADD PUSH1 0x2C DUP3 ADD PUSH1 0x6 DUP1 PUSH1 0x20 MUL PUSH1 0x40 MLOAD SWAP1 DUP2 ADD PUSH1 0x40 MSTORE DUP1 SWAP3 SWAP2 SWAP1 DUP3 PUSH1 0x6 DUP1 ISZERO PUSH2 0x7A4 JUMPI PUSH1 0x20 MUL DUP3 ADD SWAP2 PUSH1 0x0 SWAP1 JUMPDEST DUP3 DUP3 SWAP1 SLOAD SWAP1 PUSH2 0x100 EXP SWAP1 DIV PUSH1 0xFF AND PUSH1 0x5 DUP2 GT ISZERO PUSH2 0x77E JUMPI PUSH2 0x77D PUSH2 0x374A JUMP JUMPDEST JUMPDEST DUP2 MSTORE PUSH1 0x20 ADD SWAP1 PUSH1 0x1 ADD SWAP1 PUSH1 0x20 DUP3 PUSH1 0x0 ADD DIV SWAP3 DUP4 ADD SWAP3 PUSH1 0x1 SUB DUP3 MUL SWAP2 POP DUP1 DUP5 GT PUSH2 0x75E JUMPI SWAP1 POP JUMPDEST POP POP POP POP POP DUP2 MSTORE POP POP SWAP1 POP SWAP2 SWAP1 POP JUMP JUMPDEST PUSH2 0x7BC PUSH2 0x21A7 JUMP JUMPDEST PUSH1 0x0 DUP1 DUP4 PUSH20 0xFFFFFFFFFFFFFFFFFFFFFFFFFFFFFFFFFFFFFFFF AND PUSH20 0xFFFFFFFFFFFFFFFFFFFFFFFFFFFFFFFFFFFFFFFF AND DUP2 MSTORE PUSH1 0x20 ADD SWAP1 DUP2 MSTORE PUSH1 0x20 ADD PUSH1 0x0 KECCAK256 PUSH1 0x40 MLOAD DUP1 PUSH1 0x60 ADD PUSH1 0x40 MSTORE SWAP1 DUP2 PUSH1 0x0 DUP3 ADD PUSH1 0x6 DUP1 PUSH1 0x20 MUL PUSH1 0x40 MLOAD SWAP1 DUP2 ADD PUSH1 0x40 MSTORE DUP1 SWAP3 SWAP2 SWAP1 PUSH1 0x0 SWAP1 JUMPDEST DUP3 DUP3 LT ISZERO PUSH2 0xA05 JUMPI DUP4 DUP3 PUSH1 0x8 MUL ADD PUSH1 0x40 MLOAD DUP1 PUSH1 0xA0 ADD PUSH1 0x40 MSTORE SWAP1 DUP2 PUSH1 0x0 DUP3 ADD PUSH1 0x6 DUP1 PUSH1 0x20 MUL PUSH1 0x40 MLOAD SWAP1 DUP2 ADD PUSH1 0x40 MSTORE DUP1 SWAP3 SWAP2 SWAP1 PUSH1 0x0 SWAP1 JUMPDEST DUP3 DUP3 LT ISZERO PUSH2 0x8D2 JUMPI DUP4 DUP3 ADD PUSH1 0x6 DUP1 PUSH1 0x20 MUL PUSH1 0x40 MLOAD SWAP1 DUP2 ADD PUSH1 0x40 MSTORE DUP1 SWAP3 SWAP2 SWAP1 DUP3 PUSH1 0x6 DUP1 ISZERO PUSH2 0x8BE JUMPI PUSH1 0x20 MUL DUP3 ADD SWAP2 PUSH1 0x0 SWAP1 JUMPDEST DUP3 DUP3 SWAP1 SLOAD SWAP1 PUSH2 0x100 EXP SWAP1 DIV PUSH1 0xFF AND PUSH1 0xFF AND DUP2 MSTORE PUSH1 0x20 ADD SWAP1 PUSH1 0x1 ADD SWAP1 PUSH1 0x20 DUP3 PUSH1 0x0 ADD DIV SWAP3 DUP4 ADD SWAP3 PUSH1 0x1 SUB DUP3 MUL SWAP2 POP DUP1 DUP5 GT PUSH2 0x887 JUMPI SWAP1 POP JUMPDEST POP POP POP POP POP DUP2 MSTORE PUSH1 0x20 ADD SWAP1 PUSH1 0x1 ADD SWAP1 PUSH2 0x856 JUMP JUMPDEST POP POP POP POP DUP2 MSTORE PUSH1 0x20 ADD PUSH1 0x6 DUP3 ADD PUSH1 0x0 SWAP1 SLOAD SWAP1 PUSH2 0x100 EXP SWAP1 DIV PUSH1 0xFF AND PUSH1 0x5 DUP2 GT ISZERO PUSH2 0x8FF JUMPI PUSH2 0x8FE PUSH2 0x374A JUMP JUMPDEST JUMPDEST PUSH1 0x5 DUP2 GT ISZERO PUSH2 0x911 JUMPI PUSH2 0x910 PUSH2 0x374A JUMP JUMPDEST JUMPDEST DUP2 MSTORE PUSH1 0x20 ADD PUSH1 0x6 DUP3 ADD PUSH1 0x1 SWAP1 SLOAD SWAP1 PUSH2 0x100 EXP SWAP1 DIV PUSH1 0xFF AND PUSH1 0x5 DUP2 GT ISZERO PUSH2 0x93A JUMPI PUSH2 0x939 PUSH2 0x374A JUMP JUMPDEST JUMPDEST PUSH1 0x5 DUP2 GT ISZERO PUSH2 0x94C JUMPI PUSH2 0x94B PUSH2 0x374A JUMP JUMPDEST JUMPDEST DUP2 MSTORE PUSH1 0x20 ADD PUSH1 0x6 DUP3 ADD PUSH1 0x2 SWAP1 SLOAD SWAP1 PUSH2 0x100 EXP SWAP1 DIV PUSH1 0xFF AND PUSH1 0x5 DUP2 GT ISZERO PUSH2 0x975 JUMPI PUSH2 0x974 PUSH2 0x374A JUMP JUMPDEST JUMPDEST PUSH1 0x5 DUP2 GT ISZERO PUSH2 0x987 JUMPI PUSH2 0x986 PUSH2 0x374A JUMP JUMPDEST JUMPDEST DUP2 MSTORE PUSH1 0x20 ADD PUSH1 0x7 DUP3 ADD PUSH1 0x6 DUP1 PUSH1 0x20 MUL PUSH1 0x40 MLOAD SWAP1 DUP2 ADD PUSH1 0x40 MSTORE DUP1 SWAP3 SWAP2 SWAP1 DUP3 PUSH1 0x6 DUP1 ISZERO PUSH2 0x9ED JUMPI PUSH1 0x20 MUL DUP3 ADD SWAP2 PUSH1 0x0 SWAP1 JUMPDEST DUP3 DUP3 SWAP1 SLOAD SWAP1 PUSH2 0x100 EXP SWAP1 DIV PUSH1 0xFF AND PUSH1 0xFF AND DUP2 MSTORE PUSH1 0x20 ADD SWAP1 PUSH1 0x1 ADD SWAP1 PUSH1 0x20 DUP3 PUSH1 0x0 ADD DIV SWAP3 DUP4 ADD SWAP3 PUSH1 0x1 SUB DUP3 MUL SWAP2 POP DUP1 DUP5 GT PUSH2 0x9B6 JUMPI SWAP1 POP JUMPDEST POP POP POP POP POP DUP2 MSTORE POP POP DUP2 MSTORE PUSH1 0x20 ADD SWAP1 PUSH1 0x1 ADD SWAP1 PUSH2 0x821 JUMP JUMPDEST POP POP POP POP DUP2 MSTORE PUSH1 0x20 ADD PUSH1 0x30 DUP3 ADD PUSH1 0x4 DUP1 PUSH1 0x20 MUL PUSH1 0x40 MLOAD SWAP1 DUP2 ADD PUSH1 0x40 MSTORE DUP1 SWAP3 SWAP2 SWAP1 DUP3 PUSH1 0x4 DUP1 ISZERO PUSH2 0xA6F JUMPI PUSH1 0x20 MUL DUP3 ADD SWAP2 PUSH1 0x0 SWAP1 JUMPDEST DUP3 DUP3 SWAP1 SLOAD SWAP1 PUSH2 0x100 EXP SWAP1 DIV PUSH1 0xFF AND PUSH1 0xFF AND DUP2 MSTORE PUSH1 0x20 ADD SWAP1 PUSH1 0x1 ADD SWAP1 PUSH1 0x20 DUP3 PUSH1 0x0 ADD DIV SWAP3 DUP4 ADD SWAP3 PUSH1 0x1 SUB DUP3 MUL SWAP2 POP DUP1 DUP5 GT PUSH2 0xA38 JUMPI SWAP1 POP JUMPDEST POP POP POP POP POP DUP2 MSTORE PUSH1 0x20 ADD PUSH1 0x31 DUP3 ADD PUSH1 0x5 DUP1 PUSH1 0x20 MUL PUSH1 0x40 MLOAD SWAP1 DUP2 ADD PUSH1 0x40 MSTORE DUP1 SWAP3 SWAP2 SWAP1 PUSH1 0x0 SWAP1 JUMPDEST DUP3 DUP3 LT ISZERO PUSH2 0xB47 JUMPI DUP4 DUP3 PUSH1 0x2 MUL ADD PUSH1 0x2 DUP1 PUSH1 0x20 MUL PUSH1 0x40 MLOAD SWAP1 DUP2 ADD PUSH1 0x40 MSTORE DUP1 SWAP3 SWAP2 SWAP1 PUSH1 0x0 SWAP1 JUMPDEST DUP3 DUP3 LT ISZERO PUSH2 0xB34 JUMPI DUP4 DUP3 ADD PUSH1 0x6 DUP1 PUSH1 0x20 MUL PUSH1 0x40 MLOAD SWAP1 DUP2 ADD PUSH1 0x40 MSTORE DUP1 SWAP3 SWAP2 SWAP1 DUP3 PUSH1 0x6 DUP1 ISZERO PUSH2 0xB20 JUMPI PUSH1 0x20 MUL DUP3 ADD SWAP2 PUSH1 0x0 SWAP1 JUMPDEST DUP3 DUP3 SWAP1 SLOAD SWAP1 PUSH2 0x100 EXP SWAP1 DIV PUSH1 0xFF AND ISZERO ISZERO DUP2 MSTORE PUSH1 0x20 ADD SWAP1 PUSH1 0x1 ADD SWAP1 PUSH1 0x20 DUP3 PUSH1 0x0 ADD DIV SWAP3 DUP4 ADD SWAP3 PUSH1 0x1 SUB DUP3 MUL SWAP2 POP DUP1 DUP5 GT PUSH2 0xAEA JUMPI SWAP1 POP JUMPDEST POP POP POP POP POP DUP2 MSTORE PUSH1 0x20 ADD SWAP1 PUSH1 0x1 ADD SWAP1 PUSH2 0xAB9 JUMP JUMPDEST POP POP POP POP DUP2 MSTORE PUSH1 0x20 ADD SWAP1 PUSH1 0x1 ADD SWAP1 PUSH2 0xA94 JUMP JUMPDEST POP POP POP POP DUP2 MSTORE POP POP SWAP1 POP SWAP2 SWAP1 POP JUMP JUMPDEST PUSH2 0xB5E PUSH2 0x21DA JUMP JUMPDEST PUSH1 0x40 MLOAD DUP1 PUSH1 0xC0 ADD PUSH1 0x40 MSTORE DUP1 PUSH1 0x1 PUSH1 0xFF AND DUP2 MSTORE PUSH1 0x20 ADD PUSH1 0x1 PUSH1 0xFF AND DUP2 MSTORE PUSH1 0x20 ADD PUSH1 0x0 PUSH1 0xFF AND DUP2 MSTORE PUSH1 0x20 ADD PUSH1 0x1 PUSH1 0xFF AND DUP2 MSTORE PUSH1 0x20 ADD PUSH1 0x0 PUSH1 0xFF AND DUP2 MSTORE PUSH1 0x20 ADD PUSH1 0x0 PUSH1 0xFF AND DUP2 MSTORE POP DUP2 PUSH1 0x0 PUSH1 0x6 DUP2 LT PUSH2 0xBB7 JUMPI PUSH2 0xBB6 PUSH2 0x3D02 JUMP JUMPDEST JUMPDEST PUSH1 0x20 MUL ADD DUP2 SWAP1 MSTORE POP PUSH1 0x40 MLOAD DUP1 PUSH1 0xC0 ADD PUSH1 0x40 MSTORE DUP1 PUSH1 0x1 PUSH1 0xFF AND DUP2 MSTORE PUSH1 0x20 ADD PUSH1 0x0 PUSH1 0xFF AND DUP2 MSTORE PUSH1 0x20 ADD PUSH1 0x0 PUSH1 0xFF AND DUP2 MSTORE PUSH1 0x20 ADD PUSH1 0x1 PUSH1 0xFF AND DUP2 MSTORE PUSH1 0x20 ADD PUSH1 0x0 PUSH1 0xFF AND DUP2 MSTORE PUSH1 0x20 ADD PUSH1 0x0 PUSH1 0xFF AND DUP2 MSTORE POP DUP2 PUSH1 0x1 PUSH1 0x6 DUP2 LT PUSH2 0xC18 JUMPI PUSH2 0xC17 PUSH2 0x3D02 JUMP JUMPDEST JUMPDEST PUSH1 0x20 MUL ADD DUP2 SWAP1 MSTORE POP PUSH1 0x40 MLOAD DUP1 PUSH1 0xC0 ADD PUSH1 0x40 MSTORE DUP1 PUSH1 0x1 PUSH1 0xFF AND DUP2 MSTORE PUSH1 0x20 ADD PUSH1 0x0 PUSH1 0xFF AND DUP2 MSTORE PUSH1 0x20 ADD PUSH1 0x1 PUSH1 0xFF AND DUP2 MSTORE PUSH1 0x20 ADD PUSH1 0x0 PUSH1 0xFF AND DUP2 MSTORE PUSH1 0x20 ADD PUSH1 0x1 PUSH1 0xFF AND DUP2 MSTORE PUSH1 0x20 ADD PUSH1 0x0 PUSH1 0xFF AND DUP2 MSTORE POP DUP2 PUSH1 0x2 PUSH1 0x6 DUP2 LT PUSH2 0xC79 JUMPI PUSH2 0xC78 PUSH2 0x3D02 JUMP JUMPDEST JUMPDEST PUSH1 0x20 MUL ADD DUP2 SWAP1 MSTORE POP PUSH1 0x40 MLOAD DUP1 PUSH1 0xC0 ADD PUSH1 0x40 MSTORE DUP1 PUSH1 0x1 PUSH1 0xFF AND DUP2 MSTORE PUSH1 0x20 ADD PUSH1 0x1 PUSH1 0xFF AND DUP2 MSTORE PUSH1 0x20 ADD PUSH1 0x0 PUSH1 0xFF AND DUP2 MSTORE PUSH1 0x20 ADD PUSH1 0x1 PUSH1 0xFF AND DUP2 MSTORE PUSH1 0x20 ADD PUSH1 0x0 PUSH1 0xFF AND DUP2 MSTORE PUSH1 0x20 ADD PUSH1 0x0 PUSH1 0xFF AND DUP2 MSTORE POP DUP2 PUSH1 0x3 PUSH1 0x6 DUP2 LT PUSH2 0xCDA JUMPI PUSH2 0xCD9 PUSH2 0x3D02 JUMP JUMPDEST JUMPDEST PUSH1 0x20 MUL ADD DUP2 SWAP1 MSTORE POP PUSH1 0x40 MLOAD DUP1 PUSH1 0xC0 ADD PUSH1 0x40 MSTORE DUP1 PUSH1 0x1 PUSH1 0xFF AND DUP2 MSTORE PUSH1 0x20 ADD PUSH1 0x0 PUSH1 0xFF AND DUP2 MSTORE PUSH1 0x20 ADD PUSH1 0x1 PUSH1 0xFF AND DUP2 MSTORE PUSH1 0x20 ADD PUSH1 0x0 PUSH1 0xFF AND DUP2 MSTORE PUSH1 0x20 ADD PUSH1 0x1 PUSH1 0xFF AND DUP2 MSTORE PUSH1 0x20 ADD PUSH1 0x0 PUSH1 0xFF AND DUP2 MSTORE POP DUP2 PUSH1 0x4 PUSH1 0x6 DUP2 LT PUSH2 0xD3B JUMPI PUSH2 0xD3A PUSH2 0x3D02 JUMP JUMPDEST JUMPDEST PUSH1 0x20 MUL ADD DUP2 SWAP1 MSTORE POP PUSH1 0x40 MLOAD DUP1 PUSH1 0xC0 ADD PUSH1 0x40 MSTORE DUP1 PUSH1 0x1 PUSH1 0xFF AND DUP2 MSTORE PUSH1 0x20 ADD PUSH1 0x1 PUSH1 0xFF AND DUP2 MSTORE PUSH1 0x20 ADD PUSH1 0x1 PUSH1 0xFF AND DUP2 MSTORE PUSH1 0x20 ADD PUSH1 0x0 PUSH1 0xFF AND DUP2 MSTORE PUSH1 0x20 ADD PUSH1 0x1 PUSH1 0xFF AND DUP2 MSTORE PUSH1 0x20 ADD PUSH1 0x0 PUSH1 0xFF AND DUP2 MSTORE POP DUP2 PUSH1 0x5 PUSH1 0x6 DUP2 LT PUSH2 0xD9C JUMPI PUSH2 0xD9B PUSH2 0x3D02 JUMP JUMPDEST JUMPDEST PUSH1 0x20 MUL ADD DUP2 SWAP1 MSTORE POP PUSH1 0x0 JUMPDEST PUSH1 0x6 DUP2 PUSH1 0xFF AND LT ISZERO PUSH2 0x106C JUMPI PUSH2 0xDBB PUSH2 0x2207 JUMP JUMPDEST PUSH1 0x0 JUMPDEST PUSH1 0x6 DUP2 PUSH1 0xFF AND LT ISZERO PUSH2 0xE47 JUMPI PUSH1 0x0 JUMPDEST PUSH1 0x6 DUP2 PUSH1 0xFF AND LT ISZERO PUSH2 0xE33 JUMPI PUSH1 0x0 DUP4 PUSH1 0x0 ADD MLOAD DUP4 PUSH1 0xFF AND PUSH1 0x6 DUP2 LT PUSH2 0xDF5 JUMPI PUSH2 0xDF4 PUSH2 0x3D02 JUMP JUMPDEST JUMPDEST PUSH1 0x20 MUL ADD MLOAD DUP3 PUSH1 0xFF AND PUSH1 0x6 DUP2 LT PUSH2 0xE0F JUMPI PUSH2 0xE0E PUSH2 0x3D02 JUMP JUMPDEST JUMPDEST PUSH1 0x20 MUL ADD SWAP1 PUSH1 0xFF AND SWAP1 DUP2 PUSH1 0xFF AND DUP2 MSTORE POP POP DUP1 DUP1 PUSH2 0xE2B SWAP1 PUSH2 0x3D60 JUMP JUMPDEST SWAP2 POP POP PUSH2 0xDCD JUMP JUMPDEST POP DUP1 DUP1 PUSH2 0xE3F SWAP1 PUSH2 0x3D60 JUMP JUMPDEST SWAP2 POP POP PUSH2 0xDBE JUMP JUMPDEST POP DUP2 PUSH1 0xFF AND PUSH1 0x5 DUP2 GT ISZERO PUSH2 0xE5E JUMPI PUSH2 0xE5D PUSH2 0x374A JUMP JUMPDEST JUMPDEST DUP2 PUSH1 0x20 ADD SWAP1 PUSH1 0x5 DUP2 GT ISZERO PUSH2 0xE75 JUMPI PUSH2 0xE74 PUSH2 0x374A JUMP JUMPDEST JUMPDEST SWAP1 DUP2 PUSH1 0x5 DUP2 GT ISZERO PUSH2 0xE89 JUMPI PUSH2 0xE88 PUSH2 0x374A JUMP JUMPDEST JUMPDEST DUP2 MSTORE POP POP DUP2 PUSH1 0xFF AND PUSH1 0x5 DUP2 GT ISZERO PUSH2 0xEA3 JUMPI PUSH2 0xEA2 PUSH2 0x374A JUMP JUMPDEST JUMPDEST DUP2 PUSH1 0x40 ADD SWAP1 PUSH1 0x5 DUP2 GT ISZERO PUSH2 0xEBA JUMPI PUSH2 0xEB9 PUSH2 0x374A JUMP JUMPDEST JUMPDEST SWAP1 DUP2 PUSH1 0x5 DUP2 GT ISZERO PUSH2 0xECE JUMPI PUSH2 0xECD PUSH2 0x374A JUMP JUMPDEST JUMPDEST DUP2 MSTORE POP POP DUP2 PUSH1 0xFF AND PUSH1 0x5 DUP2 GT ISZERO PUSH2 0xEE8 JUMPI PUSH2 0xEE7 PUSH2 0x374A JUMP JUMPDEST JUMPDEST DUP2 PUSH1 0x60 ADD SWAP1 PUSH1 0x5 DUP2 GT ISZERO PUSH2 0xEFF JUMPI PUSH2 0xEFE PUSH2 0x374A JUMP JUMPDEST JUMPDEST SWAP1 DUP2 PUSH1 0x5 DUP2 GT ISZERO PUSH2 0xF13 JUMPI PUSH2 0xF12 PUSH2 0x374A JUMP JUMPDEST JUMPDEST DUP2 MSTORE POP POP DUP3 DUP3 PUSH1 0xFF AND PUSH1 0x6 DUP2 LT PUSH2 0xF2D JUMPI PUSH2 0xF2C PUSH2 0x3D02 JUMP JUMPDEST JUMPDEST PUSH1 0x20 MUL ADD MLOAD DUP2 PUSH1 0x80 ADD DUP2 SWAP1 MSTORE POP DUP1 PUSH1 0x0 DUP1 CALLER PUSH20 0xFFFFFFFFFFFFFFFFFFFFFFFFFFFFFFFFFFFFFFFF AND PUSH20 0xFFFFFFFFFFFFFFFFFFFFFFFFFFFFFFFFFFFFFFFF AND DUP2 MSTORE PUSH1 0x20 ADD SWAP1 DUP2 MSTORE PUSH1 0x20 ADD PUSH1 0x0 KECCAK256 PUSH1 0x0 ADD DUP4 PUSH1 0xFF AND PUSH1 0x6 DUP2 LT PUSH2 0xF91 JUMPI PUSH2 0xF90 PUSH2 0x3D02 JUMP JUMPDEST JUMPDEST PUSH1 0x8 MUL ADD PUSH1 0x0 DUP3 ADD MLOAD DUP2 PUSH1 0x0 ADD SWAP1 PUSH1 0x6 PUSH2 0xFAC SWAP3 SWAP2 SWAP1 PUSH2 0x2278 JUMP JUMPDEST POP PUSH1 0x20 DUP3 ADD MLOAD DUP2 PUSH1 0x6 ADD PUSH1 0x0 PUSH2 0x100 EXP DUP2 SLOAD DUP2 PUSH1 0xFF MUL NOT AND SWAP1 DUP4 PUSH1 0x5 DUP2 GT ISZERO PUSH2 0xFD8 JUMPI PUSH2 0xFD7 PUSH2 0x374A JUMP JUMPDEST JUMPDEST MUL OR SWAP1 SSTORE POP PUSH1 0x40 DUP3 ADD MLOAD DUP2 PUSH1 0x6 ADD PUSH1 0x1 PUSH2 0x100 EXP DUP2 SLOAD DUP2 PUSH1 0xFF MUL NOT AND SWAP1 DUP4 PUSH1 0x5 DUP2 GT ISZERO PUSH2 0x1008 JUMPI PUSH2 0x1007 PUSH2 0x374A JUMP JUMPDEST JUMPDEST MUL OR SWAP1 SSTORE POP PUSH1 0x60 DUP3 ADD MLOAD DUP2 PUSH1 0x6 ADD PUSH1 0x2 PUSH2 0x100 EXP DUP2 SLOAD DUP2 PUSH1 0xFF MUL NOT AND SWAP1 DUP4 PUSH1 0x5 DUP2 GT ISZERO PUSH2 0x1038 JUMPI PUSH2 0x1037 PUSH2 0x374A JUMP JUMPDEST JUMPDEST MUL OR SWAP1 SSTORE POP PUSH1 0x80 DUP3 ADD MLOAD DUP2 PUSH1 0x7 ADD SWAP1 PUSH1 0x6 PUSH2 0x1054 SWAP3 SWAP2 SWAP1 PUSH2 0x22C6 JUMP JUMPDEST POP SWAP1 POP POP POP DUP1 DUP1 PUSH2 0x1064 SWAP1 PUSH2 0x3D60 JUMP JUMPDEST SWAP2 POP POP PUSH2 0xDA7 JUMP JUMPDEST POP PUSH1 0x40 MLOAD DUP1 PUSH1 0x80 ADD PUSH1 0x40 MSTORE DUP1 PUSH1 0x0 PUSH1 0xFF AND DUP2 MSTORE PUSH1 0x20 ADD PUSH1 0x0 PUSH1 0xFF AND DUP2 MSTORE PUSH1 0x20 ADD PUSH1 0x0 PUSH1 0xFF AND DUP2 MSTORE PUSH1 0x20 ADD PUSH1 0x0 PUSH1 0xFF AND DUP2 MSTORE POP PUSH1 0x0 DUP1 CALLER PUSH20 0xFFFFFFFFFFFFFFFFFFFFFFFFFFFFFFFFFFFFFFFF AND PUSH20 0xFFFFFFFFFFFFFFFFFFFFFFFFFFFFFFFFFFFFFFFF AND DUP2 MSTORE PUSH1 0x20 ADD SWAP1 DUP2 MSTORE PUSH1 0x20 ADD PUSH1 0x0 KECCAK256 PUSH1 0x30 ADD SWAP1 PUSH1 0x4 PUSH2 0x10ED SWAP3 SWAP2 SWAP1 PUSH2 0x2360 JUMP JUMPDEST POP PUSH2 0x10F6 PUSH2 0x23FA JUMP JUMPDEST PUSH1 0x40 MLOAD DUP1 PUSH1 0xC0 ADD PUSH1 0x40 MSTORE DUP1 PUSH1 0x1 ISZERO ISZERO ISZERO ISZERO DUP2 MSTORE PUSH1 0x20 ADD PUSH1 0x0 ISZERO ISZERO ISZERO ISZERO DUP2 MSTORE PUSH1 0x20 ADD PUSH1 0x0 ISZERO ISZERO ISZERO ISZERO DUP2 MSTORE PUSH1 0x20 ADD PUSH1 0x0 ISZERO ISZERO ISZERO ISZERO DUP2 MSTORE PUSH1 0x20 ADD PUSH1 0x0 ISZERO ISZERO ISZERO ISZERO DUP2 MSTORE PUSH1 0x20 ADD PUSH1 0x0 ISZERO ISZERO ISZERO ISZERO DUP2 MSTORE POP DUP2 PUSH1 0x0 PUSH1 0x5 DUP2 LT PUSH2 0x1155 JUMPI PUSH2 0x1154 PUSH2 0x3D02 JUMP JUMPDEST JUMPDEST PUSH1 0x20 MUL ADD DUP2 SWAP1 MSTORE POP PUSH1 0x40 MLOAD DUP1 PUSH1 0xC0 ADD PUSH1 0x40 MSTORE DUP1 PUSH1 0x1 ISZERO ISZERO ISZERO ISZERO DUP2 MSTORE PUSH1 0x20 ADD PUSH1 0x0 ISZERO ISZERO ISZERO ISZERO DUP2 MSTORE PUSH1 0x20 ADD PUSH1 0x0 ISZERO ISZERO ISZERO ISZERO DUP2 MSTORE PUSH1 0x20 ADD PUSH1 0x0 ISZERO ISZERO ISZERO ISZERO DUP2 MSTORE PUSH1 0x20 ADD PUSH1 0x0 ISZERO ISZERO ISZERO ISZERO DUP2 MSTORE PUSH1 0x20 ADD PUSH1 0x0 ISZERO ISZERO ISZERO ISZERO DUP2 MSTORE POP DUP2 PUSH1 0x1 PUSH1 0x5 DUP2 LT PUSH2 0x11BC JUMPI PUSH2 0x11BB PUSH2 0x3D02 JUMP JUMPDEST JUMPDEST PUSH1 0x20 MUL ADD DUP2 SWAP1 MSTORE POP PUSH1 0x40 MLOAD DUP1 PUSH1 0xC0 ADD PUSH1 0x40 MSTORE DUP1 PUSH1 0x1 ISZERO ISZERO ISZERO ISZERO DUP2 MSTORE PUSH1 0x20 ADD PUSH1 0x1 ISZERO ISZERO ISZERO ISZERO DUP2 MSTORE PUSH1 0x20 ADD PUSH1 0x0 ISZERO ISZERO ISZERO ISZERO DUP2 MSTORE PUSH1 0x20 ADD PUSH1 0x0 ISZERO ISZERO ISZERO ISZERO DUP2 MSTORE PUSH1 0x20 ADD PUSH1 0x0 ISZERO ISZERO ISZERO ISZERO DUP2 MSTORE PUSH1 0x20 ADD PUSH1 0x0 ISZERO ISZERO ISZERO ISZERO DUP2 MSTORE POP DUP2 PUSH1 0x2 PUSH1 0x5 DUP2 LT PUSH2 0x1223 JUMPI PUSH2 0x1222 PUSH2 0x3D02 JUMP JUMPDEST JUMPDEST PUSH1 0x20 MUL ADD DUP2 SWAP1 MSTORE POP PUSH1 0x40 MLOAD DUP1 PUSH1 0xC0 ADD PUSH1 0x40 MSTORE DUP1 PUSH1 0x1 ISZERO ISZERO ISZERO ISZERO DUP2 MSTORE PUSH1 0x20 ADD PUSH1 0x1 ISZERO ISZERO ISZERO ISZERO DUP2 MSTORE PUSH1 0x20 ADD PUSH1 0x1 ISZERO ISZERO ISZERO ISZERO DUP2 MSTORE PUSH1 0x20 ADD PUSH1 0x0 ISZERO ISZERO ISZERO ISZERO DUP2 MSTORE PUSH1 0x20 ADD PUSH1 0x0 ISZERO ISZERO ISZERO ISZERO DUP2 MSTORE PUSH1 0x20 ADD PUSH1 0x0 ISZERO ISZERO ISZERO ISZERO DUP2 MSTORE POP DUP2 PUSH1 0x3 PUSH1 0x5 DUP2 LT PUSH2 0x128A JUMPI PUSH2 0x1289 PUSH2 0x3D02 JUMP JUMPDEST JUMPDEST PUSH1 0x20 MUL ADD DUP2 SWAP1 MSTORE POP PUSH1 0x40 MLOAD DUP1 PUSH1 0xC0 ADD PUSH1 0x40 MSTORE DUP1 PUSH1 0x1 ISZERO ISZERO ISZERO ISZERO DUP2 MSTORE PUSH1 0x20 ADD PUSH1 0x1 ISZERO ISZERO ISZERO ISZERO DUP2 MSTORE PUSH1 0x20 ADD PUSH1 0x1 ISZERO ISZERO ISZERO ISZERO DUP2 MSTORE PUSH1 0x20 ADD PUSH1 0x1 ISZERO ISZERO ISZERO ISZERO DUP2 MSTORE PUSH1 0x20 ADD PUSH1 0x0 ISZERO ISZERO ISZERO ISZERO DUP2 MSTORE PUSH1 0x20 ADD PUSH1 0x0 ISZERO ISZERO ISZERO ISZERO DUP2 MSTORE POP DUP2 PUSH1 0x4 PUSH1 0x5 DUP2 LT PUSH2 0x12F1 JUMPI PUSH2 0x12F0 PUSH2 0x3D02 JUMP JUMPDEST JUMPDEST PUSH1 0x20 MUL ADD DUP2 SWAP1 MSTORE POP PUSH2 0x1301 PUSH2 0x23FA JUMP JUMPDEST PUSH1 0x40 MLOAD DUP1 PUSH1 0xC0 ADD PUSH1 0x40 MSTORE DUP1 PUSH1 0x0 ISZERO ISZERO ISZERO ISZERO DUP2 MSTORE PUSH1 0x20 ADD PUSH1 0x0 ISZERO ISZERO ISZERO ISZERO DUP2 MSTORE PUSH1 0x20 ADD PUSH1 0x0 ISZERO ISZERO ISZERO ISZERO DUP2 MSTORE PUSH1 0x20 ADD PUSH1 0x0 ISZERO ISZERO ISZERO ISZERO DUP2 MSTORE PUSH1 0x20 ADD PUSH1 0x1 ISZERO ISZERO ISZERO ISZERO DUP2 MSTORE PUSH1 0x20 ADD PUSH1 0x1 ISZERO ISZERO ISZERO ISZERO DUP2 MSTORE POP DUP2 PUSH1 0x0 PUSH1 0x5 DUP2 LT PUSH2 0x1360 JUMPI PUSH2 0x135F PUSH2 0x3D02 JUMP JUMPDEST JUMPDEST PUSH1 0x20 MUL ADD DUP2 SWAP1 MSTORE POP PUSH1 0x40 MLOAD DUP1 PUSH1 0xC0 ADD PUSH1 0x40 MSTORE DUP1 PUSH1 0x0 ISZERO ISZERO ISZERO ISZERO DUP2 MSTORE PUSH1 0x20 ADD PUSH1 0x0 ISZERO ISZERO ISZERO ISZERO DUP2 MSTORE PUSH1 0x20 ADD PUSH1 0x0 ISZERO ISZERO ISZERO ISZERO DUP2 MSTORE PUSH1 0x20 ADD PUSH1 0x0 ISZERO ISZERO ISZERO ISZERO DUP2 MSTORE PUSH1 0x20 ADD PUSH1 0x0 ISZERO ISZERO ISZERO ISZERO DUP2 MSTORE PUSH1 0x20 ADD PUSH1 0x1 ISZERO ISZERO ISZERO ISZERO DUP2 MSTORE POP DUP2 PUSH1 0x1 PUSH1 0x5 DUP2 LT PUSH2 0x13C7 JUMPI PUSH2 0x13C6 PUSH2 0x3D02 JUMP JUMPDEST JUMPDEST PUSH1 0x20 MUL ADD DUP2 SWAP1 MSTORE POP PUSH1 0x40 MLOAD DUP1 PUSH1 0xC0 ADD PUSH1 0x40 MSTORE DUP1 PUSH1 0x0 ISZERO ISZERO ISZERO ISZERO DUP2 MSTORE PUSH1 0x20 ADD PUSH1 0x0 ISZERO ISZERO ISZERO ISZERO DUP2 MSTORE PUSH1 0x20 ADD PUSH1 0x0 ISZERO ISZERO ISZERO ISZERO DUP2 MSTORE PUSH1 0x20 ADD PUSH1 0x0 ISZERO ISZERO ISZERO ISZERO DUP2 MSTORE PUSH1 0x20 ADD PUSH1 0x0 ISZERO ISZERO ISZERO ISZERO DUP2 MSTORE PUSH1 0x20 ADD PUSH1 0x1 ISZERO ISZERO ISZERO ISZERO DUP2 MSTORE POP DUP2 PUSH1 0x2 PUSH1 0x5 DUP2 LT PUSH2 0x142E JUMPI PUSH2 0x142D PUSH2 0x3D02 JUMP JUMPDEST JUMPDEST PUSH1 0x20 MUL ADD DUP2 SWAP1 MSTORE POP PUSH1 0x40 MLOAD DUP1 PUSH1 0xC0 ADD PUSH1 0x40 MSTORE DUP1 PUSH1 0x0 ISZERO ISZERO ISZERO ISZERO DUP2 MSTORE PUSH1 0x20 ADD PUSH1 0x0 ISZERO ISZERO ISZERO ISZERO DUP2 MSTORE PUSH1 0x20 ADD PUSH1 0x0 ISZERO ISZERO ISZERO ISZERO DUP2 MSTORE PUSH1 0x20 ADD PUSH1 0x0 ISZERO ISZERO ISZERO ISZERO DUP2 MSTORE PUSH1 0x20 ADD PUSH1 0x0 ISZERO ISZERO ISZERO ISZERO DUP2 MSTORE PUSH1 0x20 ADD PUSH1 0x1 ISZERO ISZERO ISZERO ISZERO DUP2 MSTORE POP DUP2 PUSH1 0x3 PUSH1 0x5 DUP2 LT PUSH2 0x1495 JUMPI PUSH2 0x1494 PUSH2 0x3D02 JUMP JUMPDEST JUMPDEST PUSH1 0x20 MUL ADD DUP2 SWAP1 MSTORE POP PUSH1 0x40 MLOAD DUP1 PUSH1 0xC0 ADD PUSH1 0x40 MSTORE DUP1 PUSH1 0x0 ISZERO ISZERO ISZERO ISZERO DUP2 MSTORE PUSH1 0x20 ADD PUSH1 0x0 ISZERO ISZERO ISZERO ISZERO DUP2 MSTORE PUSH1 0x20 ADD PUSH1 0x0 ISZERO ISZERO ISZERO ISZERO DUP2 MSTORE PUSH1 0x20 ADD PUSH1 0x0 ISZERO ISZERO ISZERO ISZERO DUP2 MSTORE PUSH1 0x20 ADD PUSH1 0x0 ISZERO ISZERO ISZERO ISZERO DUP2 MSTORE PUSH1 0x20 ADD PUSH1 0x1 ISZERO ISZERO ISZERO ISZERO DUP2 MSTORE POP DUP2 PUSH1 0x4 PUSH1 0x5 DUP2 LT PUSH2 0x14FC JUMPI PUSH2 0x14FB PUSH2 0x3D02 JUMP JUMPDEST JUMPDEST PUSH1 0x20 MUL ADD DUP2 SWAP1 MSTORE POP PUSH2 0x150C PUSH2 0x2427 JUMP JUMPDEST PUSH1 0x0 JUMPDEST PUSH1 0x5 DUP2 PUSH1 0xFF AND LT ISZERO PUSH2 0x15D0 JUMPI DUP4 DUP2 PUSH1 0xFF AND PUSH1 0x5 DUP2 LT PUSH2 0x1531 JUMPI PUSH2 0x1530 PUSH2 0x3D02 JUMP JUMPDEST JUMPDEST PUSH1 0x20 MUL ADD MLOAD DUP3 DUP3 PUSH1 0xFF AND PUSH1 0x5 DUP2 LT PUSH2 0x154C JUMPI PUSH2 0x154B PUSH2 0x3D02 JUMP JUMPDEST JUMPDEST PUSH1 0x20 MUL ADD MLOAD PUSH1 0x0 PUSH1 0x2 DUP2 LT PUSH2 0x1564 JUMPI PUSH2 0x1563 PUSH2 0x3D02 JUMP JUMPDEST JUMPDEST PUSH1 0x20 MUL ADD DUP2 SWAP1 MSTORE POP DUP3 DUP2 PUSH1 0xFF AND PUSH1 0x5 DUP2 LT PUSH2 0x1582 JUMPI PUSH2 0x1581 PUSH2 0x3D02 JUMP JUMPDEST JUMPDEST PUSH1 0x20 MUL ADD MLOAD DUP3 DUP3 PUSH1 0xFF AND PUSH1 0x5 DUP2 LT PUSH2 0x159D JUMPI PUSH2 0x159C PUSH2 0x3D02 JUMP JUMPDEST JUMPDEST PUSH1 0x20 MUL ADD MLOAD PUSH1 0x1 PUSH1 0x2 DUP2 LT PUSH2 0x15B5 JUMPI PUSH2 0x15B4 PUSH2 0x3D02 JUMP JUMPDEST JUMPDEST PUSH1 0x20 MUL ADD DUP2 SWAP1 MSTORE POP DUP1 DUP1 PUSH2 0x15C8 SWAP1 PUSH2 0x3D60 JUMP JUMPDEST SWAP2 POP POP PUSH2 0x150F JUMP JUMPDEST POP DUP1 PUSH1 0x0 DUP1 CALLER PUSH20 0xFFFFFFFFFFFFFFFFFFFFFFFFFFFFFFFFFFFFFFFF AND PUSH20 0xFFFFFFFFFFFFFFFFFFFFFFFFFFFFFFFFFFFFFFFF AND DUP2 MSTORE PUSH1 0x20 ADD SWAP1 DUP2 MSTORE PUSH1 0x20 ADD PUSH1 0x0 KECCAK256 PUSH1 0x31 ADD SWAP1 PUSH1 0x5 PUSH2 0x1621 SWAP3 SWAP2 SWAP1 PUSH2 0x2454 JUMP JUMPDEST POP PUSH2 0x162A PUSH2 0x24A5 JUMP JUMPDEST PUSH1 0x0 JUMPDEST PUSH1 0x6 DUP2 PUSH1 0xFF AND LT ISZERO PUSH2 0x16B2 JUMPI PUSH1 0x0 JUMPDEST PUSH1 0x10 DUP2 PUSH1 0xFF AND LT ISZERO PUSH2 0x169E JUMPI PUSH1 0x0 DUP4 DUP4 PUSH1 0xFF AND PUSH1 0x6 DUP2 LT PUSH2 0x1660 JUMPI PUSH2 0x165F PUSH2 0x3D02 JUMP JUMPDEST JUMPDEST PUSH1 0x20 MUL ADD MLOAD DUP3 PUSH1 0xFF AND PUSH1 0x10 DUP2 LT PUSH2 0x167A JUMPI PUSH2 0x1679 PUSH2 0x3D02 JUMP JUMPDEST JUMPDEST PUSH1 0x20 MUL ADD SWAP1 PUSH1 0xFF AND SWAP1 DUP2 PUSH1 0xFF AND DUP2 MSTORE POP POP DUP1 DUP1 PUSH2 0x1696 SWAP1 PUSH2 0x3D60 JUMP JUMPDEST SWAP2 POP POP PUSH2 0x163C JUMP JUMPDEST POP DUP1 DUP1 PUSH2 0x16AA SWAP1 PUSH2 0x3D60 JUMP JUMPDEST SWAP2 POP POP PUSH2 0x162D JUMP JUMPDEST POP DUP1 PUSH1 0x1 PUSH1 0x0 CALLER PUSH20 0xFFFFFFFFFFFFFFFFFFFFFFFFFFFFFFFFFFFFFFFF AND PUSH20 0xFFFFFFFFFFFFFFFFFFFFFFFFFFFFFFFFFFFFFFFF AND DUP2 MSTORE PUSH1 0x20 ADD SWAP1 DUP2 MSTORE PUSH1 0x20 ADD PUSH1 0x0 KECCAK256 PUSH1 0x0 ADD SWAP1 PUSH1 0x6 PUSH2 0x1704 SWAP3 SWAP2 SWAP1 PUSH2 0x24D2 JUMP JUMPDEST POP PUSH1 0x40 MLOAD DUP1 PUSH1 0xC0 ADD PUSH1 0x40 MSTORE DUP1 PUSH1 0x4 PUSH1 0xFF AND DUP2 MSTORE PUSH1 0x20 ADD PUSH1 0x4 PUSH1 0xFF AND DUP2 MSTORE PUSH1 0x20 ADD PUSH1 0x4 PUSH1 0xFF AND DUP2 MSTORE PUSH1 0x20 ADD PUSH1 0x4 PUSH1 0xFF AND DUP2 MSTORE PUSH1 0x20 ADD PUSH1 0x4 PUSH1 0xFF AND DUP2 MSTORE PUSH1 0x20 ADD PUSH1 0x4 PUSH1 0xFF AND DUP2 MSTORE POP PUSH1 0x1 PUSH1 0x0 CALLER PUSH20 0xFFFFFFFFFFFFFFFFFFFFFFFFFFFFFFFFFFFFFFFF AND PUSH20 0xFFFFFFFFFFFFFFFFFFFFFFFFFFFFFFFFFFFFFFFF AND DUP2 MSTORE PUSH1 0x20 ADD SWAP1 DUP2 MSTORE PUSH1 0x20 ADD PUSH1 0x0 KECCAK256 PUSH1 0x6 ADD SWAP1 PUSH1 0x6 PUSH2 0x179A SWAP3 SWAP2 SWAP1 PUSH2 0x22C6 JUMP JUMPDEST POP PUSH2 0x17A3 PUSH2 0x2520 JUMP JUMPDEST PUSH1 0x0 JUMPDEST PUSH1 0xA DUP2 PUSH1 0xFF AND LT ISZERO PUSH2 0x17EE JUMPI PUSH1 0x0 DUP3 DUP3 PUSH1 0xFF AND PUSH1 0xA DUP2 LT PUSH2 0x17CA JUMPI PUSH2 0x17C9 PUSH2 0x3D02 JUMP JUMPDEST JUMPDEST PUSH1 0x20 MUL ADD SWAP1 PUSH1 0xFF AND SWAP1 DUP2 PUSH1 0xFF AND DUP2 MSTORE POP POP DUP1 DUP1 PUSH2 0x17E6 SWAP1 PUSH2 0x3D60 JUMP JUMPDEST SWAP2 POP POP PUSH2 0x17A6 JUMP JUMPDEST POP DUP1 PUSH1 0x1 PUSH1 0x0 CALLER PUSH20 0xFFFFFFFFFFFFFFFFFFFFFFFFFFFFFFFFFFFFFFFF AND PUSH20 0xFFFFFFFFFFFFFFFFFFFFFFFFFFFFFFFFFFFFFFFF AND DUP2 MSTORE PUSH1 0x20 ADD SWAP1 DUP2 MSTORE PUSH1 0x20 ADD PUSH1 0x0 KECCAK256 PUSH1 0x7 ADD SWAP1 PUSH1 0xA PUSH2 0x1840 SWAP3 SWAP2 SWAP1 PUSH2 0x2543 JUMP JUMPDEST POP PUSH2 0x1849 PUSH2 0x25DD JUMP JUMPDEST PUSH1 0x0 JUMPDEST PUSH1 0x6 DUP2 PUSH1 0xFF AND LT ISZERO PUSH2 0x18C9 JUMPI PUSH1 0x0 JUMPDEST PUSH1 0x6 DUP2 PUSH1 0xFF AND LT ISZERO PUSH2 0x18B5 JUMPI PUSH1 0x0 DUP4 DUP4 PUSH1 0xFF AND PUSH1 0x6 DUP2 LT PUSH2 0x187F JUMPI PUSH2 0x187E PUSH2 0x3D02 JUMP JUMPDEST JUMPDEST PUSH1 0x20 MUL ADD MLOAD DUP3 PUSH1 0xFF AND PUSH1 0x6 DUP2 LT PUSH2 0x1899 JUMPI PUSH2 0x1898 PUSH2 0x3D02 JUMP JUMPDEST JUMPDEST PUSH1 0x20 MUL ADD DUP2 DUP2 MSTORE POP POP DUP1 DUP1 PUSH2 0x18AD SWAP1 PUSH2 0x3D60 JUMP JUMPDEST SWAP2 POP POP PUSH2 0x185B JUMP JUMPDEST POP DUP1 DUP1 PUSH2 0x18C1 SWAP1 PUSH2 0x3D60 JUMP JUMPDEST SWAP2 POP POP PUSH2 0x184C JUMP JUMPDEST POP DUP1 PUSH1 0x1 PUSH1 0x0 CALLER PUSH20 0xFFFFFFFFFFFFFFFFFFFFFFFFFFFFFFFFFFFFFFFF AND PUSH20 0xFFFFFFFFFFFFFFFFFFFFFFFFFFFFFFFFFFFFFFFF AND DUP2 MSTORE PUSH1 0x20 ADD SWAP1 DUP2 MSTORE PUSH1 0x20 ADD PUSH1 0x0 KECCAK256 PUSH1 0x8 ADD SWAP1 PUSH1 0x6 PUSH2 0x191B SWAP3 SWAP2 SWAP1 PUSH2 0x260A JUMP JUMPDEST POP PUSH2 0x1924 PUSH2 0x265A JUMP JUMPDEST PUSH1 0x0 JUMPDEST PUSH1 0x6 DUP2 PUSH1 0xFF AND LT ISZERO PUSH2 0x19A1 JUMPI DUP1 PUSH1 0xFF AND PUSH1 0x5 DUP2 GT ISZERO PUSH2 0x1949 JUMPI PUSH2 0x1948 PUSH2 0x374A JUMP JUMPDEST JUMPDEST DUP3 DUP3 PUSH1 0xFF AND PUSH1 0x6 DUP2 LT PUSH2 0x195F JUMPI PUSH2 0x195E PUSH2 0x3D02 JUMP JUMPDEST JUMPDEST PUSH1 0x20 MUL ADD SWAP1 PUSH1 0x5 DUP2 GT ISZERO PUSH2 0x1976 JUMPI PUSH2 0x1975 PUSH2 0x374A JUMP JUMPDEST JUMPDEST SWAP1 DUP2 PUSH1 0x5 DUP2 GT ISZERO PUSH2 0x198A JUMPI PUSH2 0x1989 PUSH2 0x374A JUMP JUMPDEST JUMPDEST DUP2 MSTORE POP POP DUP1 DUP1 PUSH2 0x1999 SWAP1 PUSH2 0x3D60 JUMP JUMPDEST SWAP2 POP POP PUSH2 0x1927 JUMP JUMPDEST POP DUP1 PUSH1 0x1 PUSH1 0x0 CALLER PUSH20 0xFFFFFFFFFFFFFFFFFFFFFFFFFFFFFFFFFFFFFFFF AND PUSH20 0xFFFFFFFFFFFFFFFFFFFFFFFFFFFFFFFFFFFFFFFF AND DUP2 MSTORE PUSH1 0x20 ADD SWAP1 DUP2 MSTORE PUSH1 0x20 ADD PUSH1 0x0 KECCAK256 PUSH1 0x2C ADD SWAP1 PUSH1 0x6 PUSH2 0x19F3 SWAP3 SWAP2 SWAP1 PUSH2 0x267C JUMP JUMPDEST POP PUSH2 0x19FC PUSH2 0x2725 JUMP JUMPDEST PUSH1 0x0 JUMPDEST PUSH1 0x3 DUP2 PUSH1 0xFF AND LT ISZERO PUSH2 0x1A82 JUMPI PUSH1 0x0 JUMPDEST PUSH1 0x6 DUP2 PUSH1 0xFF AND LT ISZERO PUSH2 0x1A6E JUMPI PUSH1 0x0 DUP4 DUP4 PUSH1 0xFF AND PUSH1 0x3 DUP2 LT PUSH2 0x1A32 JUMPI PUSH2 0x1A31 PUSH2 0x3D02 JUMP JUMPDEST JUMPDEST PUSH1 0x20 MUL ADD MLOAD DUP3 PUSH1 0xFF AND PUSH1 0x6 DUP2 LT PUSH2 0x1A4C JUMPI PUSH2 0x1A4B PUSH2 0x3D02 JUMP JUMPDEST JUMPDEST PUSH1 0x20 MUL ADD SWAP1 ISZERO ISZERO SWAP1 DUP2 ISZERO ISZERO DUP2 MSTORE POP POP DUP1 DUP1 PUSH2 0x1A66 SWAP1 PUSH2 0x3D60 JUMP JUMPDEST SWAP2 POP POP PUSH2 0x1A0E JUMP JUMPDEST POP DUP1 DUP1 PUSH2 0x1A7A SWAP1 PUSH2 0x3D60 JUMP JUMPDEST SWAP2 POP POP PUSH2 0x19FF JUMP JUMPDEST POP DUP1 PUSH1 0x2 PUSH1 0x0 CALLER PUSH20 0xFFFFFFFFFFFFFFFFFFFFFFFFFFFFFFFFFFFFFFFF AND PUSH20 0xFFFFFFFFFFFFFFFFFFFFFFFFFFFFFFFFFFFFFFFF AND DUP2 MSTORE PUSH1 0x20 ADD SWAP1 DUP2 MSTORE PUSH1 0x20 ADD PUSH1 0x0 KECCAK256 PUSH1 0x0 ADD SWAP1 PUSH1 0x3 PUSH2 0x1AD4 SWAP3 SWAP2 SWAP1 PUSH2 0x2752 JUMP JUMPDEST POP PUSH2 0x1ADD PUSH2 0x2725 JUMP JUMPDEST PUSH1 0x0 JUMPDEST PUSH1 0x3 DUP2 PUSH1 0xFF AND LT ISZERO PUSH2 0x1B63 JUMPI PUSH1 0x0 JUMPDEST PUSH1 0x6 DUP2 PUSH1 0xFF AND LT ISZERO PUSH2 0x1B4F JUMPI PUSH1 0x0 DUP4 DUP4 PUSH1 0xFF AND PUSH1 0x3 DUP2 LT PUSH2 0x1B13 JUMPI PUSH2 0x1B12 PUSH2 0x3D02 JUMP JUMPDEST JUMPDEST PUSH1 0x20 MUL ADD MLOAD DUP3 PUSH1 0xFF AND PUSH1 0x6 DUP2 LT PUSH2 0x1B2D JUMPI PUSH2 0x1B2C PUSH2 0x3D02 JUMP JUMPDEST JUMPDEST PUSH1 0x20 MUL ADD SWAP1 ISZERO ISZERO SWAP1 DUP2 ISZERO ISZERO DUP2 MSTORE POP POP DUP1 DUP1 PUSH2 0x1B47 SWAP1 PUSH2 0x3D60 JUMP JUMPDEST SWAP2 POP POP PUSH2 0x1AEF JUMP JUMPDEST POP DUP1 DUP1 PUSH2 0x1B5B SWAP1 PUSH2 0x3D60 JUMP JUMPDEST SWAP2 POP POP PUSH2 0x1AE0 JUMP JUMPDEST POP DUP1 PUSH1 0x2 PUSH1 0x0 CALLER PUSH20 0xFFFFFFFFFFFFFFFFFFFFFFFFFFFFFFFFFFFFFFFF AND PUSH20 0xFFFFFFFFFFFFFFFFFFFFFFFFFFFFFFFFFFFFFFFF AND DUP2 MSTORE PUSH1 0x20 ADD SWAP1 DUP2 MSTORE PUSH1 0x20 ADD PUSH1 0x0 KECCAK256 PUSH1 0x3 ADD SWAP1 PUSH1 0x3 PUSH2 0x1BB5 SWAP3 SWAP2 SWAP1 PUSH2 0x2752 JUMP JUMPDEST POP PUSH2 0x1BBE PUSH2 0x27A0 JUMP JUMPDEST PUSH1 0x0 JUMPDEST PUSH1 0x3 DUP2 PUSH1 0xFF AND LT ISZERO PUSH2 0x1C44 JUMPI PUSH1 0x0 JUMPDEST PUSH1 0x3 DUP2 PUSH1 0xFF AND LT ISZERO PUSH2 0x1C30 JUMPI PUSH1 0x0 DUP4 DUP4 PUSH1 0xFF AND PUSH1 0x3 DUP2 LT PUSH2 0x1BF4 JUMPI PUSH2 0x1BF3 PUSH2 0x3D02 JUMP JUMPDEST JUMPDEST PUSH1 0x20 MUL ADD MLOAD DUP3 PUSH1 0xFF AND PUSH1 0x3 DUP2 LT PUSH2 0x1C0E JUMPI PUSH2 0x1C0D PUSH2 0x3D02 JUMP JUMPDEST JUMPDEST PUSH1 0x20 MUL ADD SWAP1 ISZERO ISZERO SWAP1 DUP2 ISZERO ISZERO DUP2 MSTORE POP POP DUP1 DUP1 PUSH2 0x1C28 SWAP1 PUSH2 0x3D60 JUMP JUMPDEST SWAP2 POP POP PUSH2 0x1BD0 JUMP JUMPDEST POP DUP1 DUP1 PUSH2 0x1C3C SWAP1 PUSH2 0x3D60 JUMP JUMPDEST SWAP2 POP POP PUSH2 0x1BC1 JUMP JUMPDEST POP DUP1 PUSH1 0x2 PUSH1 0x0 CALLER PUSH20 0xFFFFFFFFFFFFFFFFFFFFFFFFFFFFFFFFFFFFFFFF AND PUSH20 0xFFFFFFFFFFFFFFFFFFFFFFFFFFFFFFFFFFFFFFFF AND DUP2 MSTORE PUSH1 0x20 ADD SWAP1 DUP2 MSTORE PUSH1 0x20 ADD PUSH1 0x0 KECCAK256 PUSH1 0x6 ADD SWAP1 PUSH1 0x3 PUSH2 0x1C96 SWAP3 SWAP2 SWAP1 PUSH2 0x27CD JUMP JUMPDEST POP PUSH1 0x6 PUSH1 0x2 PUSH1 0x0 CALLER PUSH20 0xFFFFFFFFFFFFFFFFFFFFFFFFFFFFFFFFFFFFFFFF AND PUSH20 0xFFFFFFFFFFFFFFFFFFFFFFFFFFFFFFFFFFFFFFFF AND DUP2 MSTORE PUSH1 0x20 ADD SWAP1 DUP2 MSTORE PUSH1 0x20 ADD PUSH1 0x0 KECCAK256 PUSH1 0x9 ADD PUSH1 0x0 PUSH2 0x100 EXP DUP2 SLOAD DUP2 PUSH1 0xFF MUL NOT AND SWAP1 DUP4 PUSH1 0x0 SIGNEXTEND PUSH1 0xFF AND MUL OR SWAP1 SSTORE POP PUSH1 0x6 PUSH1 0x2 PUSH1 0x0 CALLER PUSH20 0xFFFFFFFFFFFFFFFFFFFFFFFFFFFFFFFFFFFFFFFF AND PUSH20 0xFFFFFFFFFFFFFFFFFFFFFFFFFFFFFFFFFFFFFFFF AND DUP2 MSTORE PUSH1 0x20 ADD SWAP1 DUP2 MSTORE PUSH1 0x20 ADD PUSH1 0x0 KECCAK256 PUSH1 0x9 ADD PUSH1 0x1 PUSH2 0x100 EXP DUP2 SLOAD DUP2 PUSH1 0xFF MUL NOT AND SWAP1 DUP4 PUSH1 0xFF AND MUL OR SWAP1 SSTORE POP PUSH1 0x1 PUSH1 0x2 PUSH1 0x0 CALLER PUSH20 0xFFFFFFFFFFFFFFFFFFFFFFFFFFFFFFFFFFFFFFFF AND PUSH20 0xFFFFFFFFFFFFFFFFFFFFFFFFFFFFFFFFFFFFFFFF AND DUP2 MSTORE PUSH1 0x20 ADD SWAP1 DUP2 MSTORE PUSH1 0x20 ADD PUSH1 0x0 KECCAK256 PUSH1 0x9 ADD PUSH1 0x2 PUSH2 0x100 EXP DUP2 SLOAD DUP2 PUSH1 0xFF MUL NOT AND SWAP1 DUP4 ISZERO ISZERO MUL OR SWAP1 SSTORE POP PUSH1 0x0 PUSH1 0x2 PUSH1 0x0 CALLER PUSH20 0xFFFFFFFFFFFFFFFFFFFFFFFFFFFFFFFFFFFFFFFF AND PUSH20 0xFFFFFFFFFFFFFFFFFFFFFFFFFFFFFFFFFFFFFFFF AND DUP2 MSTORE PUSH1 0x20 ADD SWAP1 DUP2 MSTORE PUSH1 0x20 ADD PUSH1 0x0 KECCAK256 PUSH1 0x9 ADD PUSH1 0x3 PUSH2 0x100 EXP DUP2 SLOAD DUP2 PUSH1 0xFF MUL NOT AND SWAP1 DUP4 PUSH1 0xFF AND MUL OR SWAP1 SSTORE POP PUSH1 0x0 PUSH1 0x2 PUSH1 0x0 CALLER PUSH20 0xFFFFFFFFFFFFFFFFFFFFFFFFFFFFFFFFFFFFFFFF AND PUSH20 0xFFFFFFFFFFFFFFFFFFFFFFFFFFFFFFFFFFFFFFFF AND DUP2 MSTORE PUSH1 0x20 ADD SWAP1 DUP2 MSTORE PUSH1 0x20 ADD PUSH1 0x0 KECCAK256 PUSH1 0x9 ADD PUSH1 0x4 PUSH2 0x100 EXP DUP2 SLOAD DUP2 PUSH1 0xFF MUL NOT AND SWAP1 DUP4 PUSH1 0xFF AND MUL OR SWAP1 SSTORE POP PUSH2 0x1E6D PUSH2 0x281B JUMP JUMPDEST PUSH1 0x0 JUMPDEST PUSH1 0x16 DUP2 PUSH1 0xFF AND LT ISZERO PUSH2 0x1F4C JUMPI PUSH1 0x1 DUP3 PUSH1 0x0 PUSH1 0x3 DUP2 LT PUSH2 0x1E92 JUMPI PUSH2 0x1E91 PUSH2 0x3D02 JUMP JUMPDEST JUMPDEST PUSH1 0x20 MUL ADD MLOAD DUP3 PUSH1 0xFF AND PUSH1 0x16 DUP2 LT PUSH2 0x1EAC JUMPI PUSH2 0x1EAB PUSH2 0x3D02 JUMP JUMPDEST JUMPDEST PUSH1 0x20 MUL ADD SWAP1 ISZERO ISZERO SWAP1 DUP2 ISZERO ISZERO DUP2 MSTORE POP POP PUSH1 0x0 DUP3 PUSH1 0x1 PUSH1 0x3 DUP2 LT PUSH2 0x1ED1 JUMPI PUSH2 0x1ED0 PUSH2 0x3D02 JUMP JUMPDEST JUMPDEST PUSH1 0x20 MUL ADD MLOAD DUP3 PUSH1 0xFF AND PUSH1 0x16 DUP2 LT PUSH2 0x1EEB JUMPI PUSH2 0x1EEA PUSH2 0x3D02 JUMP JUMPDEST JUMPDEST PUSH1 0x20 MUL ADD SWAP1 ISZERO ISZERO SWAP1 DUP2 ISZERO ISZERO DUP2 MSTORE POP POP PUSH1 0x0 DUP3 PUSH1 0x2 PUSH1 0x3 DUP2 LT PUSH2 0x1F10 JUMPI PUSH2 0x1F0F PUSH2 0x3D02 JUMP JUMPDEST JUMPDEST PUSH1 0x20 MUL ADD MLOAD DUP3 PUSH1 0xFF AND PUSH1 0x16 DUP2 LT PUSH2 0x1F2A JUMPI PUSH2 0x1F29 PUSH2 0x3D02 JUMP JUMPDEST JUMPDEST PUSH1 0x20 MUL ADD SWAP1 ISZERO ISZERO SWAP1 DUP2 ISZERO ISZERO DUP2 MSTORE POP POP DUP1 DUP1 PUSH2 0x1F44 SWAP1 PUSH2 0x3D60 JUMP JUMPDEST SWAP2 POP POP PUSH2 0x1E70 JUMP JUMPDEST POP PUSH1 0x0 PUSH1 0x40 MLOAD DUP1 PUSH1 0xE0 ADD PUSH1 0x40 MSTORE DUP1 PUSH1 0x1 PUSH1 0xFF AND DUP2 MSTORE PUSH1 0x20 ADD PUSH1 0x4 PUSH1 0xFF AND DUP2 MSTORE PUSH1 0x20 ADD PUSH1 0x7 PUSH1 0xFF AND DUP2 MSTORE PUSH1 0x20 ADD PUSH1 0xA PUSH1 0xFF AND DUP2 MSTORE PUSH1 0x20 ADD PUSH1 0xD PUSH1 0xFF AND DUP2 MSTORE PUSH1 0x20 ADD PUSH1 0x10 PUSH1 0xFF AND DUP2 MSTORE PUSH1 0x20 ADD PUSH1 0x13 PUSH1 0xFF AND DUP2 MSTORE POP SWAP1 POP PUSH1 0x0 JUMPDEST PUSH1 0x7 DUP2 PUSH1 0xFF AND LT ISZERO PUSH2 0x2021 JUMPI PUSH1 0x0 DUP3 DUP3 PUSH1 0xFF AND PUSH1 0x7 DUP2 LT PUSH2 0x1FC7 JUMPI PUSH2 0x1FC6 PUSH2 0x3D02 JUMP JUMPDEST JUMPDEST PUSH1 0x20 MUL ADD MLOAD SWAP1 POP PUSH1 0x1 DUP5 PUSH1 0x1 PUSH1 0x3 DUP2 LT PUSH2 0x1FE4 JUMPI PUSH2 0x1FE3 PUSH2 0x3D02 JUMP JUMPDEST JUMPDEST PUSH1 0x20 MUL ADD MLOAD DUP3 PUSH1 0xFF AND PUSH1 0x16 DUP2 LT PUSH2 0x1FFE JUMPI PUSH2 0x1FFD PUSH2 0x3D02 JUMP JUMPDEST JUMPDEST PUSH1 0x20 MUL ADD SWAP1 ISZERO ISZERO SWAP1 DUP2 ISZERO ISZERO DUP2 MSTORE POP POP POP DUP1 DUP1 PUSH2 0x2019 SWAP1 PUSH2 0x3D60 JUMP JUMPDEST SWAP2 POP POP PUSH2 0x1FA3 JUMP JUMPDEST POP PUSH1 0x0 PUSH1 0xE SWAP1 POP JUMPDEST PUSH1 0x16 DUP2 PUSH1 0xFF AND LT ISZERO PUSH2 0x2087 JUMPI PUSH1 0x1 DUP4 PUSH1 0x2 PUSH1 0x3 DUP2 LT PUSH2 0x204B JUMPI PUSH2 0x204A PUSH2 0x3D02 JUMP JUMPDEST JUMPDEST PUSH1 0x20 MUL ADD MLOAD DUP3 PUSH1 0xFF AND PUSH1 0x16 DUP2 LT PUSH2 0x2065 JUMPI PUSH2 0x2064 PUSH2 0x3D02 JUMP JUMPDEST JUMPDEST PUSH1 0x20 MUL ADD SWAP1 ISZERO ISZERO SWAP1 DUP2 ISZERO ISZERO DUP2 MSTORE POP POP DUP1 DUP1 PUSH2 0x207F SWAP1 PUSH2 0x3D60 JUMP JUMPDEST SWAP2 POP POP PUSH2 0x2029 JUMP JUMPDEST POP DUP2 PUSH1 0x2 PUSH1 0x0 CALLER PUSH20 0xFFFFFFFFFFFFFFFFFFFFFFFFFFFFFFFFFFFFFFFF AND PUSH20 0xFFFFFFFFFFFFFFFFFFFFFFFFFFFFFFFFFFFFFFFF AND DUP2 MSTORE PUSH1 0x20 ADD SWAP1 DUP2 MSTORE PUSH1 0x20 ADD PUSH1 0x0 KECCAK256 PUSH1 0xA ADD SWAP1 PUSH1 0x3 PUSH2 0x20D9 SWAP3 SWAP2 SWAP1 PUSH2 0x2848 JUMP JUMPDEST POP POP POP POP POP POP POP POP POP POP POP POP POP POP JUMP JUMPDEST PUSH1 0x40 MLOAD DUP1 PUSH2 0x120 ADD PUSH1 0x40 MSTORE DUP1 PUSH2 0x20FD PUSH2 0x2725 JUMP JUMPDEST DUP2 MSTORE PUSH1 0x20 ADD PUSH2 0x210A PUSH2 0x2725 JUMP JUMPDEST DUP2 MSTORE PUSH1 0x20 ADD PUSH2 0x2117 PUSH2 0x27A0 JUMP JUMPDEST DUP2 MSTORE PUSH1 0x20 ADD PUSH1 0x0 DUP1 SIGNEXTEND DUP2 MSTORE PUSH1 0x20 ADD PUSH1 0x0 PUSH1 0xFF AND DUP2 MSTORE PUSH1 0x20 ADD PUSH1 0x0 ISZERO ISZERO DUP2 MSTORE PUSH1 0x20 ADD PUSH1 0x0 PUSH1 0xFF AND DUP2 MSTORE PUSH1 0x20 ADD PUSH1 0x0 PUSH1 0xFF AND DUP2 MSTORE PUSH1 0x20 ADD PUSH2 0x2154 PUSH2 0x281B JUMP JUMPDEST DUP2 MSTORE POP SWAP1 JUMP JUMPDEST PUSH1 0x40 MLOAD DUP1 PUSH1 0xA0 ADD PUSH1 0x40 MSTORE DUP1 PUSH2 0x216D PUSH2 0x24A5 JUMP JUMPDEST DUP2 MSTORE PUSH1 0x20 ADD PUSH2 0x217A PUSH2 0x2896 JUMP JUMPDEST DUP2 MSTORE PUSH1 0x20 ADD PUSH2 0x2187 PUSH2 0x2520 JUMP JUMPDEST DUP2 MSTORE PUSH1 0x20 ADD PUSH2 0x2194 PUSH2 0x25DD JUMP JUMPDEST DUP2 MSTORE PUSH1 0x20 ADD PUSH2 0x21A1 PUSH2 0x265A JUMP JUMPDEST DUP2 MSTORE POP SWAP1 JUMP JUMPDEST PUSH1 0x40 MLOAD DUP1 PUSH1 0x60 ADD PUSH1 0x40 MSTORE DUP1 PUSH2 0x21BA PUSH2 0x28B8 JUMP JUMPDEST DUP2 MSTORE PUSH1 0x20 ADD PUSH2 0x21C7 PUSH2 0x28E5 JUMP JUMPDEST DUP2 MSTORE PUSH1 0x20 ADD PUSH2 0x21D4 PUSH2 0x2427 JUMP JUMPDEST DUP2 MSTORE POP SWAP1 JUMP JUMPDEST PUSH1 0x40 MLOAD DUP1 PUSH1 0xC0 ADD PUSH1 0x40 MSTORE DUP1 PUSH1 0x6 SWAP1 JUMPDEST PUSH2 0x21F1 PUSH2 0x2896 JUMP JUMPDEST DUP2 MSTORE PUSH1 0x20 ADD SWAP1 PUSH1 0x1 SWAP1 SUB SWAP1 DUP2 PUSH2 0x21E9 JUMPI SWAP1 POP POP SWAP1 JUMP JUMPDEST PUSH1 0x40 MLOAD DUP1 PUSH1 0xA0 ADD PUSH1 0x40 MSTORE DUP1 PUSH2 0x221A PUSH2 0x21DA JUMP JUMPDEST DUP2 MSTORE PUSH1 0x20 ADD PUSH1 0x0 PUSH1 0x5 DUP2 GT ISZERO PUSH2 0x2233 JUMPI PUSH2 0x2232 PUSH2 0x374A JUMP JUMPDEST JUMPDEST DUP2 MSTORE PUSH1 0x20 ADD PUSH1 0x0 PUSH1 0x5 DUP2 GT ISZERO PUSH2 0x224C JUMPI PUSH2 0x224B PUSH2 0x374A JUMP JUMPDEST JUMPDEST DUP2 MSTORE PUSH1 0x20 ADD PUSH1 0x0 PUSH1 0x5 DUP2 GT ISZERO PUSH2 0x2265 JUMPI PUSH2 0x2264 PUSH2 0x374A JUMP JUMPDEST JUMPDEST DUP2 MSTORE PUSH1 0x20 ADD PUSH2 0x2272 PUSH2 0x2896 JUMP JUMPDEST DUP2 MSTORE POP SWAP1 JUMP JUMPDEST DUP3 PUSH1 0x6 DUP2 ADD SWAP3 DUP3 ISZERO PUSH2 0x22B5 JUMPI SWAP2 PUSH1 0x20 MUL DUP3 ADD JUMPDEST DUP3 DUP2 GT ISZERO PUSH2 0x22B4 JUMPI DUP3 MLOAD DUP3 SWAP1 PUSH1 0x6 PUSH2 0x22A4 SWAP3 SWAP2 SWAP1 PUSH2 0x22C6 JUMP JUMPDEST POP SWAP2 PUSH1 0x20 ADD SWAP2 SWAP1 PUSH1 0x1 ADD SWAP1 PUSH2 0x228B JUMP JUMPDEST JUMPDEST POP SWAP1 POP PUSH2 0x22C2 SWAP2 SWAP1 PUSH2 0x2907 JUMP JUMPDEST POP SWAP1 JUMP JUMPDEST DUP3 PUSH1 0x6 PUSH1 0x1F ADD PUSH1 0x20 SWAP1 DIV DUP2 ADD SWAP3 DUP3 ISZERO PUSH2 0x234F JUMPI SWAP2 PUSH1 0x20 MUL DUP3 ADD PUSH1 0x0 JUMPDEST DUP4 DUP3 GT ISZERO PUSH2 0x2320 JUMPI DUP4 MLOAD DUP4 DUP3 PUSH2 0x100 EXP DUP2 SLOAD DUP2 PUSH1 0xFF MUL NOT AND SWAP1 DUP4 PUSH1 0xFF AND MUL OR SWAP1 SSTORE POP SWAP3 PUSH1 0x20 ADD SWAP3 PUSH1 0x1 ADD PUSH1 0x20 DUP2 PUSH1 0x0 ADD DIV SWAP3 DUP4 ADD SWAP3 PUSH1 0x1 SUB MUL PUSH2 0x22E2 JUMP JUMPDEST DUP1 ISZERO PUSH2 0x234D JUMPI DUP3 DUP2 PUSH2 0x100 EXP DUP2 SLOAD SWAP1 PUSH1 0xFF MUL NOT AND SWAP1 SSTORE PUSH1 0x1 ADD PUSH1 0x20 DUP2 PUSH1 0x0 ADD DIV SWAP3 DUP4 ADD SWAP3 PUSH1 0x1 SUB MUL PUSH2 0x2320 JUMP JUMPDEST POP JUMPDEST POP SWAP1 POP PUSH2 0x235C SWAP2 SWAP1 PUSH2 0x292B JUMP JUMPDEST POP SWAP1 JUMP JUMPDEST DUP3 PUSH1 0x4 PUSH1 0x1F ADD PUSH1 0x20 SWAP1 DIV DUP2 ADD SWAP3 DUP3 ISZERO PUSH2 0x23E9 JUMPI SWAP2 PUSH1 0x20 MUL DUP3 ADD PUSH1 0x0 JUMPDEST DUP4 DUP3 GT ISZERO PUSH2 0x23BA JUMPI DUP4 MLOAD DUP4 DUP3 PUSH2 0x100 EXP DUP2 SLOAD DUP2 PUSH1 0xFF MUL NOT AND SWAP1 DUP4 PUSH1 0xFF AND MUL OR SWAP1 SSTORE POP SWAP3 PUSH1 0x20 ADD SWAP3 PUSH1 0x1 ADD PUSH1 0x20 DUP2 PUSH1 0x0 ADD DIV SWAP3 DUP4 ADD SWAP3 PUSH1 0x1 SUB MUL PUSH2 0x237C JUMP JUMPDEST DUP1 ISZERO PUSH2 0x23E7 JUMPI DUP3 DUP2 PUSH2 0x100 EXP DUP2 SLOAD SWAP1 PUSH1 0xFF MUL NOT AND SWAP1 SSTORE PUSH1 0x1 ADD PUSH1 0x20 DUP2 PUSH1 0x0 ADD DIV SWAP3 DUP4 ADD SWAP3 PUSH1 0x1 SUB MUL PUSH2 0x23BA JUMP JUMPDEST POP JUMPDEST POP SWAP1 POP PUSH2 0x23F6 SWAP2 SWAP1 PUSH2 0x292B JUMP JUMPDEST POP SWAP1 JUMP JUMPDEST PUSH1 0x40 MLOAD DUP1 PUSH1 0xA0 ADD PUSH1 0x40 MSTORE DUP1 PUSH1 0x5 SWAP1 JUMPDEST PUSH2 0x2411 PUSH2 0x2948 JUMP JUMPDEST DUP2 MSTORE PUSH1 0x20 ADD SWAP1 PUSH1 0x1 SWAP1 SUB SWAP1 DUP2 PUSH2 0x2409 JUMPI SWAP1 POP POP SWAP1 JUMP JUMPDEST PUSH1 0x40 MLOAD DUP1 PUSH1 0xA0 ADD PUSH1 0x40 MSTORE DUP1 PUSH1 0x5 SWAP1 JUMPDEST PUSH2 0x243E PUSH2 0x296A JUMP JUMPDEST DUP2 MSTORE PUSH1 0x20 ADD SWAP1 PUSH1 0x1 SWAP1 SUB SWAP1 DUP2 PUSH2 0x2436 JUMPI SWAP1 POP POP SWAP1 JUMP JUMPDEST DUP3 PUSH1 0x5 PUSH1 0x2 MUL DUP2 ADD SWAP3 DUP3 ISZERO PUSH2 0x2494 JUMPI SWAP2 PUSH1 0x20 MUL DUP3 ADD JUMPDEST DUP3 DUP2 GT ISZERO PUSH2 0x2493 JUMPI DUP3 MLOAD DUP3 SWAP1 PUSH1 0x2 PUSH2 0x2483 SWAP3 SWAP2 SWAP1 PUSH2 0x2997 JUMP JUMPDEST POP SWAP2 PUSH1 0x20 ADD SWAP2 SWAP1 PUSH1 0x2 ADD SWAP1 PUSH2 0x246A JUMP JUMPDEST JUMPDEST POP SWAP1 POP PUSH2 0x24A1 SWAP2 SWAP1 PUSH2 0x29E5 JUMP JUMPDEST POP SWAP1 JUMP JUMPDEST PUSH1 0x40 MLOAD DUP1 PUSH1 0xC0 ADD PUSH1 0x40 MSTORE DUP1 PUSH1 0x6 SWAP1 JUMPDEST PUSH2 0x24BC PUSH2 0x2A09 JUMP JUMPDEST DUP2 MSTORE PUSH1 0x20 ADD SWAP1 PUSH1 0x1 SWAP1 SUB SWAP1 DUP2 PUSH2 0x24B4 JUMPI SWAP1 POP POP SWAP1 JUMP JUMPDEST DUP3 PUSH1 0x6 DUP2 ADD SWAP3 DUP3 ISZERO PUSH2 0x250F JUMPI SWAP2 PUSH1 0x20 MUL DUP3 ADD JUMPDEST DUP3 DUP2 GT ISZERO PUSH2 0x250E JUMPI DUP3 MLOAD DUP3 SWAP1 PUSH1 0x10 PUSH2 0x24FE SWAP3 SWAP2 SWAP1 PUSH2 0x2A2C JUMP JUMPDEST POP SWAP2 PUSH1 0x20 ADD SWAP2 SWAP1 PUSH1 0x1 ADD SWAP1 PUSH2 0x24E5 JUMP JUMPDEST JUMPDEST POP SWAP1 POP PUSH2 0x251C SWAP2 SWAP1 PUSH2 0x2AC6 JUMP JUMPDEST POP SWAP1 JUMP JUMPDEST PUSH1 0x40 MLOAD DUP1 PUSH2 0x140 ADD PUSH1 0x40 MSTORE DUP1 PUSH1 0xA SWAP1 PUSH1 0x20 DUP3 MUL DUP1 CALLDATASIZE DUP4 CALLDATACOPY DUP1 DUP3 ADD SWAP2 POP POP SWAP1 POP POP SWAP1 JUMP JUMPDEST DUP3 PUSH1 0xA PUSH1 0x1F ADD PUSH1 0x20 SWAP1 DIV DUP2 ADD SWAP3 DUP3 ISZERO PUSH2 0x25CC JUMPI SWAP2 PUSH1 0x20 MUL DUP3 ADD PUSH1 0x0 JUMPDEST DUP4 DUP3 GT ISZERO PUSH2 0x259D JUMPI DUP4 MLOAD DUP4 DUP3 PUSH2 0x100 EXP DUP2 SLOAD DUP2 PUSH1 0xFF MUL NOT AND SWAP1 DUP4 PUSH1 0xFF AND MUL OR SWAP1 SSTORE POP SWAP3 PUSH1 0x20 ADD SWAP3 PUSH1 0x1 ADD PUSH1 0x20 DUP2 PUSH1 0x0 ADD DIV SWAP3 DUP4 ADD SWAP3 PUSH1 0x1 SUB MUL PUSH2 0x255F JUMP JUMPDEST DUP1 ISZERO PUSH2 0x25CA JUMPI DUP3 DUP2 PUSH2 0x100 EXP DUP2 SLOAD SWAP1 PUSH1 0xFF MUL NOT AND SWAP1 SSTORE PUSH1 0x1 ADD PUSH1 0x20 DUP2 PUSH1 0x0 ADD DIV SWAP3 DUP4 ADD SWAP3 PUSH1 0x1 SUB MUL PUSH2 0x259D JUMP JUMPDEST POP JUMPDEST POP SWAP1 POP PUSH2 0x25D9 SWAP2 SWAP1 PUSH2 0x292B JUMP JUMPDEST POP SWAP1 JUMP JUMPDEST PUSH1 0x40 MLOAD DUP1 PUSH1 0xC0 ADD PUSH1 0x40 MSTORE DUP1 PUSH1 0x6 SWAP1 JUMPDEST PUSH2 0x25F4 PUSH2 0x2AEA JUMP JUMPDEST DUP2 MSTORE PUSH1 0x20 ADD SWAP1 PUSH1 0x1 SWAP1 SUB SWAP1 DUP2 PUSH2 0x25EC JUMPI SWAP1 POP POP SWAP1 JUMP JUMPDEST DUP3 PUSH1 0x6 DUP1 MUL DUP2 ADD SWAP3 DUP3 ISZERO PUSH2 0x2649 JUMPI SWAP2 PUSH1 0x20 MUL DUP3 ADD JUMPDEST DUP3 DUP2 GT ISZERO PUSH2 0x2648 JUMPI DUP3 MLOAD DUP3 SWAP1 PUSH1 0x6 PUSH2 0x2638 SWAP3 SWAP2 SWAP1 PUSH2 0x2B0C JUMP JUMPDEST POP SWAP2 PUSH1 0x20 ADD SWAP2 SWAP1 PUSH1 0x6 ADD SWAP1 PUSH2 0x261F JUMP JUMPDEST JUMPDEST POP SWAP1 POP PUSH2 0x2656 SWAP2 SWAP1 PUSH2 0x2B4C JUMP JUMPDEST POP SWAP1 JUMP JUMPDEST PUSH1 0x40 MLOAD DUP1 PUSH1 0xC0 ADD PUSH1 0x40 MSTORE DUP1 PUSH1 0x6 SWAP1 PUSH1 0x20 DUP3 MUL DUP1 CALLDATASIZE DUP4 CALLDATACOPY DUP1 DUP3 ADD SWAP2 POP POP SWAP1 POP POP SWAP1 JUMP JUMPDEST DUP3 PUSH1 0x6 PUSH1 0x1F ADD PUSH1 0x20 SWAP1 DIV DUP2 ADD SWAP3 DUP3 ISZERO PUSH2 0x2714 JUMPI SWAP2 PUSH1 0x20 MUL DUP3 ADD PUSH1 0x0 JUMPDEST DUP4 DUP3 GT ISZERO PUSH2 0x26E5 JUMPI DUP4 MLOAD DUP4 DUP3 PUSH2 0x100 EXP DUP2 SLOAD DUP2 PUSH1 0xFF MUL NOT AND SWAP1 DUP4 PUSH1 0x5 DUP2 GT ISZERO PUSH2 0x26C4 JUMPI PUSH2 0x26C3 PUSH2 0x374A JUMP JUMPDEST JUMPDEST MUL OR SWAP1 SSTORE POP SWAP3 PUSH1 0x20 ADD SWAP3 PUSH1 0x1 ADD PUSH1 0x20 DUP2 PUSH1 0x0 ADD DIV SWAP3 DUP4 ADD SWAP3 PUSH1 0x1 SUB MUL PUSH2 0x2698 JUMP JUMPDEST DUP1 ISZERO PUSH2 0x2712 JUMPI DUP3 DUP2 PUSH2 0x100 EXP DUP2 SLOAD SWAP1 PUSH1 0xFF MUL NOT AND SWAP1 SSTORE PUSH1 0x1 ADD PUSH1 0x20 DUP2 PUSH1 0x0 ADD DIV SWAP3 DUP4 ADD SWAP3 PUSH1 0x1 SUB MUL PUSH2 0x26E5 JUMP JUMPDEST POP JUMPDEST POP SWAP1 POP PUSH2 0x2721 SWAP2 SWAP1 PUSH2 0x292B JUMP JUMPDEST POP SWAP1 JUMP JUMPDEST PUSH1 0x40 MLOAD DUP1 PUSH1 0x60 ADD PUSH1 0x40 MSTORE DUP1 PUSH1 0x3 SWAP1 JUMPDEST PUSH2 0x273C PUSH2 0x2948 JUMP JUMPDEST DUP2 MSTORE PUSH1 0x20 ADD SWAP1 PUSH1 0x1 SWAP1 SUB SWAP1 DUP2 PUSH2 0x2734 JUMPI SWAP1 POP POP SWAP1 JUMP JUMPDEST DUP3 PUSH1 0x3 DUP2 ADD SWAP3 DUP3 ISZERO PUSH2 0x278F JUMPI SWAP2 PUSH1 0x20 MUL DUP3 ADD JUMPDEST DUP3 DUP2 GT ISZERO PUSH2 0x278E JUMPI DUP3 MLOAD DUP3 SWAP1 PUSH1 0x6 PUSH2 0x277E SWAP3 SWAP2 SWAP1 PUSH2 0x2B70 JUMP JUMPDEST POP SWAP2 PUSH1 0x20 ADD SWAP2 SWAP1 PUSH1 0x1 ADD SWAP1 PUSH2 0x2765 JUMP JUMPDEST JUMPDEST POP SWAP1 POP PUSH2 0x279C SWAP2 SWAP1 PUSH2 0x2C09 JUMP JUMPDEST POP SWAP1 JUMP JUMPDEST PUSH1 0x40 MLOAD DUP1 PUSH1 0x60 ADD PUSH1 0x40 MSTORE DUP1 PUSH1 0x3 SWAP1 JUMPDEST PUSH2 0x27B7 PUSH2 0x2C2D JUMP JUMPDEST DUP2 MSTORE PUSH1 0x20 ADD SWAP1 PUSH1 0x1 SWAP1 SUB SWAP1 DUP2 PUSH2 0x27AF JUMPI SWAP1 POP POP SWAP1 JUMP JUMPDEST DUP3 PUSH1 0x3 DUP2 ADD SWAP3 DUP3 ISZERO PUSH2 0x280A JUMPI SWAP2 PUSH1 0x20 MUL DUP3 ADD JUMPDEST DUP3 DUP2 GT ISZERO PUSH2 0x2809 JUMPI DUP3 MLOAD DUP3 SWAP1 PUSH1 0x3 PUSH2 0x27F9 SWAP3 SWAP2 SWAP1 PUSH2 0x2C4F JUMP JUMPDEST POP SWAP2 PUSH1 0x20 ADD SWAP2 SWAP1 PUSH1 0x1 ADD SWAP1 PUSH2 0x27E0 JUMP JUMPDEST JUMPDEST POP SWAP1 POP PUSH2 0x2817 SWAP2 SWAP1 PUSH2 0x2CE8 JUMP JUMPDEST POP SWAP1 JUMP JUMPDEST PUSH1 0x40 MLOAD DUP1 PUSH1 0x60 ADD PUSH1 0x40 MSTORE DUP1 PUSH1 0x3 SWAP1 JUMPDEST PUSH2 0x2832 PUSH2 0x2D0C JUMP JUMPDEST DUP2 MSTORE PUSH1 0x20 ADD SWAP1 PUSH1 0x1 SWAP1 SUB SWAP1 DUP2 PUSH2 0x282A JUMPI SWAP1 POP POP SWAP1 JUMP JUMPDEST DUP3 PUSH1 0x3 DUP2 ADD SWAP3 DUP3 ISZERO PUSH2 0x2885 JUMPI SWAP2 PUSH1 0x20 MUL DUP3 ADD JUMPDEST DUP3 DUP2 GT ISZERO PUSH2 0x2884 JUMPI DUP3 MLOAD DUP3 SWAP1 PUSH1 0x16 PUSH2 0x2874 SWAP3 SWAP2 SWAP1 PUSH2 0x2D2F JUMP JUMPDEST POP SWAP2 PUSH1 0x20 ADD SWAP2 SWAP1 PUSH1 0x1 ADD SWAP1 PUSH2 0x285B JUMP JUMPDEST JUMPDEST POP SWAP1 POP PUSH2 0x2892 SWAP2 SWAP1 PUSH2 0x2DC8 JUMP JUMPDEST POP SWAP1 JUMP JUMPDEST PUSH1 0x40 MLOAD DUP1 PUSH1 0xC0 ADD PUSH1 0x40 MSTORE DUP1 PUSH1 0x6 SWAP1 PUSH1 0x20 DUP3 MUL DUP1 CALLDATASIZE DUP4 CALLDATACOPY DUP1 DUP3 ADD SWAP2 POP POP SWAP1 POP POP SWAP1 JUMP JUMPDEST PUSH1 0x40 MLOAD DUP1 PUSH1 0xC0 ADD PUSH1 0x40 MSTORE DUP1 PUSH1 0x6 SWAP1 JUMPDEST PUSH2 0x28CF PUSH2 0x2207 JUMP JUMPDEST DUP2 MSTORE PUSH1 0x20 ADD SWAP1 PUSH1 0x1 SWAP1 SUB SWAP1 DUP2 PUSH2 0x28C7 JUMPI SWAP1 POP POP SWAP1 JUMP JUMPDEST PUSH1 0x40 MLOAD DUP1 PUSH1 0x80 ADD PUSH1 0x40 MSTORE DUP1 PUSH1 0x4 SWAP1 PUSH1 0x20 DUP3 MUL DUP1 CALLDATASIZE DUP4 CALLDATACOPY DUP1 DUP3 ADD SWAP2 POP POP SWAP1 POP POP SWAP1 JUMP JUMPDEST JUMPDEST DUP1 DUP3 GT ISZERO PUSH2 0x2927 JUMPI PUSH1 0x0 DUP2 DUP2 PUSH2 0x291E SWAP2 SWAP1 PUSH2 0x2DEC JUMP JUMPDEST POP PUSH1 0x1 ADD PUSH2 0x2908 JUMP JUMPDEST POP SWAP1 JUMP JUMPDEST JUMPDEST DUP1 DUP3 GT ISZERO PUSH2 0x2944 JUMPI PUSH1 0x0 DUP2 PUSH1 0x0 SWAP1 SSTORE POP PUSH1 0x1 ADD PUSH2 0x292C JUMP JUMPDEST POP SWAP1 JUMP JUMPDEST PUSH1 0x40 MLOAD DUP1 PUSH1 0xC0 ADD PUSH1 0x40 MSTORE DUP1 PUSH1 0x6 SWAP1 PUSH1 0x20 DUP3 MUL DUP1 CALLDATASIZE DUP4 CALLDATACOPY DUP1 DUP3 ADD SWAP2 POP POP SWAP1 POP POP SWAP1 JUMP JUMPDEST PUSH1 0x40 MLOAD DUP1 PUSH1 0x40 ADD PUSH1 0x40 MSTORE DUP1 PUSH1 0x2 SWAP1 JUMPDEST PUSH2 0x2981 PUSH2 0x2948 JUMP JUMPDEST DUP2 MSTORE PUSH1 0x20 ADD SWAP1 PUSH1 0x1 SWAP1 SUB SWAP1 DUP2 PUSH2 0x2979 JUMPI SWAP1 POP POP SWAP1 JUMP JUMPDEST DUP3 PUSH1 0x2 DUP2 ADD SWAP3 DUP3 ISZERO PUSH2 0x29D4 JUMPI SWAP2 PUSH1 0x20 MUL DUP3 ADD JUMPDEST DUP3 DUP2 GT ISZERO PUSH2 0x29D3 JUMPI DUP3 MLOAD DUP3 SWAP1 PUSH1 0x6 PUSH2 0x29C3 SWAP3 SWAP2 SWAP1 PUSH2 0x2B70 JUMP JUMPDEST POP SWAP2 PUSH1 0x20 ADD SWAP2 SWAP1 PUSH1 0x1 ADD SWAP1 PUSH2 0x29AA JUMP JUMPDEST JUMPDEST POP SWAP1 POP PUSH2 0x29E1 SWAP2 SWAP1 PUSH2 0x2C09 JUMP JUMPDEST POP SWAP1 JUMP JUMPDEST JUMPDEST DUP1 DUP3 GT ISZERO PUSH2 0x2A05 JUMPI PUSH1 0x0 DUP2 DUP2 PUSH2 0x29FC SWAP2 SWAP1 PUSH2 0x2DF3 JUMP JUMPDEST POP PUSH1 0x2 ADD PUSH2 0x29E6 JUMP JUMPDEST POP SWAP1 JUMP JUMPDEST PUSH1 0x40 MLOAD DUP1 PUSH2 0x200 ADD PUSH1 0x40 MSTORE DUP1 PUSH1 0x10 SWAP1 PUSH1 0x20 DUP3 MUL DUP1 CALLDATASIZE DUP4 CALLDATACOPY DUP1 DUP3 ADD SWAP2 POP POP SWAP1 POP POP SWAP1 JUMP JUMPDEST DUP3 PUSH1 0x10 PUSH1 0x1F ADD PUSH1 0x20 SWAP1 DIV DUP2 ADD SWAP3 DUP3 ISZERO PUSH2 0x2AB5 JUMPI SWAP2 PUSH1 0x20 MUL DUP3 ADD PUSH1 0x0 JUMPDEST DUP4 DUP3 GT ISZERO PUSH2 0x2A86 JUMPI DUP4 MLOAD DUP4 DUP3 PUSH2 0x100 EXP DUP2 SLOAD DUP2 PUSH1 0xFF MUL NOT AND SWAP1 DUP4 PUSH1 0xFF AND MUL OR SWAP1 SSTORE POP SWAP3 PUSH1 0x20 ADD SWAP3 PUSH1 0x1 ADD PUSH1 0x20 DUP2 PUSH1 0x0 ADD DIV SWAP3 DUP4 ADD SWAP3 PUSH1 0x1 SUB MUL PUSH2 0x2A48 JUMP JUMPDEST DUP1 ISZERO PUSH2 0x2AB3 JUMPI DUP3 DUP2 PUSH2 0x100 EXP DUP2 SLOAD SWAP1 PUSH1 0xFF MUL NOT AND SWAP1 SSTORE PUSH1 0x1 ADD PUSH1 0x20 DUP2 PUSH1 0x0 ADD DIV SWAP3 DUP4 ADD SWAP3 PUSH1 0x1 SUB MUL PUSH2 0x2A86 JUMP JUMPDEST POP JUMPDEST POP SWAP1 POP PUSH2 0x2AC2 SWAP2 SWAP1 PUSH2 0x292B JUMP JUMPDEST POP SWAP1 JUMP JUMPDEST JUMPDEST DUP1 DUP3 GT ISZERO PUSH2 0x2AE6 JUMPI PUSH1 0x0 DUP2 DUP2 PUSH2 0x2ADD SWAP2 SWAP1 PUSH2 0x2E14 JUMP JUMPDEST POP PUSH1 0x1 ADD PUSH2 0x2AC7 JUMP JUMPDEST POP SWAP1 JUMP JUMPDEST PUSH1 0x40 MLOAD DUP1 PUSH1 0xC0 ADD PUSH1 0x40 MSTORE DUP1 PUSH1 0x6 SWAP1 PUSH1 0x20 DUP3 MUL DUP1 CALLDATASIZE DUP4 CALLDATACOPY DUP1 DUP3 ADD SWAP2 POP POP SWAP1 POP POP SWAP1 JUMP JUMPDEST DUP3 PUSH1 0x6 DUP2 ADD SWAP3 DUP3 ISZERO PUSH2 0x2B3B JUMPI SWAP2 PUSH1 0x20 MUL DUP3 ADD JUMPDEST DUP3 DUP2 GT ISZERO PUSH2 0x2B3A JUMPI DUP3 MLOAD DUP3 SSTORE SWAP2 PUSH1 0x20 ADD SWAP2 SWAP1 PUSH1 0x1 ADD SWAP1 PUSH2 0x2B1F JUMP JUMPDEST JUMPDEST POP SWAP1 POP PUSH2 0x2B48 SWAP2 SWAP1 PUSH2 0x292B JUMP JUMPDEST POP SWAP1 JUMP JUMPDEST JUMPDEST DUP1 DUP3 GT ISZERO PUSH2 0x2B6C JUMPI PUSH1 0x0 DUP2 DUP2 PUSH2 0x2B63 SWAP2 SWAP1 PUSH2 0x2E1B JUMP JUMPDEST POP PUSH1 0x6 ADD PUSH2 0x2B4D JUMP JUMPDEST POP SWAP1 JUMP JUMPDEST DUP3 PUSH1 0x6 PUSH1 0x1F ADD PUSH1 0x20 SWAP1 DIV DUP2 ADD SWAP3 DUP3 ISZERO PUSH2 0x2BF8 JUMPI SWAP2 PUSH1 0x20 MUL DUP3 ADD PUSH1 0x0 JUMPDEST DUP4 DUP3 GT ISZERO PUSH2 0x2BC9 JUMPI DUP4 MLOAD DUP4 DUP3 PUSH2 0x100 EXP DUP2 SLOAD DUP2 PUSH1 0xFF MUL NOT AND SWAP1 DUP4 ISZERO ISZERO MUL OR SWAP1 SSTORE POP SWAP3 PUSH1 0x20 ADD SWAP3 PUSH1 0x1 ADD PUSH1 0x20 DUP2 PUSH1 0x0 ADD DIV SWAP3 DUP4 ADD SWAP3 PUSH1 0x1 SUB MUL PUSH2 0x2B8C JUMP JUMPDEST DUP1 ISZERO PUSH2 0x2BF6 JUMPI DUP3 DUP2 PUSH2 0x100 EXP DUP2 SLOAD SWAP1 PUSH1 0xFF MUL NOT AND SWAP1 SSTORE PUSH1 0x1 ADD PUSH1 0x20 DUP2 PUSH1 0x0 ADD DIV SWAP3 DUP4 ADD SWAP3 PUSH1 0x1 SUB MUL PUSH2 0x2BC9 JUMP JUMPDEST POP JUMPDEST POP SWAP1 POP PUSH2 0x2C05 SWAP2 SWAP1 PUSH2 0x292B JUMP JUMPDEST POP SWAP1 JUMP JUMPDEST JUMPDEST DUP1 DUP3 GT ISZERO PUSH2 0x2C29 JUMPI PUSH1 0x0 DUP2 DUP2 PUSH2 0x2C20 SWAP2 SWAP1 PUSH2 0x2E2E JUMP JUMPDEST POP PUSH1 0x1 ADD PUSH2 0x2C0A JUMP JUMPDEST POP SWAP1 JUMP JUMPDEST PUSH1 0x40 MLOAD DUP1 PUSH1 0x60 ADD PUSH1 0x40 MSTORE DUP1 PUSH1 0x3 SWAP1 PUSH1 0x20 DUP3 MUL DUP1 CALLDATASIZE DUP4 CALLDATACOPY DUP1 DUP3 ADD SWAP2 POP POP SWAP1 POP POP SWAP1 JUMP JUMPDEST DUP3 PUSH1 0x3 PUSH1 0x1F ADD PUSH1 0x20 SWAP1 DIV DUP2 ADD SWAP3 DUP3 ISZERO PUSH2 0x2CD7 JUMPI SWAP2 PUSH1 0x20 MUL DUP3 ADD PUSH1 0x0 JUMPDEST DUP4 DUP3 GT ISZERO PUSH2 0x2CA8 JUMPI DUP4 MLOAD DUP4 DUP3 PUSH2 0x100 EXP DUP2 SLOAD DUP2 PUSH1 0xFF MUL NOT AND SWAP1 DUP4 ISZERO ISZERO MUL OR SWAP1 SSTORE POP SWAP3 PUSH1 0x20 ADD SWAP3 PUSH1 0x1 ADD PUSH1 0x20 DUP2 PUSH1 0x0 ADD DIV SWAP3 DUP4 ADD SWAP3 PUSH1 0x1 SUB MUL PUSH2 0x2C6B JUMP JUMPDEST DUP1 ISZERO PUSH2 0x2CD5 JUMPI DUP3 DUP2 PUSH2 0x100 EXP DUP2 SLOAD SWAP1 PUSH1 0xFF MUL NOT AND SWAP1 SSTORE PUSH1 0x1 ADD PUSH1 0x20 DUP2 PUSH1 0x0 ADD DIV SWAP3 DUP4 ADD SWAP3 PUSH1 0x1 SUB MUL PUSH2 0x2CA8 JUMP JUMPDEST POP JUMPDEST POP SWAP1 POP PUSH2 0x2CE4 SWAP2 SWAP1 PUSH2 0x292B JUMP JUMPDEST POP SWAP1 JUMP JUMPDEST JUMPDEST DUP1 DUP3 GT ISZERO PUSH2 0x2D08 JUMPI PUSH1 0x0 DUP2 DUP2 PUSH2 0x2CFF SWAP2 SWAP1 PUSH2 0x2E35 JUMP JUMPDEST POP PUSH1 0x1 ADD PUSH2 0x2CE9 JUMP JUMPDEST POP SWAP1 JUMP JUMPDEST PUSH1 0x40 MLOAD DUP1 PUSH2 0x2C0 ADD PUSH1 0x40 MSTORE DUP1 PUSH1 0x16 SWAP1 PUSH1 0x20 DUP3 MUL DUP1 CALLDATASIZE DUP4 CALLDATACOPY DUP1 DUP3 ADD SWAP2 POP POP SWAP1 POP POP SWAP1 JUMP JUMPDEST DUP3 PUSH1 0x16 PUSH1 0x1F ADD PUSH1 0x20 SWAP1 DIV DUP2 ADD SWAP3 DUP3 ISZERO PUSH2 0x2DB7 JUMPI SWAP2 PUSH1 0x20 MUL DUP3 ADD PUSH1 0x0 JUMPDEST DUP4 DUP3 GT ISZERO PUSH2 0x2D88 JUMPI DUP4 MLOAD DUP4 DUP3 PUSH2 0x100 EXP DUP2 SLOAD DUP2 PUSH1 0xFF MUL NOT AND SWAP1 DUP4 ISZERO ISZERO MUL OR SWAP1 SSTORE POP SWAP3 PUSH1 0x20 ADD SWAP3 PUSH1 0x1 ADD PUSH1 0x20 DUP2 PUSH1 0x0 ADD DIV SWAP3 DUP4 ADD SWAP3 PUSH1 0x1 SUB MUL PUSH2 0x2D4B JUMP JUMPDEST DUP1 ISZERO PUSH2 0x2DB5 JUMPI DUP3 DUP2 PUSH2 0x100 EXP DUP2 SLOAD SWAP1 PUSH1 0xFF MUL NOT AND SWAP1 SSTORE PUSH1 0x1 ADD PUSH1 0x20 DUP2 PUSH1 0x0 ADD DIV SWAP3 DUP4 ADD SWAP3 PUSH1 0x1 SUB MUL PUSH2 0x2D88 JUMP JUMPDEST POP JUMPDEST POP SWAP1 POP PUSH2 0x2DC4 SWAP2 SWAP1 PUSH2 0x292B JUMP JUMPDEST POP SWAP1 JUMP JUMPDEST JUMPDEST DUP1 DUP3 GT ISZERO PUSH2 0x2DE8 JUMPI PUSH1 0x0 DUP2 DUP2 PUSH2 0x2DDF SWAP2 SWAP1 PUSH2 0x2E3C JUMP JUMPDEST POP PUSH1 0x1 ADD PUSH2 0x2DC9 JUMP JUMPDEST POP SWAP1 JUMP JUMPDEST POP PUSH1 0x0 SWAP1 SSTORE JUMP JUMPDEST POP PUSH1 0x0 DUP2 DUP2 PUSH2 0x2E02 SWAP2 SWAP1 PUSH2 0x2E2E JUMP JUMPDEST POP PUSH1 0x1 ADD PUSH1 0x0 PUSH2 0x2E12 SWAP2 SWAP1 PUSH2 0x2E2E JUMP JUMPDEST JUMP JUMPDEST POP PUSH1 0x0 SWAP1 SSTORE JUMP JUMPDEST POP DUP1 PUSH1 0x6 ADD SWAP1 PUSH2 0x2E2B SWAP2 SWAP1 PUSH2 0x292B JUMP JUMPDEST POP JUMP JUMPDEST POP PUSH1 0x0 SWAP1 SSTORE JUMP JUMPDEST POP PUSH1 0x0 SWAP1 SSTORE JUMP JUMPDEST POP PUSH1 0x0 SWAP1 SSTORE JUMP JUMPDEST PUSH1 0x0 DUP1 REVERT JUMPDEST PUSH1 0x0 PUSH20 0xFFFFFFFFFFFFFFFFFFFFFFFFFFFFFFFFFFFFFFFF DUP3 AND SWAP1 POP SWAP2 SWAP1 POP JUMP JUMPDEST PUSH1 0x0 PUSH2 0x2E73 DUP3 PUSH2 0x2E48 JUMP JUMPDEST SWAP1 POP SWAP2 SWAP1 POP JUMP JUMPDEST PUSH2 0x2E83 DUP2 PUSH2 0x2E68 JUMP JUMPDEST DUP2 EQ PUSH2 0x2E8E JUMPI PUSH1 0x0 DUP1 REVERT JUMPDEST POP JUMP JUMPDEST PUSH1 0x0 DUP2 CALLDATALOAD SWAP1 POP PUSH2 0x2EA0 DUP2 PUSH2 0x2E7A JUMP JUMPDEST SWAP3 SWAP2 POP POP JUMP JUMPDEST PUSH1 0x0 PUSH1 0x20 DUP3 DUP5 SUB SLT ISZERO PUSH2 0x2EBC JUMPI PUSH2 0x2EBB PUSH2 0x2E43 JUMP JUMPDEST JUMPDEST PUSH1 0x0 PUSH2 0x2ECA DUP5 DUP3 DUP6 ADD PUSH2 0x2E91 JUMP JUMPDEST SWAP2 POP POP SWAP3 SWAP2 POP POP JUMP JUMPDEST PUSH1 0x0 PUSH1 0x3 SWAP1 POP SWAP2 SWAP1 POP JUMP JUMPDEST PUSH1 0x0 DUP2 SWAP1 POP SWAP3 SWAP2 POP POP JUMP JUMPDEST PUSH1 0x0 DUP2 SWAP1 POP SWAP2 SWAP1 POP JUMP JUMPDEST PUSH1 0x0 PUSH1 0x6 SWAP1 POP SWAP2 SWAP1 POP JUMP JUMPDEST PUSH1 0x0 DUP2 SWAP1 POP SWAP3 SWAP2 POP POP JUMP JUMPDEST PUSH1 0x0 DUP2 SWAP1 POP SWAP2 SWAP1 POP JUMP JUMPDEST PUSH1 0x0 DUP2 ISZERO ISZERO SWAP1 POP SWAP2 SWAP1 POP JUMP JUMPDEST PUSH2 0x2F28 DUP2 PUSH2 0x2F13 JUMP JUMPDEST DUP3 MSTORE POP POP JUMP JUMPDEST PUSH1 0x0 PUSH2 0x2F3A DUP4 DUP4 PUSH2 0x2F1F JUMP JUMPDEST PUSH1 0x20 DUP4 ADD SWAP1 POP SWAP3 SWAP2 POP POP JUMP JUMPDEST PUSH1 0x0 PUSH1 0x20 DUP3 ADD SWAP1 POP SWAP2 SWAP1 POP JUMP JUMPDEST PUSH2 0x2F5C DUP2 PUSH2 0x2EF3 JUMP JUMPDEST PUSH2 0x2F66 DUP2 DUP5 PUSH2 0x2EFE JUMP JUMPDEST SWAP3 POP PUSH2 0x2F71 DUP3 PUSH2 0x2F09 JUMP JUMPDEST DUP1 PUSH1 0x0 JUMPDEST DUP4 DUP2 LT ISZERO PUSH2 0x2FA2 JUMPI DUP2 MLOAD PUSH2 0x2F89 DUP8 DUP3 PUSH2 0x2F2E JUMP JUMPDEST SWAP7 POP PUSH2 0x2F94 DUP4 PUSH2 0x2F46 JUMP JUMPDEST SWAP3 POP POP PUSH1 0x1 DUP2 ADD SWAP1 POP PUSH2 0x2F75 JUMP JUMPDEST POP POP POP POP POP POP JUMP JUMPDEST PUSH1 0x0 PUSH2 0x2FB6 DUP4 DUP4 PUSH2 0x2F53 JUMP JUMPDEST PUSH1 0xC0 DUP4 ADD SWAP1 POP SWAP3 SWAP2 POP POP JUMP JUMPDEST PUSH1 0x0 PUSH1 0x20 DUP3 ADD SWAP1 POP SWAP2 SWAP1 POP JUMP JUMPDEST PUSH2 0x2FD8 DUP2 PUSH2 0x2ED3 JUMP JUMPDEST PUSH2 0x2FE2 DUP2 DUP5 PUSH2 0x2EDE JUMP JUMPDEST SWAP3 POP PUSH2 0x2FED DUP3 PUSH2 0x2EE9 JUMP JUMPDEST DUP1 PUSH1 0x0 JUMPDEST DUP4 DUP2 LT ISZERO PUSH2 0x301E JUMPI DUP2 MLOAD PUSH2 0x3005 DUP8 DUP3 PUSH2 0x2FAA JUMP JUMPDEST SWAP7 POP PUSH2 0x3010 DUP4 PUSH2 0x2FC2 JUMP JUMPDEST SWAP3 POP POP PUSH1 0x1 DUP2 ADD SWAP1 POP PUSH2 0x2FF1 JUMP JUMPDEST POP POP POP POP POP POP JUMP JUMPDEST PUSH1 0x0 PUSH1 0x3 SWAP1 POP SWAP2 SWAP1 POP JUMP JUMPDEST PUSH1 0x0 DUP2 SWAP1 POP SWAP3 SWAP2 POP POP JUMP JUMPDEST PUSH1 0x0 DUP2 SWAP1 POP SWAP2 SWAP1 POP JUMP JUMPDEST PUSH1 0x0 PUSH1 0x3 SWAP1 POP SWAP2 SWAP1 POP JUMP JUMPDEST PUSH1 0x0 DUP2 SWAP1 POP SWAP3 SWAP2 POP POP JUMP JUMPDEST PUSH1 0x0 DUP2 SWAP1 POP SWAP2 SWAP1 POP JUMP JUMPDEST PUSH1 0x0 PUSH1 0x20 DUP3 ADD SWAP1 POP SWAP2 SWAP1 POP JUMP JUMPDEST PUSH2 0x307C DUP2 PUSH2 0x3046 JUMP JUMPDEST PUSH2 0x3086 DUP2 DUP5 PUSH2 0x3051 JUMP JUMPDEST SWAP3 POP PUSH2 0x3091 DUP3 PUSH2 0x305C JUMP JUMPDEST DUP1 PUSH1 0x0 JUMPDEST DUP4 DUP2 LT ISZERO PUSH2 0x30C2 JUMPI DUP2 MLOAD PUSH2 0x30A9 DUP8 DUP3 PUSH2 0x2F2E JUMP JUMPDEST SWAP7 POP PUSH2 0x30B4 DUP4 PUSH2 0x3066 JUMP JUMPDEST SWAP3 POP POP PUSH1 0x1 DUP2 ADD SWAP1 POP PUSH2 0x3095 JUMP JUMPDEST POP POP POP POP POP POP JUMP JUMPDEST PUSH1 0x0 PUSH2 0x30D6 DUP4 DUP4 PUSH2 0x3073 JUMP JUMPDEST PUSH1 0x60 DUP4 ADD SWAP1 POP SWAP3 SWAP2 POP POP JUMP JUMPDEST PUSH1 0x0 PUSH1 0x20 DUP3 ADD SWAP1 POP SWAP2 SWAP1 POP JUMP JUMPDEST PUSH2 0x30F8 DUP2 PUSH2 0x3026 JUMP JUMPDEST PUSH2 0x3102 DUP2 DUP5 PUSH2 0x3031 JUMP JUMPDEST SWAP3 POP PUSH2 0x310D DUP3 PUSH2 0x303C JUMP JUMPDEST DUP1 PUSH1 0x0 JUMPDEST DUP4 DUP2 LT ISZERO PUSH2 0x313E JUMPI DUP2 MLOAD PUSH2 0x3125 DUP8 DUP3 PUSH2 0x30CA JUMP JUMPDEST SWAP7 POP PUSH2 0x3130 DUP4 PUSH2 0x30E2 JUMP JUMPDEST SWAP3 POP POP PUSH1 0x1 DUP2 ADD SWAP1 POP PUSH2 0x3111 JUMP JUMPDEST POP POP POP POP POP POP JUMP JUMPDEST PUSH1 0x0 DUP2 PUSH1 0x0 SIGNEXTEND SWAP1 POP SWAP2 SWAP1 POP JUMP JUMPDEST PUSH2 0x315C DUP2 PUSH2 0x3146 JUMP JUMPDEST DUP3 MSTORE POP POP JUMP JUMPDEST PUSH1 0x0 PUSH1 0xFF DUP3 AND SWAP1 POP SWAP2 SWAP1 POP JUMP JUMPDEST PUSH2 0x3178 DUP2 PUSH2 0x3162 JUMP JUMPDEST DUP3 MSTORE POP POP JUMP JUMPDEST PUSH1 0x0 PUSH1 0x3 SWAP1 POP SWAP2 SWAP1 POP JUMP JUMPDEST PUSH1 0x0 DUP2 SWAP1 POP SWAP3 SWAP2 POP POP JUMP JUMPDEST PUSH1 0x0 DUP2 SWAP1 POP SWAP2 SWAP1 POP JUMP JUMPDEST PUSH1 0x0 PUSH1 0x16 SWAP1 POP SWAP2 SWAP1 POP JUMP JUMPDEST PUSH1 0x0 DUP2 SWAP1 POP SWAP3 SWAP2 POP POP JUMP JUMPDEST PUSH1 0x0 DUP2 SWAP1 POP SWAP2 SWAP1 POP JUMP JUMPDEST PUSH1 0x0 PUSH1 0x20 DUP3 ADD SWAP1 POP SWAP2 SWAP1 POP JUMP JUMPDEST PUSH2 0x31D4 DUP2 PUSH2 0x319E JUMP JUMPDEST PUSH2 0x31DE DUP2 DUP5 PUSH2 0x31A9 JUMP JUMPDEST SWAP3 POP PUSH2 0x31E9 DUP3 PUSH2 0x31B4 JUMP JUMPDEST DUP1 PUSH1 0x0 JUMPDEST DUP4 DUP2 LT ISZERO PUSH2 0x321A JUMPI DUP2 MLOAD PUSH2 0x3201 DUP8 DUP3 PUSH2 0x2F2E JUMP JUMPDEST SWAP7 POP PUSH2 0x320C DUP4 PUSH2 0x31BE JUMP JUMPDEST SWAP3 POP POP PUSH1 0x1 DUP2 ADD SWAP1 POP PUSH2 0x31ED JUMP JUMPDEST POP POP POP POP POP POP JUMP JUMPDEST PUSH1 0x0 PUSH2 0x322E DUP4 DUP4 PUSH2 0x31CB JUMP JUMPDEST PUSH2 0x2C0 DUP4 ADD SWAP1 POP SWAP3 SWAP2 POP POP JUMP JUMPDEST PUSH1 0x0 PUSH1 0x20 DUP3 ADD SWAP1 POP SWAP2 SWAP1 POP JUMP JUMPDEST PUSH2 0x3251 DUP2 PUSH2 0x317E JUMP JUMPDEST PUSH2 0x325B DUP2 DUP5 PUSH2 0x3189 JUMP JUMPDEST SWAP3 POP PUSH2 0x3266 DUP3 PUSH2 0x3194 JUMP JUMPDEST DUP1 PUSH1 0x0 JUMPDEST DUP4 DUP2 LT ISZERO PUSH2 0x3297 JUMPI DUP2 MLOAD PUSH2 0x327E DUP8 DUP3 PUSH2 0x3222 JUMP JUMPDEST SWAP7 POP PUSH2 0x3289 DUP4 PUSH2 0x323B JUMP JUMPDEST SWAP3 POP POP PUSH1 0x1 DUP2 ADD SWAP1 POP PUSH2 0x326A JUMP JUMPDEST POP POP POP POP POP POP JUMP JUMPDEST PUSH2 0xE80 DUP3 ADD PUSH1 0x0 DUP3 ADD MLOAD PUSH2 0x32B6 PUSH1 0x0 DUP6 ADD DUP3 PUSH2 0x2FCF JUMP JUMPDEST POP PUSH1 0x20 DUP3 ADD MLOAD PUSH2 0x32CA PUSH2 0x240 DUP6 ADD DUP3 PUSH2 0x2FCF JUMP JUMPDEST POP PUSH1 0x40 DUP3 ADD MLOAD PUSH2 0x32DE PUSH2 0x480 DUP6 ADD DUP3 PUSH2 0x30EF JUMP JUMPDEST POP PUSH1 0x60 DUP3 ADD MLOAD PUSH2 0x32F2 PUSH2 0x5A0 DUP6 ADD DUP3 PUSH2 0x3153 JUMP JUMPDEST POP PUSH1 0x80 DUP3 ADD MLOAD PUSH2 0x3306 PUSH2 0x5C0 DUP6 ADD DUP3 PUSH2 0x316F JUMP JUMPDEST POP PUSH1 0xA0 DUP3 ADD MLOAD PUSH2 0x331A PUSH2 0x5E0 DUP6 ADD DUP3 PUSH2 0x2F1F JUMP JUMPDEST POP PUSH1 0xC0 DUP3 ADD MLOAD PUSH2 0x332E PUSH2 0x600 DUP6 ADD DUP3 PUSH2 0x316F JUMP JUMPDEST POP PUSH1 0xE0 DUP3 ADD MLOAD PUSH2 0x3342 PUSH2 0x620 DUP6 ADD DUP3 PUSH2 0x316F JUMP JUMPDEST POP PUSH2 0x100 DUP3 ADD MLOAD PUSH2 0x3357 PUSH2 0x640 DUP6 ADD DUP3 PUSH2 0x3248 JUMP JUMPDEST POP POP POP POP JUMP JUMPDEST PUSH1 0x0 PUSH2 0xE80 DUP3 ADD SWAP1 POP PUSH2 0x3373 PUSH1 0x0 DUP4 ADD DUP5 PUSH2 0x329F JUMP JUMPDEST SWAP3 SWAP2 POP POP JUMP JUMPDEST PUSH2 0x3382 DUP2 PUSH2 0x3162 JUMP JUMPDEST DUP3 MSTORE POP POP JUMP JUMPDEST PUSH1 0x0 PUSH1 0x20 DUP3 ADD SWAP1 POP PUSH2 0x339D PUSH1 0x0 DUP4 ADD DUP5 PUSH2 0x3379 JUMP JUMPDEST SWAP3 SWAP2 POP POP JUMP JUMPDEST PUSH1 0x0 PUSH1 0x6 SWAP1 POP SWAP2 SWAP1 POP JUMP JUMPDEST PUSH1 0x0 DUP2 SWAP1 POP SWAP3 SWAP2 POP POP JUMP JUMPDEST PUSH1 0x0 DUP2 SWAP1 POP SWAP2 SWAP1 POP JUMP JUMPDEST PUSH1 0x0 PUSH1 0x10 SWAP1 POP SWAP2 SWAP1 POP JUMP JUMPDEST PUSH1 0x0 DUP2 SWAP1 POP SWAP3 SWAP2 POP POP JUMP JUMPDEST PUSH1 0x0 DUP2 SWAP1 POP SWAP2 SWAP1 POP JUMP JUMPDEST PUSH1 0x0 PUSH2 0x33EF DUP4 DUP4 PUSH2 0x316F JUMP JUMPDEST PUSH1 0x20 DUP4 ADD SWAP1 POP SWAP3 SWAP2 POP POP JUMP JUMPDEST PUSH1 0x0 PUSH1 0x20 DUP3 ADD SWAP1 POP SWAP2 SWAP1 POP JUMP JUMPDEST PUSH2 0x3411 DUP2 PUSH2 0x33C3 JUMP JUMPDEST PUSH2 0x341B DUP2 DUP5 PUSH2 0x33CE JUMP JUMPDEST SWAP3 POP PUSH2 0x3426 DUP3 PUSH2 0x33D9 JUMP JUMPDEST DUP1 PUSH1 0x0 JUMPDEST DUP4 DUP2 LT ISZERO PUSH2 0x3457 JUMPI DUP2 MLOAD PUSH2 0x343E DUP8 DUP3 PUSH2 0x33E3 JUMP JUMPDEST SWAP7 POP PUSH2 0x3449 DUP4 PUSH2 0x33FB JUMP JUMPDEST SWAP3 POP POP PUSH1 0x1 DUP2 ADD SWAP1 POP PUSH2 0x342A JUMP JUMPDEST POP POP POP POP POP POP JUMP JUMPDEST PUSH1 0x0 PUSH2 0x346B DUP4 DUP4 PUSH2 0x3408 JUMP JUMPDEST PUSH2 0x200 DUP4 ADD SWAP1 POP SWAP3 SWAP2 POP POP JUMP JUMPDEST PUSH1 0x0 PUSH1 0x20 DUP3 ADD SWAP1 POP SWAP2 SWAP1 POP JUMP JUMPDEST PUSH2 0x348E DUP2 PUSH2 0x33A3 JUMP JUMPDEST PUSH2 0x3498 DUP2 DUP5 PUSH2 0x33AE JUMP JUMPDEST SWAP3 POP PUSH2 0x34A3 DUP3 PUSH2 0x33B9 JUMP JUMPDEST DUP1 PUSH1 0x0 JUMPDEST DUP4 DUP2 LT ISZERO PUSH2 0x34D4 JUMPI DUP2 MLOAD PUSH2 0x34BB DUP8 DUP3 PUSH2 0x345F JUMP JUMPDEST SWAP7 POP PUSH2 0x34C6 DUP4 PUSH2 0x3478 JUMP JUMPDEST SWAP3 POP POP PUSH1 0x1 DUP2 ADD SWAP1 POP PUSH2 0x34A7 JUMP JUMPDEST POP POP POP POP POP POP JUMP JUMPDEST PUSH1 0x0 PUSH1 0x6 SWAP1 POP SWAP2 SWAP1 POP JUMP JUMPDEST PUSH1 0x0 DUP2 SWAP1 POP SWAP3 SWAP2 POP POP JUMP JUMPDEST PUSH1 0x0 DUP2 SWAP1 POP SWAP2 SWAP1 POP JUMP JUMPDEST PUSH1 0x0 PUSH1 0x20 DUP3 ADD SWAP1 POP SWAP2 SWAP1 POP JUMP JUMPDEST PUSH2 0x3512 DUP2 PUSH2 0x34DC JUMP JUMPDEST PUSH2 0x351C DUP2 DUP5 PUSH2 0x34E7 JUMP JUMPDEST SWAP3 POP PUSH2 0x3527 DUP3 PUSH2 0x34F2 JUMP JUMPDEST DUP1 PUSH1 0x0 JUMPDEST DUP4 DUP2 LT ISZERO PUSH2 0x3558 JUMPI DUP2 MLOAD PUSH2 0x353F DUP8 DUP3 PUSH2 0x33E3 JUMP JUMPDEST SWAP7 POP PUSH2 0x354A DUP4 PUSH2 0x34FC JUMP JUMPDEST SWAP3 POP POP PUSH1 0x1 DUP2 ADD SWAP1 POP PUSH2 0x352B JUMP JUMPDEST POP POP POP POP POP POP JUMP JUMPDEST PUSH1 0x0 PUSH1 0xA SWAP1 POP SWAP2 SWAP1 POP JUMP JUMPDEST PUSH1 0x0 DUP2 SWAP1 POP SWAP3 SWAP2 POP POP JUMP JUMPDEST PUSH1 0x0 DUP2 SWAP1 POP SWAP2 SWAP1 POP JUMP JUMPDEST PUSH1 0x0 PUSH1 0x20 DUP3 ADD SWAP1 POP SWAP2 SWAP1 POP JUMP JUMPDEST PUSH2 0x3596 DUP2 PUSH2 0x3560 JUMP JUMPDEST PUSH2 0x35A0 DUP2 DUP5 PUSH2 0x356B JUMP JUMPDEST SWAP3 POP PUSH2 0x35AB DUP3 PUSH2 0x3576 JUMP JUMPDEST DUP1 PUSH1 0x0 JUMPDEST DUP4 DUP2 LT ISZERO PUSH2 0x35DC JUMPI DUP2 MLOAD PUSH2 0x35C3 DUP8 DUP3 PUSH2 0x33E3 JUMP JUMPDEST SWAP7 POP PUSH2 0x35CE DUP4 PUSH2 0x3580 JUMP JUMPDEST SWAP3 POP POP PUSH1 0x1 DUP2 ADD SWAP1 POP PUSH2 0x35AF JUMP JUMPDEST POP POP POP POP POP POP JUMP JUMPDEST PUSH1 0x0 PUSH1 0x6 SWAP1 POP SWAP2 SWAP1 POP JUMP JUMPDEST PUSH1 0x0 DUP2 SWAP1 POP SWAP3 SWAP2 POP POP JUMP JUMPDEST PUSH1 0x0 DUP2 SWAP1 POP SWAP2 SWAP1 POP JUMP JUMPDEST PUSH1 0x0 PUSH1 0x6 SWAP1 POP SWAP2 SWAP1 POP JUMP JUMPDEST PUSH1 0x0 DUP2 SWAP1 POP SWAP3 SWAP2 POP POP JUMP JUMPDEST PUSH1 0x0 DUP2 SWAP1 POP SWAP2 SWAP1 POP JUMP JUMPDEST PUSH1 0x0 DUP2 SWAP1 POP SWAP2 SWAP1 POP JUMP JUMPDEST PUSH2 0x3637 DUP2 PUSH2 0x3624 JUMP JUMPDEST DUP3 MSTORE POP POP JUMP JUMPDEST PUSH1 0x0 PUSH2 0x3649 DUP4 DUP4 PUSH2 0x362E JUMP JUMPDEST PUSH1 0x20 DUP4 ADD SWAP1 POP SWAP3 SWAP2 POP POP JUMP JUMPDEST PUSH1 0x0 PUSH1 0x20 DUP3 ADD SWAP1 POP SWAP2 SWAP1 POP JUMP JUMPDEST PUSH2 0x366B DUP2 PUSH2 0x3604 JUMP JUMPDEST PUSH2 0x3675 DUP2 DUP5 PUSH2 0x360F JUMP JUMPDEST SWAP3 POP PUSH2 0x3680 DUP3 PUSH2 0x361A JUMP JUMPDEST DUP1 PUSH1 0x0 JUMPDEST DUP4 DUP2 LT ISZERO PUSH2 0x36B1 JUMPI DUP2 MLOAD PUSH2 0x3698 DUP8 DUP3 PUSH2 0x363D JUMP JUMPDEST SWAP7 POP PUSH2 0x36A3 DUP4 PUSH2 0x3655 JUMP JUMPDEST SWAP3 POP POP PUSH1 0x1 DUP2 ADD SWAP1 POP PUSH2 0x3684 JUMP JUMPDEST POP POP POP POP POP POP JUMP JUMPDEST PUSH1 0x0 PUSH2 0x36C5 DUP4 DUP4 PUSH2 0x3662 JUMP JUMPDEST PUSH1 0xC0 DUP4 ADD SWAP1 POP SWAP3 SWAP2 POP POP JUMP JUMPDEST PUSH1 0x0 PUSH1 0x20 DUP3 ADD SWAP1 POP SWAP2 SWAP1 POP JUMP JUMPDEST PUSH2 0x36E7 DUP2 PUSH2 0x35E4 JUMP JUMPDEST PUSH2 0x36F1 DUP2 DUP5 PUSH2 0x35EF JUMP JUMPDEST SWAP3 POP PUSH2 0x36FC DUP3 PUSH2 0x35FA JUMP JUMPDEST DUP1 PUSH1 0x0 JUMPDEST DUP4 DUP2 LT ISZERO PUSH2 0x372D JUMPI DUP2 MLOAD PUSH2 0x3714 DUP8 DUP3 PUSH2 0x36B9 JUMP JUMPDEST SWAP7 POP PUSH2 0x371F DUP4 PUSH2 0x36D1 JUMP JUMPDEST SWAP3 POP POP PUSH1 0x1 DUP2 ADD SWAP1 POP PUSH2 0x3700 JUMP JUMPDEST POP POP POP POP POP POP JUMP JUMPDEST PUSH1 0x0 PUSH1 0x6 SWAP1 POP SWAP2 SWAP1 POP JUMP JUMPDEST PUSH1 0x0 DUP2 SWAP1 POP SWAP2 SWAP1 POP JUMP JUMPDEST PUSH32 0x4E487B7100000000000000000000000000000000000000000000000000000000 PUSH1 0x0 MSTORE PUSH1 0x21 PUSH1 0x4 MSTORE PUSH1 0x24 PUSH1 0x0 REVERT JUMPDEST PUSH1 0x6 DUP2 LT PUSH2 0x378A JUMPI PUSH2 0x3789 PUSH2 0x374A JUMP JUMPDEST JUMPDEST POP JUMP JUMPDEST PUSH1 0x0 DUP2 SWAP1 POP PUSH2 0x379B DUP3 PUSH2 0x3779 JUMP JUMPDEST SWAP2 SWAP1 POP JUMP JUMPDEST PUSH1 0x0 PUSH2 0x37AB DUP3 PUSH2 0x378D JUMP JUMPDEST SWAP1 POP SWAP2 SWAP1 POP JUMP JUMPDEST PUSH2 0x37BB DUP2 PUSH2 0x37A0 JUMP JUMPDEST DUP3 MSTORE POP POP JUMP JUMPDEST PUSH1 0x0 PUSH2 0x37CD DUP4 DUP4 PUSH2 0x37B2 JUMP JUMPDEST PUSH1 0x20 DUP4 ADD SWAP1 POP SWAP3 SWAP2 POP POP JUMP JUMPDEST PUSH1 0x0 PUSH1 0x20 DUP3 ADD SWAP1 POP SWAP2 SWAP1 POP JUMP JUMPDEST PUSH2 0x37EF DUP2 PUSH2 0x3735 JUMP JUMPDEST PUSH2 0x37F9 DUP2 DUP5 PUSH2 0x34E7 JUMP JUMPDEST SWAP3 POP PUSH2 0x3804 DUP3 PUSH2 0x3740 JUMP JUMPDEST DUP1 PUSH1 0x0 JUMPDEST DUP4 DUP2 LT ISZERO PUSH2 0x3835 JUMPI DUP2 MLOAD PUSH2 0x381C DUP8 DUP3 PUSH2 0x37C1 JUMP JUMPDEST SWAP7 POP PUSH2 0x3827 DUP4 PUSH2 0x37D9 JUMP JUMPDEST SWAP3 POP POP PUSH1 0x1 DUP2 ADD SWAP1 POP PUSH2 0x3808 JUMP JUMPDEST POP POP POP POP POP POP JUMP JUMPDEST PUSH2 0x1340 DUP3 ADD PUSH1 0x0 DUP3 ADD MLOAD PUSH2 0x3854 PUSH1 0x0 DUP6 ADD DUP3 PUSH2 0x3485 JUMP JUMPDEST POP PUSH1 0x20 DUP3 ADD MLOAD PUSH2 0x3868 PUSH2 0xC00 DUP6 ADD DUP3 PUSH2 0x3509 JUMP JUMPDEST POP PUSH1 0x40 DUP3 ADD MLOAD PUSH2 0x387C PUSH2 0xCC0 DUP6 ADD DUP3 PUSH2 0x358D JUMP JUMPDEST POP PUSH1 0x60 DUP3 ADD MLOAD PUSH2 0x3890 PUSH2 0xE00 DUP6 ADD DUP3 PUSH2 0x36DE JUMP JUMPDEST POP PUSH1 0x80 DUP3 ADD MLOAD PUSH2 0x38A4 PUSH2 0x1280 DUP6 ADD DUP3 PUSH2 0x37E6 JUMP JUMPDEST POP POP POP POP JUMP JUMPDEST PUSH1 0x0 PUSH2 0x1340 DUP3 ADD SWAP1 POP PUSH2 0x38C0 PUSH1 0x0 DUP4 ADD DUP5 PUSH2 0x383D JUMP JUMPDEST SWAP3 SWAP2 POP POP JUMP JUMPDEST PUSH1 0x0 PUSH1 0x6 SWAP1 POP SWAP2 SWAP1 POP JUMP JUMPDEST PUSH1 0x0 DUP2 SWAP1 POP SWAP3 SWAP2 POP POP JUMP JUMPDEST PUSH1 0x0 DUP2 SWAP1 POP SWAP2 SWAP1 POP JUMP JUMPDEST PUSH1 0x0 PUSH1 0x6 SWAP1 POP SWAP2 SWAP1 POP JUMP JUMPDEST PUSH1 0x0 DUP2 SWAP1 POP SWAP3 SWAP2 POP POP JUMP JUMPDEST PUSH1 0x0 DUP2 SWAP1 POP SWAP2 SWAP1 POP JUMP JUMPDEST PUSH1 0x0 PUSH2 0x3912 DUP4 DUP4 PUSH2 0x3509 JUMP JUMPDEST PUSH1 0xC0 DUP4 ADD SWAP1 POP SWAP3 SWAP2 POP POP JUMP JUMPDEST PUSH1 0x0 PUSH1 0x20 DUP3 ADD SWAP1 POP SWAP2 SWAP1 POP JUMP JUMPDEST PUSH2 0x3934 DUP2 PUSH2 0x38E6 JUMP JUMPDEST PUSH2 0x393E DUP2 DUP5 PUSH2 0x38F1 JUMP JUMPDEST SWAP3 POP PUSH2 0x3949 DUP3 PUSH2 0x38FC JUMP JUMPDEST DUP1 PUSH1 0x0 JUMPDEST DUP4 DUP2 LT ISZERO PUSH2 0x397A JUMPI DUP2 MLOAD PUSH2 0x3961 DUP8 DUP3 PUSH2 0x3906 JUMP JUMPDEST SWAP7 POP PUSH2 0x396C DUP4 PUSH2 0x391E JUMP JUMPDEST SWAP3 POP POP PUSH1 0x1 DUP2 ADD SWAP1 POP PUSH2 0x394D JUMP JUMPDEST POP POP POP POP POP POP JUMP JUMPDEST PUSH1 0x6 DUP2 LT PUSH2 0x3993 JUMPI PUSH2 0x3992 PUSH2 0x374A JUMP JUMPDEST JUMPDEST POP JUMP JUMPDEST PUSH1 0x0 DUP2 SWAP1 POP PUSH2 0x39A4 DUP3 PUSH2 0x3982 JUMP JUMPDEST SWAP2 SWAP1 POP JUMP JUMPDEST PUSH1 0x0 PUSH2 0x39B4 DUP3 PUSH2 0x3996 JUMP JUMPDEST SWAP1 POP SWAP2 SWAP1 POP JUMP JUMPDEST PUSH2 0x39C4 DUP2 PUSH2 0x39A9 JUMP JUMPDEST DUP3 MSTORE POP POP JUMP JUMPDEST PUSH1 0x6 DUP2 LT PUSH2 0x39DB JUMPI PUSH2 0x39DA PUSH2 0x374A JUMP JUMPDEST JUMPDEST POP JUMP JUMPDEST PUSH1 0x0 DUP2 SWAP1 POP PUSH2 0x39EC DUP3 PUSH2 0x39CA JUMP JUMPDEST SWAP2 SWAP1 POP JUMP JUMPDEST PUSH1 0x0 PUSH2 0x39FC DUP3 PUSH2 0x39DE JUMP JUMPDEST SWAP1 POP SWAP2 SWAP1 POP JUMP JUMPDEST PUSH2 0x3A0C DUP2 PUSH2 0x39F1 JUMP JUMPDEST DUP3 MSTORE POP POP JUMP JUMPDEST PUSH2 0x5A0 DUP3 ADD PUSH1 0x0 DUP3 ADD MLOAD PUSH2 0x3A29 PUSH1 0x0 DUP6 ADD DUP3 PUSH2 0x392B JUMP JUMPDEST POP PUSH1 0x20 DUP3 ADD MLOAD PUSH2 0x3A3D PUSH2 0x480 DUP6 ADD DUP3 PUSH2 0x39BB JUMP JUMPDEST POP PUSH1 0x40 DUP3 ADD MLOAD PUSH2 0x3A51 PUSH2 0x4A0 DUP6 ADD DUP3 PUSH2 0x37B2 JUMP JUMPDEST POP PUSH1 0x60 DUP3 ADD MLOAD PUSH2 0x3A65 PUSH2 0x4C0 DUP6 ADD DUP3 PUSH2 0x3A03 JUMP JUMPDEST POP PUSH1 0x80 DUP3 ADD MLOAD PUSH2 0x3A79 PUSH2 0x4E0 DUP6 ADD DUP3 PUSH2 0x3509 JUMP JUMPDEST POP POP POP POP JUMP JUMPDEST PUSH1 0x0 PUSH2 0x3A8B DUP4 DUP4 PUSH2 0x3A12 JUMP JUMPDEST PUSH2 0x5A0 DUP4 ADD SWAP1 POP SWAP3 SWAP2 POP POP JUMP JUMPDEST PUSH1 0x0 PUSH1 0x20 DUP3 ADD SWAP1 POP SWAP2 SWAP1 POP JUMP JUMPDEST PUSH2 0x3AAE DUP2 PUSH2 0x38C6 JUMP JUMPDEST PUSH2 0x3AB8 DUP2 DUP5 PUSH2 0x38D1 JUMP JUMPDEST SWAP3 POP PUSH2 0x3AC3 DUP3 PUSH2 0x38DC JUMP JUMPDEST DUP1 PUSH1 0x0 JUMPDEST DUP4 DUP2 LT ISZERO PUSH2 0x3AF4 JUMPI DUP2 MLOAD PUSH2 0x3ADB DUP8 DUP3 PUSH2 0x3A7F JUMP JUMPDEST SWAP7 POP PUSH2 0x3AE6 DUP4 PUSH2 0x3A98 JUMP JUMPDEST SWAP3 POP POP PUSH1 0x1 DUP2 ADD SWAP1 POP PUSH2 0x3AC7 JUMP JUMPDEST POP POP POP POP POP POP JUMP JUMPDEST PUSH1 0x0 PUSH1 0x4 SWAP1 POP SWAP2 SWAP1 POP JUMP JUMPDEST PUSH1 0x0 DUP2 SWAP1 POP SWAP3 SWAP2 POP POP JUMP JUMPDEST PUSH1 0x0 DUP2 SWAP1 POP SWAP2 SWAP1 POP JUMP JUMPDEST PUSH1 0x0 PUSH1 0x20 DUP3 ADD SWAP1 POP SWAP2 SWAP1 POP JUMP JUMPDEST PUSH2 0x3B32 DUP2 PUSH2 0x3AFC JUMP JUMPDEST PUSH2 0x3B3C DUP2 DUP5 PUSH2 0x3B07 JUMP JUMPDEST SWAP3 POP PUSH2 0x3B47 DUP3 PUSH2 0x3B12 JUMP JUMPDEST DUP1 PUSH1 0x0 JUMPDEST DUP4 DUP2 LT ISZERO PUSH2 0x3B78 JUMPI DUP2 MLOAD PUSH2 0x3B5F DUP8 DUP3 PUSH2 0x33E3 JUMP JUMPDEST SWAP7 POP PUSH2 0x3B6A DUP4 PUSH2 0x3B1C JUMP JUMPDEST SWAP3 POP POP PUSH1 0x1 DUP2 ADD SWAP1 POP PUSH2 0x3B4B JUMP JUMPDEST POP POP POP POP POP POP JUMP JUMPDEST PUSH1 0x0 PUSH1 0x5 SWAP1 POP SWAP2 SWAP1 POP JUMP JUMPDEST PUSH1 0x0 DUP2 SWAP1 POP SWAP3 SWAP2 POP POP JUMP JUMPDEST PUSH1 0x0 DUP2 SWAP1 POP SWAP2 SWAP1 POP JUMP JUMPDEST PUSH1 0x0 PUSH1 0x2 SWAP1 POP SWAP2 SWAP1 POP JUMP JUMPDEST PUSH1 0x0 DUP2 SWAP1 POP SWAP3 SWAP2 POP POP JUMP JUMPDEST PUSH1 0x0 DUP2 SWAP1 POP SWAP2 SWAP1 POP JUMP JUMPDEST PUSH1 0x0 PUSH1 0x20 DUP3 ADD SWAP1 POP SWAP2 SWAP1 POP JUMP JUMPDEST PUSH2 0x3BD6 DUP2 PUSH2 0x3BA0 JUMP JUMPDEST PUSH2 0x3BE0 DUP2 DUP5 PUSH2 0x3BAB JUMP JUMPDEST SWAP3 POP PUSH2 0x3BEB DUP3 PUSH2 0x3BB6 JUMP JUMPDEST DUP1 PUSH1 0x0 JUMPDEST DUP4 DUP2 LT ISZERO PUSH2 0x3C1C JUMPI DUP2 MLOAD PUSH2 0x3C03 DUP8 DUP3 PUSH2 0x2FAA JUMP JUMPDEST SWAP7 POP PUSH2 0x3C0E DUP4 PUSH2 0x3BC0 JUMP JUMPDEST SWAP3 POP POP PUSH1 0x1 DUP2 ADD SWAP1 POP PUSH2 0x3BEF JUMP JUMPDEST POP POP POP POP POP POP JUMP JUMPDEST PUSH1 0x0 PUSH2 0x3C30 DUP4 DUP4 PUSH2 0x3BCD JUMP JUMPDEST PUSH2 0x180 DUP4 ADD SWAP1 POP SWAP3 SWAP2 POP POP JUMP JUMPDEST PUSH1 0x0 PUSH1 0x20 DUP3 ADD SWAP1 POP SWAP2 SWAP1 POP JUMP JUMPDEST PUSH2 0x3C53 DUP2 PUSH2 0x3B80 JUMP JUMPDEST PUSH2 0x3C5D DUP2 DUP5 PUSH2 0x3B8B JUMP JUMPDEST SWAP3 POP PUSH2 0x3C68 DUP3 PUSH2 0x3B96 JUMP JUMPDEST DUP1 PUSH1 0x0 JUMPDEST DUP4 DUP2 LT ISZERO PUSH2 0x3C99 JUMPI DUP2 MLOAD PUSH2 0x3C80 DUP8 DUP3 PUSH2 0x3C24 JUMP JUMPDEST SWAP7 POP PUSH2 0x3C8B DUP4 PUSH2 0x3C3D JUMP JUMPDEST SWAP3 POP POP PUSH1 0x1 DUP2 ADD SWAP1 POP PUSH2 0x3C6C JUMP JUMPDEST POP POP POP POP POP POP JUMP JUMPDEST PUSH2 0x29C0 DUP3 ADD PUSH1 0x0 DUP3 ADD MLOAD PUSH2 0x3CB8 PUSH1 0x0 DUP6 ADD DUP3 PUSH2 0x3AA5 JUMP JUMPDEST POP PUSH1 0x20 DUP3 ADD MLOAD PUSH2 0x3CCC PUSH2 0x21C0 DUP6 ADD DUP3 PUSH2 0x3B29 JUMP JUMPDEST POP PUSH1 0x40 DUP3 ADD MLOAD PUSH2 0x3CE0 PUSH2 0x2240 DUP6 ADD DUP3 PUSH2 0x3C4A JUMP JUMPDEST POP POP POP POP JUMP JUMPDEST PUSH1 0x0 PUSH2 0x29C0 DUP3 ADD SWAP1 POP PUSH2 0x3CFC PUSH1 0x0 DUP4 ADD DUP5 PUSH2 0x3CA1 JUMP JUMPDEST SWAP3 SWAP2 POP POP JUMP JUMPDEST PUSH32 0x4E487B7100000000000000000000000000000000000000000000000000000000 PUSH1 0x0 MSTORE PUSH1 0x32 PUSH1 0x4 MSTORE PUSH1 0x24 PUSH1 0x0 REVERT JUMPDEST PUSH32 0x4E487B7100000000000000000000000000000000000000000000000000000000 PUSH1 0x0 MSTORE PUSH1 0x11 PUSH1 0x4 MSTORE PUSH1 0x24 PUSH1 0x0 REVERT JUMPDEST PUSH1 0x0 PUSH2 0x3D6B DUP3 PUSH2 0x3162 JUMP JUMPDEST SWAP2 POP PUSH1 0xFF DUP3 EQ ISZERO PUSH2 0x3D7F JUMPI PUSH2 0x3D7E PUSH2 0x3D31 JUMP JUMPDEST JUMPDEST PUSH1 0x1 DUP3 ADD SWAP1 POP SWAP2 SWAP1 POP JUMP INVALID LOG2 PUSH5 0x6970667358 0x22 SLT KECCAK256 XOR LOG4 PUSH4 0xCAF57B28 PUSH8 0xFDCF1AC219485B7C SGT PUSH22 0x15F13C78684CD591CDC35AF5D96A64736F6C63430008 SIGNEXTEND STOP CALLER "
		},
		"gasEstimates": {
			"creation": {
				"codeDepositCost": "3161600",
				"executionCost": "3491",
				"totalCost": "3165091"
			},
			"external": {
				"getActorData(address)": "infinite",
				"getActorMaxHitPoint(address)": "2939",
				"getMapData(address)": "infinite",
				"getWorkshopData(address)": "infinite",
				"startGame()": "infinite"
			},
			"internal": {
				"initGame()": "infinite"
			}
		},
		"methodIdentifiers": {
			"getActorData(address)": "171cfb90",
			"getActorMaxHitPoint(address)": "70a60b36",
			"getMapData(address)": "deab2a17",
			"getWorkshopData(address)": "dabd2de1",
			"startGame()": "d65ab5f2"
		}
	},
	"abi": [
		{
			"inputs": [],
			"stateMutability": "nonpayable",
			"type": "constructor"
		},
		{
			"inputs": [
				{
					"internalType": "address",
					"name": "playerAddress",
					"type": "address"
				}
			],
			"name": "getActorData",
			"outputs": [
				{
					"components": [
						{
							"internalType": "bool[6][3]",
							"name": "artifactsStates",
							"type": "bool[6][3]"
						},
						{
							"internalType": "bool[6][3]",
							"name": "treasuresStates",
							"type": "bool[6][3]"
						},
						{
							"internalType": "bool[3][3]",
							"name": "toolsStates",
							"type": "bool[3][3]"
						},
						{
							"internalType": "int8",
							"name": "hitPoints",
							"type": "int8"
						},
						{
							"internalType": "uint8",
							"name": "maxHitPoint",
							"type": "uint8"
						},
						{
							"internalType": "bool",
							"name": "isInWorkshopOrOutdoor",
							"type": "bool"
						},
						{
							"internalType": "uint8",
							"name": "inRegionIndex",
							"type": "uint8"
						},
						{
							"internalType": "uint8",
							"name": "inBoxIndex",
							"type": "uint8"
						},
						{
							"internalType": "bool[22][3]",
							"name": "times",
							"type": "bool[22][3]"
						}
					],
					"internalType": "struct HydraEngine.Actor",
					"name": "",
					"type": "tuple"
				}
			],
			"stateMutability": "view",
			"type": "function"
		},
		{
			"inputs": [
				{
					"internalType": "address",
					"name": "playerAddress",
					"type": "address"
				}
			],
			"name": "getActorMaxHitPoint",
			"outputs": [
				{
					"internalType": "uint8",
					"name": "",
					"type": "uint8"
				}
			],
			"stateMutability": "view",
			"type": "function"
		},
		{
			"inputs": [
				{
					"internalType": "address",
					"name": "playerAddress",
					"type": "address"
				}
			],
			"name": "getMapData",
			"outputs": [
				{
					"components": [
						{
							"components": [
								{
									"internalType": "uint8[6][6]",
									"name": "boxes",
									"type": "uint8[6][6]"
								},
								{
									"internalType": "enum HydraEngine.Artifacts",
									"name": "artifact",
									"type": "uint8"
								},
								{
									"internalType": "enum HydraEngine.Components",
									"name": "component",
									"type": "uint8"
								},
								{
									"internalType": "enum HydraEngine.Treasures",
									"name": "treasure",
									"type": "uint8"
								},
								{
									"internalType": "uint8[6]",
									"name": "spentTimes",
									"type": "uint8[6]"
								}
							],
							"internalType": "struct HydraEngine.MapRegion[6]",
							"name": "regions",
							"type": "tuple[6]"
						},
						{
							"internalType": "uint8[4]",
							"name": "eventInRegions",
							"type": "uint8[4]"
						},
						{
							"internalType": "bool[6][2][5]",
							"name": "combatHitDices",
							"type": "bool[6][2][5]"
						}
					],
					"internalType": "struct HydraEngine.Map",
					"name": "",
					"type": "tuple"
				}
			],
			"stateMutability": "view",
			"type": "function"
		},
		{
			"inputs": [
				{
					"internalType": "address",
					"name": "playerAddress",
					"type": "address"
				}
			],
			"name": "getWorkshopData",
			"outputs": [
				{
					"components": [
						{
							"internalType": "uint8[16][6]",
							"name": "artifactFragments",
							"type": "uint8[16][6]"
						},
						{
							"internalType": "uint8[6]",
							"name": "artifactCheckValue",
							"type": "uint8[6]"
						},
						{
							"internalType": "uint8[10]",
							"name": "wastebasket",
							"type": "uint8[10]"
						},
						{
							"internalType": "uint256[6][6]",
							"name": "linkPaths",
							"type": "uint256[6][6]"
						},
						{
							"internalType": "enum HydraEngine.Components[6]",
							"name": "linkComponents",
							"type": "uint8[6]"
						}
					],
					"internalType": "struct HydraEngine.Workshop",
					"name": "",
					"type": "tuple"
				}
			],
			"stateMutability": "view",
			"type": "function"
		},
		{
			"inputs": [],
			"name": "startGame",
			"outputs": [],
			"stateMutability": "nonpayable",
			"type": "function"
		}
	]
}