{
  "contractName": "HydraEngine",
  "abi": [
    {
      "inputs": [],
      "stateMutability": "nonpayable",
      "type": "constructor"
    },
    {
      "inputs": [],
      "name": "startGame",
      "outputs": [],
      "stateMutability": "nonpayable",
      "type": "function"
    },
    {
      "inputs": [],
      "name": "reStartGame",
      "outputs": [],
      "stateMutability": "nonpayable",
      "type": "function"
    },
    {
      "inputs": [],
      "name": "allSpentTimes",
      "outputs": [
        {
          "internalType": "uint8[6][6]",
          "name": "",
          "type": "uint8[6][6]"
        }
      ],
      "stateMutability": "pure",
      "type": "function"
    },
    {
      "inputs": [],
      "name": "combatHitDices",
      "outputs": [
        {
          "internalType": "bool[6][2][5]",
          "name": "",
          "type": "bool[6][2][5]"
        }
      ],
      "stateMutability": "pure",
      "type": "function"
    },
    {
      "inputs": [],
      "name": "artifactCheckValue",
      "outputs": [
        {
          "internalType": "uint8[6]",
          "name": "",
          "type": "uint8[6]"
        }
      ],
      "stateMutability": "pure",
      "type": "function"
    },
    {
      "inputs": [],
      "name": "deathHitPoint",
      "outputs": [
        {
          "internalType": "int8",
          "name": "",
          "type": "int8"
        }
      ],
      "stateMutability": "pure",
      "type": "function"
    },
    {
      "inputs": [],
      "name": "eventdaysIndex",
      "outputs": [
        {
          "internalType": "uint8[7]",
          "name": "",
          "type": "uint8[7]"
        }
      ],
      "stateMutability": "pure",
      "type": "function"
    },
    {
      "inputs": [],
      "name": "doomsdayCountdown",
      "outputs": [
        {
          "internalType": "int8",
          "name": "",
          "type": "int8"
        }
      ],
      "stateMutability": "pure",
      "type": "function"
    },
    {
      "inputs": [
        {
          "internalType": "address",
          "name": "playerAddress",
          "type": "address"
        }
      ],
      "name": "getMapData",
      "outputs": [
        {
          "components": [
            {
              "internalType": "uint8[6][6][6]",
              "name": "regions",
              "type": "uint8[6][6][6]"
            },
            {
              "internalType": "uint8[4]",
              "name": "eventInRegions",
              "type": "uint8[4]"
            }
          ],
          "internalType": "struct HydraEngine.Map",
          "name": "",
          "type": "tuple"
        }
      ],
      "stateMutability": "view",
      "type": "function"
    },
    {
      "inputs": [
        {
          "internalType": "address",
          "name": "playerAddress",
          "type": "address"
        }
      ],
      "name": "getWorkshopData",
      "outputs": [
        {
          "components": [
            {
              "internalType": "uint8[16][6]",
              "name": "artifactFragments",
              "type": "uint8[16][6]"
            },
            {
              "internalType": "uint8[10]",
              "name": "wastebasket",
              "type": "uint8[10]"
            },
            {
              "internalType": "uint256[6][6]",
              "name": "linkPaths",
              "type": "uint256[6][6]"
            }
          ],
          "internalType": "struct HydraEngine.Workshop",
          "name": "",
          "type": "tuple"
        }
      ],
      "stateMutability": "view",
      "type": "function"
    },
    {
      "inputs": [
        {
          "internalType": "address",
          "name": "playerAddress",
          "type": "address"
        }
      ],
      "name": "getActorData",
      "outputs": [
        {
          "components": [
            {
              "internalType": "bool[6][3]",
              "name": "artifactsStates",
              "type": "bool[6][3]"
            },
            {
              "internalType": "bool[6][3]",
              "name": "treasuresStates",
              "type": "bool[6][3]"
            },
            {
              "internalType": "bool[3][3]",
              "name": "toolsStates",
              "type": "bool[3][3]"
            },
            {
              "internalType": "int8",
              "name": "hitPoints",
              "type": "int8"
            },
            {
              "internalType": "bool",
              "name": "isOutdoorOrInWorkshop",
              "type": "bool"
            },
            {
              "internalType": "uint8",
              "name": "inRegionIndex",
              "type": "uint8"
            },
            {
              "internalType": "uint8",
              "name": "inBoxIndex",
              "type": "uint8"
            },
            {
              "internalType": "bool[22]",
              "name": "spentFreedays",
              "type": "bool[22]"
            }
          ],
          "internalType": "struct HydraEngine.Actor",
          "name": "",
          "type": "tuple"
        }
      ],
      "stateMutability": "view",
      "type": "function"
    }
  ],
  "bytecode": "0x608060405234801561001057600080fd5b506132f6806100206000396000f3fe608060405234801561001057600080fd5b50600436106100a95760003560e01c8063d37d55ca11610071578063d37d55ca14610156578063d65ab5f214610160578063dabd2de11461016a578063deab2a171461019a578063e0786c18146101ca578063fb8a9a0c146101e8576100a9565b8063171cfb90146100ae578063267729d1146100de5780635ae0dda9146100fc5780639284b80f1461011a57806394fd5e9d14610138575b600080fd5b6100c860048036038101906100c39190612519565b610206565b6040516100d5919061291e565b60405180910390f35b6100e6610519565b6040516100f39190612a5b565b60405180910390f35b610104610a0d565b6040516101119190612a86565b60405180910390f35b610122610a16565b60405161012f9190612b3d565b60405180910390f35b610140610a68565b60405161014d9190612c56565b60405180910390f35b61015e610cc5565b005b610168610cd7565b005b610184600480360381019061017f9190612519565b610ce1565b6040516101919190612fad565b60405180910390f35b6101b460048036038101906101af9190612519565b610ec2565b6040516101c1919061317d565b60405180910390f35b6101d261105d565b6040516101df919061321d565b60405180910390f35b6101f06110b9565b6040516101fd9190612a86565b60405180910390f35b61020e6119aa565b600260008373ffffffffffffffffffffffffffffffffffffffff1673ffffffffffffffffffffffffffffffffffffffff1681526020019081526020016000206040518061010001604052908160008201600380602002604051908101604052809291906000905b828210156102f0578382016006806020026040519081016040528092919082600680156102dc576020028201916000905b82829054906101000a900460ff161515815260200190600101906020826000010492830192600103820291508084116102a65790505b505050505081526020019060010190610275565b50505050815260200160038201600380602002604051908101604052809291906000905b8282101561038f5783820160068060200260405190810160405280929190826006801561037b576020028201916000905b82829054906101000a900460ff161515815260200190600101906020826000010492830192600103820291508084116103455790505b505050505081526020019060010190610314565b50505050815260200160068201600380602002604051908101604052809291906000905b8282101561042e5783820160038060200260405190810160405280929190826003801561041a576020028201916000905b82829054906101000a900460ff161515815260200190600101906020826000010492830192600103820291508084116103e45790505b5050505050815260200190600101906103b3565b5050505081526020016009820160009054906101000a900460000b60000b60000b81526020016009820160019054906101000a900460ff161515151581526020016009820160029054906101000a900460ff1660ff1660ff1681526020016009820160039054906101000a900460ff1660ff1660ff168152602001600a8201601680602002604051908101604052809291908260168015610509576020028201916000905b82829054906101000a900460ff161515815260200190600101906020826000010492830192600103820291508084116104d35790505b5050505050815250509050919050565b610521611a11565b610529611a3e565b6040518060c00160405280600115151515815260200160001515151581526020016000151515158152602001600015151515815260200160001515151581526020016000151515158152508160006005811061058857610587613238565b5b60200201819052506040518060c0016040528060011515151581526020016000151515158152602001600015151515815260200160001515151581526020016000151515158152602001600015151515815250816001600581106105ef576105ee613238565b5b60200201819052506040518060c00160405280600115151515815260200160011515151581526020016000151515158152602001600015151515815260200160001515151581526020016000151515158152508160026005811061065657610655613238565b5b60200201819052506040518060c0016040528060011515151581526020016001151515158152602001600115151515815260200160001515151581526020016000151515158152602001600015151515815250816003600581106106bd576106bc613238565b5b60200201819052506040518060c00160405280600115151515815260200160011515151581526020016001151515158152602001600115151515815260200160001515151581526020016000151515158152508160046005811061072457610723613238565b5b6020020181905250610734611a3e565b6040518060c00160405280600015151515815260200160001515151581526020016000151515158152602001600015151515815260200160011515151581526020016001151515158152508160006005811061079357610792613238565b5b60200201819052506040518060c0016040528060001515151581526020016000151515158152602001600015151515815260200160001515151581526020016000151515158152602001600115151515815250816001600581106107fa576107f9613238565b5b60200201819052506040518060c00160405280600015151515815260200160001515151581526020016000151515158152602001600015151515815260200160001515151581526020016001151515158152508160026005811061086157610860613238565b5b60200201819052506040518060c0016040528060001515151581526020016000151515158152602001600015151515815260200160001515151581526020016000151515158152602001600115151515815250816003600581106108c8576108c7613238565b5b60200201819052506040518060c00160405280600015151515815260200160001515151581526020016000151515158152602001600015151515815260200160001515151581526020016001151515158152508160046005811061092f5761092e613238565b5b602002018190525061093f611a11565b60005b60058160ff161015610a0357838160ff166005811061096457610963613238565b5b6020020151828260ff166005811061097f5761097e613238565b5b602002015160006002811061099757610996613238565b5b6020020181905250828160ff16600581106109b5576109b4613238565b5b6020020151828260ff16600581106109d0576109cf613238565b5b60200201516001600281106109e8576109e7613238565b5b602002018190525080806109fb90613296565b915050610942565b5080935050505090565b60006008905090565b610a1e611a6b565b6040518060c00160405280600460ff168152602001600460ff168152602001600460ff168152602001600460ff168152602001600460ff168152602001600460ff16815250905090565b610a70611a8d565b610a78611a8d565b6040518060c00160405280600160ff168152602001600160ff168152602001600060ff168152602001600160ff168152602001600060ff168152602001600060ff1681525081600060068110610ad157610ad0613238565b5b60200201819052506040518060c00160405280600160ff168152602001600060ff168152602001600060ff168152602001600160ff168152602001600060ff168152602001600060ff1681525081600160068110610b3257610b31613238565b5b60200201819052506040518060c00160405280600160ff168152602001600060ff168152602001600160ff168152602001600060ff168152602001600160ff168152602001600060ff1681525081600260068110610b9357610b92613238565b5b60200201819052506040518060c00160405280600160ff168152602001600160ff168152602001600060ff168152602001600160ff168152602001600060ff168152602001600060ff1681525081600360068110610bf457610bf3613238565b5b60200201819052506040518060c00160405280600160ff168152602001600060ff168152602001600160ff168152602001600060ff168152602001600160ff168152602001600060ff1681525081600460068110610c5557610c54613238565b5b60200201819052506040518060c00160405280600160ff168152602001600160ff168152602001600160ff168152602001600060ff168152602001600160ff168152602001600060ff1681525081600560068110610cb657610cb5613238565b5b60200201819052508091505090565b610ccd6110e1565b610cd56110e3565b565b610cdf6110e1565b565b610ce9611aba565b600160008373ffffffffffffffffffffffffffffffffffffffff1673ffffffffffffffffffffffffffffffffffffffff16815260200190815260200160002060405180606001604052908160008201600680602002604051908101604052809291906000905b82821015610dcb57838201601080602002604051908101604052809291908260108015610db7576020028201916000905b82829054906101000a900460ff1660ff1681526020019060010190602082600001049283019260010382029150808411610d805790505b505050505081526020019060010190610d4f565b50505050815260200160068201600a806020026040519081016040528092919082600a8015610e35576020028201916000905b82829054906101000a900460ff1660ff1681526020019060010190602082600001049283019260010382029150808411610dfe5790505b5050505050815260200160078201600680602002604051908101604052809291906000905b82821015610eb357838260060201600680602002604051908101604052809291908260068015610e9f576020028201915b815481526020019060010190808311610e8b575b505050505081526020019060010190610e5a565b50505050815250509050919050565b610eca611aed565b6000808373ffffffffffffffffffffffffffffffffffffffff1673ffffffffffffffffffffffffffffffffffffffff16815260200190815260200160002060405180604001604052908160008201600680602002604051908101604052809291906000905b82821015610fe357838260060201600680602002604051908101604052809291906000905b82821015610fd057838201600680602002604051908101604052809291908260068015610fbc576020028201916000905b82829054906101000a900460ff1660ff1681526020019060010190602082600001049283019260010382029150808411610f855790505b505050505081526020019060010190610f54565b5050505081526020019060010190610f2f565b5050505081526020016024820160048060200260405190810160405280929190826004801561104d576020028201916000905b82829054906101000a900460ff1660ff16815260200190600101906020826000010492830192600103820291508084116110165790505b5050505050815250509050919050565b611065611b13565b6040518060e00160405280600160ff168152602001600460ff168152602001600760ff168152602001600a60ff168152602001600d60ff168152602001601060ff168152602001601360ff16815250905090565b60007ffffffffffffffffffffffffffffffffffffffffffffffffffffffffffffffffa905090565b565b6110eb611b35565b60005b60068160ff1610156111b05760005b60068160ff16101561119c5760005b60068160ff161015611188576000848460ff16600681106111305761112f613238565b5b60200201518360ff166006811061114a57611149613238565b5b60200201518260ff166006811061116457611163613238565b5b602002019060ff16908160ff1681525050808061118090613296565b91505061110c565b50808061119490613296565b9150506110fd565b5080806111a890613296565b9150506110ee565b50806000803373ffffffffffffffffffffffffffffffffffffffff1673ffffffffffffffffffffffffffffffffffffffff168152602001908152602001600020600001906006611201929190611b62565b506040518060800160405280600060ff168152602001600060ff168152602001600060ff168152602001600060ff168152506000803373ffffffffffffffffffffffffffffffffffffffff1673ffffffffffffffffffffffffffffffffffffffff168152602001908152602001600020602401906004611282929190611bb2565b5061128b611c4c565b60005b60068160ff1610156113135760005b60108160ff1610156112ff576000838360ff16600681106112c1576112c0613238565b5b60200201518260ff16601081106112db576112da613238565b5b602002019060ff16908160ff168152505080806112f790613296565b91505061129d565b50808061130b90613296565b91505061128e565b5080600160003373ffffffffffffffffffffffffffffffffffffffff1673ffffffffffffffffffffffffffffffffffffffff168152602001908152602001600020600001906006611365929190611c79565b5061136e611cc7565b60005b600a8160ff1610156113b9576000828260ff16600a811061139557611394613238565b5b602002019060ff16908160ff168152505080806113b190613296565b915050611371565b5080600160003373ffffffffffffffffffffffffffffffffffffffff1673ffffffffffffffffffffffffffffffffffffffff16815260200190815260200160002060060190600a61140b929190611cea565b50611414611d84565b60005b60068160ff1610156114945760005b60068160ff161015611480576000838360ff166006811061144a57611449613238565b5b60200201518260ff166006811061146457611463613238565b5b602002018181525050808061147890613296565b915050611426565b50808061148c90613296565b915050611417565b5080600160003373ffffffffffffffffffffffffffffffffffffffff1673ffffffffffffffffffffffffffffffffffffffff1681526020019081526020016000206007019060066114e6929190611db1565b506114ef611e01565b60005b60038160ff1610156115755760005b60068160ff161015611561576000838360ff166003811061152557611524613238565b5b60200201518260ff166006811061153f5761153e613238565b5b602002019015159081151581525050808061155990613296565b915050611501565b50808061156d90613296565b9150506114f2565b5080600260003373ffffffffffffffffffffffffffffffffffffffff1673ffffffffffffffffffffffffffffffffffffffff1681526020019081526020016000206000019060036115c7929190611e2e565b506115d0611e01565b60005b60038160ff1610156116565760005b60068160ff161015611642576000838360ff166003811061160657611605613238565b5b60200201518260ff16600681106116205761161f613238565b5b602002019015159081151581525050808061163a90613296565b9150506115e2565b50808061164e90613296565b9150506115d3565b5080600260003373ffffffffffffffffffffffffffffffffffffffff1673ffffffffffffffffffffffffffffffffffffffff1681526020019081526020016000206003019060036116a8929190611e2e565b506116b1611e7c565b60005b60038160ff1610156117375760005b60038160ff161015611723576000838360ff16600381106116e7576116e6613238565b5b60200201518260ff166003811061170157611700613238565b5b602002019015159081151581525050808061171b90613296565b9150506116c3565b50808061172f90613296565b9150506116b4565b5080600260003373ffffffffffffffffffffffffffffffffffffffff1673ffffffffffffffffffffffffffffffffffffffff168152602001908152602001600020600601906003611789929190611ea9565b506000600260003373ffffffffffffffffffffffffffffffffffffffff1673ffffffffffffffffffffffffffffffffffffffff16815260200190815260200160002060090160006101000a81548160ff021916908360000b60ff1602179055506000600260003373ffffffffffffffffffffffffffffffffffffffff1673ffffffffffffffffffffffffffffffffffffffff16815260200190815260200160002060090160016101000a81548160ff0219169083151502179055506000600260003373ffffffffffffffffffffffffffffffffffffffff1673ffffffffffffffffffffffffffffffffffffffff16815260200190815260200160002060090160026101000a81548160ff021916908360ff1602179055506000600260003373ffffffffffffffffffffffffffffffffffffffff1673ffffffffffffffffffffffffffffffffffffffff16815260200190815260200160002060090160036101000a81548160ff021916908360ff160217905550611904611ef7565b60005b60168160ff16101561194d576000828260ff166016811061192b5761192a613238565b5b602002019015159081151581525050808061194590613296565b915050611907565b5080600260003373ffffffffffffffffffffffffffffffffffffffff1673ffffffffffffffffffffffffffffffffffffffff168152602001908152602001600020600a0190601661199f929190611f1a565b505050505050505050565b6040518061010001604052806119be611e01565b81526020016119cb611e01565b81526020016119d8611e7c565b81526020016000800b8152602001600015158152602001600060ff168152602001600060ff168152602001611a0b611ef7565b81525090565b6040518060a001604052806005905b611a28611fb3565b815260200190600190039081611a205790505090565b6040518060a001604052806005905b611a55611fe0565b815260200190600190039081611a4d5790505090565b6040518060c00160405280600690602082028036833780820191505090505090565b6040518060c001604052806006905b611aa4611a6b565b815260200190600190039081611a9c5790505090565b6040518060600160405280611acd611c4c565b8152602001611ada611cc7565b8152602001611ae7611d84565b81525090565b6040518060400160405280611b00611b35565b8152602001611b0d612002565b81525090565b6040518060e00160405280600790602082028036833780820191505090505090565b6040518060c001604052806006905b611b4c611a8d565b815260200190600190039081611b445790505090565b82600680028101928215611ba1579160200282015b82811115611ba057825182906006611b90929190612024565b5091602001919060060190611b77565b5b509050611bae9190612072565b5090565b826004601f01602090048101928215611c3b5791602002820160005b83821115611c0c57835183826101000a81548160ff021916908360ff1602179055509260200192600101602081600001049283019260010302611bce565b8015611c395782816101000a81549060ff0219169055600101602081600001049283019260010302611c0c565b505b509050611c489190612096565b5090565b6040518060c001604052806006905b611c636120b3565b815260200190600190039081611c5b5790505090565b8260068101928215611cb6579160200282015b82811115611cb557825182906010611ca59291906120d6565b5091602001919060010190611c8c565b5b509050611cc39190612170565b5090565b604051806101400160405280600a90602082028036833780820191505090505090565b82600a601f01602090048101928215611d735791602002820160005b83821115611d4457835183826101000a81548160ff021916908360ff1602179055509260200192600101602081600001049283019260010302611d06565b8015611d715782816101000a81549060ff0219169055600101602081600001049283019260010302611d44565b505b509050611d809190612096565b5090565b6040518060c001604052806006905b611d9b612194565b815260200190600190039081611d935790505090565b82600680028101928215611df0579160200282015b82811115611def57825182906006611ddf9291906121b6565b5091602001919060060190611dc6565b5b509050611dfd91906121f6565b5090565b60405180606001604052806003905b611e18611fe0565b815260200190600190039081611e105790505090565b8260038101928215611e6b579160200282015b82811115611e6a57825182906006611e5a92919061221a565b5091602001919060010190611e41565b5b509050611e7891906122b3565b5090565b60405180606001604052806003905b611e936122d7565b815260200190600190039081611e8b5790505090565b8260038101928215611ee6579160200282015b82811115611ee557825182906003611ed59291906122f9565b5091602001919060010190611ebc565b5b509050611ef39190612392565b5090565b604051806102c00160405280601690602082028036833780820191505090505090565b826016601f01602090048101928215611fa25791602002820160005b83821115611f7357835183826101000a81548160ff0219169083151502179055509260200192600101602081600001049283019260010302611f36565b8015611fa05782816101000a81549060ff0219169055600101602081600001049283019260010302611f73565b505b509050611faf9190612096565b5090565b60405180604001604052806002905b611fca611fe0565b815260200190600190039081611fc25790505090565b6040518060c00160405280600690602082028036833780820191505090505090565b6040518060800160405280600490602082028036833780820191505090505090565b8260068101928215612061579160200282015b82811115612060578251829060066120509291906123b6565b5091602001919060010190612037565b5b50905061206e9190612450565b5090565b5b8082111561209257600081816120899190612474565b50600601612073565b5090565b5b808211156120af576000816000905550600101612097565b5090565b604051806102000160405280601090602082028036833780820191505090505090565b826010601f0160209004810192821561215f5791602002820160005b8382111561213057835183826101000a81548160ff021916908360ff16021790555092602001926001016020816000010492830192600103026120f2565b801561215d5782816101000a81549060ff0219169055600101602081600001049283019260010302612130565b505b50905061216c9190612096565b5090565b5b8082111561219057600081816121879190612487565b50600101612171565b5090565b6040518060c00160405280600690602082028036833780820191505090505090565b82600681019282156121e5579160200282015b828111156121e45782518255916020019190600101906121c9565b5b5090506121f29190612096565b5090565b5b80821115612216576000818161220d919061248e565b506006016121f7565b5090565b826006601f016020900481019282156122a25791602002820160005b8382111561227357835183826101000a81548160ff0219169083151502179055509260200192600101602081600001049283019260010302612236565b80156122a05782816101000a81549060ff0219169055600101602081600001049283019260010302612273565b505b5090506122af9190612096565b5090565b5b808211156122d357600081816122ca91906124a1565b506001016122b4565b5090565b6040518060600160405280600390602082028036833780820191505090505090565b826003601f016020900481019282156123815791602002820160005b8382111561235257835183826101000a81548160ff0219169083151502179055509260200192600101602081600001049283019260010302612315565b801561237f5782816101000a81549060ff0219169055600101602081600001049283019260010302612352565b505b50905061238e9190612096565b5090565b5b808211156123b257600081816123a991906124a8565b50600101612393565b5090565b826006601f0160209004810192821561243f5791602002820160005b8382111561241057835183826101000a81548160ff021916908360ff16021790555092602001926001016020816000010492830192600103026123d2565b801561243d5782816101000a81549060ff0219169055600101602081600001049283019260010302612410565b505b50905061244c9190612096565b5090565b5b80821115612470576000818161246791906124af565b50600101612451565b5090565b5080600601906124849190612450565b50565b5060009055565b50806006019061249e9190612096565b50565b5060009055565b5060009055565b5060009055565b600080fd5b600073ffffffffffffffffffffffffffffffffffffffff82169050919050565b60006124e6826124bb565b9050919050565b6124f6816124db565b811461250157600080fd5b50565b600081359050612513816124ed565b92915050565b60006020828403121561252f5761252e6124b6565b5b600061253d84828501612504565b91505092915050565b600060039050919050565b600081905092915050565b6000819050919050565b600060069050919050565b600081905092915050565b6000819050919050565b60008115159050919050565b61259b81612586565b82525050565b60006125ad8383612592565b60208301905092915050565b6000602082019050919050565b6125cf81612566565b6125d98184612571565b92506125e48261257c565b8060005b838110156126155781516125fc87826125a1565b9650612607836125b9565b9250506001810190506125e8565b505050505050565b600061262983836125c6565b60c08301905092915050565b6000602082019050919050565b61264b81612546565b6126558184612551565b92506126608261255c565b8060005b83811015612691578151612678878261261d565b965061268383612635565b925050600181019050612664565b505050505050565b600060039050919050565b600081905092915050565b6000819050919050565b600060039050919050565b600081905092915050565b6000819050919050565b6000602082019050919050565b6126ef816126b9565b6126f981846126c4565b9250612704826126cf565b8060005b8381101561273557815161271c87826125a1565b9650612727836126d9565b925050600181019050612708565b505050505050565b600061274983836126e6565b60608301905092915050565b6000602082019050919050565b61276b81612699565b61277581846126a4565b9250612780826126af565b8060005b838110156127b1578151612798878261273d565b96506127a383612755565b925050600181019050612784565b505050505050565b60008160000b9050919050565b6127cf816127b9565b82525050565b600060ff82169050919050565b6127eb816127d5565b82525050565b600060169050919050565b600081905092915050565b6000819050919050565b6000602082019050919050565b612827816127f1565b61283181846127fc565b925061283c82612807565b8060005b8381101561286d57815161285487826125a1565b965061285f83612811565b925050600181019050612840565b505050505050565b6108e08201600082015161288c6000850182612642565b5060208201516128a0610240850182612642565b5060408201516128b4610480850182612762565b5060608201516128c86105a08501826127c6565b5060808201516128dc6105c0850182612592565b5060a08201516128f06105e08501826127e2565b5060c08201516129046106008501826127e2565b5060e082015161291861062085018261281e565b50505050565b60006108e0820190506129346000830184612875565b92915050565b600060059050919050565b600081905092915050565b6000819050919050565b600060029050919050565b600081905092915050565b6000819050919050565b6000602082019050919050565b6129908161295a565b61299a8184612965565b92506129a582612970565b8060005b838110156129d65781516129bd878261261d565b96506129c88361297a565b9250506001810190506129a9565b505050505050565b60006129ea8383612987565b6101808301905092915050565b6000602082019050919050565b612a0d8161293a565b612a178184612945565b9250612a2282612950565b8060005b83811015612a53578151612a3a87826129de565b9650612a45836129f7565b925050600181019050612a26565b505050505050565b600061078082019050612a716000830184612a04565b92915050565b612a80816127b9565b82525050565b6000602082019050612a9b6000830184612a77565b92915050565b600060069050919050565b600081905092915050565b6000819050919050565b6000612acd83836127e2565b60208301905092915050565b6000602082019050919050565b612aef81612aa1565b612af98184612aac565b9250612b0482612ab7565b8060005b83811015612b35578151612b1c8782612ac1565b9650612b2783612ad9565b925050600181019050612b08565b505050505050565b600060c082019050612b526000830184612ae6565b92915050565b600060069050919050565b600081905092915050565b6000819050919050565b600081905092915050565b612b8c81612aa1565b612b968184612b78565b9250612ba182612ab7565b8060005b83811015612bd2578151612bb98782612ac1565b9650612bc483612ad9565b925050600181019050612ba5565b505050505050565b6000612be68383612b83565b60c08301905092915050565b6000602082019050919050565b612c0881612b58565b612c128184612b63565b9250612c1d82612b6e565b8060005b83811015612c4e578151612c358782612bda565b9650612c4083612bf2565b925050600181019050612c21565b505050505050565b600061048082019050612c6c6000830184612bff565b92915050565b600060069050919050565b600081905092915050565b6000819050919050565b600060109050919050565b600081905092915050565b6000819050919050565b6000602082019050919050565b612cc881612c92565b612cd28184612c9d565b9250612cdd82612ca8565b8060005b83811015612d0e578151612cf58782612ac1565b9650612d0083612cb2565b925050600181019050612ce1565b505050505050565b6000612d228383612cbf565b6102008301905092915050565b6000602082019050919050565b612d4581612c72565b612d4f8184612c7d565b9250612d5a82612c88565b8060005b83811015612d8b578151612d728782612d16565b9650612d7d83612d2f565b925050600181019050612d5e565b505050505050565b6000600a9050919050565b600081905092915050565b6000819050919050565b6000602082019050919050565b612dc981612d93565b612dd38184612d9e565b9250612dde82612da9565b8060005b83811015612e0f578151612df68782612ac1565b9650612e0183612db3565b925050600181019050612de2565b505050505050565b600060069050919050565b600081905092915050565b6000819050919050565b600060069050919050565b600081905092915050565b6000819050919050565b6000819050919050565b612e6a81612e57565b82525050565b6000612e7c8383612e61565b60208301905092915050565b6000602082019050919050565b612e9e81612e37565b612ea88184612e42565b9250612eb382612e4d565b8060005b83811015612ee4578151612ecb8782612e70565b9650612ed683612e88565b925050600181019050612eb7565b505050505050565b6000612ef88383612e95565b60c08301905092915050565b6000602082019050919050565b612f1a81612e17565b612f248184612e22565b9250612f2f82612e2d565b8060005b83811015612f60578151612f478782612eec565b9650612f5283612f04565b925050600181019050612f33565b505050505050565b6111c082016000820151612f7f6000850182612d3c565b506020820151612f93610c00850182612dc0565b506040820151612fa7610d40850182612f11565b50505050565b60006111c082019050612fc36000830184612f68565b92915050565b600060069050919050565b600081905092915050565b6000819050919050565b600081905092915050565b612ffd81612b58565b6130078184612fe9565b925061301282612b6e565b8060005b8381101561304357815161302a8782612bda565b965061303583612bf2565b925050600181019050613016565b505050505050565b60006130578383612ff4565b6104808301905092915050565b6000602082019050919050565b61307a81612fc9565b6130848184612fd4565b925061308f82612fdf565b8060005b838110156130c05781516130a7878261304b565b96506130b283613064565b925050600181019050613093565b505050505050565b600060049050919050565b600081905092915050565b6000819050919050565b6000602082019050919050565b6130fe816130c8565b61310881846130d3565b9250613113826130de565b8060005b8381101561314457815161312b8782612ac1565b9650613136836130e8565b925050600181019050613117565b505050505050565b611b80820160008201516131636000850182613071565b506020820151613177611b008501826130f5565b50505050565b6000611b8082019050613193600083018461314c565b92915050565b600060079050919050565b600081905092915050565b6000819050919050565b6000602082019050919050565b6131cf81613199565b6131d981846131a4565b92506131e4826131af565b8060005b838110156132155781516131fc8782612ac1565b9650613207836131b9565b9250506001810190506131e8565b505050505050565b600060e08201905061323260008301846131c6565b92915050565b7f4e487b7100000000000000000000000000000000000000000000000000000000600052603260045260246000fd5b7f4e487b7100000000000000000000000000000000000000000000000000000000600052601160045260246000fd5b60006132a1826127d5565b915060ff8214156132b5576132b4613267565b5b60018201905091905056fea26469706673582212200a9eed2beb1cb5f3545b0dfbc3fdf75b6b836b2bc74097865d659fb5de20fcd464736f6c634300080b0033",
  "immutableReferences": {},
  "source": "// SPDX-License-Identifier: MIT\npragma solidity 0.8.11;\n\ncontract HydraEngine {\n  enum Artifacts {artifactQ, artifactW, artifactE, artifactR, artifactT, artifactY}\n  enum Components {componentA, componentS, componentD, componentF, componentG, componentH}\n  enum Treasures {treasureZ, treasureX, treasureC, treasureV, treasureB, treasureN}\n  enum Tools {toolJ, toolK, toolL}\n\n  struct Map {\n    uint8[6][6][6] regions;\n    uint8[4] eventInRegions;\n  }\n\n  struct Workshop {\n    uint8[16][6] artifactFragments;\n    uint8[10] wastebasket;\n    uint[6][6] linkPaths;\n  }\n\n  struct Actor {\n    // 3[0]->favorited; 3[1]->activated; 3[2]->used\n    bool[6][3] artifactsStates;\n    bool[6][3] treasuresStates;\n    bool[3][3] toolsStates;\n    int8 hitPoints;\n    bool isOutdoorOrInWorkshop;\n    uint8 inRegionIndex;\n    uint8 inBoxIndex;\n    bool[22] spentFreedays;\n  }\n\n  mapping(address => Map) private mapOfAllPlayers; // player address => map data\n  mapping(address => Workshop) private workshopOfAllPlayers; // player address => workshop data\n  mapping(address => Actor) private actorOfAllPlayers; // player address => actor data\n\n  constructor() {\n\n  }\n  \n  // start or restart game.\n  function startGame() external {\n    initGame();\n  }\n\n  function reStartGame() external {\n    initGame();\n    reloadGameData();\n  }\n\n  function initGame() private {\n\n  }\n\n  function reloadGameData() private {\n    // raload Map - regions\n    uint8[6][6][6] memory regions;\n    for(uint8 i = 0; i < 6; i++) {\n      for(uint8 j = 0; j < 6; j++) {\n        for(uint8 k = 0; k < 6; k++) {\n          regions[i][j][k] = 0;\n        }\n      }\n    }\n    mapOfAllPlayers[msg.sender].regions = regions;\n    // reload Map - eventInRegions\n    mapOfAllPlayers[msg.sender].eventInRegions = [0, 0, 0, 0];\n    // reload Workshop - artifactFragments\n    uint8[16][6] memory artifactFragments;\n    for(uint8 j = 0; j < 6; j++) {\n      for(uint8 k = 0; k < 16; k++) {\n        artifactFragments[j][k] = 0;\n      }\n    }\n    workshopOfAllPlayers[msg.sender].artifactFragments = artifactFragments;\n    // reload Workshop - wastebasket\n    uint8[10] memory wastebasket;\n    for(uint8 i = 0; i < 10; i++) {\n      wastebasket[i] = 0;\n    }\n    workshopOfAllPlayers[msg.sender].wastebasket = wastebasket;\n    // reload Workshop - linkPaths\n    uint[6][6] memory linkPaths;\n    for(uint8 j = 0; j < 6; j++) {\n      for(uint8 k = 0; k < 6; k++) {\n        linkPaths[j][k] = 0;\n      }\n    }\n    workshopOfAllPlayers[msg.sender].linkPaths = linkPaths;\n    // reload Actor - artifacts treasures tools states\n    bool[6][3] memory artifactsStates;\n    for(uint8 j = 0; j < 3; j++) {\n      for(uint8 k = 0; k < 6; k++) {\n        artifactsStates[j][k] = false;\n      }\n    }\n    actorOfAllPlayers[msg.sender].artifactsStates = artifactsStates;\n\n    bool[6][3] memory treasuresStates;\n    for(uint8 j = 0; j < 3; j++) {\n      for(uint8 k = 0; k < 6; k++) {\n        treasuresStates[j][k] = false;\n      }\n    }\n    actorOfAllPlayers[msg.sender].treasuresStates = treasuresStates;\n\n    bool[3][3] memory toolsStates;\n    for(uint8 j = 0; j < 3; j++) {\n      for(uint8 k = 0; k < 3; k++) {\n        toolsStates[j][k] = false;\n      }\n    }\n    actorOfAllPlayers[msg.sender].toolsStates = toolsStates;\n    // reload Actor - hitPoints\n    actorOfAllPlayers[msg.sender].hitPoints = 0;\n    // reload Actor - location\n    actorOfAllPlayers[msg.sender].isOutdoorOrInWorkshop = false;\n    actorOfAllPlayers[msg.sender].inRegionIndex = 0;\n    actorOfAllPlayers[msg.sender].inBoxIndex = 0;\n    // reload spentFreedays\n    bool[22] memory spentFreedays;\n    for(uint8 i = 0; i < 22; i++) {\n      spentFreedays[i] = false;\n    }\n    actorOfAllPlayers[msg.sender].spentFreedays = spentFreedays;\n  }\n\n  function allSpentTimes() public pure returns (uint8[6][6] memory) {\n    uint8[6][6] memory _allSpentTimes;\n    _allSpentTimes[0] = [1, 1, 0, 1, 0, 0];\n    _allSpentTimes[1] = [1, 0, 0, 1, 0, 0];\n    _allSpentTimes[2] = [1, 0, 1, 0, 1, 0];\n    _allSpentTimes[3] = [1, 1, 0, 1, 0, 0];\n    _allSpentTimes[4] = [1, 0, 1, 0, 1, 0];\n    _allSpentTimes[5] = [1, 1, 1, 0, 1, 0];\n    return _allSpentTimes;\n  }\n\n  // [6]true->hit; 2[0]->ragdoll / 2[1]->actor; 5->Lvl\n  function combatHitDices() public pure returns (bool[6][2][5] memory) {\n    bool[6][5] memory ragdollHitDices;\n    ragdollHitDices[0] = [true, false, false, false, false, false];\n    ragdollHitDices[1] = [true, false, false, false, false, false];\n    ragdollHitDices[2] = [true, true, false, false, false, false];\n    ragdollHitDices[3] = [true, true, true, false, false, false];\n    ragdollHitDices[4] = [true, true, true, true, false, false];\n\n    bool[6][5] memory actorHitDices;\n    actorHitDices[0] = [false, false, false, false, true, true];\n    actorHitDices[1] = [false, false, false, false, false, true];\n    actorHitDices[2] = [false, false, false, false, false, true];\n    actorHitDices[3] = [false, false, false, false, false, true];\n    actorHitDices[4] = [false, false, false, false, false, true];\n\n    bool[6][2][5] memory _CombatHitDices;\n    for(uint8 i = 0; i < 5; i++) {\n      _CombatHitDices[i][0] = ragdollHitDices[i];\n      _CombatHitDices[i][1] = actorHitDices[i];\n    }\n    return _CombatHitDices;\n  }\n\n  function artifactCheckValue() public pure returns (uint8[6] memory) {\n    return [4, 4, 4, 4, 4, 4];\n  }\n\n  function deathHitPoint() public pure returns (int8) {\n    return -6;\n  }\n\n  function eventdaysIndex() public pure returns (uint8[7] memory) {\n    return [1, 4, 7, 10, 13, 16, 19];\n  }\n\n  function doomsdayCountdown() public pure returns (int8) {\n    return 8;\n  }\n\n  function getMapData(address playerAddress) external view returns (Map memory) {\n    return mapOfAllPlayers[playerAddress];\n  }\n\n  function getWorkshopData(address playerAddress) external view returns (Workshop memory) {\n    return workshopOfAllPlayers[playerAddress];\n  }\n\n  function getActorData(address playerAddress) external view returns (Actor memory) {\n    return actorOfAllPlayers[playerAddress];\n  }\n\n}",
  "sourcePath": "/Users/karl/Documents/wubantu/Hydra-contract-truffle/contracts/HydraEngine.sol",
  "compiler": {
    "name": "solc",
    "version": "0.8.11+commit.d7f03943.Emscripten.clang"
  },
  "schemaVersion": "3.4.4",
  "updatedAt": "2022-01-16T06:46:44.365Z",
  "devdoc": {
    "kind": "dev",
    "methods": {},
    "version": 1
  },
  "userdoc": {
    "kind": "user",
    "methods": {},
    "version": 1
  }
}