{
  "contractName": "HydraEngine",
  "abi": [
    {
      "inputs": [],
      "stateMutability": "nonpayable",
      "type": "constructor"
    },
    {
      "inputs": [
        {
          "internalType": "uint32[]",
          "name": "arrayA",
          "type": "uint32[]"
        },
        {
          "internalType": "uint32[]",
          "name": "arrayB",
          "type": "uint32[]"
        }
      ],
      "name": "combination",
      "outputs": [
        {
          "internalType": "uint32[]",
          "name": "",
          "type": "uint32[]"
        }
      ],
      "stateMutability": "pure",
      "type": "function"
    },
    {
      "inputs": [
        {
          "internalType": "uint256",
          "name": "randomValue",
          "type": "uint256"
        }
      ],
      "name": "mockRandomNumbers",
      "outputs": [
        {
          "internalType": "uint8[2]",
          "name": "randomNumbers",
          "type": "uint8[2]"
        }
      ],
      "stateMutability": "view",
      "type": "function"
    },
    {
      "inputs": [],
      "name": "startGame",
      "outputs": [],
      "stateMutability": "nonpayable",
      "type": "function"
    },
    {
      "inputs": [],
      "name": "reStartGame",
      "outputs": [],
      "stateMutability": "nonpayable",
      "type": "function"
    },
    {
      "inputs": [],
      "name": "allSpentTimes",
      "outputs": [
        {
          "internalType": "uint8[6][6]",
          "name": "",
          "type": "uint8[6][6]"
        }
      ],
      "stateMutability": "pure",
      "type": "function"
    },
    {
      "inputs": [],
      "name": "combatHitDices",
      "outputs": [
        {
          "internalType": "bool[6][2][5]",
          "name": "",
          "type": "bool[6][2][5]"
        }
      ],
      "stateMutability": "pure",
      "type": "function"
    },
    {
      "inputs": [],
      "name": "artifactCheckValue",
      "outputs": [
        {
          "internalType": "uint8[6]",
          "name": "",
          "type": "uint8[6]"
        }
      ],
      "stateMutability": "pure",
      "type": "function"
    },
    {
      "inputs": [],
      "name": "deathHitPoint",
      "outputs": [
        {
          "internalType": "int8",
          "name": "",
          "type": "int8"
        }
      ],
      "stateMutability": "pure",
      "type": "function"
    },
    {
      "inputs": [],
      "name": "eventdaysIndex",
      "outputs": [
        {
          "internalType": "uint8[7]",
          "name": "",
          "type": "uint8[7]"
        }
      ],
      "stateMutability": "pure",
      "type": "function"
    },
    {
      "inputs": [],
      "name": "doomsdayCountdown",
      "outputs": [
        {
          "internalType": "uint8",
          "name": "",
          "type": "uint8"
        }
      ],
      "stateMutability": "pure",
      "type": "function"
    },
    {
      "inputs": [
        {
          "internalType": "address",
          "name": "playerAddress",
          "type": "address"
        }
      ],
      "name": "mapOfAllPlayers",
      "outputs": [
        {
          "components": [
            {
              "internalType": "uint8[6][6][6]",
              "name": "regions",
              "type": "uint8[6][6][6]"
            },
            {
              "internalType": "uint8[4]",
              "name": "eventInRegions",
              "type": "uint8[4]"
            }
          ],
          "internalType": "struct HydraEngine.Map",
          "name": "",
          "type": "tuple"
        }
      ],
      "stateMutability": "view",
      "type": "function"
    },
    {
      "inputs": [
        {
          "internalType": "address",
          "name": "playerAddress",
          "type": "address"
        }
      ],
      "name": "workshopOfAllPlayers",
      "outputs": [
        {
          "components": [
            {
              "internalType": "uint8[16][6]",
              "name": "artifactFragments",
              "type": "uint8[16][6]"
            },
            {
              "internalType": "uint8[10]",
              "name": "wastebasket",
              "type": "uint8[10]"
            },
            {
              "internalType": "uint256[6][6]",
              "name": "linkPaths",
              "type": "uint256[6][6]"
            }
          ],
          "internalType": "struct HydraEngine.Workshop",
          "name": "",
          "type": "tuple"
        }
      ],
      "stateMutability": "view",
      "type": "function"
    },
    {
      "inputs": [
        {
          "internalType": "address",
          "name": "playerAddress",
          "type": "address"
        }
      ],
      "name": "actorOfAllPlayers",
      "outputs": [
        {
          "components": [
            {
              "internalType": "bool[6][3]",
              "name": "artifactsStates",
              "type": "bool[6][3]"
            },
            {
              "internalType": "bool[6][3]",
              "name": "treasuresStates",
              "type": "bool[6][3]"
            },
            {
              "internalType": "bool[3][3]",
              "name": "toolsStates",
              "type": "bool[3][3]"
            },
            {
              "internalType": "int8",
              "name": "hitPoints",
              "type": "int8"
            },
            {
              "internalType": "bool",
              "name": "isOutdoorOrInWorkshop",
              "type": "bool"
            },
            {
              "internalType": "uint8[2]",
              "name": "inMapIndex",
              "type": "uint8[2]"
            }
          ],
          "internalType": "struct HydraEngine.Actor",
          "name": "",
          "type": "tuple"
        }
      ],
      "stateMutability": "view",
      "type": "function"
    },
    {
      "inputs": [
        {
          "internalType": "address",
          "name": "playerAddress",
          "type": "address"
        }
      ],
      "name": "timeTrackOfAllPlayers",
      "outputs": [
        {
          "components": [
            {
              "internalType": "uint8",
              "name": "spentFreedays",
              "type": "uint8"
            },
            {
              "internalType": "uint8",
              "name": "handOfGodEnergy",
              "type": "uint8"
            },
            {
              "internalType": "uint8",
              "name": "delayedDoomsday",
              "type": "uint8"
            }
          ],
          "internalType": "struct HydraEngine.TimeTrack",
          "name": "",
          "type": "tuple"
        }
      ],
      "stateMutability": "view",
      "type": "function"
    }
  ],
  "bytecode": "0x608060405234801561001057600080fd5b5061395f806100206000396000f3fe608060405234801561001057600080fd5b50600436106100ea5760003560e01c8063a8237a931161008c578063d65ab5f211610066578063d65ab5f214610261578063e0786c181461026b578063e0a5d89414610289578063fb8a9a0c146102b9576100ea565b8063a8237a93146101f7578063d37d55ca14610227578063d5d19df414610231576100ea565b80636c38f32d116100c85780636c38f32d1461015b5780637f5a96ae1461018b5780639284b80f146101bb57806394fd5e9d146101d9576100ea565b8063267729d1146100ef57806340d1230d1461010d5780635ae0dda91461013d575b600080fd5b6100f76102d7565b6040516101049190612729565b60405180910390f35b610127600480360381019061012291906127b7565b6107cb565b6040516101349190612add565b60405180910390f35b610145610aa4565b6040516101529190612b08565b60405180910390f35b610175600480360381019061017091906127b7565b610aad565b6040516101829190612b65565b60405180910390f35b6101a560048036038101906101a091906127b7565b610b5d565b6040516101b29190612df2565b60405180910390f35b6101c3610cf8565b6040516101d09190612e70565b60405180910390f35b6101e1610d4a565b6040516101ee9190612eed565b60405180910390f35b610211600480360381019061020c919061309e565b610fa7565b60405161021e91906131d4565b60405180910390f35b61022f611167565b005b61024b600480360381019061024691906127b7565b611179565b6040516102589190613531565b60405180910390f35b61026961135a565b005b610273611364565b60405161028091906135d1565b60405180910390f35b6102a3600480360381019061029e9190613618565b6113c0565b6040516102b091906136a7565b60405180910390f35b6102c161146e565b6040516102ce91906136d1565b60405180910390f35b6102df611a18565b6102e7611a45565b6040518060c001604052806001151515158152602001600015151515815260200160001515151581526020016000151515158152602001600015151515815260200160001515151581525081600060058110610346576103456136ec565b5b60200201819052506040518060c0016040528060011515151581526020016000151515158152602001600015151515815260200160001515151581526020016000151515158152602001600015151515815250816001600581106103ad576103ac6136ec565b5b60200201819052506040518060c001604052806001151515158152602001600115151515815260200160001515151581526020016000151515158152602001600015151515815260200160001515151581525081600260058110610414576104136136ec565b5b60200201819052506040518060c00160405280600115151515815260200160011515151581526020016001151515158152602001600015151515815260200160001515151581526020016000151515158152508160036005811061047b5761047a6136ec565b5b60200201819052506040518060c0016040528060011515151581526020016001151515158152602001600115151515815260200160011515151581526020016000151515158152602001600015151515815250816004600581106104e2576104e16136ec565b5b60200201819052506104f2611a45565b6040518060c001604052806000151515158152602001600015151515815260200160001515151581526020016000151515158152602001600115151515815260200160011515151581525081600060058110610551576105506136ec565b5b60200201819052506040518060c0016040528060001515151581526020016000151515158152602001600015151515815260200160001515151581526020016000151515158152602001600115151515815250816001600581106105b8576105b76136ec565b5b60200201819052506040518060c00160405280600015151515815260200160001515151581526020016000151515158152602001600015151515815260200160001515151581526020016001151515158152508160026005811061061f5761061e6136ec565b5b60200201819052506040518060c001604052806000151515158152602001600015151515815260200160001515151581526020016000151515158152602001600015151515815260200160011515151581525081600360058110610686576106856136ec565b5b60200201819052506040518060c0016040528060001515151581526020016000151515158152602001600015151515815260200160001515151581526020016000151515158152602001600115151515815250816004600581106106ed576106ec6136ec565b5b60200201819052506106fd611a18565b60005b60058160ff1610156107c157838160ff1660058110610722576107216136ec565b5b6020020151828260ff166005811061073d5761073c6136ec565b5b6020020151600060028110610755576107546136ec565b5b6020020181905250828160ff1660058110610773576107726136ec565b5b6020020151828260ff166005811061078e5761078d6136ec565b5b60200201516001600281106107a6576107a56136ec565b5b602002018190525080806107b99061374a565b915050610700565b5080935050505090565b6107d3611a72565b600260008373ffffffffffffffffffffffffffffffffffffffff1673ffffffffffffffffffffffffffffffffffffffff1681526020019081526020016000206040518060c001604052908160008201600380602002604051908101604052809291906000905b828210156108b4578382016006806020026040519081016040528092919082600680156108a0576020028201916000905b82829054906101000a900460ff1615158152602001906001019060208260000104928301926001038202915080841161086a5790505b505050505081526020019060010190610839565b50505050815260200160038201600380602002604051908101604052809291906000905b828210156109535783820160068060200260405190810160405280929190826006801561093f576020028201916000905b82829054906101000a900460ff161515815260200190600101906020826000010492830192600103820291508084116109095790505b5050505050815260200190600101906108d8565b50505050815260200160068201600380602002604051908101604052809291906000905b828210156109f2578382016003806020026040519081016040528092919082600380156109de576020028201916000905b82829054906101000a900460ff161515815260200190600101906020826000010492830192600103820291508084116109a85790505b505050505081526020019060010190610977565b5050505081526020016009820160009054906101000a900460000b60000b60000b81526020016009820160019054906101000a900460ff16151515158152602001600a8201600280602002604051908101604052809291908260028015610a94576020028201916000905b82829054906101000a900460ff1660ff1681526020019060010190602082600001049283019260010382029150808411610a5d5790505b5050505050815250509050919050565b6000600e905090565b610ab5611ac4565b600360008373ffffffffffffffffffffffffffffffffffffffff1673ffffffffffffffffffffffffffffffffffffffff1681526020019081526020016000206040518060600160405290816000820160009054906101000a900460ff1660ff1660ff1681526020016000820160019054906101000a900460ff1660ff1660ff1681526020016000820160029054906101000a900460ff1660ff1660ff16815250509050919050565b610b65611aee565b6000808373ffffffffffffffffffffffffffffffffffffffff1673ffffffffffffffffffffffffffffffffffffffff16815260200190815260200160002060405180604001604052908160008201600680602002604051908101604052809291906000905b82821015610c7e57838260060201600680602002604051908101604052809291906000905b82821015610c6b57838201600680602002604051908101604052809291908260068015610c57576020028201916000905b82829054906101000a900460ff1660ff1681526020019060010190602082600001049283019260010382029150808411610c205790505b505050505081526020019060010190610bef565b5050505081526020019060010190610bca565b50505050815260200160248201600480602002604051908101604052809291908260048015610ce8576020028201916000905b82829054906101000a900460ff1660ff1681526020019060010190602082600001049283019260010382029150808411610cb15790505b5050505050815250509050919050565b610d00611b14565b6040518060c00160405280600460ff168152602001600460ff168152602001600460ff168152602001600460ff168152602001600460ff168152602001600460ff16815250905090565b610d52611b36565b610d5a611b36565b6040518060c00160405280600160ff168152602001600160ff168152602001600060ff168152602001600160ff168152602001600060ff168152602001600060ff1681525081600060068110610db357610db26136ec565b5b60200201819052506040518060c00160405280600160ff168152602001600060ff168152602001600060ff168152602001600160ff168152602001600060ff168152602001600060ff1681525081600160068110610e1457610e136136ec565b5b60200201819052506040518060c00160405280600160ff168152602001600060ff168152602001600160ff168152602001600060ff168152602001600160ff168152602001600060ff1681525081600260068110610e7557610e746136ec565b5b60200201819052506040518060c00160405280600160ff168152602001600160ff168152602001600060ff168152602001600160ff168152602001600060ff168152602001600060ff1681525081600360068110610ed657610ed56136ec565b5b60200201819052506040518060c00160405280600160ff168152602001600060ff168152602001600160ff168152602001600060ff168152602001600160ff168152602001600060ff1681525081600460068110610f3757610f366136ec565b5b60200201819052506040518060c00160405280600160ff168152602001600160ff168152602001600160ff168152602001600060ff168152602001600160ff168152602001600060ff1681525081600560068110610f9857610f976136ec565b5b60200201819052508091505090565b60606000805b84518163ffffffff161015610fdd578180610fc790613774565b9250508080610fd590613774565b915050610fad565b5060005b83518163ffffffff161015611011578180610ffb90613774565b925050808061100990613774565b915050610fe1565b5060008163ffffffff1667ffffffffffffffff81111561103457611033612f1f565b5b6040519080825280602002602001820160405280156110625781602001602082028036833780820191505090505b50905060005b85518163ffffffff1610156110de57858163ffffffff16815181106110905761108f6136ec565b5b6020026020010151828263ffffffff16815181106110b1576110b06136ec565b5b602002602001019063ffffffff16908163ffffffff168152505080806110d690613774565b915050611068565b506000855190505b8263ffffffff1681101561115b578486518261110291906137a1565b81518110611113576111126136ec565b5b602002602001015182828151811061112e5761112d6136ec565b5b602002602001019063ffffffff16908163ffffffff16815250508080611153906137d5565b9150506110e6565b50809250505092915050565b61116f611496565b611177611498565b565b611181611b63565b600160008373ffffffffffffffffffffffffffffffffffffffff1673ffffffffffffffffffffffffffffffffffffffff16815260200190815260200160002060405180606001604052908160008201600680602002604051908101604052809291906000905b828210156112635783820160108060200260405190810160405280929190826010801561124f576020028201916000905b82829054906101000a900460ff1660ff16815260200190600101906020826000010492830192600103820291508084116112185790505b5050505050815260200190600101906111e7565b50505050815260200160068201600a806020026040519081016040528092919082600a80156112cd576020028201916000905b82829054906101000a900460ff1660ff16815260200190600101906020826000010492830192600103820291508084116112965790505b5050505050815260200160078201600680602002604051908101604052809291906000905b8282101561134b57838260060201600680602002604051908101604052809291908260068015611337576020028201915b815481526020019060010190808311611323575b5050505050815260200190600101906112f2565b50505050815250509050919050565b611362611496565b565b61136c611b96565b6040518060e00160405280600260ff168152602001600560ff168152602001600860ff168152602001600b60ff168152602001600e60ff168152602001601160ff168152602001601460ff16815250905090565b6113c8611bb8565b6113d0611bb8565b60005b6002811015611464576001600682866113ec919061381e565b423360405160200161140093929190613892565b6040516020818303038152906040528051906020012060001c61142391906138f8565b61142d919061381e565b8282600281106114405761143f6136ec565b5b602002019060ff16908160ff1681525050808061145c906137d5565b9150506113d3565b5080915050919050565b60007ffffffffffffffffffffffffffffffffffffffffffffffffffffffffffffffffa905090565b565b6001600460003373ffffffffffffffffffffffffffffffffffffffff1673ffffffffffffffffffffffffffffffffffffffff16815260200190815260200160002060006101000a81548160ff0219169083151502179055506114f8611bda565b806000803373ffffffffffffffffffffffffffffffffffffffff1673ffffffffffffffffffffffffffffffffffffffff168152602001908152602001600020600001906006611548929190611c07565b506040518060800160405280600060ff168152602001600060ff168152602001600060ff168152602001600060ff168152506000803373ffffffffffffffffffffffffffffffffffffffff1673ffffffffffffffffffffffffffffffffffffffff1681526020019081526020016000206024019060046115c9929190611c57565b506115d2611cf1565b80600160003373ffffffffffffffffffffffffffffffffffffffff1673ffffffffffffffffffffffffffffffffffffffff168152602001908152602001600020600001906006611623929190611d1e565b5061162c611d6c565b80600160003373ffffffffffffffffffffffffffffffffffffffff1673ffffffffffffffffffffffffffffffffffffffff16815260200190815260200160002060060190600a61167d929190611d8f565b50611686611e29565b80600160003373ffffffffffffffffffffffffffffffffffffffff1673ffffffffffffffffffffffffffffffffffffffff1681526020019081526020016000206007019060066116d7929190611e56565b506116e0611ea6565b80600260003373ffffffffffffffffffffffffffffffffffffffff1673ffffffffffffffffffffffffffffffffffffffff168152602001908152602001600020600001906003611731929190611ed3565b5061173a611ea6565b80600260003373ffffffffffffffffffffffffffffffffffffffff1673ffffffffffffffffffffffffffffffffffffffff16815260200190815260200160002060030190600361178b929190611ed3565b50611794611f21565b80600260003373ffffffffffffffffffffffffffffffffffffffff1673ffffffffffffffffffffffffffffffffffffffff1681526020019081526020016000206006019060036117e5929190611f4e565b506000600260003373ffffffffffffffffffffffffffffffffffffffff1673ffffffffffffffffffffffffffffffffffffffff16815260200190815260200160002060090160006101000a81548160ff021916908360000b60ff1602179055506000600260003373ffffffffffffffffffffffffffffffffffffffff1673ffffffffffffffffffffffffffffffffffffffff16815260200190815260200160002060090160016101000a81548160ff0219169083151502179055506118a8611bb8565b80600260003373ffffffffffffffffffffffffffffffffffffffff1673ffffffffffffffffffffffffffffffffffffffff168152602001908152602001600020600a019060026118f9929190611f9c565b506000600360003373ffffffffffffffffffffffffffffffffffffffff1673ffffffffffffffffffffffffffffffffffffffff16815260200190815260200160002060000160006101000a81548160ff021916908360ff1602179055506000600360003373ffffffffffffffffffffffffffffffffffffffff1673ffffffffffffffffffffffffffffffffffffffff16815260200190815260200160002060000160016101000a81548160ff021916908360ff1602179055506000600360003373ffffffffffffffffffffffffffffffffffffffff1673ffffffffffffffffffffffffffffffffffffffff16815260200190815260200160002060000160026101000a81548160ff021916908360ff1602179055505050505050505050565b6040518060a001604052806005905b611a2f612036565b815260200190600190039081611a275790505090565b6040518060a001604052806005905b611a5c612063565b815260200190600190039081611a545790505090565b6040518060c00160405280611a85611ea6565b8152602001611a92611ea6565b8152602001611a9f611f21565b81526020016000800b8152602001600015158152602001611abe611bb8565b81525090565b6040518060600160405280600060ff168152602001600060ff168152602001600060ff1681525090565b6040518060400160405280611b01611bda565b8152602001611b0e612085565b81525090565b6040518060c00160405280600690602082028036833780820191505090505090565b6040518060c001604052806006905b611b4d611b14565b815260200190600190039081611b455790505090565b6040518060600160405280611b76611cf1565b8152602001611b83611d6c565b8152602001611b90611e29565b81525090565b6040518060e00160405280600790602082028036833780820191505090505090565b6040518060400160405280600290602082028036833780820191505090505090565b6040518060c001604052806006905b611bf1611b36565b815260200190600190039081611be95790505090565b82600680028101928215611c46579160200282015b82811115611c4557825182906006611c359291906120a7565b5091602001919060060190611c1c565b5b509050611c5391906120f5565b5090565b826004601f01602090048101928215611ce05791602002820160005b83821115611cb157835183826101000a81548160ff021916908360ff1602179055509260200192600101602081600001049283019260010302611c73565b8015611cde5782816101000a81549060ff0219169055600101602081600001049283019260010302611cb1565b505b509050611ced9190612119565b5090565b6040518060c001604052806006905b611d08612136565b815260200190600190039081611d005790505090565b8260068101928215611d5b579160200282015b82811115611d5a57825182906010611d4a929190612159565b5091602001919060010190611d31565b5b509050611d6891906121f3565b5090565b604051806101400160405280600a90602082028036833780820191505090505090565b82600a601f01602090048101928215611e185791602002820160005b83821115611de957835183826101000a81548160ff021916908360ff1602179055509260200192600101602081600001049283019260010302611dab565b8015611e165782816101000a81549060ff0219169055600101602081600001049283019260010302611de9565b505b509050611e259190612119565b5090565b6040518060c001604052806006905b611e40612217565b815260200190600190039081611e385790505090565b82600680028101928215611e95579160200282015b82811115611e9457825182906006611e84929190612239565b5091602001919060060190611e6b565b5b509050611ea29190612279565b5090565b60405180606001604052806003905b611ebd612063565b815260200190600190039081611eb55790505090565b8260038101928215611f10579160200282015b82811115611f0f57825182906006611eff92919061229d565b5091602001919060010190611ee6565b5b509050611f1d9190612336565b5090565b60405180606001604052806003905b611f3861235a565b815260200190600190039081611f305790505090565b8260038101928215611f8b579160200282015b82811115611f8a57825182906003611f7a92919061237c565b5091602001919060010190611f61565b5b509050611f989190612415565b5090565b826002601f016020900481019282156120255791602002820160005b83821115611ff657835183826101000a81548160ff021916908360ff1602179055509260200192600101602081600001049283019260010302611fb8565b80156120235782816101000a81549060ff0219169055600101602081600001049283019260010302611ff6565b505b5090506120329190612119565b5090565b60405180604001604052806002905b61204d612063565b8152602001906001900390816120455790505090565b6040518060c00160405280600690602082028036833780820191505090505090565b6040518060800160405280600490602082028036833780820191505090505090565b82600681019282156120e4579160200282015b828111156120e3578251829060066120d3929190612439565b50916020019190600101906120ba565b5b5090506120f191906124d3565b5090565b5b80821115612115576000818161210c91906124f7565b506006016120f6565b5090565b5b8082111561213257600081600090555060010161211a565b5090565b604051806102000160405280601090602082028036833780820191505090505090565b826010601f016020900481019282156121e25791602002820160005b838211156121b357835183826101000a81548160ff021916908360ff1602179055509260200192600101602081600001049283019260010302612175565b80156121e05782816101000a81549060ff02191690556001016020816000010492830192600103026121b3565b505b5090506121ef9190612119565b5090565b5b80821115612213576000818161220a919061250a565b506001016121f4565b5090565b6040518060c00160405280600690602082028036833780820191505090505090565b8260068101928215612268579160200282015b8281111561226757825182559160200191906001019061224c565b5b5090506122759190612119565b5090565b5b8082111561229957600081816122909190612511565b5060060161227a565b5090565b826006601f016020900481019282156123255791602002820160005b838211156122f657835183826101000a81548160ff02191690831515021790555092602001926001016020816000010492830192600103026122b9565b80156123235782816101000a81549060ff02191690556001016020816000010492830192600103026122f6565b505b5090506123329190612119565b5090565b5b80821115612356576000818161234d9190612524565b50600101612337565b5090565b6040518060600160405280600390602082028036833780820191505090505090565b826003601f016020900481019282156124045791602002820160005b838211156123d557835183826101000a81548160ff0219169083151502179055509260200192600101602081600001049283019260010302612398565b80156124025782816101000a81549060ff02191690556001016020816000010492830192600103026123d5565b505b5090506124119190612119565b5090565b5b80821115612435576000818161242c919061252b565b50600101612416565b5090565b826006601f016020900481019282156124c25791602002820160005b8382111561249357835183826101000a81548160ff021916908360ff1602179055509260200192600101602081600001049283019260010302612455565b80156124c05782816101000a81549060ff0219169055600101602081600001049283019260010302612493565b505b5090506124cf9190612119565b5090565b5b808211156124f357600081816124ea9190612532565b506001016124d4565b5090565b50806006019061250791906124d3565b50565b5060009055565b5080600601906125219190612119565b50565b5060009055565b5060009055565b5060009055565b600060059050919050565b600081905092915050565b6000819050919050565b600060029050919050565b600081905092915050565b6000819050919050565b600060069050919050565b600081905092915050565b6000819050919050565b60008115159050919050565b6125ae81612599565b82525050565b60006125c083836125a5565b60208301905092915050565b6000602082019050919050565b6125e281612579565b6125ec8184612584565b92506125f78261258f565b8060005b8381101561262857815161260f87826125b4565b965061261a836125cc565b9250506001810190506125fb565b505050505050565b600061263c83836125d9565b60c08301905092915050565b6000602082019050919050565b61265e81612559565b6126688184612564565b92506126738261256f565b8060005b838110156126a457815161268b8782612630565b965061269683612648565b925050600181019050612677565b505050505050565b60006126b88383612655565b6101808301905092915050565b6000602082019050919050565b6126db81612539565b6126e58184612544565b92506126f08261254f565b8060005b8381101561272157815161270887826126ac565b9650612713836126c5565b9250506001810190506126f4565b505050505050565b60006107808201905061273f60008301846126d2565b92915050565b6000604051905090565b600080fd5b600080fd5b600073ffffffffffffffffffffffffffffffffffffffff82169050919050565b600061278482612759565b9050919050565b61279481612779565b811461279f57600080fd5b50565b6000813590506127b18161278b565b92915050565b6000602082840312156127cd576127cc61274f565b5b60006127db848285016127a2565b91505092915050565b600060039050919050565b600081905092915050565b6000819050919050565b6000602082019050919050565b61281a816127e4565b61282481846127ef565b925061282f826127fa565b8060005b838110156128605781516128478782612630565b965061285283612804565b925050600181019050612833565b505050505050565b600060039050919050565b600081905092915050565b6000819050919050565b600060039050919050565b600081905092915050565b6000819050919050565b6000602082019050919050565b6128be81612888565b6128c88184612893565b92506128d38261289e565b8060005b838110156129045781516128eb87826125b4565b96506128f6836128a8565b9250506001810190506128d7565b505050505050565b600061291883836128b5565b60608301905092915050565b6000602082019050919050565b61293a81612868565b6129448184612873565b925061294f8261287e565b8060005b83811015612980578151612967878261290c565b965061297283612924565b925050600181019050612953565b505050505050565b60008160000b9050919050565b61299e81612988565b82525050565b600060029050919050565b600081905092915050565b6000819050919050565b600060ff82169050919050565b6129da816129c4565b82525050565b60006129ec83836129d1565b60208301905092915050565b6000602082019050919050565b612a0e816129a4565b612a1881846129af565b9250612a23826129ba565b8060005b83811015612a54578151612a3b87826129e0565b9650612a46836129f8565b925050600181019050612a27565b505050505050565b61062082016000820151612a736000850182612811565b506020820151612a87610240850182612811565b506040820151612a9b610480850182612931565b506060820151612aaf6105a0850182612995565b506080820151612ac36105c08501826125a5565b5060a0820151612ad76105e0850182612a05565b50505050565b600061062082019050612af36000830184612a5c565b92915050565b612b02816129c4565b82525050565b6000602082019050612b1d6000830184612af9565b92915050565b606082016000820151612b3960008501826129d1565b506020820151612b4c60208501826129d1565b506040820151612b5f60408501826129d1565b50505050565b6000606082019050612b7a6000830184612b23565b92915050565b600060069050919050565b600081905092915050565b6000819050919050565b600060069050919050565b600081905092915050565b6000819050919050565b600060069050919050565b600081905092915050565b6000819050919050565b6000602082019050919050565b612bf681612bc0565b612c008184612bcb565b9250612c0b82612bd6565b8060005b83811015612c3c578151612c2387826129e0565b9650612c2e83612be0565b925050600181019050612c0f565b505050505050565b6000612c508383612bed565b60c08301905092915050565b6000602082019050919050565b612c7281612ba0565b612c7c8184612bab565b9250612c8782612bb6565b8060005b83811015612cb8578151612c9f8782612c44565b9650612caa83612c5c565b925050600181019050612c8b565b505050505050565b6000612ccc8383612c69565b6104808301905092915050565b6000602082019050919050565b612cef81612b80565b612cf98184612b8b565b9250612d0482612b96565b8060005b83811015612d35578151612d1c8782612cc0565b9650612d2783612cd9565b925050600181019050612d08565b505050505050565b600060049050919050565b600081905092915050565b6000819050919050565b6000602082019050919050565b612d7381612d3d565b612d7d8184612d48565b9250612d8882612d53565b8060005b83811015612db9578151612da087826129e0565b9650612dab83612d5d565b925050600181019050612d8c565b505050505050565b611b8082016000820151612dd86000850182612ce6565b506020820151612dec611b00850182612d6a565b50505050565b6000611b8082019050612e086000830184612dc1565b92915050565b600081905092915050565b612e2281612bc0565b612e2c8184612e0e565b9250612e3782612bd6565b8060005b83811015612e68578151612e4f87826129e0565b9650612e5a83612be0565b925050600181019050612e3b565b505050505050565b600060c082019050612e856000830184612e19565b92915050565b600081905092915050565b612e9f81612ba0565b612ea98184612e8b565b9250612eb482612bb6565b8060005b83811015612ee5578151612ecc8782612c44565b9650612ed783612c5c565b925050600181019050612eb8565b505050505050565b600061048082019050612f036000830184612e96565b92915050565b600080fd5b6000601f19601f8301169050919050565b7f4e487b7100000000000000000000000000000000000000000000000000000000600052604160045260246000fd5b612f5782612f0e565b810181811067ffffffffffffffff82111715612f7657612f75612f1f565b5b80604052505050565b6000612f89612745565b9050612f958282612f4e565b919050565b600067ffffffffffffffff821115612fb557612fb4612f1f565b5b602082029050602081019050919050565b600080fd5b600063ffffffff82169050919050565b612fe481612fcb565b8114612fef57600080fd5b50565b60008135905061300181612fdb565b92915050565b600061301a61301584612f9a565b612f7f565b9050808382526020820190506020840283018581111561303d5761303c612fc6565b5b835b8181101561306657806130528882612ff2565b84526020840193505060208101905061303f565b5050509392505050565b600082601f83011261308557613084612f09565b5b8135613095848260208601613007565b91505092915050565b600080604083850312156130b5576130b461274f565b5b600083013567ffffffffffffffff8111156130d3576130d2612754565b5b6130df85828601613070565b925050602083013567ffffffffffffffff811115613100576130ff612754565b5b61310c85828601613070565b9150509250929050565b600081519050919050565b600082825260208201905092915050565b6000819050602082019050919050565b61314b81612fcb565b82525050565b600061315d8383613142565b60208301905092915050565b6000602082019050919050565b600061318182613116565b61318b8185613121565b935061319683613132565b8060005b838110156131c75781516131ae8882613151565b97506131b983613169565b92505060018101905061319a565b5085935050505092915050565b600060208201905081810360008301526131ee8184613176565b905092915050565b600060069050919050565b600081905092915050565b6000819050919050565b600060109050919050565b600081905092915050565b6000819050919050565b6000602082019050919050565b61324c81613216565b6132568184613221565b92506132618261322c565b8060005b8381101561329257815161327987826129e0565b965061328483613236565b925050600181019050613265565b505050505050565b60006132a68383613243565b6102008301905092915050565b6000602082019050919050565b6132c9816131f6565b6132d38184613201565b92506132de8261320c565b8060005b8381101561330f5781516132f6878261329a565b9650613301836132b3565b9250506001810190506132e2565b505050505050565b6000600a9050919050565b600081905092915050565b6000819050919050565b6000602082019050919050565b61334d81613317565b6133578184613322565b92506133628261332d565b8060005b8381101561339357815161337a87826129e0565b965061338583613337565b925050600181019050613366565b505050505050565b600060069050919050565b600081905092915050565b6000819050919050565b600060069050919050565b600081905092915050565b6000819050919050565b6000819050919050565b6133ee816133db565b82525050565b600061340083836133e5565b60208301905092915050565b6000602082019050919050565b613422816133bb565b61342c81846133c6565b9250613437826133d1565b8060005b8381101561346857815161344f87826133f4565b965061345a8361340c565b92505060018101905061343b565b505050505050565b600061347c8383613419565b60c08301905092915050565b6000602082019050919050565b61349e8161339b565b6134a881846133a6565b92506134b3826133b1565b8060005b838110156134e45781516134cb8782613470565b96506134d683613488565b9250506001810190506134b7565b505050505050565b6111c08201600082015161350360008501826132c0565b506020820151613517610c00850182613344565b50604082015161352b610d40850182613495565b50505050565b60006111c08201905061354760008301846134ec565b92915050565b600060079050919050565b600081905092915050565b6000819050919050565b6000602082019050919050565b6135838161354d565b61358d8184613558565b925061359882613563565b8060005b838110156135c95781516135b087826129e0565b96506135bb8361356d565b92505060018101905061359c565b505050505050565b600060e0820190506135e6600083018461357a565b92915050565b6135f5816133db565b811461360057600080fd5b50565b600081359050613612816135ec565b92915050565b60006020828403121561362e5761362d61274f565b5b600061363c84828501613603565b91505092915050565b600081905092915050565b613659816129a4565b6136638184613645565b925061366e826129ba565b8060005b8381101561369f57815161368687826129e0565b9650613691836129f8565b925050600181019050613672565b505050505050565b60006040820190506136bc6000830184613650565b92915050565b6136cb81612988565b82525050565b60006020820190506136e660008301846136c2565b92915050565b7f4e487b7100000000000000000000000000000000000000000000000000000000600052603260045260246000fd5b7f4e487b7100000000000000000000000000000000000000000000000000000000600052601160045260246000fd5b6000613755826129c4565b915060ff8214156137695761376861371b565b5b600182019050919050565b600061377f82612fcb565b915063ffffffff8214156137965761379561371b565b5b600182019050919050565b60006137ac826133db565b91506137b7836133db565b9250828210156137ca576137c961371b565b5b828203905092915050565b60006137e0826133db565b91507fffffffffffffffffffffffffffffffffffffffffffffffffffffffffffffffff8214156138135761381261371b565b5b600182019050919050565b6000613829826133db565b9150613834836133db565b9250827fffffffffffffffffffffffffffffffffffffffffffffffffffffffffffffffff038211156138695761386861371b565b5b828201905092915050565b61387d816133db565b82525050565b61388c81612779565b82525050565b60006060820190506138a76000830186613874565b6138b46020830185613874565b6138c16040830184613883565b949350505050565b7f4e487b7100000000000000000000000000000000000000000000000000000000600052601260045260246000fd5b6000613903826133db565b915061390e836133db565b92508261391e5761391d6138c9565b5b82820690509291505056fea2646970667358221220880a7de2d87575e2f1b737ad08893499c7c6c11c22980828cd48701f0f803a0764736f6c634300080b0033",
  "immutableReferences": {},
  "source": "// SPDX-License-Identifier: MIT\npragma solidity 0.8.11;\n\ncontract HydraEngine {\n  enum Artifacts {artifactQ, artifactW, artifactE, artifactR, artifactT, artifactY}\n  enum Components {componentA, componentS, componentD, componentF, componentG, componentH}\n  enum Treasures {treasureZ, treasureX, treasureC, treasureV, treasureB, treasureN}\n  enum Tools {toolJ, toolK, toolL}\n\n  struct Map {\n    uint8[6][6][6] regions;\n    uint8[4] eventInRegions;\n  }\n\n  struct Workshop {\n    uint8[16][6] artifactFragments;\n    uint8[10] wastebasket;\n    uint[6][6] linkPaths;\n  }\n\n  struct Actor {\n    // 3[0]->favorited; 3[1]->activated; 3[2]->used\n    bool[6][3] artifactsStates;\n    bool[6][3] treasuresStates;\n    bool[3][3] toolsStates;\n    int8 hitPoints;\n    bool isOutdoorOrInWorkshop;\n    uint8[2] inMapIndex;\n  }\n\n  struct TimeTrack {\n    uint8 spentFreedays;\n    uint8 handOfGodEnergy;\n    uint8 delayedDoomsday;\n  }\n\n  mapping(address => Map) private _mapOfAllPlayers; // player address => map data\n  mapping(address => Workshop) private _workshopOfAllPlayers; // player address => workshop data\n  mapping(address => Actor) private _actorOfAllPlayers; // player address => actor data\n  mapping(address => TimeTrack) private _timeTrackOfAllPlayers; // player address => timeTrack data\n  mapping(address => bool) private _isGameOver; // player address => is game end\n\n  constructor() {\n    \n  }\n\n  modifier isGameOver() {\n      require(\n          _isGameOver[msg.sender] == false,\n          \"GAME OVER\"\n      );\n      _;\n  }\n\n  function combination(uint32[] memory arrayA, uint32[] memory arrayB) public pure returns (uint32[] memory) {\n    uint32 arrayCount;\n    for (uint32 i; i < arrayA.length; i++) {\n      arrayCount++;\n    }\n    for (uint32 i; i < arrayB.length; i++) {\n      arrayCount++;\n    }\n\n    uint32[] memory tempArray = new uint32[](arrayCount);\n    for (uint32 i; i < arrayA.length; i++) {\n      tempArray[i] = arrayA[i];\n    }\n    for (uint256 i = arrayA.length; i < arrayCount; i++) {\n      tempArray[i] = arrayB[i - arrayA.length];\n    }\n    return tempArray;\n  }\n\n  function createMemoryArray(uint32 element) private pure returns (uint32[] memory) {\n    uint32[] memory memoryArray = new uint32[](1);\n    memoryArray[1] = element;\n    return memoryArray;\n  }\n\n  // function moveActorTo(bool isOutdoorOrInWorkshop, uint8 inMapRegionIndex) external isGameOver returns (uint32[] memory) {\n  //   bool _isOutdoorOrInWorkshop = _actorOfAllPlayers[msg.sender].isOutdoorOrInWorkshop;\n  //   if (_isOutdoorOrInWorkshop == isOutdoorOrInWorkshop) {\n  //     uint8[2] memory _inMapIndex = _actorOfAllPlayers[msg.sender].inMapIndex;\n  //     require(\n  //       _inMapIndex[0] != inMapRegionIndex,\n  //       \"invalid move actor\"\n  //     );\n  //     uint32[] memory eraseAllProgressMarksRCode = eraseAllProgressMarksFrom(_inMapIndex[0]);\n  //     uint32[] memory usedOneDayRCode = usedOneDay();\n  //     return combination(usedOneDayRCode, eraseAllProgressMarksRCode);\n  //   }\n  //   // move workshop\n  //   _actorOfAllPlayers[msg.sender].isOutdoorOrInWorkshop = isOutdoorOrInWorkshop;\n  //   if (isOutdoorOrInWorkshop == true) {\n  //     _actorOfAllPlayers[msg.sender].inMapIndex[0] = inMapRegionIndex;\n  //     _actorOfAllPlayers[msg.sender].inMapIndex[1] = 0;\n  //     uint32[] memory usedOneDayRCode = usedOneDay();\n  //     return combination(usedOneDayRCode, createMemoryArray(50400));\n  //   } else {\n  //     uint32[] memory usedOneDayRCode = usedOneDay();\n  //     uint32[] memory eraseAllProgressMarksRCode = eraseAllProgressMarksFrom(_actorOfAllPlayers[msg.sender][0]);\n  //     uint32[] memory happendRCode = combination(usedOneDayRCode, eraseAllProgressMarksRCode);\n  //     return combination(happendRCode, createMemoryArray(50500));\n  //   }\n  // }\n\n  // function eraseAllProgressMarksFrom(uint8 inMapRegionIndex) private returns (uint32[] memory) {\n  //   if (inMapRegionIndex == 0) {\n  //     return new uint32[]();\n  //   }\n  //   uint8[6][6] memory boxes;\n  //   _mapOfAllPlayers[msg.sender].regions[inMapRegionIndex] = boxes;\n  //   return createMemoryArray(50300 + uint32(inMapRegionIndex));\n  // }\n\n  // function usedOneDay() private returns (uint32[] memory) {\n  //   _actorOfAllPlayers[msg.sender].spentFreedays += 1;\n\n  //   string[] memory checkDoomsdayRCode = checkDoomsday();\n  //   if (checkDoomsdayRCode != []) {\n  //     return combination(checkDoomsdayRCode, createMemoryArray(20000));\n  //   }\n\n  //   return createMemoryArray(20000);\n  // }\n\n  function mapEventHappend() private returns (uint32[] memory) {\n    uint8 spentFreedays = _timeTrackOfAllPlayers[msg.sender].spentFreedays;\n\n    uint8[7] memory _eventdaysIndex = eventdaysIndex();\n    for (uint8 i; i < 7; i++) {\n      if (_eventdaysIndex[i] == spentFreedays) {\n        // TODO: \n        uint8[4] memory randomEvents = [1, 2, 3, 4];\n        _mapOfAllPlayers[msg.sender].eventInRegions = randomEvents;\n        uint32[] memory mapEventHappendRCode = new uint32[](4);\n        for (uint32 j; j < 4; j++) {\n          mapEventHappendRCode[j] = 50200 + j * 10 + uint32(randomEvents[j]);\n        }\n        return mapEventHappendRCode;\n      }\n    }\n    uint32[] memory emptyUint32Array;\n    return emptyUint32Array;\n  }\n\n  function checkDoomsday() private returns (uint32[] memory) {\n    TimeTrack memory timeTrack = _timeTrackOfAllPlayers[msg.sender];\n    uint8 _doomsdayCountdown = doomsdayCountdown();\n\n    if (timeTrack.spentFreedays - timeTrack.delayedDoomsday > _doomsdayCountdown) {\n      uint32[] memory gameOverRCode = gameOver();\n      return combination(gameOverRCode, createMemoryArray(20100));\n    }\n    uint32[] memory emptyUint32Array;\n    return emptyUint32Array;\n  }\n\n  function gameOver() private returns (uint32[] memory) {\n    _isGameOver[msg.sender] = true;\n    return createMemoryArray(10000);\n  }\n\n  function mockRandomNumbers(uint256 randomValue) public view returns (uint8[2] memory randomNumbers) {\n    uint8[2] memory expandedValues;\n    for (uint256 i; i < 2; i++) {\n        expandedValues[i] = uint8(uint256(keccak256(abi.encode(randomValue + i, block.timestamp, msg.sender))) % 6 + 1);\n    }\n    return expandedValues;\n  }\n  \n  function startGame() external {\n    initGame();\n  }\n\n  function reStartGame() external {\n    initGame();\n    reloadGameData();\n  }\n\n  function initGame() private {\n\n  }\n\n  function reloadGameData() private {\n    // raload game\n    _isGameOver[msg.sender] = true;\n    // raload Map - regions\n    uint8[6][6][6] memory regions;\n    _mapOfAllPlayers[msg.sender].regions = regions;\n    // reload Map - eventInRegions\n    _mapOfAllPlayers[msg.sender].eventInRegions = [0, 0, 0, 0];\n    // reload Workshop - artifactFragments\n    uint8[16][6] memory artifactFragments;\n    _workshopOfAllPlayers[msg.sender].artifactFragments = artifactFragments;\n    // reload Workshop - wastebasket\n    uint8[10] memory wastebasket;\n    _workshopOfAllPlayers[msg.sender].wastebasket = wastebasket;\n    // reload Workshop - linkPaths\n    uint[6][6] memory linkPaths;\n    _workshopOfAllPlayers[msg.sender].linkPaths = linkPaths;\n    // reload Actor - artifacts treasures tools states\n    bool[6][3] memory artifactsStates;\n    _actorOfAllPlayers[msg.sender].artifactsStates = artifactsStates;\n\n    bool[6][3] memory treasuresStates;\n    _actorOfAllPlayers[msg.sender].treasuresStates = treasuresStates;\n\n    bool[3][3] memory toolsStates;\n    _actorOfAllPlayers[msg.sender].toolsStates = toolsStates;\n    // reload Actor - hitPoints\n    _actorOfAllPlayers[msg.sender].hitPoints = 0;\n    // reload Actor - location\n    _actorOfAllPlayers[msg.sender].isOutdoorOrInWorkshop = false;\n    uint8[2] memory inMapIndex;\n    _actorOfAllPlayers[msg.sender].inMapIndex = inMapIndex;\n    // reload TimeTrack - \n    _timeTrackOfAllPlayers[msg.sender].spentFreedays = 0;\n    _timeTrackOfAllPlayers[msg.sender].handOfGodEnergy = 0;\n    _timeTrackOfAllPlayers[msg.sender].delayedDoomsday = 0;\n  }\n\n  function allSpentTimes() public pure returns (uint8[6][6] memory) {\n    uint8[6][6] memory _allSpentTimes;\n    _allSpentTimes[0] = [1, 1, 0, 1, 0, 0];\n    _allSpentTimes[1] = [1, 0, 0, 1, 0, 0];\n    _allSpentTimes[2] = [1, 0, 1, 0, 1, 0];\n    _allSpentTimes[3] = [1, 1, 0, 1, 0, 0];\n    _allSpentTimes[4] = [1, 0, 1, 0, 1, 0];\n    _allSpentTimes[5] = [1, 1, 1, 0, 1, 0];\n    return _allSpentTimes;\n  }\n\n  // [6]true->hit; 2[0]->ragdoll / 2[1]->actor; 5->Lvl\n  function combatHitDices() public pure returns (bool[6][2][5] memory) {\n    bool[6][5] memory ragdollHitDices;\n    ragdollHitDices[0] = [true, false, false, false, false, false];\n    ragdollHitDices[1] = [true, false, false, false, false, false];\n    ragdollHitDices[2] = [true, true, false, false, false, false];\n    ragdollHitDices[3] = [true, true, true, false, false, false];\n    ragdollHitDices[4] = [true, true, true, true, false, false];\n\n    bool[6][5] memory actorHitDices;\n    actorHitDices[0] = [false, false, false, false, true, true];\n    actorHitDices[1] = [false, false, false, false, false, true];\n    actorHitDices[2] = [false, false, false, false, false, true];\n    actorHitDices[3] = [false, false, false, false, false, true];\n    actorHitDices[4] = [false, false, false, false, false, true];\n\n    bool[6][2][5] memory _CombatHitDices;\n    for (uint8 i = 0; i < 5; i++) {\n      _CombatHitDices[i][0] = ragdollHitDices[i];\n      _CombatHitDices[i][1] = actorHitDices[i];\n    }\n    return _CombatHitDices;\n  }\n\n  function artifactCheckValue() public pure returns (uint8[6] memory) {\n    return [4, 4, 4, 4, 4, 4];\n  }\n\n  function deathHitPoint() public pure returns (int8) {\n    return -6;\n  }\n\n  function eventdaysIndex() public pure returns (uint8[7] memory) {\n    return [2, 5, 8, 11, 14, 17, 20];\n  }\n\n  function doomsdayCountdown() public pure returns (uint8) {\n    return 14;\n  }\n\n  function mapOfAllPlayers(address playerAddress) external view returns (Map memory) {\n    return _mapOfAllPlayers[playerAddress];\n  }\n\n  function workshopOfAllPlayers(address playerAddress) external view returns (Workshop memory) {\n    return _workshopOfAllPlayers[playerAddress];\n  }\n\n  function actorOfAllPlayers(address playerAddress) external view returns (Actor memory) {\n    return _actorOfAllPlayers[playerAddress];\n  }\n\n  function timeTrackOfAllPlayers(address playerAddress) external view returns (TimeTrack memory) {\n    return _timeTrackOfAllPlayers[playerAddress];\n  }\n\n}",
  "sourcePath": "/Users/karl/Documents/wubantu/Hydra-contract-truffle/contracts/HydraEngine.sol",
  "compiler": {
    "name": "solc",
    "version": "0.8.11+commit.d7f03943.Emscripten.clang"
  },
  "schemaVersion": "3.4.4",
  "updatedAt": "2022-01-17T15:14:13.577Z",
  "devdoc": {
    "kind": "dev",
    "methods": {},
    "version": 1
  },
  "userdoc": {
    "kind": "user",
    "methods": {},
    "version": 1
  }
}